{"abi":[{"type":"function","name":"addValidator","inputs":[{"name":"_projectId","type":"uint256","internalType":"uint256"},{"name":"_validator","type":"address","internalType":"address"}],"outputs":[],"stateMutability":"nonpayable"},{"type":"function","name":"getProject","inputs":[{"name":"_projectId","type":"uint256","internalType":"uint256"}],"outputs":[{"name":"client","type":"address","internalType":"address"},{"name":"artist","type":"address","internalType":"address"},{"name":"amount","type":"uint256","internalType":"uint256"},{"name":"released","type":"bool","internalType":"bool"},{"name":"validator","type":"address","internalType":"address"},{"name":"validated","type":"bool","internalType":"bool"},{"name":"milestoneCount","type":"uint256","internalType":"uint256"},{"name":"milestonesPaid","type":"uint256","internalType":"uint256"}],"stateMutability":"view"},{"type":"function","name":"projectCount","inputs":[],"outputs":[{"name":"","type":"uint256","internalType":"uint256"}],"stateMutability":"view"},{"type":"function","name":"projects","inputs":[{"name":"","type":"uint256","internalType":"uint256"}],"outputs":[{"name":"client","type":"address","internalType":"address"},{"name":"artist","type":"address","internalType":"address"},{"name":"amount","type":"uint256","internalType":"uint256"},{"name":"released","type":"bool","internalType":"bool"},{"name":"validator","type":"address","internalType":"address"},{"name":"validated","type":"bool","internalType":"bool"},{"name":"milestoneCount","type":"uint256","internalType":"uint256"},{"name":"milestonesPaid","type":"uint256","internalType":"uint256"}],"stateMutability":"view"},{"type":"function","name":"validateProject","inputs":[{"name":"_projectId","type":"uint256","internalType":"uint256"}],"outputs":[],"stateMutability":"nonpayable"},{"type":"event","name":"ClientRefunded","inputs":[{"name":"projectId","type":"uint256","indexed":false,"internalType":"uint256"},{"name":"client","type":"address","indexed":true,"internalType":"address"},{"name":"amount","type":"uint256","indexed":false,"internalType":"uint256"}],"anonymous":false},{"type":"event","name":"FundsDeposited","inputs":[{"name":"projectId","type":"uint256","indexed":false,"internalType":"uint256"},{"name":"client","type":"address","indexed":true,"internalType":"address"},{"name":"artist","type":"address","indexed":true,"internalType":"address"},{"name":"amount","type":"uint256","indexed":false,"internalType":"uint256"}],"anonymous":false},{"type":"event","name":"FundsRefunded","inputs":[{"name":"projectId","type":"uint256","indexed":false,"internalType":"uint256"},{"name":"client","type":"address","indexed":true,"internalType":"address"}],"anonymous":false},{"type":"event","name":"FundsReleased","inputs":[{"name":"projectId","type":"uint256","indexed":false,"internalType":"uint256"},{"name":"artist","type":"address","indexed":true,"internalType":"address"},{"name":"amount","type":"uint256","indexed":false,"internalType":"uint256"}],"anonymous":false},{"type":"event","name":"MilestoneReleased","inputs":[{"name":"projectId","type":"uint256","indexed":false,"internalType":"uint256"},{"name":"milestoneIndex","type":"uint256","indexed":false,"internalType":"uint256"},{"name":"amount","type":"uint256","indexed":false,"internalType":"uint256"}],"anonymous":false},{"type":"event","name":"ProjectValidated","inputs":[{"name":"projectId","type":"uint256","indexed":false,"internalType":"uint256"},{"name":"validator","type":"address","indexed":true,"internalType":"address"}],"anonymous":false},{"type":"event","name":"ValidatorAssigned","inputs":[{"name":"projectId","type":"uint256","indexed":false,"internalType":"uint256"},{"name":"validator","type":"address","indexed":true,"internalType":"address"}],"anonymous":false}],"bytecode":{"object":"0x6080604052348015600e575f5ffd5b50610f5e8061001c5f395ff3fe608060405234801561000f575f5ffd5b5060043610610055575f3560e01c8063107046bd1461005957806336fbad26146100905780634b561753146100ae57806357021469146100ca578063f0f3f2c8146100e6575b5f5ffd5b610073600480360381019061006e91906109d6565b61011d565b604051610087989796959493929190610a69565b60405180910390f35b6100986101d7565b6040516100a59190610ae5565b60405180910390f35b6100c860048036038101906100c39190610b28565b6101dd565b005b6100e460048036038101906100df91906109d6565b6104d9565b005b61010060048036038101906100fb91906109d6565b6107e3565b604051610114989796959493929190610a69565b60405180910390f35b5f602052805f5260405f205f91509050805f015f9054906101000a900473ffffffffffffffffffffffffffffffffffffffff1690806001015f9054906101000a900473ffffffffffffffffffffffffffffffffffffffff1690806002015490806003015f9054906101000a900460ff16908060030160019054906101000a900473ffffffffffffffffffffffffffffffffffffffff16908060030160159054906101000a900460ff16908060040154908060050154905088565b60015481565b815f73ffffffffffffffffffffffffffffffffffffffff165f5f8381526020019081526020015f205f015f9054906101000a900473ffffffffffffffffffffffffffffffffffffffff1673ffffffffffffffffffffffffffffffffffffffff160361027d576040517f08c379a000000000000000000000000000000000000000000000000000000000815260040161027490610bc0565b60405180910390fd5b825f5f8281526020019081526020015f205f015f9054906101000a900473ffffffffffffffffffffffffffffffffffffffff1673ffffffffffffffffffffffffffffffffffffffff163373ffffffffffffffffffffffffffffffffffffffff161461031d576040517f08c379a000000000000000000000000000000000000000000000000000000000815260040161031490610c4e565b60405180910390fd5b5f5f5f8681526020019081526020015f2090505f73ffffffffffffffffffffffffffffffffffffffff168473ffffffffffffffffffffffffffffffffffffffff160361039e576040517f08c379a000000000000000000000000000000000000000000000000000000000815260040161039590610cb6565b60405180910390fd5b806003015f9054906101000a900460ff16156103ef576040517f08c379a00000000000000000000000000000000000000000000000000000000081526004016103e690610d1e565b60405180910390fd5b8060030160159054906101000a900460ff1615610441576040517f08c379a000000000000000000000000000000000000000000000000000000000815260040161043890610dac565b60405180910390fd5b838160030160016101000a81548173ffffffffffffffffffffffffffffffffffffffff021916908373ffffffffffffffffffffffffffffffffffffffff1602179055508373ffffffffffffffffffffffffffffffffffffffff167f74c722a7077ba48f1c4a1df3ad9df69eda5ffb9518fedba9bad9596305b8b95e866040516104ca9190610ae5565b60405180910390a25050505050565b805f73ffffffffffffffffffffffffffffffffffffffff165f5f8381526020019081526020015f205f015f9054906101000a900473ffffffffffffffffffffffffffffffffffffffff1673ffffffffffffffffffffffffffffffffffffffff1603610579576040517f08c379a000000000000000000000000000000000000000000000000000000000815260040161057090610bc0565b60405180910390fd5b815f5f8281526020019081526020015f2060030160019054906101000a900473ffffffffffffffffffffffffffffffffffffffff1673ffffffffffffffffffffffffffffffffffffffff163373ffffffffffffffffffffffffffffffffffffffff161461061b576040517f08c379a000000000000000000000000000000000000000000000000000000000815260040161061290610e3a565b60405180910390fd5b5f5f8481526020019081526020015f2060030160159054906101000a900460ff161561067c576040517f08c379a000000000000000000000000000000000000000000000000000000000815260040161067390610ea2565b60405180910390fd5b5f5f5f8581526020019081526020015f209050806003015f9054906101000a900460ff16156106e0576040517f08c379a00000000000000000000000000000000000000000000000000000000081526004016106d790610d1e565b60405180910390fd5b5f73ffffffffffffffffffffffffffffffffffffffff168160030160019054906101000a900473ffffffffffffffffffffffffffffffffffffffff1673ffffffffffffffffffffffffffffffffffffffff1603610772576040517f08c379a000000000000000000000000000000000000000000000000000000000815260040161076990610f0a565b60405180910390fd5b60018160030160156101000a81548160ff0219169083151502179055503373ffffffffffffffffffffffffffffffffffffffff167f84ffc84db0a14dc30a09c96c2dc65081ab5a1f28b1ec2543ec701b04ad161a9d856040516107d59190610ae5565b60405180910390a250505050565b5f5f5f5f5f5f5f5f5f5f5f8b81526020019081526020015f20604051806101000160405290815f82015f9054906101000a900473ffffffffffffffffffffffffffffffffffffffff1673ffffffffffffffffffffffffffffffffffffffff1673ffffffffffffffffffffffffffffffffffffffff168152602001600182015f9054906101000a900473ffffffffffffffffffffffffffffffffffffffff1673ffffffffffffffffffffffffffffffffffffffff1673ffffffffffffffffffffffffffffffffffffffff16815260200160028201548152602001600382015f9054906101000a900460ff161515151581526020016003820160019054906101000a900473ffffffffffffffffffffffffffffffffffffffff1673ffffffffffffffffffffffffffffffffffffffff1673ffffffffffffffffffffffffffffffffffffffff1681526020016003820160159054906101000a900460ff16151515158152602001600482015481526020016005820154815250509050805f015181602001518260400151836060015184608001518560a001518660c001518760e001519850985098509850985098509850985050919395975091939597565b5f5ffd5b5f819050919050565b6109b5816109a3565b81146109bf575f5ffd5b50565b5f813590506109d0816109ac565b92915050565b5f602082840312156109eb576109ea61099f565b5b5f6109f8848285016109c2565b91505092915050565b5f73ffffffffffffffffffffffffffffffffffffffff82169050919050565b5f610a2a82610a01565b9050919050565b610a3a81610a20565b82525050565b610a49816109a3565b82525050565b5f8115159050919050565b610a6381610a4f565b82525050565b5f61010082019050610a7d5f83018b610a31565b610a8a602083018a610a31565b610a976040830189610a40565b610aa46060830188610a5a565b610ab16080830187610a31565b610abe60a0830186610a5a565b610acb60c0830185610a40565b610ad860e0830184610a40565b9998505050505050505050565b5f602082019050610af85f830184610a40565b92915050565b610b0781610a20565b8114610b11575f5ffd5b50565b5f81359050610b2281610afe565b92915050565b5f5f60408385031215610b3e57610b3d61099f565b5b5f610b4b858286016109c2565b9250506020610b5c85828601610b14565b9150509250929050565b5f82825260208201905092915050565b7f4572726f723a2050726f6a65637420646f6573206e6f742065786973742e00005f82015250565b5f610baa601e83610b66565b9150610bb582610b76565b602082019050919050565b5f6020820190508181035f830152610bd781610b9e565b9050919050565b7f4572726f723a204f6e6c792074686520636c69656e742063616e20706572666f5f8201527f726d207468697320616374696f6e2e0000000000000000000000000000000000602082015250565b5f610c38602f83610b66565b9150610c4382610bde565b604082019050919050565b5f6020820190508181035f830152610c6581610c2c565b9050919050565b7f496e76616c69642076616c696461746f7220616464726573732e0000000000005f82015250565b5f610ca0601a83610b66565b9150610cab82610c6c565b602082019050919050565b5f6020820190508181035f830152610ccd81610c94565b9050919050565b7f46756e647320616c72656164792072656c65617365642e0000000000000000005f82015250565b5f610d08601783610b66565b9150610d1382610cd4565b602082019050919050565b5f6020820190508181035f830152610d3581610cfc565b9050919050565b7f43616e6e6f74206368616e67652076616c696461746f722061667465722076615f8201527f6c69646174696f6e2e0000000000000000000000000000000000000000000000602082015250565b5f610d96602983610b66565b9150610da182610d3c565b604082019050919050565b5f6020820190508181035f830152610dc381610d8a565b9050919050565b7f4572726f723a204f6e6c79207468652061737369676e65642076616c696461745f8201527f6f722063616e20706572666f726d207468697320616374696f6e2e0000000000602082015250565b5f610e24603b83610b66565b9150610e2f82610dca565b604082019050919050565b5f6020820190508181035f830152610e5181610e18565b9050919050565b7f50726f6a65637420616c72656164792076616c6964617465642e0000000000005f82015250565b5f610e8c601a83610b66565b9150610e9782610e58565b602082019050919050565b5f6020820190508181035f830152610eb981610e80565b9050919050565b7f4e6f2076616c696461746f722061737369676e65642e000000000000000000005f82015250565b5f610ef4601683610b66565b9150610eff82610ec0565b602082019050919050565b5f6020820190508181035f830152610f2181610ee8565b905091905056fea2646970667358221220ab1c761c05acbde626d3092fc5293cd53be6b9a908e67299d6eab6f55d1d3fcd64736f6c634300081c0033","linkReferences":{}},"methodIdentifiers":{"addValidator(uint256,address)":"4b561753","getProject(uint256)":"f0f3f2c8","projectCount()":"36fbad26","projects(uint256)":"107046bd","validateProject(uint256)":"57021469"},"id":3}