{"abi":[{"type":"function","name":"addValidator","inputs":[{"name":"_projectId","type":"uint256","internalType":"uint256"},{"name":"_validator","type":"address","internalType":"address"}],"outputs":[],"stateMutability":"nonpayable"},{"type":"function","name":"getOracle","inputs":[],"outputs":[{"name":"","type":"address","internalType":"contract IOracle"}],"stateMutability":"view"},{"type":"function","name":"getProject","inputs":[{"name":"_projectId","type":"uint256","internalType":"uint256"}],"outputs":[{"name":"client","type":"address","internalType":"address"},{"name":"artist","type":"address","internalType":"address"},{"name":"amount","type":"uint256","internalType":"uint256"},{"name":"released","type":"bool","internalType":"bool"},{"name":"validator","type":"address","internalType":"address"},{"name":"validated","type":"bool","internalType":"bool"},{"name":"milestoneCount","type":"uint256","internalType":"uint256"},{"name":"milestonesPaid","type":"uint256","internalType":"uint256"},{"name":"useFallback","type":"bool","internalType":"bool"},{"name":"fallbackDelay","type":"uint256","internalType":"uint256"},{"name":"useSignature","type":"bool","internalType":"bool"},{"name":"createdAt","type":"uint256","internalType":"uint256"}],"stateMutability":"view"},{"type":"function","name":"projectCount","inputs":[],"outputs":[{"name":"","type":"uint256","internalType":"uint256"}],"stateMutability":"view"},{"type":"function","name":"projects","inputs":[{"name":"","type":"uint256","internalType":"uint256"}],"outputs":[{"name":"client","type":"address","internalType":"address"},{"name":"artist","type":"address","internalType":"address"},{"name":"amount","type":"uint256","internalType":"uint256"},{"name":"released","type":"bool","internalType":"bool"},{"name":"validator","type":"address","internalType":"address"},{"name":"validated","type":"bool","internalType":"bool"},{"name":"milestoneCount","type":"uint256","internalType":"uint256"},{"name":"milestonesPaid","type":"uint256","internalType":"uint256"},{"name":"useFallback","type":"bool","internalType":"bool"},{"name":"fallbackDelay","type":"uint256","internalType":"uint256"},{"name":"useSignature","type":"bool","internalType":"bool"},{"name":"createdAt","type":"uint256","internalType":"uint256"}],"stateMutability":"view"},{"type":"function","name":"validateProject","inputs":[{"name":"_projectId","type":"uint256","internalType":"uint256"}],"outputs":[],"stateMutability":"nonpayable"},{"type":"event","name":"ClientRefunded","inputs":[{"name":"projectId","type":"uint256","indexed":false,"internalType":"uint256"},{"name":"client","type":"address","indexed":true,"internalType":"address"},{"name":"amount","type":"uint256","indexed":false,"internalType":"uint256"}],"anonymous":false},{"type":"event","name":"FundsDeposited","inputs":[{"name":"projectId","type":"uint256","indexed":false,"internalType":"uint256"},{"name":"client","type":"address","indexed":true,"internalType":"address"},{"name":"artist","type":"address","indexed":true,"internalType":"address"},{"name":"amount","type":"uint256","indexed":false,"internalType":"uint256"}],"anonymous":false},{"type":"event","name":"FundsRefunded","inputs":[{"name":"projectId","type":"uint256","indexed":false,"internalType":"uint256"},{"name":"client","type":"address","indexed":true,"internalType":"address"}],"anonymous":false},{"type":"event","name":"FundsReleased","inputs":[{"name":"projectId","type":"uint256","indexed":false,"internalType":"uint256"},{"name":"artist","type":"address","indexed":true,"internalType":"address"},{"name":"amount","type":"uint256","indexed":false,"internalType":"uint256"}],"anonymous":false},{"type":"event","name":"MilestoneReleased","inputs":[{"name":"projectId","type":"uint256","indexed":false,"internalType":"uint256"},{"name":"milestoneIndex","type":"uint256","indexed":false,"internalType":"uint256"},{"name":"amount","type":"uint256","indexed":false,"internalType":"uint256"}],"anonymous":false},{"type":"event","name":"ProjectValidated","inputs":[{"name":"projectId","type":"uint256","indexed":false,"internalType":"uint256"},{"name":"validator","type":"address","indexed":true,"internalType":"address"}],"anonymous":false},{"type":"event","name":"ValidatorAssigned","inputs":[{"name":"projectId","type":"uint256","indexed":false,"internalType":"uint256"},{"name":"validator","type":"address","indexed":true,"internalType":"address"}],"anonymous":false}],"bytecode":{"object":"0x608060405234601c57600e6020565b61117f61002b823961117f90f35b6026565b60405190565b5f80fdfe60806040526004361015610013575b6105d4565b61001d5f3561007c565b8063107046bd1461007757806336fbad26146100725780634b5617531461006d5780635702146914610068578063833b1fce146100635763f0f3f2c80361000e5761058f565b61055a565b6104d1565b61049d565b610413565b610371565b60e01c90565b60405190565b5f80fd5b5f80fd5b90565b61009c81610090565b036100a357565b5f80fd5b905035906100b482610093565b565b906020828203126100cf576100cc915f016100a7565b90565b61008c565b90565b6100eb6100e66100f092610090565b6100d4565b610090565b90565b906100fd906100d7565b5f5260205260405f2090565b5f1c90565b60018060a01b031690565b61012561012a91610109565b61010e565b90565b6101379054610119565b90565b90565b61014961014e91610109565b61013a565b90565b61015b905461013d565b90565b60ff1690565b61017061017591610109565b61015e565b90565b6101829054610164565b90565b60081c90565b61019761019c91610185565b61010e565b90565b6101a9905461018b565b90565b60a81c90565b6101be6101c3916101ac565b61015e565b90565b6101d090546101b2565b90565b6101dd905f6100f3565b906101e95f830161012d565b916101f66001820161012d565b9161020360028301610151565b9161021060038201610178565b9161021d6003830161019f565b9161022a600382016101c6565b9161023760048301610151565b9161024460058201610151565b9161025160068301610178565b9161025e60078201610151565b91610277600961027060088501610178565b9301610151565b90565b60018060a01b031690565b61028e9061027a565b90565b61029a90610285565b9052565b6102a790610090565b9052565b151590565b6102b9906102ab565b9052565b99979593919c9b9a98969492909c6101808b019d5f8c016102dd91610291565b60208b016102ea91610291565b60408a016102f79161029e565b60608901610304916102b0565b6080880161031191610291565b60a0870161031e916102b0565b60c0860161032b9161029e565b60e085016103389161029e565b6101008401610346916102b0565b61012083016103549161029e565b6101408201610362916102b0565b6101600161036f9161029e565b565b346103b1576103ad61038c6103873660046100b6565b6101d3565b986103a49c9a9c989198979297969396959495610082565b9c8d9c8d6102bd565b0390f35b610088565b5f9103126103c057565b61008c565b1c90565b6103d99060086103de93026103c5565b61013a565b90565b906103ec91546103c9565b90565b6103fb60015f906103e1565b90565b9190610411905f6020850194019061029e565b565b34610443576104233660046103b6565b61043f61042e6103ef565b610436610082565b918291826103fe565b0390f35b610088565b61045181610285565b0361045857565b5f80fd5b9050359061046982610448565b565b91906040838203126104935780610487610490925f86016100a7565b9360200161045c565b90565b61008c565b5f0190565b346104cc576104b66104b036600461046b565b90610a7b565b6104be610082565b806104c881610498565b0390f35b610088565b346104ff576104e96104e43660046100b6565b610dda565b6104f1610082565b806104fb81610498565b0390f35b610088565b61051861051361051d9261027a565b6100d4565b61027a565b90565b61052990610504565b90565b61053590610520565b90565b6105419061052c565b9052565b9190610558905f60208501940190610538565b565b3461058a5761056a3660046103b6565b610586610575610e01565b61057d610082565b91829182610545565b0390f35b610088565b346105cf576105cb6105aa6105a53660046100b6565b61101e565b986105c29c9a9c989198979297969396959495610082565b9c8d9c8d6102bd565b0390f35b610088565b5f80fd5b90565b6105ef6105ea6105f4926105d8565b6100d4565b61027a565b90565b610600906105db565b90565b60209181520190565b5f7f4572726f723a2050726f6a65637420646f6573206e6f742065786973742e0000910152565b610640601e602092610603565b6106498161060c565b0190565b6106629060208101905f818303910152610633565b90565b1561066c57565b610674610082565b62461bcd60e51b81528061068a6004820161064d565b0390fd5b906106d0916106cb6106aa5f6106a484826100f3565b0161012d565b6106c46106be6106b95f6105f7565b610285565b91610285565b1415610665565b61077a565b565b60207f726d207468697320616374696f6e2e0000000000000000000000000000000000917f4572726f723a204f6e6c792074686520636c69656e742063616e20706572666f5f8201520152565b61072c602f604092610603565b610735816106d2565b0190565b61074e9060208101905f81830391015261071f565b90565b1561075857565b610760610082565b62461bcd60e51b81528061077660048201610739565b0390fd5b906107b4916107af816107a96107a361079e5f6107983395826100f3565b0161012d565b610285565b91610285565b14610751565b6109b7565b565b90565b5f7f496e76616c69642076616c696461746f7220616464726573732e000000000000910152565b6107ed601a602092610603565b6107f6816107b9565b0190565b61080f9060208101905f8183039101526107e0565b90565b1561081957565b610821610082565b62461bcd60e51b815280610837600482016107fa565b0390fd5b5f7f46756e647320616c72656164792072656c65617365642e000000000000000000910152565b61086f6017602092610603565b6108788161083b565b0190565b6108919060208101905f818303910152610862565b90565b1561089b57565b6108a3610082565b62461bcd60e51b8152806108b96004820161087c565b0390fd5b60207f6c69646174696f6e2e0000000000000000000000000000000000000000000000917f43616e6e6f74206368616e67652076616c696461746f722061667465722076615f8201520152565b6109176029604092610603565b610920816108bd565b0190565b6109399060208101905f81830391015261090a565b90565b1561094357565b61094b610082565b62461bcd60e51b81528061096160048201610924565b0390fd5b60081b90565b9061097e610100600160a81b0391610965565b9181191691161790565b61099190610520565b90565b90565b906109ac6109a76109b392610988565b610994565b825461096b565b9055565b610a366109cd6109c85f84906100f3565b6107b6565b6109f2846109eb6109e56109e05f6105f7565b610285565b91610285565b1415610812565b610a0f610a0a610a0460038401610178565b156102ab565b610894565b610a2c610a27610a21600384016101c6565b156102ab565b61093c565b6003849101610997565b90610a76610a647f74c722a7077ba48f1c4a1df3ad9df69eda5ffb9518fedba9bad9596305b8b95e92610988565b92610a6d610082565b918291826103fe565b0390a2565b90610a859161068e565b565b610ac890610ac3610aa25f610a9c84826100f3565b0161012d565b610abc610ab6610ab15f6105f7565b610285565b91610285565b1415610665565b610b72565b565b60207f6f722063616e20706572666f726d207468697320616374696f6e2e0000000000917f4572726f723a204f6e6c79207468652061737369676e65642076616c696461745f8201520152565b610b24603b604092610603565b610b2d81610aca565b0190565b610b469060208101905f818303910152610b17565b90565b15610b5057565b610b58610082565b62461bcd60e51b815280610b6e60048201610b31565b0390fd5b610bac90610ba781610ba1610b9b610b966003610b9033955f6100f3565b0161019f565b610285565b91610285565b14610b49565b610d00565b565b5f7f50726f6a65637420616c72656164792076616c6964617465642e000000000000910152565b610be2601a602092610603565b610beb81610bae565b0190565b610c049060208101905f818303910152610bd5565b90565b15610c0e57565b610c16610082565b62461bcd60e51b815280610c2c60048201610bef565b0390fd5b5f7f4e6f2076616c696461746f722061737369676e65642e00000000000000000000910152565b610c646016602092610603565b610c6d81610c30565b0190565b610c869060208101905f818303910152610c57565b90565b15610c9057565b610c98610082565b62461bcd60e51b815280610cae60048201610c71565b0390fd5b60a81b90565b90610cc760ff60a81b91610cb2565b9181191691161790565b610cda906102ab565b90565b90565b90610cf5610cf0610cfc92610cd1565b610cdd565b8254610cb8565b9055565b610d27610d22610d1c6003610d165f86906100f3565b016101c6565b156102ab565b610c07565b610d95610d3d610d385f84906100f3565b6107b6565b610d5a610d55610d4f60038401610178565b156102ab565b610894565b610d8a610d696003830161019f565b610d83610d7d610d785f6105f7565b610285565b91610285565b1415610c89565b600360019101610ce0565b33610dd5610dc37f84ffc84db0a14dc30a09c96c2dc65081ab5a1f28b1ec2543ec701b04ad161a9d92610988565b92610dcc610082565b918291826103fe565b0390a2565b610de390610a87565b565b5f90565b610df290610504565b90565b610dfe90610de9565b90565b610e09610de5565b50610e1b610e165f6105f7565b610df5565b90565b5f90565b5f90565b5f90565b90610e3490610285565b9052565b90610e4290610090565b9052565b90610e50906102ab565b9052565b601f801991011690565b634e487b7160e01b5f52604160045260245ffd5b90610e7c90610e54565b810190811067ffffffffffffffff821117610e9657604052565b610e5e565b90610eae610ea7610082565b9283610e72565b565b610ebb610180610e9b565b90565b90610fe9610fdf6009610ecf610eb0565b94610ee6610ede5f830161012d565b5f8801610e2a565b610efe610ef56001830161012d565b60208801610e2a565b610f16610f0d60028301610151565b60408801610e38565b610f2e610f2560038301610178565b60608801610e46565b610f46610f3d6003830161019f565b60808801610e2a565b610f5e610f55600383016101c6565b60a08801610e46565b610f76610f6d60048301610151565b60c08801610e38565b610f8e610f8560058301610151565b60e08801610e38565b610fa7610f9d60068301610178565b6101008801610e46565b610fc0610fb660078301610151565b6101208801610e38565b610fd9610fcf60088301610178565b6101408801610e46565b01610151565b6101608401610e38565b565b610ff490610ebe565b90565b6110019051610285565b90565b61100e9051610090565b90565b61101b90516102ab565b90565b61109761109c9161102d610e1e565b50611036610e1e565b5061103f610e22565b50611048610e26565b50611051610e1e565b5061105a610e26565b50611063610e22565b5061106c610e22565b50611075610e26565b5061107e610e22565b50611087610e26565b50611090610e22565b505f6100f3565b610feb565b906110a85f8301610ff7565b906110b560208401610ff7565b926110c260408201611004565b926110cf60608301611011565b926110dc60808401610ff7565b926110e960a08201611011565b926110f660c08301611004565b9261110360e08401611004565b926111116101008201611011565b9261111f6101208301611004565b9261113a6101606111336101408601611011565b9401611004565b919b9a9998979695949392919056fea26469706673582212200afeabf498927aecfefc7d9b6860dd2bcea84eae9ae848dbb6a28a65a8762b7064736f6c634300081c0033","linkReferences":{}},"methodIdentifiers":{"addValidator(uint256,address)":"4b561753","getOracle()":"833b1fce","getProject(uint256)":"f0f3f2c8","projectCount()":"36fbad26","projects(uint256)":"107046bd","validateProject(uint256)":"57021469"},"id":5}