{"abi":[{"type":"function","name":"REQUIRED_KYC_LEVEL","inputs":[],"outputs":[{"name":"","type":"uint256","internalType":"uint256"}],"stateMutability":"view"},{"type":"function","name":"addValidator","inputs":[{"name":"_projectId","type":"uint256","internalType":"uint256"},{"name":"_validator","type":"address","internalType":"address"}],"outputs":[],"stateMutability":"nonpayable"},{"type":"function","name":"forteCompliance","inputs":[],"outputs":[{"name":"","type":"address","internalType":"contract IForteCompliance"}],"stateMutability":"view"},{"type":"function","name":"getOracle","inputs":[],"outputs":[{"name":"","type":"address","internalType":"contract IOracle"}],"stateMutability":"view"},{"type":"function","name":"getProject","inputs":[{"name":"_projectId","type":"uint256","internalType":"uint256"}],"outputs":[{"name":"client","type":"address","internalType":"address"},{"name":"artist","type":"address","internalType":"address"},{"name":"amount","type":"uint256","internalType":"uint256"},{"name":"released","type":"bool","internalType":"bool"},{"name":"validator","type":"address","internalType":"address"},{"name":"validated","type":"bool","internalType":"bool"},{"name":"milestoneCount","type":"uint256","internalType":"uint256"},{"name":"milestonesPaid","type":"uint256","internalType":"uint256"},{"name":"useFallback","type":"bool","internalType":"bool"},{"name":"fallbackDelay","type":"uint256","internalType":"uint256"},{"name":"useSignature","type":"bool","internalType":"bool"},{"name":"createdAt","type":"uint256","internalType":"uint256"}],"stateMutability":"view"},{"type":"function","name":"isKYCApproved","inputs":[{"name":"user","type":"address","internalType":"address"}],"outputs":[{"name":"","type":"bool","internalType":"bool"}],"stateMutability":"view"},{"type":"function","name":"projectCount","inputs":[],"outputs":[{"name":"","type":"uint256","internalType":"uint256"}],"stateMutability":"view"},{"type":"function","name":"projects","inputs":[{"name":"","type":"uint256","internalType":"uint256"}],"outputs":[{"name":"client","type":"address","internalType":"address"},{"name":"artist","type":"address","internalType":"address"},{"name":"amount","type":"uint256","internalType":"uint256"},{"name":"released","type":"bool","internalType":"bool"},{"name":"validator","type":"address","internalType":"address"},{"name":"validated","type":"bool","internalType":"bool"},{"name":"milestoneCount","type":"uint256","internalType":"uint256"},{"name":"milestonesPaid","type":"uint256","internalType":"uint256"},{"name":"useFallback","type":"bool","internalType":"bool"},{"name":"fallbackDelay","type":"uint256","internalType":"uint256"},{"name":"useSignature","type":"bool","internalType":"bool"},{"name":"createdAt","type":"uint256","internalType":"uint256"}],"stateMutability":"view"},{"type":"function","name":"setForteCompliance","inputs":[{"name":"_compliance","type":"address","internalType":"address"}],"outputs":[],"stateMutability":"nonpayable"},{"type":"function","name":"validateProject","inputs":[{"name":"_projectId","type":"uint256","internalType":"uint256"}],"outputs":[],"stateMutability":"nonpayable"},{"type":"event","name":"ClientRefunded","inputs":[{"name":"projectId","type":"uint256","indexed":false,"internalType":"uint256"},{"name":"client","type":"address","indexed":true,"internalType":"address"},{"name":"amount","type":"uint256","indexed":false,"internalType":"uint256"}],"anonymous":false},{"type":"event","name":"FundsDeposited","inputs":[{"name":"projectId","type":"uint256","indexed":false,"internalType":"uint256"},{"name":"client","type":"address","indexed":true,"internalType":"address"},{"name":"artist","type":"address","indexed":true,"internalType":"address"},{"name":"amount","type":"uint256","indexed":false,"internalType":"uint256"}],"anonymous":false},{"type":"event","name":"FundsRefunded","inputs":[{"name":"projectId","type":"uint256","indexed":false,"internalType":"uint256"},{"name":"client","type":"address","indexed":true,"internalType":"address"}],"anonymous":false},{"type":"event","name":"FundsReleased","inputs":[{"name":"projectId","type":"uint256","indexed":false,"internalType":"uint256"},{"name":"artist","type":"address","indexed":true,"internalType":"address"},{"name":"amount","type":"uint256","indexed":false,"internalType":"uint256"}],"anonymous":false},{"type":"event","name":"MilestoneReleased","inputs":[{"name":"projectId","type":"uint256","indexed":false,"internalType":"uint256"},{"name":"milestoneIndex","type":"uint256","indexed":false,"internalType":"uint256"},{"name":"amount","type":"uint256","indexed":false,"internalType":"uint256"}],"anonymous":false},{"type":"event","name":"ProjectValidated","inputs":[{"name":"projectId","type":"uint256","indexed":false,"internalType":"uint256"},{"name":"validator","type":"address","indexed":true,"internalType":"address"}],"anonymous":false},{"type":"event","name":"ValidatorAssigned","inputs":[{"name":"projectId","type":"uint256","indexed":false,"internalType":"uint256"},{"name":"validator","type":"address","indexed":true,"internalType":"address"}],"anonymous":false},{"type":"error","name":"CannotChangeValidatorAfterValidation","inputs":[]},{"type":"error","name":"FundsAlreadyReleased","inputs":[]},{"type":"error","name":"InvalidValidatorAddress","inputs":[]},{"type":"error","name":"KYCNotApproved","inputs":[]},{"type":"error","name":"OnlyAssignedValidator","inputs":[]},{"type":"error","name":"OnlyClient","inputs":[]},{"type":"error","name":"ProjectAlreadyValidated","inputs":[]},{"type":"error","name":"ProjectDoesNotExist","inputs":[]},{"type":"error","name":"ValidatorNotAssigned","inputs":[]}],"bytecode":{"object":"0x608060405234601c57600e6020565b61113f61002b823961113f90f35b6026565b60405190565b5f80fdfe60806040526004361015610013575b6107be565b61001d5f356100bc565b8063107046bd146100b7578063235b97c9146100b25780632be550ce146100ad57806336fbad26146100a85780634b561753146100a3578063570214691461009e5780636c56db5e14610099578063833b1fce14610094578063e77db2321461008f5763f0f3f2c80361000e57610779565b610744565b6106fa565b610699565b610648565b610614565b61058a565b610520565b610451565b6103b1565b60e01c90565b60405190565b5f80fd5b5f80fd5b90565b6100dc816100d0565b036100e357565b5f80fd5b905035906100f4826100d3565b565b9060208282031261010f5761010c915f016100e7565b90565b6100cc565b90565b61012b610126610130926100d0565b610114565b6100d0565b90565b9061013d90610117565b5f5260205260405f2090565b5f1c90565b60018060a01b031690565b61016561016a91610149565b61014e565b90565b6101779054610159565b90565b90565b61018961018e91610149565b61017a565b90565b61019b905461017d565b90565b60ff1690565b6101b06101b591610149565b61019e565b90565b6101c290546101a4565b90565b60081c90565b6101d76101dc916101c5565b61014e565b90565b6101e990546101cb565b90565b60a81c90565b6101fe610203916101ec565b61019e565b90565b61021090546101f2565b90565b61021d905f610133565b906102295f830161016d565b916102366001820161016d565b9161024360028301610191565b91610250600382016101b8565b9161025d600383016101df565b9161026a60038201610206565b9161027760048301610191565b9161028460058201610191565b91610291600683016101b8565b9161029e60078201610191565b916102b760096102b0600885016101b8565b9301610191565b90565b60018060a01b031690565b6102ce906102ba565b90565b6102da906102c5565b9052565b6102e7906100d0565b9052565b151590565b6102f9906102eb565b9052565b99979593919c9b9a98969492909c6101808b019d5f8c0161031d916102d1565b60208b0161032a916102d1565b60408a01610337916102de565b60608901610344916102f0565b60808801610351916102d1565b60a0870161035e916102f0565b60c0860161036b916102de565b60e08501610378916102de565b6101008401610386916102f0565b6101208301610394916102de565b61014082016103a2916102f0565b610160016103af916102de565b565b346103f1576103ed6103cc6103c73660046100f6565b610213565b986103e49c9a9c9891989792979693969594956100c2565b9c8d9c8d6102fd565b0390f35b6100c8565b5f91031261040057565b6100cc565b90565b61041c61041761042192610405565b610114565b6100d0565b90565b61042e6003610408565b90565b610439610424565b90565b919061044f905f602085019401906102de565b565b34610481576104613660046103f6565b61047d61046c610431565b6104746100c2565b9182918261043c565b0390f35b6100c8565b1c90565b60018060a01b031690565b6104a59060086104aa9302610486565b61048a565b90565b906104b89154610495565b90565b6104c760025f906104ad565b90565b6104de6104d96104e3926102ba565b610114565b6102ba565b90565b6104ef906104ca565b90565b6104fb906104e6565b90565b610507906104f2565b9052565b919061051e905f602085019401906104fe565b565b34610550576105303660046103f6565b61054c61053b6104bb565b6105436100c2565b9182918261050b565b0390f35b6100c8565b61056590600861056a9302610486565b61017a565b90565b906105789154610555565b90565b61058760015f9061056d565b90565b346105ba5761059a3660046103f6565b6105b66105a561057b565b6105ad6100c2565b9182918261043c565b0390f35b6100c8565b6105c8816102c5565b036105cf57565b5f80fd5b905035906105e0826105bf565b565b919060408382031261060a57806105fe610607925f86016100e7565b936020016105d3565b90565b6100cc565b5f0190565b346106435761062d6106273660046105e2565b906109eb565b6106356100c2565b8061063f8161060f565b0390f35b6100c8565b346106765761066061065b3660046100f6565b610bf9565b6106686100c2565b806106728161060f565b0390f35b6100c8565b9060208282031261069457610691915f016105d3565b90565b6100cc565b346106c7576106b16106ac36600461067b565b610c6b565b6106b96100c2565b806106c38161060f565b0390f35b6100c8565b6106d5906104e6565b90565b6106e1906106cc565b9052565b91906106f8905f602085019401906106d8565b565b3461072a5761070a3660046103f6565b610726610715610c9c565b61071d6100c2565b918291826106e5565b0390f35b6100c8565b9190610742905f602085019401906102f0565b565b346107745761077061075f61075a36600461067b565b610d7d565b6107676100c2565b9182918261072f565b0390f35b6100c8565b346107b9576107b561079461078f3660046100f6565b610fde565b986107ac9c9a9c9891989792979693969594956100c2565b9c8d9c8d6102fd565b0390f35b6100c8565b5f80fd5b90565b6107d96107d46107de926107c2565b610114565b6102ba565b90565b6107ea906107c5565b90565b906108025f6107fc8482610133565b0161016d565b61081c6108166108115f6107e1565b6102c5565b916102c5565b1461082c5761082a91610848565b565b5f6338fde52b60e01b8152806108446004820161060f565b0390fd5b908161087061086a6108655f61085f339582610133565b0161016d565b6102c5565b916102c5565b036108805761087e916108f1565b565b5f63d6d90f8960e01b8152806108986004820161060f565b0390fd5b90565b60081b90565b906108b8610100600160a81b039161089f565b9181191691161790565b6108cb906104e6565b90565b90565b906108e66108e16108ed926108c2565b6108ce565b82546108a5565b9055565b6109046108ff5f8390610133565b61089c565b610910600382016101b8565b6109cf5761092060038201610206565b6109b3578261093f6109396109345f6107e1565b6102c5565b916102c5565b14610997576109529060038491016108d1565b906109926109807f74c722a7077ba48f1c4a1df3ad9df69eda5ffb9518fedba9bad9596305b8b95e926108c2565b926109896100c2565b9182918261043c565b0390a2565b5f63713ce51160e01b8152806109af6004820161060f565b0390fd5b5f63b5f9044160e01b8152806109cb6004820161060f565b0390fd5b5f635c1508a760e01b8152806109e76004820161060f565b0390fd5b906109f5916107ed565b565b610a0b5f610a058382610133565b0161016d565b610a25610a1f610a1a5f6107e1565b6102c5565b916102c5565b14610a3557610a3390610a51565b565b5f6338fde52b60e01b815280610a4d6004820161060f565b0390fd5b80610a79610a73610a6e6003610a6833955f610133565b016101df565b6102c5565b916102c5565b03610a8957610a8790610af3565b565b5f6381d009a360e01b815280610aa16004820161060f565b0390fd5b60a81b90565b90610aba60ff60a81b91610aa5565b9181191691161790565b610acd906102eb565b90565b90565b90610ae8610ae3610aef92610ac4565b610ad0565b8254610aab565b9055565b610b06610b015f8390610133565b61089c565b610b1260038201610206565b610bdd57610b22600382016101b8565b610bc157610b32600382016101df565b610b4c610b46610b415f6107e1565b6102c5565b916102c5565b14610ba557610b6090600360019101610ad3565b33610ba0610b8e7f84ffc84db0a14dc30a09c96c2dc65081ab5a1f28b1ec2543ec701b04ad161a9d926108c2565b92610b976100c2565b9182918261043c565b0390a2565b5f6342b985dd60e01b815280610bbd6004820161060f565b0390fd5b5f635c1508a760e01b815280610bd96004820161060f565b0390fd5b5f63166de09760e01b815280610bf56004820161060f565b0390fd5b610c02906109f7565b565b610c0d906104ca565b90565b610c1990610c04565b90565b5f1b90565b90610c3260018060a01b0391610c1c565b9181191691161790565b610c4590610c04565b90565b90565b90610c60610c5b610c6792610c3c565b610c48565b8254610c21565b9055565b610c77610c7e91610c10565b6002610c4b565b565b5f90565b610c8d906104ca565b90565b610c9990610c84565b90565b610ca4610c80565b50610cb6610cb15f6107e1565b610c90565b90565b5f90565b610cc9610cce91610149565b61048a565b90565b610cdb9054610cbd565b90565b601f801991011690565b634e487b7160e01b5f52604160045260245ffd5b90610d0690610cde565b810190811067ffffffffffffffff821117610d2057604052565b610ce8565b60e01b90565b90505190610d38826100d3565b565b90602082820312610d5357610d50915f01610d2b565b90565b6100cc565b9190610d6b905f602085019401906102d1565b565b610d756100c2565b3d5f823e3d90fd5b6020610dc591610d8b610cb9565b50610d9e610d996002610cd1565b6104f2565b610dba635bc008a0610dae6100c2565b95869485938493610d25565b835260048301610d58565b03915afa908115610e24575f91610df6575b50610df1610deb610de6610424565b6100d0565b916100d0565b101590565b610e17915060203d8111610e1d575b610e0f8183610cfc565b810190610d3a565b5f610dd7565b503d610e05565b610d6d565b5f90565b5f90565b90610e3b906102c5565b9052565b90610e49906100d0565b9052565b90610e57906102eb565b9052565b90610e6e610e676100c2565b9283610cfc565b565b610e7b610180610e5b565b90565b90610fa9610f9f6009610e8f610e70565b94610ea6610e9e5f830161016d565b5f8801610e31565b610ebe610eb56001830161016d565b60208801610e31565b610ed6610ecd60028301610191565b60408801610e3f565b610eee610ee5600383016101b8565b60608801610e4d565b610f06610efd600383016101df565b60808801610e31565b610f1e610f1560038301610206565b60a08801610e4d565b610f36610f2d60048301610191565b60c08801610e3f565b610f4e610f4560058301610191565b60e08801610e3f565b610f67610f5d600683016101b8565b6101008801610e4d565b610f80610f7660078301610191565b6101208801610e3f565b610f99610f8f600883016101b8565b6101408801610e4d565b01610191565b6101608401610e3f565b565b610fb490610e7e565b90565b610fc190516102c5565b90565b610fce90516100d0565b90565b610fdb90516102eb565b90565b61105761105c91610fed610e29565b50610ff6610e29565b50610fff610e2d565b50611008610cb9565b50611011610e29565b5061101a610cb9565b50611023610e2d565b5061102c610e2d565b50611035610cb9565b5061103e610e2d565b50611047610cb9565b50611050610e2d565b505f610133565b610fab565b906110685f8301610fb7565b9061107560208401610fb7565b9261108260408201610fc4565b9261108f60608301610fd1565b9261109c60808401610fb7565b926110a960a08201610fd1565b926110b660c08301610fc4565b926110c360e08401610fc4565b926110d16101008201610fd1565b926110df6101208301610fc4565b926110fa6101606110f36101408601610fd1565b9401610fc4565b919b9a9998979695949392919056fea264697066735822122073012e9e79c32981f731121e1f9a1ee6f374d90cbce8fda6e85a92662d1a806564736f6c634300081c0033","linkReferences":{}},"methodIdentifiers":{"REQUIRED_KYC_LEVEL()":"235b97c9","addValidator(uint256,address)":"4b561753","forteCompliance()":"2be550ce","getOracle()":"833b1fce","getProject(uint256)":"f0f3f2c8","isKYCApproved(address)":"e77db232","projectCount()":"36fbad26","projects(uint256)":"107046bd","setForteCompliance(address)":"6c56db5e","validateProject(uint256)":"57021469"},"id":6}