{"abi":[{"type":"function","name":"depositFunds","inputs":[{"name":"_artist","type":"address","internalType":"address"},{"name":"_milestoneCount","type":"uint256","internalType":"uint256"}],"outputs":[],"stateMutability":"payable"},{"type":"function","name":"getProject","inputs":[{"name":"_projectId","type":"uint256","internalType":"uint256"}],"outputs":[{"name":"client","type":"address","internalType":"address"},{"name":"artist","type":"address","internalType":"address"},{"name":"amount","type":"uint256","internalType":"uint256"},{"name":"released","type":"bool","internalType":"bool"},{"name":"validator","type":"address","internalType":"address"},{"name":"validated","type":"bool","internalType":"bool"},{"name":"milestoneCount","type":"uint256","internalType":"uint256"},{"name":"milestonesPaid","type":"uint256","internalType":"uint256"}],"stateMutability":"view"},{"type":"function","name":"projectCount","inputs":[],"outputs":[{"name":"","type":"uint256","internalType":"uint256"}],"stateMutability":"view"},{"type":"function","name":"projects","inputs":[{"name":"","type":"uint256","internalType":"uint256"}],"outputs":[{"name":"client","type":"address","internalType":"address"},{"name":"artist","type":"address","internalType":"address"},{"name":"amount","type":"uint256","internalType":"uint256"},{"name":"released","type":"bool","internalType":"bool"},{"name":"validator","type":"address","internalType":"address"},{"name":"validated","type":"bool","internalType":"bool"},{"name":"milestoneCount","type":"uint256","internalType":"uint256"},{"name":"milestonesPaid","type":"uint256","internalType":"uint256"}],"stateMutability":"view"},{"type":"function","name":"refundClient","inputs":[{"name":"_projectId","type":"uint256","internalType":"uint256"}],"outputs":[],"stateMutability":"nonpayable"},{"type":"function","name":"releaseMilestone","inputs":[{"name":"_projectId","type":"uint256","internalType":"uint256"}],"outputs":[],"stateMutability":"nonpayable"},{"type":"event","name":"ClientRefunded","inputs":[{"name":"projectId","type":"uint256","indexed":false,"internalType":"uint256"},{"name":"client","type":"address","indexed":true,"internalType":"address"},{"name":"amount","type":"uint256","indexed":false,"internalType":"uint256"}],"anonymous":false},{"type":"event","name":"FundsDeposited","inputs":[{"name":"projectId","type":"uint256","indexed":false,"internalType":"uint256"},{"name":"client","type":"address","indexed":true,"internalType":"address"},{"name":"artist","type":"address","indexed":true,"internalType":"address"},{"name":"amount","type":"uint256","indexed":false,"internalType":"uint256"}],"anonymous":false},{"type":"event","name":"FundsRefunded","inputs":[{"name":"projectId","type":"uint256","indexed":false,"internalType":"uint256"},{"name":"client","type":"address","indexed":true,"internalType":"address"}],"anonymous":false},{"type":"event","name":"FundsReleased","inputs":[{"name":"projectId","type":"uint256","indexed":false,"internalType":"uint256"},{"name":"artist","type":"address","indexed":true,"internalType":"address"},{"name":"amount","type":"uint256","indexed":false,"internalType":"uint256"}],"anonymous":false},{"type":"event","name":"MilestoneReleased","inputs":[{"name":"projectId","type":"uint256","indexed":false,"internalType":"uint256"},{"name":"milestoneIndex","type":"uint256","indexed":false,"internalType":"uint256"},{"name":"amount","type":"uint256","indexed":false,"internalType":"uint256"}],"anonymous":false},{"type":"event","name":"ProjectValidated","inputs":[{"name":"projectId","type":"uint256","indexed":false,"internalType":"uint256"},{"name":"validator","type":"address","indexed":true,"internalType":"address"}],"anonymous":false},{"type":"event","name":"ValidatorAssigned","inputs":[{"name":"projectId","type":"uint256","indexed":false,"internalType":"uint256"},{"name":"validator","type":"address","indexed":true,"internalType":"address"}],"anonymous":false},{"type":"error","name":"ReentrancyGuardReentrantCall","inputs":[]}],"bytecode":{"object":"0x6080604052348015600e575f5ffd5b50600160028190555061171c806100245f395ff3fe608060405260043610610054575f3560e01c8063107046bd14610058578063317debf51461009b57806336fbad26146100c357806343eed51c146100ed578063921b004b14610115578063f0f3f2c814610131575b5f5ffd5b348015610063575f5ffd5b5061007e60048036038101906100799190610f7c565b610174565b60405161009298979695949392919061100f565b60405180910390f35b3480156100a6575f5ffd5b506100c160048036038101906100bc9190610f7c565b61022e565b005b3480156100ce575f5ffd5b506100d7610679565b6040516100e4919061108b565b60405180910390f35b3480156100f8575f5ffd5b50610113600480360381019061010e9190610f7c565b61067f565b005b61012f600480360381019061012a91906110ce565b6109ff565b005b34801561013c575f5ffd5b5061015760048036038101906101529190610f7c565b610d3b565b60405161016b98979695949392919061100f565b60405180910390f35b5f602052805f5260405f205f91509050805f015f9054906101000a900473ffffffffffffffffffffffffffffffffffffffff1690806001015f9054906101000a900473ffffffffffffffffffffffffffffffffffffffff1690806002015490806003015f9054906101000a900460ff16908060030160019054906101000a900473ffffffffffffffffffffffffffffffffffffffff16908060030160159054906101000a900460ff16908060040154908060050154905088565b610236610ef7565b805f73ffffffffffffffffffffffffffffffffffffffff165f5f8381526020019081526020015f205f015f9054906101000a900473ffffffffffffffffffffffffffffffffffffffff1673ffffffffffffffffffffffffffffffffffffffff16036102d6576040517f08c379a00000000000000000000000000000000000000000000000000000000081526004016102cd90611166565b60405180910390fd5b815f5f8281526020019081526020015f205f015f9054906101000a900473ffffffffffffffffffffffffffffffffffffffff1673ffffffffffffffffffffffffffffffffffffffff163373ffffffffffffffffffffffffffffffffffffffff1614610376576040517f08c379a000000000000000000000000000000000000000000000000000000000815260040161036d906111f4565b60405180910390fd5b5f5f5f8581526020019081526020015f209050806003015f9054906101000a900460ff16156103da576040517f08c379a00000000000000000000000000000000000000000000000000000000081526004016103d19061125c565b60405180910390fd5b8060030160159054906101000a900460ff1661042b576040517f08c379a0000000000000000000000000000000000000000000000000000000008152600401610422906112c4565b60405180910390fd5b8060040154816005015410610475576040517f08c379a000000000000000000000000000000000000000000000000000000000815260040161046c9061132c565b60405180910390fd5b5f8160040154826002015461048a91906113a4565b9050816005015f8154809291906104a0906113d4565b919050555081600401548260050154036104d1576001826003015f6101000a81548160ff0219169083151502179055505b5f826001015f9054906101000a900473ffffffffffffffffffffffffffffffffffffffff1673ffffffffffffffffffffffffffffffffffffffff168260405161051990611448565b5f6040518083038185875af1925050503d805f8114610553576040519150601f19603f3d011682016040523d82523d5f602084013e610558565b606091505b505090508061059c576040517f08c379a0000000000000000000000000000000000000000000000000000000008152600401610593906114a6565b60405180910390fd5b7fd33fcd27cbfb73a2d9058c968b560ccb306500bf536133802048489ecc7355e9868460050154846040516105d3939291906114c4565b60405180910390a1826003015f9054906101000a900460ff161561066957826001015f9054906101000a900473ffffffffffffffffffffffffffffffffffffffff1673ffffffffffffffffffffffffffffffffffffffff167f6e3c6096795c8298a218b2cfb8bde42726ff7c9a3d27b4d3ba41ab7f74feb5fb8785600201546040516106609291906114f9565b60405180910390a25b5050505050610676610f3b565b50565b60015481565b610687610ef7565b805f73ffffffffffffffffffffffffffffffffffffffff165f5f8381526020019081526020015f205f015f9054906101000a900473ffffffffffffffffffffffffffffffffffffffff1673ffffffffffffffffffffffffffffffffffffffff1603610727576040517f08c379a000000000000000000000000000000000000000000000000000000000815260040161071e90611166565b60405180910390fd5b815f5f8281526020019081526020015f205f015f9054906101000a900473ffffffffffffffffffffffffffffffffffffffff1673ffffffffffffffffffffffffffffffffffffffff163373ffffffffffffffffffffffffffffffffffffffff16146107c7576040517f08c379a00000000000000000000000000000000000000000000000000000000081526004016107be906111f4565b60405180910390fd5b5f5f5f8581526020019081526020015f209050806003015f9054906101000a900460ff161561082b576040517f08c379a00000000000000000000000000000000000000000000000000000000081526004016108229061125c565b60405180910390fd5b5f816005015414610871576040517f08c379a00000000000000000000000000000000000000000000000000000000081526004016108689061156a565b60405180910390fd5b5f816002015490505f825f015f9054906101000a900473ffffffffffffffffffffffffffffffffffffffff1690505f83600201819055505f8173ffffffffffffffffffffffffffffffffffffffff16836040516108cd90611448565b5f6040518083038185875af1925050503d805f8114610907576040519150601f19603f3d011682016040523d82523d5f602084013e61090c565b606091505b5050905080610950576040517f08c379a0000000000000000000000000000000000000000000000000000000008152600401610947906114a6565b60405180910390fd5b8173ffffffffffffffffffffffffffffffffffffffff167fd1c90c5ed8b35db630851dbe3ec20c8798b71354223bfe5a5527e84103e89d5b88604051610996919061108b565b60405180910390a28173ffffffffffffffffffffffffffffffffffffffff167f710864ae79ae7195dbcaa0f79eef4a8f5b490696c2d588a27f4d69ce60ac01fc88856040516109e69291906114f9565b60405180910390a25050505050506109fc610f3b565b50565b5f73ffffffffffffffffffffffffffffffffffffffff168273ffffffffffffffffffffffffffffffffffffffff1603610a6d576040517f08c379a0000000000000000000000000000000000000000000000000000000008152600401610a64906115d2565b60405180910390fd5b5f3411610aaf576040517f08c379a0000000000000000000000000000000000000000000000000000000008152600401610aa69061163a565b60405180910390fd5b5f8111610af1576040517f08c379a0000000000000000000000000000000000000000000000000000000008152600401610ae8906116c8565b60405180910390fd5b5f60015490506040518061010001604052803373ffffffffffffffffffffffffffffffffffffffff1681526020018473ffffffffffffffffffffffffffffffffffffffff1681526020013481526020015f151581526020015f73ffffffffffffffffffffffffffffffffffffffff1681526020015f151581526020018381526020015f8152505f5f8381526020019081526020015f205f820151815f015f6101000a81548173ffffffffffffffffffffffffffffffffffffffff021916908373ffffffffffffffffffffffffffffffffffffffff1602179055506020820151816001015f6101000a81548173ffffffffffffffffffffffffffffffffffffffff021916908373ffffffffffffffffffffffffffffffffffffffff160217905550604082015181600201556060820151816003015f6101000a81548160ff02191690831515021790555060808201518160030160016101000a81548173ffffffffffffffffffffffffffffffffffffffff021916908373ffffffffffffffffffffffffffffffffffffffff16021790555060a08201518160030160156101000a81548160ff02191690831515021790555060c0820151816004015560e0820151816005015590505060015f815480929190610cca906113d4565b91905055508273ffffffffffffffffffffffffffffffffffffffff163373ffffffffffffffffffffffffffffffffffffffff167f862dfcd9710943e66ad8f1f01a99cc98ab5612a09e62ecc68f63fe2e0f86cb0e8334604051610d2e9291906114f9565b60405180910390a3505050565b5f5f5f5f5f5f5f5f5f5f5f8b81526020019081526020015f20604051806101000160405290815f82015f9054906101000a900473ffffffffffffffffffffffffffffffffffffffff1673ffffffffffffffffffffffffffffffffffffffff1673ffffffffffffffffffffffffffffffffffffffff168152602001600182015f9054906101000a900473ffffffffffffffffffffffffffffffffffffffff1673ffffffffffffffffffffffffffffffffffffffff1673ffffffffffffffffffffffffffffffffffffffff16815260200160028201548152602001600382015f9054906101000a900460ff161515151581526020016003820160019054906101000a900473ffffffffffffffffffffffffffffffffffffffff1673ffffffffffffffffffffffffffffffffffffffff1673ffffffffffffffffffffffffffffffffffffffff1681526020016003820160159054906101000a900460ff16151515158152602001600482015481526020016005820154815250509050805f015181602001518260400151836060015184608001518560a001518660c001518760e001519850985098509850985098509850985050919395975091939597565b6002805403610f32576040517f3ee5aeb500000000000000000000000000000000000000000000000000000000815260040160405180910390fd5b60028081905550565b6001600281905550565b5f5ffd5b5f819050919050565b610f5b81610f49565b8114610f65575f5ffd5b50565b5f81359050610f7681610f52565b92915050565b5f60208284031215610f9157610f90610f45565b5b5f610f9e84828501610f68565b91505092915050565b5f73ffffffffffffffffffffffffffffffffffffffff82169050919050565b5f610fd082610fa7565b9050919050565b610fe081610fc6565b82525050565b610fef81610f49565b82525050565b5f8115159050919050565b61100981610ff5565b82525050565b5f610100820190506110235f83018b610fd7565b611030602083018a610fd7565b61103d6040830189610fe6565b61104a6060830188611000565b6110576080830187610fd7565b61106460a0830186611000565b61107160c0830185610fe6565b61107e60e0830184610fe6565b9998505050505050505050565b5f60208201905061109e5f830184610fe6565b92915050565b6110ad81610fc6565b81146110b7575f5ffd5b50565b5f813590506110c8816110a4565b92915050565b5f5f604083850312156110e4576110e3610f45565b5b5f6110f1858286016110ba565b925050602061110285828601610f68565b9150509250929050565b5f82825260208201905092915050565b7f4572726f723a2050726f6a65637420646f6573206e6f742065786973742e00005f82015250565b5f611150601e8361110c565b915061115b8261111c565b602082019050919050565b5f6020820190508181035f83015261117d81611144565b9050919050565b7f4572726f723a204f6e6c792074686520636c69656e742063616e20706572666f5f8201527f726d207468697320616374696f6e2e0000000000000000000000000000000000602082015250565b5f6111de602f8361110c565b91506111e982611184565b604082019050919050565b5f6020820190508181035f83015261120b816111d2565b9050919050565b7f46756e647320616c72656164792072656c65617365642e0000000000000000005f82015250565b5f61124660178361110c565b915061125182611212565b602082019050919050565b5f6020820190508181035f8301526112738161123a565b9050919050565b7f50726f6a656374206d7573742062652076616c6964617465642066697273742e5f82015250565b5f6112ae60208361110c565b91506112b98261127a565b602082019050919050565b5f6020820190508181035f8301526112db816112a2565b9050919050565b7f416c6c206d696c6573746f6e657320706169642e0000000000000000000000005f82015250565b5f61131660148361110c565b9150611321826112e2565b602082019050919050565b5f6020820190508181035f8301526113438161130a565b9050919050565b7f4e487b71000000000000000000000000000000000000000000000000000000005f52601260045260245ffd5b7f4e487b71000000000000000000000000000000000000000000000000000000005f52601160045260245ffd5b5f6113ae82610f49565b91506113b983610f49565b9250826113c9576113c861134a565b5b828204905092915050565b5f6113de82610f49565b91507fffffffffffffffffffffffffffffffffffffffffffffffffffffffffffffffff82036114105761140f611377565b5b600182019050919050565b5f81905092915050565b50565b5f6114335f8361141b565b915061143e82611425565b5f82019050919050565b5f61145282611428565b9150819050919050565b7f5472616e73666572206661696c65642e000000000000000000000000000000005f82015250565b5f61149060108361110c565b915061149b8261145c565b602082019050919050565b5f6020820190508181035f8301526114bd81611484565b9050919050565b5f6060820190506114d75f830186610fe6565b6114e46020830185610fe6565b6114f16040830184610fe6565b949350505050565b5f60408201905061150c5f830185610fe6565b6115196020830184610fe6565b9392505050565b7f4d696c6573746f6e657320616c726561647920706169642e00000000000000005f82015250565b5f61155460188361110c565b915061155f82611520565b602082019050919050565b5f6020820190508181035f83015261158181611548565b9050919050565b7f496e76616c6964206172746973742061646472657373000000000000000000005f82015250565b5f6115bc60168361110c565b91506115c782611588565b602082019050919050565b5f6020820190508181035f8301526115e9816115b0565b9050919050565b7f4d757374206465706f73697420455448000000000000000000000000000000005f82015250565b5f61162460108361110c565b915061162f826115f0565b602082019050919050565b5f6020820190508181035f83015261165181611618565b9050919050565b7f4d696c6573746f6e6520636f756e74206d7573742062652067726561746572205f8201527f7468616e207a65726f0000000000000000000000000000000000000000000000602082015250565b5f6116b260298361110c565b91506116bd82611658565b604082019050919050565b5f6020820190508181035f8301526116df816116a6565b905091905056fea2646970667358221220648f405dd4a7f56e849d9693b68a9eaa092186e48864290a71c296deccd8c94464736f6c634300081c0033","linkReferences":{}},"methodIdentifiers":{"depositFunds(address,uint256)":"921b004b","getProject(uint256)":"f0f3f2c8","projectCount()":"36fbad26","projects(uint256)":"107046bd","refundClient(uint256)":"43eed51c","releaseMilestone(uint256)":"317debf5"},"id":2}