{"abi":[{"type":"function","name":"depositFunds","inputs":[{"name":"_artist","type":"address","internalType":"address"},{"name":"_milestoneCount","type":"uint256","internalType":"uint256"}],"outputs":[],"stateMutability":"payable"},{"type":"function","name":"getProject","inputs":[{"name":"_projectId","type":"uint256","internalType":"uint256"}],"outputs":[{"name":"client","type":"address","internalType":"address"},{"name":"artist","type":"address","internalType":"address"},{"name":"amount","type":"uint256","internalType":"uint256"},{"name":"released","type":"bool","internalType":"bool"},{"name":"validator","type":"address","internalType":"address"},{"name":"validated","type":"bool","internalType":"bool"},{"name":"milestoneCount","type":"uint256","internalType":"uint256"},{"name":"milestonesPaid","type":"uint256","internalType":"uint256"}],"stateMutability":"view"},{"type":"function","name":"projectCount","inputs":[],"outputs":[{"name":"","type":"uint256","internalType":"uint256"}],"stateMutability":"view"},{"type":"function","name":"projects","inputs":[{"name":"","type":"uint256","internalType":"uint256"}],"outputs":[{"name":"client","type":"address","internalType":"address"},{"name":"artist","type":"address","internalType":"address"},{"name":"amount","type":"uint256","internalType":"uint256"},{"name":"released","type":"bool","internalType":"bool"},{"name":"validator","type":"address","internalType":"address"},{"name":"validated","type":"bool","internalType":"bool"},{"name":"milestoneCount","type":"uint256","internalType":"uint256"},{"name":"milestonesPaid","type":"uint256","internalType":"uint256"}],"stateMutability":"view"},{"type":"function","name":"refundClient","inputs":[{"name":"_projectId","type":"uint256","internalType":"uint256"}],"outputs":[],"stateMutability":"nonpayable"},{"type":"function","name":"releaseMilestone","inputs":[{"name":"_projectId","type":"uint256","internalType":"uint256"}],"outputs":[],"stateMutability":"nonpayable"},{"type":"event","name":"ClientRefunded","inputs":[{"name":"projectId","type":"uint256","indexed":false,"internalType":"uint256"},{"name":"client","type":"address","indexed":true,"internalType":"address"},{"name":"amount","type":"uint256","indexed":false,"internalType":"uint256"}],"anonymous":false},{"type":"event","name":"FundsDeposited","inputs":[{"name":"projectId","type":"uint256","indexed":false,"internalType":"uint256"},{"name":"client","type":"address","indexed":true,"internalType":"address"},{"name":"artist","type":"address","indexed":true,"internalType":"address"},{"name":"amount","type":"uint256","indexed":false,"internalType":"uint256"}],"anonymous":false},{"type":"event","name":"FundsRefunded","inputs":[{"name":"projectId","type":"uint256","indexed":false,"internalType":"uint256"},{"name":"client","type":"address","indexed":true,"internalType":"address"}],"anonymous":false},{"type":"event","name":"FundsReleased","inputs":[{"name":"projectId","type":"uint256","indexed":false,"internalType":"uint256"},{"name":"artist","type":"address","indexed":true,"internalType":"address"},{"name":"amount","type":"uint256","indexed":false,"internalType":"uint256"}],"anonymous":false},{"type":"event","name":"MilestoneReleased","inputs":[{"name":"projectId","type":"uint256","indexed":false,"internalType":"uint256"},{"name":"milestoneIndex","type":"uint256","indexed":false,"internalType":"uint256"},{"name":"amount","type":"uint256","indexed":false,"internalType":"uint256"}],"anonymous":false},{"type":"event","name":"ProjectValidated","inputs":[{"name":"projectId","type":"uint256","indexed":false,"internalType":"uint256"},{"name":"validator","type":"address","indexed":true,"internalType":"address"}],"anonymous":false},{"type":"event","name":"ValidatorAssigned","inputs":[{"name":"projectId","type":"uint256","indexed":false,"internalType":"uint256"},{"name":"validator","type":"address","indexed":true,"internalType":"address"}],"anonymous":false},{"type":"error","name":"ReentrancyGuardReentrantCall","inputs":[]}],"bytecode":{"object":"0x6080604052348015600e575f5ffd5b506001600281905550611806806100245f395ff3fe608060405260043610610054575f3560e01c8063107046bd14610058578063317debf51461009b57806336fbad26146100c357806343eed51c146100ed578063921b004b14610115578063f0f3f2c814610131575b5f5ffd5b348015610063575f5ffd5b5061007e60048036038101906100799190610f8c565b610174565b60405161009298979695949392919061101f565b60405180910390f35b3480156100a6575f5ffd5b506100c160048036038101906100bc9190610f8c565b61022e565b005b3480156100ce575f5ffd5b506100d7610688565b6040516100e4919061109b565b60405180910390f35b3480156100f8575f5ffd5b50610113600480360381019061010e9190610f8c565b61068e565b005b61012f600480360381019061012a91906110de565b610a0f565b005b34801561013c575f5ffd5b5061015760048036038101906101529190610f8c565b610d4b565b60405161016b98979695949392919061101f565b60405180910390f35b5f602052805f5260405f205f91509050805f015f9054906101000a900473ffffffffffffffffffffffffffffffffffffffff1690806001015f9054906101000a900473ffffffffffffffffffffffffffffffffffffffff1690806002015490806003015f9054906101000a900460ff16908060030160019054906101000a900473ffffffffffffffffffffffffffffffffffffffff16908060030160159054906101000a900460ff16908060040154908060050154905088565b610236610f07565b805f73ffffffffffffffffffffffffffffffffffffffff165f5f8381526020019081526020015f205f015f9054906101000a900473ffffffffffffffffffffffffffffffffffffffff1673ffffffffffffffffffffffffffffffffffffffff16036102d6576040517f08c379a00000000000000000000000000000000000000000000000000000000081526004016102cd90611176565b60405180910390fd5b815f5f8281526020019081526020015f205f015f9054906101000a900473ffffffffffffffffffffffffffffffffffffffff1673ffffffffffffffffffffffffffffffffffffffff163373ffffffffffffffffffffffffffffffffffffffff1614610376576040517f08c379a000000000000000000000000000000000000000000000000000000000815260040161036d90611204565b60405180910390fd5b5f5f8481526020019081526020015f2060030160159054906101000a900460ff166103d6576040517f08c379a00000000000000000000000000000000000000000000000000000000081526004016103cd90611292565b60405180910390fd5b5f5f5f8581526020019081526020015f2090508060040154816005015410610433576040517f08c379a000000000000000000000000000000000000000000000000000000000815260040161042a906112fa565b60405180910390fd5b806003015f9054906101000a900460ff1615610484576040517f08c379a000000000000000000000000000000000000000000000000000000000815260040161047b90611362565b60405180910390fd5b5f8160040154826002015461049991906113da565b9050816005015f8154809291906104af9061140a565b919050555081600401548260050154036104e0576001826003015f6101000a81548160ff0219169083151502179055505b5f826001015f9054906101000a900473ffffffffffffffffffffffffffffffffffffffff1673ffffffffffffffffffffffffffffffffffffffff16826040516105289061147e565b5f6040518083038185875af1925050503d805f8114610562576040519150601f19603f3d011682016040523d82523d5f602084013e610567565b606091505b50509050806105ab576040517f08c379a00000000000000000000000000000000000000000000000000000000081526004016105a2906114dc565b60405180910390fd5b7fd33fcd27cbfb73a2d9058c968b560ccb306500bf536133802048489ecc7355e9868460050154846040516105e2939291906114fa565b60405180910390a1826003015f9054906101000a900460ff161561067857826001015f9054906101000a900473ffffffffffffffffffffffffffffffffffffffff1673ffffffffffffffffffffffffffffffffffffffff167f6e3c6096795c8298a218b2cfb8bde42726ff7c9a3d27b4d3ba41ab7f74feb5fb87856002015460405161066f92919061152f565b60405180910390a25b5050505050610685610f4b565b50565b60015481565b610696610f07565b805f73ffffffffffffffffffffffffffffffffffffffff165f5f8381526020019081526020015f205f015f9054906101000a900473ffffffffffffffffffffffffffffffffffffffff1673ffffffffffffffffffffffffffffffffffffffff1603610736576040517f08c379a000000000000000000000000000000000000000000000000000000000815260040161072d90611176565b60405180910390fd5b815f5f8281526020019081526020015f205f015f9054906101000a900473ffffffffffffffffffffffffffffffffffffffff1673ffffffffffffffffffffffffffffffffffffffff163373ffffffffffffffffffffffffffffffffffffffff16146107d6576040517f08c379a00000000000000000000000000000000000000000000000000000000081526004016107cd90611204565b60405180910390fd5b5f5f5f8581526020019081526020015f209050806003015f9054906101000a900460ff161561083a576040517f08c379a0000000000000000000000000000000000000000000000000000000008152600401610831906115c6565b60405180910390fd5b5f81600501541115610881576040517f08c379a000000000000000000000000000000000000000000000000000000000815260040161087890611654565b60405180910390fd5b5f816002015490505f825f015f9054906101000a900473ffffffffffffffffffffffffffffffffffffffff1690505f83600201819055505f8173ffffffffffffffffffffffffffffffffffffffff16836040516108dd9061147e565b5f6040518083038185875af1925050503d805f8114610917576040519150601f19603f3d011682016040523d82523d5f602084013e61091c565b606091505b5050905080610960576040517f08c379a0000000000000000000000000000000000000000000000000000000008152600401610957906114dc565b60405180910390fd5b8173ffffffffffffffffffffffffffffffffffffffff167fd1c90c5ed8b35db630851dbe3ec20c8798b71354223bfe5a5527e84103e89d5b886040516109a6919061109b565b60405180910390a28173ffffffffffffffffffffffffffffffffffffffff167f710864ae79ae7195dbcaa0f79eef4a8f5b490696c2d588a27f4d69ce60ac01fc88856040516109f692919061152f565b60405180910390a2505050505050610a0c610f4b565b50565b5f73ffffffffffffffffffffffffffffffffffffffff168273ffffffffffffffffffffffffffffffffffffffff1603610a7d576040517f08c379a0000000000000000000000000000000000000000000000000000000008152600401610a74906116bc565b60405180910390fd5b5f3411610abf576040517f08c379a0000000000000000000000000000000000000000000000000000000008152600401610ab690611724565b60405180910390fd5b5f8111610b01576040517f08c379a0000000000000000000000000000000000000000000000000000000008152600401610af8906117b2565b60405180910390fd5b5f60015490506040518061010001604052803373ffffffffffffffffffffffffffffffffffffffff1681526020018473ffffffffffffffffffffffffffffffffffffffff1681526020013481526020015f151581526020015f73ffffffffffffffffffffffffffffffffffffffff1681526020015f151581526020018381526020015f8152505f5f8381526020019081526020015f205f820151815f015f6101000a81548173ffffffffffffffffffffffffffffffffffffffff021916908373ffffffffffffffffffffffffffffffffffffffff1602179055506020820151816001015f6101000a81548173ffffffffffffffffffffffffffffffffffffffff021916908373ffffffffffffffffffffffffffffffffffffffff160217905550604082015181600201556060820151816003015f6101000a81548160ff02191690831515021790555060808201518160030160016101000a81548173ffffffffffffffffffffffffffffffffffffffff021916908373ffffffffffffffffffffffffffffffffffffffff16021790555060a08201518160030160156101000a81548160ff02191690831515021790555060c0820151816004015560e0820151816005015590505060015f815480929190610cda9061140a565b91905055508273ffffffffffffffffffffffffffffffffffffffff163373ffffffffffffffffffffffffffffffffffffffff167f862dfcd9710943e66ad8f1f01a99cc98ab5612a09e62ecc68f63fe2e0f86cb0e8334604051610d3e92919061152f565b60405180910390a3505050565b5f5f5f5f5f5f5f5f5f5f5f8b81526020019081526020015f20604051806101000160405290815f82015f9054906101000a900473ffffffffffffffffffffffffffffffffffffffff1673ffffffffffffffffffffffffffffffffffffffff1673ffffffffffffffffffffffffffffffffffffffff168152602001600182015f9054906101000a900473ffffffffffffffffffffffffffffffffffffffff1673ffffffffffffffffffffffffffffffffffffffff1673ffffffffffffffffffffffffffffffffffffffff16815260200160028201548152602001600382015f9054906101000a900460ff161515151581526020016003820160019054906101000a900473ffffffffffffffffffffffffffffffffffffffff1673ffffffffffffffffffffffffffffffffffffffff1673ffffffffffffffffffffffffffffffffffffffff1681526020016003820160159054906101000a900460ff16151515158152602001600482015481526020016005820154815250509050805f015181602001518260400151836060015184608001518560a001518660c001518760e001519850985098509850985098509850985050919395975091939597565b6002805403610f42576040517f3ee5aeb500000000000000000000000000000000000000000000000000000000815260040160405180910390fd5b60028081905550565b6001600281905550565b5f5ffd5b5f819050919050565b610f6b81610f59565b8114610f75575f5ffd5b50565b5f81359050610f8681610f62565b92915050565b5f60208284031215610fa157610fa0610f55565b5b5f610fae84828501610f78565b91505092915050565b5f73ffffffffffffffffffffffffffffffffffffffff82169050919050565b5f610fe082610fb7565b9050919050565b610ff081610fd6565b82525050565b610fff81610f59565b82525050565b5f8115159050919050565b61101981611005565b82525050565b5f610100820190506110335f83018b610fe7565b611040602083018a610fe7565b61104d6040830189610ff6565b61105a6060830188611010565b6110676080830187610fe7565b61107460a0830186611010565b61108160c0830185610ff6565b61108e60e0830184610ff6565b9998505050505050505050565b5f6020820190506110ae5f830184610ff6565b92915050565b6110bd81610fd6565b81146110c7575f5ffd5b50565b5f813590506110d8816110b4565b92915050565b5f5f604083850312156110f4576110f3610f55565b5b5f611101858286016110ca565b925050602061111285828601610f78565b9150509250929050565b5f82825260208201905092915050565b7f4572726f723a2050726f6a65637420646f6573206e6f742065786973742e00005f82015250565b5f611160601e8361111c565b915061116b8261112c565b602082019050919050565b5f6020820190508181035f83015261118d81611154565b9050919050565b7f4572726f723a204f6e6c792074686520636c69656e742063616e20706572666f5f8201527f726d207468697320616374696f6e2e0000000000000000000000000000000000602082015250565b5f6111ee602f8361111c565b91506111f982611194565b604082019050919050565b5f6020820190508181035f83015261121b816111e2565b9050919050565b7f4572726f723a2050726f6a656374206d7573742062652076616c6964617465645f8201527f206265666f72652072656c656173696e672066756e6473000000000000000000602082015250565b5f61127c60378361111c565b915061128782611222565b604082019050919050565b5f6020820190508181035f8301526112a981611270565b9050919050565b7f416c6c206d696c6573746f6e657320706169642e0000000000000000000000005f82015250565b5f6112e460148361111c565b91506112ef826112b0565b602082019050919050565b5f6020820190508181035f830152611311816112d8565b9050919050565b7f46756e647320616c72656164792072656c65617365642e0000000000000000005f82015250565b5f61134c60178361111c565b915061135782611318565b602082019050919050565b5f6020820190508181035f83015261137981611340565b9050919050565b7f4e487b71000000000000000000000000000000000000000000000000000000005f52601260045260245ffd5b7f4e487b71000000000000000000000000000000000000000000000000000000005f52601160045260245ffd5b5f6113e482610f59565b91506113ef83610f59565b9250826113ff576113fe611380565b5b828204905092915050565b5f61141482610f59565b91507fffffffffffffffffffffffffffffffffffffffffffffffffffffffffffffffff8203611446576114456113ad565b5b600182019050919050565b5f81905092915050565b50565b5f6114695f83611451565b91506114748261145b565b5f82019050919050565b5f6114888261145e565b9150819050919050565b7f5472616e73666572206661696c65642e000000000000000000000000000000005f82015250565b5f6114c660108361111c565b91506114d182611492565b602082019050919050565b5f6020820190508181035f8301526114f3816114ba565b9050919050565b5f60608201905061150d5f830186610ff6565b61151a6020830185610ff6565b6115276040830184610ff6565b949350505050565b5f6040820190506115425f830185610ff6565b61154f6020830184610ff6565b9392505050565b7f4572726f723a2043616e6e6f7420726566756e642061667465722066756c6c205f8201527f72656c6561736500000000000000000000000000000000000000000000000000602082015250565b5f6115b060278361111c565b91506115bb82611556565b604082019050919050565b5f6020820190508181035f8301526115dd816115a4565b9050919050565b7f4572726f723a2043616e6e6f7420726566756e642061667465722070617274695f8201527f616c2072656c6561736500000000000000000000000000000000000000000000602082015250565b5f61163e602a8361111c565b9150611649826115e4565b604082019050919050565b5f6020820190508181035f83015261166b81611632565b9050919050565b7f496e76616c6964206172746973742061646472657373000000000000000000005f82015250565b5f6116a660168361111c565b91506116b182611672565b602082019050919050565b5f6020820190508181035f8301526116d38161169a565b9050919050565b7f416d6f756e74206d757374206265203e203000000000000000000000000000005f82015250565b5f61170e60128361111c565b9150611719826116da565b602082019050919050565b5f6020820190508181035f83015261173b81611702565b9050919050565b7f4d696c6573746f6e6520636f756e74206d7573742062652067726561746572205f8201527f7468616e207a65726f0000000000000000000000000000000000000000000000602082015250565b5f61179c60298361111c565b91506117a782611742565b604082019050919050565b5f6020820190508181035f8301526117c981611790565b905091905056fea2646970667358221220d7f5d3837082003da5d6cd40fcce01e61368267f6e84364ff1e15e394cfa293364736f6c634300081c0033","linkReferences":{}},"methodIdentifiers":{"depositFunds(address,uint256)":"921b004b","getProject(uint256)":"f0f3f2c8","projectCount()":"36fbad26","projects(uint256)":"107046bd","refundClient(uint256)":"43eed51c","releaseMilestone(uint256)":"317debf5"},"id":2}