{"abi":[{"type":"function","name":"depositFunds","inputs":[{"name":"_artist","type":"address","internalType":"address"},{"name":"_milestoneCount","type":"uint256","internalType":"uint256"}],"outputs":[],"stateMutability":"payable"},{"type":"function","name":"getOracle","inputs":[],"outputs":[{"name":"","type":"address","internalType":"contract IOracle"}],"stateMutability":"view"},{"type":"function","name":"getProject","inputs":[{"name":"_projectId","type":"uint256","internalType":"uint256"}],"outputs":[{"name":"client","type":"address","internalType":"address"},{"name":"artist","type":"address","internalType":"address"},{"name":"amount","type":"uint256","internalType":"uint256"},{"name":"released","type":"bool","internalType":"bool"},{"name":"validator","type":"address","internalType":"address"},{"name":"validated","type":"bool","internalType":"bool"},{"name":"milestoneCount","type":"uint256","internalType":"uint256"},{"name":"milestonesPaid","type":"uint256","internalType":"uint256"},{"name":"useFallback","type":"bool","internalType":"bool"},{"name":"fallbackDelay","type":"uint256","internalType":"uint256"},{"name":"useSignature","type":"bool","internalType":"bool"},{"name":"createdAt","type":"uint256","internalType":"uint256"}],"stateMutability":"view"},{"type":"function","name":"projectCount","inputs":[],"outputs":[{"name":"","type":"uint256","internalType":"uint256"}],"stateMutability":"view"},{"type":"function","name":"projects","inputs":[{"name":"","type":"uint256","internalType":"uint256"}],"outputs":[{"name":"client","type":"address","internalType":"address"},{"name":"artist","type":"address","internalType":"address"},{"name":"amount","type":"uint256","internalType":"uint256"},{"name":"released","type":"bool","internalType":"bool"},{"name":"validator","type":"address","internalType":"address"},{"name":"validated","type":"bool","internalType":"bool"},{"name":"milestoneCount","type":"uint256","internalType":"uint256"},{"name":"milestonesPaid","type":"uint256","internalType":"uint256"},{"name":"useFallback","type":"bool","internalType":"bool"},{"name":"fallbackDelay","type":"uint256","internalType":"uint256"},{"name":"useSignature","type":"bool","internalType":"bool"},{"name":"createdAt","type":"uint256","internalType":"uint256"}],"stateMutability":"view"},{"type":"function","name":"refundClient","inputs":[{"name":"_projectId","type":"uint256","internalType":"uint256"}],"outputs":[],"stateMutability":"nonpayable"},{"type":"function","name":"releaseAfterEvent","inputs":[{"name":"_projectId","type":"uint256","internalType":"uint256"}],"outputs":[],"stateMutability":"nonpayable"},{"type":"function","name":"releaseMilestone","inputs":[{"name":"_projectId","type":"uint256","internalType":"uint256"}],"outputs":[],"stateMutability":"nonpayable"},{"type":"event","name":"ClientRefunded","inputs":[{"name":"projectId","type":"uint256","indexed":false,"internalType":"uint256"},{"name":"client","type":"address","indexed":true,"internalType":"address"},{"name":"amount","type":"uint256","indexed":false,"internalType":"uint256"}],"anonymous":false},{"type":"event","name":"FundsDeposited","inputs":[{"name":"projectId","type":"uint256","indexed":false,"internalType":"uint256"},{"name":"client","type":"address","indexed":true,"internalType":"address"},{"name":"artist","type":"address","indexed":true,"internalType":"address"},{"name":"amount","type":"uint256","indexed":false,"internalType":"uint256"}],"anonymous":false},{"type":"event","name":"FundsRefunded","inputs":[{"name":"projectId","type":"uint256","indexed":false,"internalType":"uint256"},{"name":"client","type":"address","indexed":true,"internalType":"address"}],"anonymous":false},{"type":"event","name":"FundsReleased","inputs":[{"name":"projectId","type":"uint256","indexed":false,"internalType":"uint256"},{"name":"artist","type":"address","indexed":true,"internalType":"address"},{"name":"amount","type":"uint256","indexed":false,"internalType":"uint256"}],"anonymous":false},{"type":"event","name":"MilestoneReleased","inputs":[{"name":"projectId","type":"uint256","indexed":false,"internalType":"uint256"},{"name":"milestoneIndex","type":"uint256","indexed":false,"internalType":"uint256"},{"name":"amount","type":"uint256","indexed":false,"internalType":"uint256"}],"anonymous":false},{"type":"event","name":"ProjectValidated","inputs":[{"name":"projectId","type":"uint256","indexed":false,"internalType":"uint256"},{"name":"validator","type":"address","indexed":true,"internalType":"address"}],"anonymous":false},{"type":"event","name":"ValidatorAssigned","inputs":[{"name":"projectId","type":"uint256","indexed":false,"internalType":"uint256"},{"name":"validator","type":"address","indexed":true,"internalType":"address"}],"anonymous":false},{"type":"error","name":"ReentrancyGuardReentrantCall","inputs":[]}],"bytecode":{"object":"0x608060405234602257600e6030565b60146026565b6120826100bf823961208290f35b602c565b60405190565b5f80fd5b603660ae565b565b90565b90565b90565b6050604c6054926038565b603e565b603b565b90565b605f60016041565b90565b5f1b90565b9060715f19916062565b9181191691161790565b608a6086608e92603b565b603e565b603b565b90565b90565b9060a460a060aa92607b565b6091565b82546067565b9055565b60bc60b66057565b60026094565b56fe60806040526004361015610013575b610650565b61001d5f3561009c565b8063107046bd14610097578063317debf51461009257806336fbad261461008d57806343eed51c14610088578063833b1fce14610083578063921b004b1461007e578063cbcbc305146100795763f0f3f2c80361000e5761060b565b6105d8565b6105ae565b610529565b6104a0565b61046b565b6103db565b610391565b60e01c90565b60405190565b5f80fd5b5f80fd5b90565b6100bc816100b0565b036100c357565b5f80fd5b905035906100d4826100b3565b565b906020828203126100ef576100ec915f016100c7565b90565b6100ac565b90565b61010b610106610110926100b0565b6100f4565b6100b0565b90565b9061011d906100f7565b5f5260205260405f2090565b5f1c90565b60018060a01b031690565b61014561014a91610129565b61012e565b90565b6101579054610139565b90565b90565b61016961016e91610129565b61015a565b90565b61017b905461015d565b90565b60ff1690565b61019061019591610129565b61017e565b90565b6101a29054610184565b90565b60081c90565b6101b76101bc916101a5565b61012e565b90565b6101c990546101ab565b90565b60a81c90565b6101de6101e3916101cc565b61017e565b90565b6101f090546101d2565b90565b6101fd905f610113565b906102095f830161014d565b916102166001820161014d565b9161022360028301610171565b9161023060038201610198565b9161023d600383016101bf565b9161024a600382016101e6565b9161025760048301610171565b9161026460058201610171565b9161027160068301610198565b9161027e60078201610171565b91610297600961029060088501610198565b9301610171565b90565b60018060a01b031690565b6102ae9061029a565b90565b6102ba906102a5565b9052565b6102c7906100b0565b9052565b151590565b6102d9906102cb565b9052565b99979593919c9b9a98969492909c6101808b019d5f8c016102fd916102b1565b60208b0161030a916102b1565b60408a01610317916102be565b60608901610324916102d0565b60808801610331916102b1565b60a0870161033e916102d0565b60c0860161034b916102be565b60e08501610358916102be565b6101008401610366916102d0565b6101208301610374916102be565b6101408201610382916102d0565b6101600161038f916102be565b565b346103d1576103cd6103ac6103a73660046100d6565b6101f3565b986103c49c9a9c9891989792979693969594956100a2565b9c8d9c8d6102dd565b0390f35b6100a8565b5f0190565b34610409576103f36103ee3660046100d6565b610fa7565b6103fb6100a2565b80610405816103d6565b0390f35b6100a8565b5f91031261041857565b6100ac565b1c90565b610431906008610436930261041d565b61015a565b90565b906104449154610421565b90565b61045360015f90610439565b90565b9190610469905f602085019401906102be565b565b3461049b5761047b36600461040e565b610497610486610447565b61048e6100a2565b91829182610456565b0390f35b6100a8565b346104ce576104b86104b33660046100d6565b6113ab565b6104c06100a2565b806104ca816103d6565b0390f35b6100a8565b6104e76104e26104ec9261029a565b6100f4565b61029a565b90565b6104f8906104d3565b90565b610504906104ef565b90565b610510906104fb565b9052565b9190610527905f60208501940190610507565b565b346105595761053936600461040e565b6105556105446113d2565b61054c6100a2565b91829182610514565b0390f35b6100a8565b610567816102a5565b0361056e57565b5f80fd5b9050359061057f8261055e565b565b91906040838203126105a9578061059d6105a6925f8601610572565b936020016100c7565b90565b6100ac565b6105c26105bc366004610581565b906118c1565b6105ca6100a2565b806105d4816103d6565b0390f35b34610606576105f06105eb3660046100d6565b611cff565b6105f86100a2565b80610602816103d6565b0390f35b6100a8565b3461064b576106476106266106213660046100d6565b611e5d565b9861063e9c9a9c9891989792979693969594956100a2565b9c8d9c8d6102dd565b0390f35b6100a8565b5f80fd5b61066590610660611fb4565b610725565b61066d612038565b565b90565b61068661068161068b9261066f565b6100f4565b61029a565b90565b61069790610672565b90565b60209181520190565b5f7f4572726f723a2050726f6a65637420646f6573206e6f742065786973742e0000910152565b6106d7601e60209261069a565b6106e0816106a3565b0190565b6106f99060208101905f8183039101526106ca565b90565b1561070357565b61070b6100a2565b62461bcd60e51b815280610721600482016106e4565b0390fd5b610766906107616107405f61073a8482610113565b0161014d565b61075a61075461074f5f61068e565b6102a5565b916102a5565b14156106fc565b610810565b565b60207f726d207468697320616374696f6e2e0000000000000000000000000000000000917f4572726f723a204f6e6c792074686520636c69656e742063616e20706572666f5f8201520152565b6107c2602f60409261069a565b6107cb81610768565b0190565b6107e49060208101905f8183039101526107b5565b90565b156107ee57565b6107f66100a2565b62461bcd60e51b81528061080c600482016107cf565b0390fd5b610849906108448161083e6108386108335f61082d339582610113565b0161014d565b6102a5565b916102a5565b146107e7565b610d30565b565b90565b60207f206265666f72652072656c656173696e672066756e6473000000000000000000917f4572726f723a2050726f6a656374206d7573742062652076616c6964617465645f8201520152565b6108a8603760409261069a565b6108b18161084e565b0190565b6108ca9060208101905f81830391015261089b565b90565b156108d457565b6108dc6100a2565b62461bcd60e51b8152806108f2600482016108b5565b0390fd5b5f7f4572726f723a20416c6c206d696c6573746f6e657320706169642e0000000000910152565b61092a601b60209261069a565b610933816108f6565b0190565b61094c9060208101905f81830391015261091d565b90565b1561095657565b61095e6100a2565b62461bcd60e51b81528061097460048201610937565b0390fd5b601f801991011690565b634e487b7160e01b5f52604160045260245ffd5b906109a090610978565b810190811067ffffffffffffffff8211176109ba57604052565b610982565b60e01b90565b905051906109d2826100b3565b565b906020828203126109ed576109ea915f016109c5565b90565b6100ac565b6109fa6100a2565b3d5f823e3d90fd5b90565b610a19610a14610a1e92610a02565b6100f4565b6100b0565b90565b5f7f507269636520746f6f206c6f7700000000000000000000000000000000000000910152565b610a55600d60209261069a565b610a5e81610a21565b0190565b610a779060208101905f818303910152610a48565b90565b15610a8157565b610a896100a2565b62461bcd60e51b815280610a9f60048201610a62565b0390fd5b634e487b7160e01b5f52601260045260245ffd5b634e487b7160e01b5f52601160045260245ffd5b610ad7610add916100b0565b916100b0565b908115610ae8570490565b610aa3565b610af6906100b0565b5f198114610b045760010190565b610ab7565b5f1b90565b90610b1a5f1991610b09565b9181191691161790565b90565b90610b3c610b37610b43926100f7565b610b24565b8254610b0e565b9055565b90610b5360ff91610b09565b9181191691161790565b610b66906102cb565b90565b90565b90610b81610b7c610b8892610b5d565b610b69565b8254610b47565b9055565b610b95906104d3565b90565b610ba190610b8c565b90565b610bad906104ef565b90565b905090565b610bc05f8092610bb0565b0190565b610bcd90610bb5565b90565b90610be3610bdc6100a2565b9283610996565b565b67ffffffffffffffff8111610c0357610bff602091610978565b0190565b610982565b90610c1a610c1583610be5565b610bd0565b918252565b606090565b3d5f14610c3f57610c343d610c08565b903d5f602084013e5b565b610c47610c1f565b90610c3d565b5f7f5472616e73666572206661696c65640000000000000000000000000000000000910152565b610c81600f60209261069a565b610c8a81610c4d565b0190565b610ca39060208101905f818303910152610c74565b90565b15610cad57565b610cb56100a2565b62461bcd60e51b815280610ccb60048201610c8e565b0390fd5b604090610cf8610cff9496959396610cee60608401985f8501906102be565b60208301906102be565b01906102be565b565b610d0a906104ef565b90565b916020610d2e929493610d2760408201965f8301906102be565b01906102be565b565b610d43610d3e5f8390610113565b61084b565b90610d58610d53600384016101e6565b6108cd565b610d8a610d6760058401610171565b610d84610d7e610d7960048701610171565b6100b0565b916100b0565b1061094f565b610db56020610d9f610d9a6113d2565b6104fb565b638e15f47390610dad6100a2565b9384926109bf565b82528180610dc5600482016103d6565b03915afa8015610fa257610df6915f91610f74575b50610def610de96103e8610a05565b916100b0565b1015610a7a565b610e17610e0560028401610171565b610e1160048501610171565b90610acb565b610e3560058401610e2f610e2a82610171565b610aed565b90610b27565b610e4160058401610171565b610e5e610e58610e5360048701610171565b6100b0565b916100b0565b149081610f61575b610ead5f80610e87610e82610e7d60018a0161014d565b610b98565b610ba4565b84610e906100a2565b9081610e9b81610bc4565b03925af1610ea7610c24565b50610ca6565b8290610ebb60058601610171565b9091610ef37fd33fcd27cbfb73a2d9058c968b560ccb306500bf536133802048489ecc7355e993610eea6100a2565b93849384610ccf565b0390a1610eff575b5050565b90610f186002610f116001840161014d565b9201610171565b610f427f6e3c6096795c8298a218b2cfb8bde42726ff7c9a3d27b4d3ba41ab7f74feb5fb92610d01565b92610f57610f4e6100a2565b92839283610d0d565b0390a25f80610efb565b610f6f600160038601610b6c565b610e66565b610f95915060203d8111610f9b575b610f8d8183610996565b8101906109d4565b5f610dda565b503d610f83565b6109f2565b610fb090610654565b565b610fc390610fbe611fb4565b610fcd565b610fcb612038565b565b61100e90611009610fe85f610fe28482610113565b0161014d565b611002610ffc610ff75f61068e565b6102a5565b916102a5565b14156106fc565b611010565b565b611049906110448161103e6110386110335f61102d339582610113565b0161014d565b6102a5565b916102a5565b146107e7565b611239565b565b60207f72656c6561736500000000000000000000000000000000000000000000000000917f4572726f723a2043616e6e6f7420726566756e642061667465722066756c6c205f8201520152565b6110a5602760409261069a565b6110ae8161104b565b0190565b6110c79060208101905f818303910152611098565b90565b156110d157565b6110d96100a2565b62461bcd60e51b8152806110ef600482016110b2565b0390fd5b61110761110261110c9261066f565b6100f4565b6100b0565b90565b60207f616c2072656c6561736500000000000000000000000000000000000000000000917f4572726f723a2043616e6e6f7420726566756e642061667465722070617274695f8201520152565b611169602a60409261069a565b6111728161110f565b0190565b61118b9060208101905f81830391015261115c565b90565b1561119557565b61119d6100a2565b62461bcd60e51b8152806111b360048201611176565b0390fd5b5f7f4572726f723a204e6f2066756e647320746f20726566756e6400000000000000910152565b6111eb601960209261069a565b6111f4816111b7565b0190565b61120d9060208101905f8183039101526111de565b90565b1561121757565b61121f6100a2565b62461bcd60e51b815280611235600482016111f8565b0390fd5b5f806113a99261138361137e611258611253858590610113565b61084b565b61127561127061126a60038401610198565b156102cb565b6110ca565b61129c61128460058301610171565b611296611290886110f3565b916100b0565b1461118e565b6112c36112ab60028301610171565b6112bd6112b7886110f3565b916100b0565b11611210565b6112cf60028201610171565b936112f16112de87840161014d565b9260026112ea896110f3565b9101610b27565b80826113326113207fd1c90c5ed8b35db630851dbe3ec20c8798b71354223bfe5a5527e84103e89d5b92610d01565b926113296100a2565b91829182610456565b0390a281856113617f710864ae79ae7195dbcaa0f79eef4a8f5b490696c2d588a27f4d69ce60ac01fc92610d01565b9261137661136d6100a2565b92839283610d0d565b0390a2610b98565b610ba4565b9061138c6100a2565b908161139781610bc4565b03925af16113a3610c24565b50610ca6565b565b6113b490610fb2565b565b5f90565b6113c3906104d3565b90565b6113cf906113ba565b90565b6113da6113b6565b506113ec6113e75f61068e565b6113c6565b90565b5f7f496e76616c696420617274697374206164647265737300000000000000000000910152565b611423601660209261069a565b61142c816113ef565b0190565b6114459060208101905f818303910152611416565b90565b1561144f57565b6114576100a2565b62461bcd60e51b81528061146d60048201611430565b0390fd5b5f7f416d6f756e74206d757374206265203e20300000000000000000000000000000910152565b6114a5601260209261069a565b6114ae81611471565b0190565b6114c79060208101905f818303910152611498565b90565b156114d157565b6114d96100a2565b62461bcd60e51b8152806114ef600482016114b2565b0390fd5b60207f7468616e207a65726f0000000000000000000000000000000000000000000000917f4d696c6573746f6e6520636f756e74206d7573742062652067726561746572205f8201520152565b61154d602960409261069a565b611556816114f3565b0190565b61156f9060208101905f818303910152611540565b90565b1561157957565b6115816100a2565b62461bcd60e51b8152806115976004820161155a565b0390fd5b6115a76115ad916100b0565b916100b0565b9081156115b8570690565b610aa3565b60207f73746f6e6520636f756e74000000000000000000000000000000000000000000917f416d6f756e74206d75737420626520646976697369626c65206279206d696c655f8201520152565b611617602b60409261069a565b611620816115bd565b0190565b6116399060208101905f81830391015261160a565b90565b1561164357565b61164b6100a2565b62461bcd60e51b81528061166160048201611624565b0390fd5b611670610180610bd0565b90565b9061167d906102a5565b9052565b9061168b906100b0565b9052565b90611699906102cb565b9052565b6116a790516102a5565b90565b906116bb60018060a01b0391610b09565b9181191691161790565b90565b906116dd6116d86116e492610d01565b6116c5565b82546116aa565b9055565b6116f290516100b0565b90565b6116ff90516102cb565b90565b60081b90565b9061171b610100600160a81b0391611702565b9181191691161790565b9061173a61173561174192610d01565b6116c5565b8254611708565b9055565b60a81b90565b9061175a60ff60a81b91611745565b9181191691161790565b9061177961177461178092610b5d565b610b69565b825461174b565b9055565b906118ad61016060096118b3946117a85f82016117a25f880161169d565b906116c8565b6117c1600182016117bb6020880161169d565b906116c8565b6117da600282016117d4604088016116e8565b90610b27565b6117f3600382016117ed606088016116f5565b90610b6c565b61180c600382016118066080880161169d565b90611725565b6118256003820161181f60a088016116f5565b90611764565b61183e6004820161183860c088016116e8565b90610b27565b6118576005820161185160e088016116e8565b90610b27565b6118716006820161186b61010088016116f5565b90610b6c565b61188b6007820161188561012088016116e8565b90610b27565b6118a56008820161189f61014088016116f5565b90610b6c565b0192016116e8565b90610b27565b565b906118bf91611784565b565b90815f6118cd9061068e565b6118d6906102a5565b906118e0906102a5565b14156118eb90611448565b345f6118f6906110f3565b90611900906100b0565b1161190a906114ca565b805f611915906110f3565b9061191f906100b0565b1161192990611572565b34816119349161159b565b5f61193e906110f3565b90611948906100b0565b146119529061163c565b61195c6001610171565b903390839034905f905f61196f9061068e565b905f905f915f935f955f974299611984611665565b9b5f8d019061199291611673565b60208c01906119a091611673565b60408b01906119ae91611681565b60608a01906119bc9161168f565b60808901906119ca91611673565b60a08801906119d89161168f565b60c08701906119e691611681565b6119ef906110f3565b60e08601906119fd91611681565b610100850190611a0c9161168f565b611a15906110f3565b610120840190611a2491611681565b610140830190611a339161168f565b610160820190611a4291611681565b5f82611a4d91610113565b90611a57916118b5565b611a616001610171565b611a6a90610aed565b611a75906001610b27565b903334927f862dfcd9710943e66ad8f1f01a99cc98ab5612a09e62ecc68f63fe2e0f86cb0e91611aa490610d01565b92611aae90610d01565b93611ab76100a2565b918291611ac49183610d0d565b0390a3565b611ada90611ad5611fb4565b611ae4565b611ae2612038565b565b611b2590611b20611aff5f611af98482610113565b0161014d565b611b19611b13611b0e5f61068e565b6102a5565b916102a5565b14156106fc565b611b27565b565b611b3a611b355f8390610113565b61084b565b90611b4f611b4a600384016101e6565b6108cd565b611b81611b5e60058401610171565b611b7b611b75611b7060048701610171565b6100b0565b916100b0565b1061094f565b611ba2611b9060028401610171565b611b9c60048501610171565b90610acb565b611bc060058401611bba611bb582610171565b610aed565b90610b27565b611bcc60058401610171565b611be9611be3611bde60048701610171565b6100b0565b916100b0565b149081611cec575b611c385f80611c12611c0d611c0860018a0161014d565b610b98565b610ba4565b84611c1b6100a2565b9081611c2681610bc4565b03925af1611c32610c24565b50610ca6565b8290611c4660058601610171565b9091611c7e7fd33fcd27cbfb73a2d9058c968b560ccb306500bf536133802048489ecc7355e993611c756100a2565b93849384610ccf565b0390a1611c8a575b5050565b90611ca36002611c9c6001840161014d565b9201610171565b611ccd7f6e3c6096795c8298a218b2cfb8bde42726ff7c9a3d27b4d3ba41ab7f74feb5fb92610d01565b92611ce2611cd96100a2565b92839283610d0d565b0390a25f80611c86565b611cfa600160038601610b6c565b611bf1565b611d0890611ac9565b565b5f90565b5f90565b5f90565b611d21610180610bd0565b90565b90611e4f611e456009611d35611d16565b94611d4c611d445f830161014d565b5f8801611673565b611d64611d5b6001830161014d565b60208801611673565b611d7c611d7360028301610171565b60408801611681565b611d94611d8b60038301610198565b6060880161168f565b611dac611da3600383016101bf565b60808801611673565b611dc4611dbb600383016101e6565b60a0880161168f565b611ddc611dd360048301610171565b60c08801611681565b611df4611deb60058301610171565b60e08801611681565b611e0d611e0360068301610198565b610100880161168f565b611e26611e1c60078301610171565b6101208801611681565b611e3f611e3560088301610198565b610140880161168f565b01610171565b6101608401611681565b565b611e5a90611d24565b90565b611ed6611edb91611e6c611d0a565b50611e75611d0a565b50611e7e611d0e565b50611e87611d12565b50611e90611d0a565b50611e99611d12565b50611ea2611d0e565b50611eab611d0e565b50611eb4611d12565b50611ebd611d0e565b50611ec6611d12565b50611ecf611d0e565b505f610113565b611e51565b90611ee75f830161169d565b90611ef46020840161169d565b92611f01604082016116e8565b92611f0e606083016116f5565b92611f1b6080840161169d565b92611f2860a082016116f5565b92611f3560c083016116e8565b92611f4260e084016116e8565b92611f5061010082016116f5565b92611f5e61012083016116e8565b92611f79610160611f7261014086016116f5565b94016116e8565b919b9a99989796959493929190565b90565b611f9f611f9a611fa492611f88565b6100f4565b6100b0565b90565b611fb16002611f8b565b90565b611fbe6002610171565b611fd7611fd1611fcc611fa7565b6100b0565b916100b0565b14611ff057611fee611fe7611fa7565b6002610b27565b565b5f633ee5aeb560e01b815280612008600482016103d6565b0390fd5b90565b61202361201e6120289261200c565b6100f4565b6100b0565b90565b612035600161200f565b90565b61204a61204361202b565b6002610b27565b56fea264697066735822122074b213d23c08424f6105559489e8f0c1ddd08849525e7f20f361189ee4daa75964736f6c634300081c0033","linkReferences":{}},"methodIdentifiers":{"depositFunds(address,uint256)":"921b004b","getOracle()":"833b1fce","getProject(uint256)":"f0f3f2c8","projectCount()":"36fbad26","projects(uint256)":"107046bd","refundClient(uint256)":"43eed51c","releaseAfterEvent(uint256)":"cbcbc305","releaseMilestone(uint256)":"317debf5"},"id":3}