{"abi":[{"type":"function","name":"depositFunds","inputs":[{"name":"_artist","type":"address","internalType":"address"},{"name":"_milestoneCount","type":"uint256","internalType":"uint256"}],"outputs":[],"stateMutability":"payable"},{"type":"function","name":"getOracle","inputs":[],"outputs":[{"name":"","type":"address","internalType":"contract IOracle"}],"stateMutability":"view"},{"type":"function","name":"getProject","inputs":[{"name":"_projectId","type":"uint256","internalType":"uint256"}],"outputs":[{"name":"client","type":"address","internalType":"address"},{"name":"artist","type":"address","internalType":"address"},{"name":"amount","type":"uint256","internalType":"uint256"},{"name":"released","type":"bool","internalType":"bool"},{"name":"validator","type":"address","internalType":"address"},{"name":"validated","type":"bool","internalType":"bool"},{"name":"milestoneCount","type":"uint256","internalType":"uint256"},{"name":"milestonesPaid","type":"uint256","internalType":"uint256"}],"stateMutability":"view"},{"type":"function","name":"projectCount","inputs":[],"outputs":[{"name":"","type":"uint256","internalType":"uint256"}],"stateMutability":"view"},{"type":"function","name":"projects","inputs":[{"name":"","type":"uint256","internalType":"uint256"}],"outputs":[{"name":"client","type":"address","internalType":"address"},{"name":"artist","type":"address","internalType":"address"},{"name":"amount","type":"uint256","internalType":"uint256"},{"name":"released","type":"bool","internalType":"bool"},{"name":"validator","type":"address","internalType":"address"},{"name":"validated","type":"bool","internalType":"bool"},{"name":"milestoneCount","type":"uint256","internalType":"uint256"},{"name":"milestonesPaid","type":"uint256","internalType":"uint256"}],"stateMutability":"view"},{"type":"function","name":"refundClient","inputs":[{"name":"_projectId","type":"uint256","internalType":"uint256"}],"outputs":[],"stateMutability":"nonpayable"},{"type":"function","name":"releaseAfterEvent","inputs":[{"name":"_projectId","type":"uint256","internalType":"uint256"}],"outputs":[],"stateMutability":"nonpayable"},{"type":"function","name":"releaseMilestone","inputs":[{"name":"_projectId","type":"uint256","internalType":"uint256"}],"outputs":[],"stateMutability":"nonpayable"},{"type":"event","name":"ClientRefunded","inputs":[{"name":"projectId","type":"uint256","indexed":false,"internalType":"uint256"},{"name":"client","type":"address","indexed":true,"internalType":"address"},{"name":"amount","type":"uint256","indexed":false,"internalType":"uint256"}],"anonymous":false},{"type":"event","name":"FundsDeposited","inputs":[{"name":"projectId","type":"uint256","indexed":false,"internalType":"uint256"},{"name":"client","type":"address","indexed":true,"internalType":"address"},{"name":"artist","type":"address","indexed":true,"internalType":"address"},{"name":"amount","type":"uint256","indexed":false,"internalType":"uint256"}],"anonymous":false},{"type":"event","name":"FundsRefunded","inputs":[{"name":"projectId","type":"uint256","indexed":false,"internalType":"uint256"},{"name":"client","type":"address","indexed":true,"internalType":"address"}],"anonymous":false},{"type":"event","name":"FundsReleased","inputs":[{"name":"projectId","type":"uint256","indexed":false,"internalType":"uint256"},{"name":"artist","type":"address","indexed":true,"internalType":"address"},{"name":"amount","type":"uint256","indexed":false,"internalType":"uint256"}],"anonymous":false},{"type":"event","name":"MilestoneReleased","inputs":[{"name":"projectId","type":"uint256","indexed":false,"internalType":"uint256"},{"name":"milestoneIndex","type":"uint256","indexed":false,"internalType":"uint256"},{"name":"amount","type":"uint256","indexed":false,"internalType":"uint256"}],"anonymous":false},{"type":"event","name":"ProjectValidated","inputs":[{"name":"projectId","type":"uint256","indexed":false,"internalType":"uint256"},{"name":"validator","type":"address","indexed":true,"internalType":"address"}],"anonymous":false},{"type":"event","name":"ValidatorAssigned","inputs":[{"name":"projectId","type":"uint256","indexed":false,"internalType":"uint256"},{"name":"validator","type":"address","indexed":true,"internalType":"address"}],"anonymous":false},{"type":"error","name":"ReentrancyGuardReentrantCall","inputs":[]}],"bytecode":{"object":"0x6080604052348015600e575f5ffd5b506001600281905550611e54806100245f395ff3fe60806040526004361061007a575f3560e01c8063833b1fce1161004d578063833b1fce1461013b578063921b004b14610165578063cbcbc30514610181578063f0f3f2c8146101a95761007a565b8063107046bd1461007e578063317debf5146100c157806336fbad26146100e957806343eed51c14610113575b5f5ffd5b348015610089575f5ffd5b506100a4600480360381019061009f91906114bf565b6101ec565b6040516100b8989796959493929190611552565b60405180910390f35b3480156100cc575f5ffd5b506100e760048036038101906100e291906114bf565b6102a6565b005b3480156100f4575f5ffd5b506100fd610815565b60405161010a91906115ce565b60405180910390f35b34801561011e575f5ffd5b50610139600480360381019061013491906114bf565b61081b565b005b348015610146575f5ffd5b5061014f610be2565b60405161015c9190611642565b60405180910390f35b61017f600480360381019061017a9190611685565b610be9565b005b34801561018c575f5ffd5b506101a760048036038101906101a291906114bf565b610f25565b005b3480156101b4575f5ffd5b506101cf60048036038101906101ca91906114bf565b61127e565b6040516101e3989796959493929190611552565b60405180910390f35b5f602052805f5260405f205f91509050805f015f9054906101000a900473ffffffffffffffffffffffffffffffffffffffff1690806001015f9054906101000a900473ffffffffffffffffffffffffffffffffffffffff1690806002015490806003015f9054906101000a900460ff16908060030160019054906101000a900473ffffffffffffffffffffffffffffffffffffffff16908060030160159054906101000a900460ff16908060040154908060050154905088565b6102ae61143a565b805f73ffffffffffffffffffffffffffffffffffffffff165f5f8381526020019081526020015f205f015f9054906101000a900473ffffffffffffffffffffffffffffffffffffffff1673ffffffffffffffffffffffffffffffffffffffff160361034e576040517f08c379a00000000000000000000000000000000000000000000000000000000081526004016103459061171d565b60405180910390fd5b815f5f8281526020019081526020015f205f015f9054906101000a900473ffffffffffffffffffffffffffffffffffffffff1673ffffffffffffffffffffffffffffffffffffffff163373ffffffffffffffffffffffffffffffffffffffff16146103ee576040517f08c379a00000000000000000000000000000000000000000000000000000000081526004016103e5906117ab565b60405180910390fd5b6103e86103f9610be2565b73ffffffffffffffffffffffffffffffffffffffff16638e15f4736040518163ffffffff1660e01b8152600401602060405180830381865afa158015610441573d5f5f3e3d5ffd5b505050506040513d601f19601f8201168201806040525081019061046591906117dd565b10156104a6576040517f08c379a000000000000000000000000000000000000000000000000000000000815260040161049d90611852565b60405180910390fd5b5f5f5f8581526020019081526020015f2090508060030160159054906101000a900460ff1661050a576040517f08c379a0000000000000000000000000000000000000000000000000000000008152600401610501906118e0565b60405180910390fd5b8060040154816005015410610554576040517f08c379a000000000000000000000000000000000000000000000000000000000815260040161054b90611948565b60405180910390fd5b5f61055d610be2565b73ffffffffffffffffffffffffffffffffffffffff16638e15f4736040518163ffffffff1660e01b8152600401602060405180830381865afa1580156105a5573d5f5f3e3d5ffd5b505050506040513d601f19601f820116820180604052508101906105c991906117dd565b90506103e8811015610610576040517f08c379a000000000000000000000000000000000000000000000000000000000815260040161060790611852565b60405180910390fd5b5f8260040154836002015461062591906119c0565b9050826005015f81548092919061063b906119f0565b9190505550826004015483600501540361066c576001836003015f6101000a81548160ff0219169083151502179055505b5f836001015f9054906101000a900473ffffffffffffffffffffffffffffffffffffffff1673ffffffffffffffffffffffffffffffffffffffff16826040516106b490611a64565b5f6040518083038185875af1925050503d805f81146106ee576040519150601f19603f3d011682016040523d82523d5f602084013e6106f3565b606091505b5050905080610737576040517f08c379a000000000000000000000000000000000000000000000000000000000815260040161072e90611ac2565b60405180910390fd5b7fd33fcd27cbfb73a2d9058c968b560ccb306500bf536133802048489ecc7355e98785600501548460405161076e93929190611ae0565b60405180910390a1836003015f9054906101000a900460ff161561080457836001015f9054906101000a900473ffffffffffffffffffffffffffffffffffffffff1673ffffffffffffffffffffffffffffffffffffffff167f6e3c6096795c8298a218b2cfb8bde42726ff7c9a3d27b4d3ba41ab7f74feb5fb8886600201546040516107fb929190611b15565b60405180910390a25b50505050505061081261147e565b50565b60015481565b61082361143a565b805f73ffffffffffffffffffffffffffffffffffffffff165f5f8381526020019081526020015f205f015f9054906101000a900473ffffffffffffffffffffffffffffffffffffffff1673ffffffffffffffffffffffffffffffffffffffff16036108c3576040517f08c379a00000000000000000000000000000000000000000000000000000000081526004016108ba9061171d565b60405180910390fd5b815f5f8281526020019081526020015f205f015f9054906101000a900473ffffffffffffffffffffffffffffffffffffffff1673ffffffffffffffffffffffffffffffffffffffff163373ffffffffffffffffffffffffffffffffffffffff1614610963576040517f08c379a000000000000000000000000000000000000000000000000000000000815260040161095a906117ab565b60405180910390fd5b5f5f5f8581526020019081526020015f209050806003015f9054906101000a900460ff16156109c7576040517f08c379a00000000000000000000000000000000000000000000000000000000081526004016109be90611bac565b60405180910390fd5b5f81600501541115610a0e576040517f08c379a0000000000000000000000000000000000000000000000000000000008152600401610a0590611c3a565b60405180910390fd5b5f816002015411610a54576040517f08c379a0000000000000000000000000000000000000000000000000000000008152600401610a4b90611ca2565b60405180910390fd5b5f816002015490505f825f015f9054906101000a900473ffffffffffffffffffffffffffffffffffffffff1690505f83600201819055505f8173ffffffffffffffffffffffffffffffffffffffff1683604051610ab090611a64565b5f6040518083038185875af1925050503d805f8114610aea576040519150601f19603f3d011682016040523d82523d5f602084013e610aef565b606091505b5050905080610b33576040517f08c379a0000000000000000000000000000000000000000000000000000000008152600401610b2a90611ac2565b60405180910390fd5b8173ffffffffffffffffffffffffffffffffffffffff167fd1c90c5ed8b35db630851dbe3ec20c8798b71354223bfe5a5527e84103e89d5b88604051610b7991906115ce565b60405180910390a28173ffffffffffffffffffffffffffffffffffffffff167f710864ae79ae7195dbcaa0f79eef4a8f5b490696c2d588a27f4d69ce60ac01fc8885604051610bc9929190611b15565b60405180910390a2505050505050610bdf61147e565b50565b5f5f905090565b5f73ffffffffffffffffffffffffffffffffffffffff168273ffffffffffffffffffffffffffffffffffffffff1603610c57576040517f08c379a0000000000000000000000000000000000000000000000000000000008152600401610c4e90611d0a565b60405180910390fd5b5f3411610c99576040517f08c379a0000000000000000000000000000000000000000000000000000000008152600401610c9090611d72565b60405180910390fd5b5f8111610cdb576040517f08c379a0000000000000000000000000000000000000000000000000000000008152600401610cd290611e00565b60405180910390fd5b5f60015490506040518061010001604052803373ffffffffffffffffffffffffffffffffffffffff1681526020018473ffffffffffffffffffffffffffffffffffffffff1681526020013481526020015f151581526020015f73ffffffffffffffffffffffffffffffffffffffff1681526020015f151581526020018381526020015f8152505f5f8381526020019081526020015f205f820151815f015f6101000a81548173ffffffffffffffffffffffffffffffffffffffff021916908373ffffffffffffffffffffffffffffffffffffffff1602179055506020820151816001015f6101000a81548173ffffffffffffffffffffffffffffffffffffffff021916908373ffffffffffffffffffffffffffffffffffffffff160217905550604082015181600201556060820151816003015f6101000a81548160ff02191690831515021790555060808201518160030160016101000a81548173ffffffffffffffffffffffffffffffffffffffff021916908373ffffffffffffffffffffffffffffffffffffffff16021790555060a08201518160030160156101000a81548160ff02191690831515021790555060c0820151816004015560e0820151816005015590505060015f815480929190610eb4906119f0565b91905055508273ffffffffffffffffffffffffffffffffffffffff163373ffffffffffffffffffffffffffffffffffffffff167f862dfcd9710943e66ad8f1f01a99cc98ab5612a09e62ecc68f63fe2e0f86cb0e8334604051610f18929190611b15565b60405180910390a3505050565b610f2d61143a565b805f73ffffffffffffffffffffffffffffffffffffffff165f5f8381526020019081526020015f205f015f9054906101000a900473ffffffffffffffffffffffffffffffffffffffff1673ffffffffffffffffffffffffffffffffffffffff1603610fcd576040517f08c379a0000000000000000000000000000000000000000000000000000000008152600401610fc49061171d565b60405180910390fd5b5f5f5f8481526020019081526020015f2090508060030160159054906101000a900460ff16611031576040517f08c379a0000000000000000000000000000000000000000000000000000000008152600401611028906118e0565b60405180910390fd5b806004015481600501541061107b576040517f08c379a000000000000000000000000000000000000000000000000000000000815260040161107290611948565b60405180910390fd5b5f8160040154826002015461109091906119c0565b9050816005015f8154809291906110a6906119f0565b919050555081600401548260050154036110d7576001826003015f6101000a81548160ff0219169083151502179055505b5f826001015f9054906101000a900473ffffffffffffffffffffffffffffffffffffffff1673ffffffffffffffffffffffffffffffffffffffff168260405161111f90611a64565b5f6040518083038185875af1925050503d805f8114611159576040519150601f19603f3d011682016040523d82523d5f602084013e61115e565b606091505b50509050806111a2576040517f08c379a000000000000000000000000000000000000000000000000000000000815260040161119990611ac2565b60405180910390fd5b7fd33fcd27cbfb73a2d9058c968b560ccb306500bf536133802048489ecc7355e9858460050154846040516111d993929190611ae0565b60405180910390a1826003015f9054906101000a900460ff161561126f57826001015f9054906101000a900473ffffffffffffffffffffffffffffffffffffffff1673ffffffffffffffffffffffffffffffffffffffff167f6e3c6096795c8298a218b2cfb8bde42726ff7c9a3d27b4d3ba41ab7f74feb5fb868560020154604051611266929190611b15565b60405180910390a25b5050505061127b61147e565b50565b5f5f5f5f5f5f5f5f5f5f5f8b81526020019081526020015f20604051806101000160405290815f82015f9054906101000a900473ffffffffffffffffffffffffffffffffffffffff1673ffffffffffffffffffffffffffffffffffffffff1673ffffffffffffffffffffffffffffffffffffffff168152602001600182015f9054906101000a900473ffffffffffffffffffffffffffffffffffffffff1673ffffffffffffffffffffffffffffffffffffffff1673ffffffffffffffffffffffffffffffffffffffff16815260200160028201548152602001600382015f9054906101000a900460ff161515151581526020016003820160019054906101000a900473ffffffffffffffffffffffffffffffffffffffff1673ffffffffffffffffffffffffffffffffffffffff1673ffffffffffffffffffffffffffffffffffffffff1681526020016003820160159054906101000a900460ff16151515158152602001600482015481526020016005820154815250509050805f015181602001518260400151836060015184608001518560a001518660c001518760e001519850985098509850985098509850985050919395975091939597565b6002805403611475576040517f3ee5aeb500000000000000000000000000000000000000000000000000000000815260040160405180910390fd5b60028081905550565b6001600281905550565b5f5ffd5b5f819050919050565b61149e8161148c565b81146114a8575f5ffd5b50565b5f813590506114b981611495565b92915050565b5f602082840312156114d4576114d3611488565b5b5f6114e1848285016114ab565b91505092915050565b5f73ffffffffffffffffffffffffffffffffffffffff82169050919050565b5f611513826114ea565b9050919050565b61152381611509565b82525050565b6115328161148c565b82525050565b5f8115159050919050565b61154c81611538565b82525050565b5f610100820190506115665f83018b61151a565b611573602083018a61151a565b6115806040830189611529565b61158d6060830188611543565b61159a608083018761151a565b6115a760a0830186611543565b6115b460c0830185611529565b6115c160e0830184611529565b9998505050505050505050565b5f6020820190506115e15f830184611529565b92915050565b5f819050919050565b5f61160a611605611600846114ea565b6115e7565b6114ea565b9050919050565b5f61161b826115f0565b9050919050565b5f61162c82611611565b9050919050565b61163c81611622565b82525050565b5f6020820190506116555f830184611633565b92915050565b61166481611509565b811461166e575f5ffd5b50565b5f8135905061167f8161165b565b92915050565b5f5f6040838503121561169b5761169a611488565b5b5f6116a885828601611671565b92505060206116b9858286016114ab565b9150509250929050565b5f82825260208201905092915050565b7f4572726f723a2050726f6a65637420646f6573206e6f742065786973742e00005f82015250565b5f611707601e836116c3565b9150611712826116d3565b602082019050919050565b5f6020820190508181035f830152611734816116fb565b9050919050565b7f4572726f723a204f6e6c792074686520636c69656e742063616e20706572666f5f8201527f726d207468697320616374696f6e2e0000000000000000000000000000000000602082015250565b5f611795602f836116c3565b91506117a08261173b565b604082019050919050565b5f6020820190508181035f8301526117c281611789565b9050919050565b5f815190506117d781611495565b92915050565b5f602082840312156117f2576117f1611488565b5b5f6117ff848285016117c9565b91505092915050565b7f507269636520746f6f206c6f77000000000000000000000000000000000000005f82015250565b5f61183c600d836116c3565b915061184782611808565b602082019050919050565b5f6020820190508181035f83015261186981611830565b9050919050565b7f4572726f723a2050726f6a656374206d7573742062652076616c6964617465645f8201527f206265666f72652072656c656173696e672066756e6473000000000000000000602082015250565b5f6118ca6037836116c3565b91506118d582611870565b604082019050919050565b5f6020820190508181035f8301526118f7816118be565b9050919050565b7f4572726f723a20416c6c206d696c6573746f6e657320706169642e00000000005f82015250565b5f611932601b836116c3565b915061193d826118fe565b602082019050919050565b5f6020820190508181035f83015261195f81611926565b9050919050565b7f4e487b71000000000000000000000000000000000000000000000000000000005f52601260045260245ffd5b7f4e487b71000000000000000000000000000000000000000000000000000000005f52601160045260245ffd5b5f6119ca8261148c565b91506119d58361148c565b9250826119e5576119e4611966565b5b828204905092915050565b5f6119fa8261148c565b91507fffffffffffffffffffffffffffffffffffffffffffffffffffffffffffffffff8203611a2c57611a2b611993565b5b600182019050919050565b5f81905092915050565b50565b5f611a4f5f83611a37565b9150611a5a82611a41565b5f82019050919050565b5f611a6e82611a44565b9150819050919050565b7f5472616e73666572206661696c65642e000000000000000000000000000000005f82015250565b5f611aac6010836116c3565b9150611ab782611a78565b602082019050919050565b5f6020820190508181035f830152611ad981611aa0565b9050919050565b5f606082019050611af35f830186611529565b611b006020830185611529565b611b0d6040830184611529565b949350505050565b5f604082019050611b285f830185611529565b611b356020830184611529565b9392505050565b7f4572726f723a2043616e6e6f7420726566756e642061667465722066756c6c205f8201527f72656c6561736500000000000000000000000000000000000000000000000000602082015250565b5f611b966027836116c3565b9150611ba182611b3c565b604082019050919050565b5f6020820190508181035f830152611bc381611b8a565b9050919050565b7f4572726f723a2043616e6e6f7420726566756e642061667465722070617274695f8201527f616c2072656c6561736500000000000000000000000000000000000000000000602082015250565b5f611c24602a836116c3565b9150611c2f82611bca565b604082019050919050565b5f6020820190508181035f830152611c5181611c18565b9050919050565b7f4572726f723a204e6f2066756e647320746f20726566756e642e0000000000005f82015250565b5f611c8c601a836116c3565b9150611c9782611c58565b602082019050919050565b5f6020820190508181035f830152611cb981611c80565b9050919050565b7f496e76616c6964206172746973742061646472657373000000000000000000005f82015250565b5f611cf46016836116c3565b9150611cff82611cc0565b602082019050919050565b5f6020820190508181035f830152611d2181611ce8565b9050919050565b7f416d6f756e74206d757374206265203e203000000000000000000000000000005f82015250565b5f611d5c6012836116c3565b9150611d6782611d28565b602082019050919050565b5f6020820190508181035f830152611d8981611d50565b9050919050565b7f4d696c6573746f6e6520636f756e74206d7573742062652067726561746572205f8201527f7468616e207a65726f0000000000000000000000000000000000000000000000602082015250565b5f611dea6029836116c3565b9150611df582611d90565b604082019050919050565b5f6020820190508181035f830152611e1781611dde565b905091905056fea2646970667358221220d4c5fdc939f23b478a9c1066a53eba5ea7125de51ac612bc52b6b87cded7d54a64736f6c634300081c0033","linkReferences":{}},"methodIdentifiers":{"depositFunds(address,uint256)":"921b004b","getOracle()":"833b1fce","getProject(uint256)":"f0f3f2c8","projectCount()":"36fbad26","projects(uint256)":"107046bd","refundClient(uint256)":"43eed51c","releaseAfterEvent(uint256)":"cbcbc305","releaseMilestone(uint256)":"317debf5"},"id":4}