{"abi":[{"type":"function","name":"REQUIRED_KYC_LEVEL","inputs":[],"outputs":[{"name":"","type":"uint256","internalType":"uint256"}],"stateMutability":"view"},{"type":"function","name":"depositFunds","inputs":[{"name":"_artist","type":"address","internalType":"address"},{"name":"_milestoneCount","type":"uint256","internalType":"uint256"}],"outputs":[],"stateMutability":"payable"},{"type":"function","name":"forteCompliance","inputs":[],"outputs":[{"name":"","type":"address","internalType":"contract IForteCompliance"}],"stateMutability":"view"},{"type":"function","name":"getOracle","inputs":[],"outputs":[{"name":"","type":"address","internalType":"contract IOracle"}],"stateMutability":"view"},{"type":"function","name":"getProject","inputs":[{"name":"_projectId","type":"uint256","internalType":"uint256"}],"outputs":[{"name":"client","type":"address","internalType":"address"},{"name":"artist","type":"address","internalType":"address"},{"name":"amount","type":"uint256","internalType":"uint256"},{"name":"released","type":"bool","internalType":"bool"},{"name":"validator","type":"address","internalType":"address"},{"name":"validated","type":"bool","internalType":"bool"},{"name":"milestoneCount","type":"uint256","internalType":"uint256"},{"name":"milestonesPaid","type":"uint256","internalType":"uint256"},{"name":"useFallback","type":"bool","internalType":"bool"},{"name":"fallbackDelay","type":"uint256","internalType":"uint256"},{"name":"useSignature","type":"bool","internalType":"bool"},{"name":"createdAt","type":"uint256","internalType":"uint256"}],"stateMutability":"view"},{"type":"function","name":"isKYCApproved","inputs":[{"name":"user","type":"address","internalType":"address"}],"outputs":[{"name":"","type":"bool","internalType":"bool"}],"stateMutability":"view"},{"type":"function","name":"projectCount","inputs":[],"outputs":[{"name":"","type":"uint256","internalType":"uint256"}],"stateMutability":"view"},{"type":"function","name":"projects","inputs":[{"name":"","type":"uint256","internalType":"uint256"}],"outputs":[{"name":"client","type":"address","internalType":"address"},{"name":"artist","type":"address","internalType":"address"},{"name":"amount","type":"uint256","internalType":"uint256"},{"name":"released","type":"bool","internalType":"bool"},{"name":"validator","type":"address","internalType":"address"},{"name":"validated","type":"bool","internalType":"bool"},{"name":"milestoneCount","type":"uint256","internalType":"uint256"},{"name":"milestonesPaid","type":"uint256","internalType":"uint256"},{"name":"useFallback","type":"bool","internalType":"bool"},{"name":"fallbackDelay","type":"uint256","internalType":"uint256"},{"name":"useSignature","type":"bool","internalType":"bool"},{"name":"createdAt","type":"uint256","internalType":"uint256"}],"stateMutability":"view"},{"type":"function","name":"refundClient","inputs":[{"name":"_projectId","type":"uint256","internalType":"uint256"}],"outputs":[],"stateMutability":"nonpayable"},{"type":"function","name":"releaseAfterEvent","inputs":[{"name":"_projectId","type":"uint256","internalType":"uint256"}],"outputs":[],"stateMutability":"nonpayable"},{"type":"function","name":"releaseMilestone","inputs":[{"name":"_projectId","type":"uint256","internalType":"uint256"}],"outputs":[],"stateMutability":"nonpayable"},{"type":"function","name":"setForteCompliance","inputs":[{"name":"_compliance","type":"address","internalType":"address"}],"outputs":[],"stateMutability":"nonpayable"},{"type":"event","name":"ClientRefunded","inputs":[{"name":"projectId","type":"uint256","indexed":false,"internalType":"uint256"},{"name":"client","type":"address","indexed":true,"internalType":"address"},{"name":"amount","type":"uint256","indexed":false,"internalType":"uint256"}],"anonymous":false},{"type":"event","name":"FundsDeposited","inputs":[{"name":"projectId","type":"uint256","indexed":false,"internalType":"uint256"},{"name":"client","type":"address","indexed":true,"internalType":"address"},{"name":"artist","type":"address","indexed":true,"internalType":"address"},{"name":"amount","type":"uint256","indexed":false,"internalType":"uint256"}],"anonymous":false},{"type":"event","name":"FundsRefunded","inputs":[{"name":"projectId","type":"uint256","indexed":false,"internalType":"uint256"},{"name":"client","type":"address","indexed":true,"internalType":"address"}],"anonymous":false},{"type":"event","name":"FundsReleased","inputs":[{"name":"projectId","type":"uint256","indexed":false,"internalType":"uint256"},{"name":"artist","type":"address","indexed":true,"internalType":"address"},{"name":"amount","type":"uint256","indexed":false,"internalType":"uint256"}],"anonymous":false},{"type":"event","name":"MilestoneReleased","inputs":[{"name":"projectId","type":"uint256","indexed":false,"internalType":"uint256"},{"name":"milestoneIndex","type":"uint256","indexed":false,"internalType":"uint256"},{"name":"amount","type":"uint256","indexed":false,"internalType":"uint256"}],"anonymous":false},{"type":"event","name":"ProjectValidated","inputs":[{"name":"projectId","type":"uint256","indexed":false,"internalType":"uint256"},{"name":"validator","type":"address","indexed":true,"internalType":"address"}],"anonymous":false},{"type":"event","name":"ValidatorAssigned","inputs":[{"name":"projectId","type":"uint256","indexed":false,"internalType":"uint256"},{"name":"validator","type":"address","indexed":true,"internalType":"address"}],"anonymous":false},{"type":"error","name":"AllMilestonesPaid","inputs":[]},{"type":"error","name":"AmountMustBeDivisibleByMilestoneCount","inputs":[]},{"type":"error","name":"AmountMustBeGreaterThanZero","inputs":[]},{"type":"error","name":"CannotRefundAfterFullRelease","inputs":[]},{"type":"error","name":"CannotRefundAfterPartialRelease","inputs":[]},{"type":"error","name":"InvalidArtistAddress","inputs":[]},{"type":"error","name":"KYCNotApproved","inputs":[]},{"type":"error","name":"MilestoneCountMustBeGreaterThanZero","inputs":[]},{"type":"error","name":"NoFundsToRefund","inputs":[]},{"type":"error","name":"OnlyAssignedValidator","inputs":[]},{"type":"error","name":"OnlyClient","inputs":[]},{"type":"error","name":"PriceTooLowSimple","inputs":[]},{"type":"error","name":"ProjectDoesNotExist","inputs":[]},{"type":"error","name":"ProjectMustBeValidated","inputs":[]},{"type":"error","name":"ReentrancyGuardReentrantCall","inputs":[]},{"type":"error","name":"TransferFailedSimple","inputs":[]}],"bytecode":{"object":"0x608060405234602257600e6030565b60146026565b611e636100bf8239611e6390f35b602c565b60405190565b5f80fd5b603660ae565b565b90565b90565b90565b6050604c6054926038565b603e565b603b565b90565b605f60016041565b90565b5f1b90565b9060715f19916062565b9181191691161790565b608a6086608e92603b565b603e565b603b565b90565b90565b9060a460a060aa92607b565b6091565b82546067565b9055565b60bc60b66057565b60036094565b56fe60806040526004361015610013575b61083a565b61001d5f356100dc565b8063107046bd146100d7578063235b97c9146100d25780632be550ce146100cd578063317debf5146100c857806336fbad26146100c357806343eed51c146100be5780636c56db5e146100b9578063833b1fce146100b4578063921b004b146100af578063cbcbc305146100aa578063e77db232146100a55763f0f3f2c80361000e576107f5565b6107c0565b610778565b61074e565b6106ec565b61068b565b610617565b6105e2565b61057a565b610540565b610471565b6103d1565b60e01c90565b60405190565b5f80fd5b5f80fd5b90565b6100fc816100f0565b0361010357565b5f80fd5b90503590610114826100f3565b565b9060208282031261012f5761012c915f01610107565b90565b6100ec565b90565b61014b610146610150926100f0565b610134565b6100f0565b90565b9061015d90610137565b5f5260205260405f2090565b5f1c90565b60018060a01b031690565b61018561018a91610169565b61016e565b90565b6101979054610179565b90565b90565b6101a96101ae91610169565b61019a565b90565b6101bb905461019d565b90565b60ff1690565b6101d06101d591610169565b6101be565b90565b6101e290546101c4565b90565b60081c90565b6101f76101fc916101e5565b61016e565b90565b61020990546101eb565b90565b60a81c90565b61021e6102239161020c565b6101be565b90565b6102309054610212565b90565b61023d905f610153565b906102495f830161018d565b916102566001820161018d565b91610263600283016101b1565b91610270600382016101d8565b9161027d600383016101ff565b9161028a60038201610226565b91610297600483016101b1565b916102a4600582016101b1565b916102b1600683016101d8565b916102be600782016101b1565b916102d760096102d0600885016101d8565b93016101b1565b90565b60018060a01b031690565b6102ee906102da565b90565b6102fa906102e5565b9052565b610307906100f0565b9052565b151590565b6103199061030b565b9052565b99979593919c9b9a98969492909c6101808b019d5f8c0161033d916102f1565b60208b0161034a916102f1565b60408a01610357916102fe565b6060890161036491610310565b60808801610371916102f1565b60a0870161037e91610310565b60c0860161038b916102fe565b60e08501610398916102fe565b61010084016103a691610310565b61012083016103b4916102fe565b61014082016103c291610310565b610160016103cf916102fe565b565b346104115761040d6103ec6103e7366004610116565b610233565b986104049c9a9c9891989792979693969594956100e2565b9c8d9c8d61031d565b0390f35b6100e8565b5f91031261042057565b6100ec565b90565b61043c61043761044192610425565b610134565b6100f0565b90565b61044e6003610428565b90565b610459610444565b90565b919061046f905f602085019401906102fe565b565b346104a157610481366004610416565b61049d61048c610451565b6104946100e2565b9182918261045c565b0390f35b6100e8565b1c90565b60018060a01b031690565b6104c59060086104ca93026104a6565b6104aa565b90565b906104d891546104b5565b90565b6104e760025f906104cd565b90565b6104fe6104f9610503926102da565b610134565b6102da565b90565b61050f906104ea565b90565b61051b90610506565b90565b61052790610512565b9052565b919061053e905f6020850194019061051e565b565b3461057057610550366004610416565b61056c61055b6104db565b6105636100e2565b9182918261052b565b0390f35b6100e8565b5f0190565b346105a85761059261058d366004610116565b610ed1565b61059a6100e2565b806105a481610575565b0390f35b6100e8565b6105bd9060086105c293026104a6565b61019a565b90565b906105d091546105ad565b90565b6105df60015f906105c5565b90565b34610612576105f2366004610416565b61060e6105fd6105d3565b6106056100e2565b9182918261045c565b0390f35b6100e8565b346106455761062f61062a366004610116565b611194565b6106376100e2565b8061064181610575565b0390f35b6100e8565b610653816102e5565b0361065a57565b5f80fd5b9050359061066b8261064a565b565b9060208282031261068657610683915f0161065e565b90565b6100ec565b346106b9576106a361069e36600461066d565b611201565b6106ab6100e2565b806106b581610575565b0390f35b6100e8565b6106c790610506565b90565b6106d3906106be565b9052565b91906106ea905f602085019401906106ca565b565b3461071c576106fc366004610416565b610718610707611232565b61070f6100e2565b918291826106d7565b0390f35b6100e8565b9190604083820312610749578061073d610746925f860161065e565b93602001610107565b90565b6100ec565b61076261075c366004610721565b9061174a565b61076a6100e2565b8061077481610575565b0390f35b346107a65761079061078b366004610116565b6119fe565b6107986100e2565b806107a281610575565b0390f35b6100e8565b91906107be905f60208501940190610310565b565b346107f0576107ec6107db6107d636600461066d565b611a43565b6107e36100e2565b918291826107ab565b0390f35b6100e8565b346108355761083161081061080b366004610116565b611c3e565b986108289c9a9c9891989792979693969594956100e2565b9c8d9c8d61031d565b0390f35b6100e8565b5f80fd5b61084f9061084a611d95565b610884565b610857611e19565b565b90565b61087061086b61087592610859565b610134565b6102da565b90565b6108819061085c565b90565b6108985f6108928382610153565b0161018d565b6108b26108ac6108a75f610878565b6102e5565b916102e5565b146108c2576108c0906108de565b565b5f6338fde52b60e01b8152806108da60048201610575565b0390fd5b806109056108ff6108fa5f6108f4339582610153565b0161018d565b6102e5565b916102e5565b036109155761091390610be8565b565b5f63d6d90f8960e01b81528061092d60048201610575565b0390fd5b90565b601f801991011690565b634e487b7160e01b5f52604160045260245ffd5b9061095c90610934565b810190811067ffffffffffffffff82111761097657604052565b61093e565b60e01b90565b9050519061098e826100f3565b565b906020828203126109a9576109a6915f01610981565b90565b6100ec565b6109b66100e2565b3d5f823e3d90fd5b90565b6109d56109d06109da926109be565b610134565b6100f0565b90565b634e487b7160e01b5f52601260045260245ffd5b634e487b7160e01b5f52601160045260245ffd5b610a11610a17916100f0565b916100f0565b908115610a22570490565b6109dd565b610a30906100f0565b5f198114610a3e5760010190565b6109f1565b5f1b90565b90610a545f1991610a43565b9181191691161790565b90565b90610a76610a71610a7d92610137565b610a5e565b8254610a48565b9055565b90610a8d60ff91610a43565b9181191691161790565b610aa09061030b565b90565b90565b90610abb610ab6610ac292610a97565b610aa3565b8254610a81565b9055565b610acf906104ea565b90565b610adb90610ac6565b90565b610ae790610506565b90565b905090565b610afa5f8092610aea565b0190565b610b0790610aef565b90565b90610b1d610b166100e2565b9283610952565b565b67ffffffffffffffff8111610b3d57610b39602091610934565b0190565b61093e565b90610b54610b4f83610b1f565b610b0a565b918252565b606090565b3d5f14610b7957610b6e3d610b42565b903d5f602084013e5b565b610b81610b59565b90610b77565b604090610bb0610bb79496959396610ba660608401985f8501906102fe565b60208301906102fe565b01906102fe565b565b610bc290610506565b90565b916020610be6929493610bdf60408201965f8301906102fe565b01906102fe565b565b610bfb610bf65f8390610153565b610931565b90610c11610c0b60038401610226565b1561030b565b610eb557610c21600583016101b1565b610c3e610c38610c33600486016101b1565b6100f0565b916100f0565b1015610e9957610c6f6020610c59610c54611232565b6106be565b638e15f47390610c676100e2565b93849261097b565b82528180610c7f60048201610575565b03915afa908115610e94575f91610e66575b50610ca6610ca06103e86109c1565b916100f0565b10610e4a57610ccc610cba600284016101b1565b610cc6600485016101b1565b90610a05565b610cea60058401610ce4610cdf826101b1565b610a27565b90610a61565b610cf6600584016101b1565b610d13610d0d610d08600487016101b1565b6100f0565b916100f0565b149081610e37575b610d635f80610d3c610d37610d3260018a0161018d565b610ad2565b610ade565b84610d456100e2565b9081610d5081610afe565b03925af1610d5c610b5e565b501561030b565b610e1b578290610d75600586016101b1565b9091610dad7fd33fcd27cbfb73a2d9058c968b560ccb306500bf536133802048489ecc7355e993610da46100e2565b93849384610b87565b0390a1610db9575b5050565b90610dd26002610dcb6001840161018d565b92016101b1565b610dfc7f6e3c6096795c8298a218b2cfb8bde42726ff7c9a3d27b4d3ba41ab7f74feb5fb92610bb9565b92610e11610e086100e2565b92839283610bc5565b0390a25f80610db5565b5f63e55c80d160e01b815280610e3360048201610575565b0390fd5b610e45600160038601610aa6565b610d1b565b5f63499372d360e11b815280610e6260048201610575565b0390fd5b610e87915060203d8111610e8d575b610e7f8183610952565b810190610990565b5f610c91565b503d610e75565b6109ae565b5f630174d97b60e71b815280610eb160048201610575565b0390fd5b5f63167f21b560e21b815280610ecd60048201610575565b0390fd5b610eda9061083e565b565b610eed90610ee8611d95565b610ef7565b610ef5611e19565b565b610f0b5f610f058382610153565b0161018d565b610f25610f1f610f1a5f610878565b6102e5565b916102e5565b14610f3557610f3390610f51565b565b5f6338fde52b60e01b815280610f4d60048201610575565b0390fd5b80610f78610f72610f6d5f610f67339582610153565b0161018d565b6102e5565b916102e5565b03610f8857610f8690610fc0565b565b5f63d6d90f8960e01b815280610fa060048201610575565b0390fd5b610fb8610fb3610fbd92610859565b610134565b6100f0565b90565b610fd3610fce5f8390610153565b610931565b90610fe0600383016101d8565b61117857610ff0600583016101b1565b611002610ffc5f610fa4565b916100f0565b0361115c57611013600283016101b1565b61102561101f5f610fa4565b916100f0565b14611140575f80916110f76110f285611043600261111e98016101b1565b9361106561105287840161018d565b92600261105e89610fa4565b9101610a61565b80826110a66110947fd1c90c5ed8b35db630851dbe3ec20c8798b71354223bfe5a5527e84103e89d5b92610bb9565b9261109d6100e2565b9182918261045c565b0390a281856110d57f710864ae79ae7195dbcaa0f79eef4a8f5b490696c2d588a27f4d69ce60ac01fc92610bb9565b926110ea6110e16100e2565b92839283610bc5565b0390a2610ad2565b610ade565b906111006100e2565b908161110b81610afe565b03925af1611117610b5e565b501561030b565b61112457565b5f63e55c80d160e01b81528061113c60048201610575565b0390fd5b5f634625bdf760e01b81528061115860048201610575565b0390fd5b5f6372748c6b60e11b81528061117460048201610575565b0390fd5b5f636d31177b60e11b81528061119060048201610575565b0390fd5b61119d90610edc565b565b6111a8906104ea565b90565b6111b49061119f565b90565b906111c860018060a01b0391610a43565b9181191691161790565b6111db9061119f565b90565b90565b906111f66111f16111fd926111d2565b6111de565b82546111b7565b9055565b61120d611214916111ab565b60026111e1565b565b5f90565b611223906104ea565b90565b61122f9061121a565b90565b61123a611216565b5061124c6112475f610878565b611226565b90565b9061126261125c33611a43565b1561030b565b6112715761126f916114f0565b565b5f63532fc80960e01b81528061128960048201610575565b0390fd5b61129961129f916100f0565b916100f0565b9081156112aa570690565b6109dd565b6112ba610180610b0a565b90565b906112c7906102e5565b9052565b906112d5906100f0565b9052565b906112e39061030b565b9052565b6112f190516102e5565b90565b90565b9061130c61130761131392610bb9565b6112f4565b82546111b7565b9055565b61132190516100f0565b90565b61132e905161030b565b90565b60081b90565b9061134a610100600160a81b0391611331565b9181191691161790565b9061136961136461137092610bb9565b6112f4565b8254611337565b9055565b60a81b90565b9061138960ff60a81b91611374565b9181191691161790565b906113a86113a36113af92610a97565b610aa3565b825461137a565b9055565b906114dc61016060096114e2946113d75f82016113d15f88016112e7565b906112f7565b6113f0600182016113ea602088016112e7565b906112f7565b6114096002820161140360408801611317565b90610a61565b6114226003820161141c60608801611324565b90610aa6565b61143b60038201611435608088016112e7565b90611354565b6114546003820161144e60a08801611324565b90611393565b61146d6004820161146760c08801611317565b90610a61565b6114866005820161148060e08801611317565b90610a61565b6114a06006820161149a6101008801611324565b90610aa6565b6114ba600782016114b46101208801611317565b90610a61565b6114d4600882016114ce6101408801611324565b90610aa6565b019201611317565b90610a61565b565b906114ee916113b3565b565b908161150c6115066115015f610878565b6102e5565b916102e5565b1461172e573461152461151e5f610fa4565b916100f0565b14611712578061153c6115365f610fa4565b916100f0565b146116f65761154c34829061128d565b61155e6115585f610fa4565b916100f0565b036116da5761156d60016101b1565b903390839034905f905f61158090610878565b905f905f915f935f955f9742996115956112af565b9b5f8d01906115a3916112bd565b60208c01906115b1916112bd565b60408b01906115bf916112cb565b60608a01906115cd916112d9565b60808901906115db916112bd565b60a08801906115e9916112d9565b60c08701906115f7916112cb565b61160090610fa4565b60e086019061160e916112cb565b61010085019061161d916112d9565b61162690610fa4565b610120840190611635916112cb565b610140830190611644916112d9565b610160820190611653916112cb565b5f8261165e91610153565b90611668916114e4565b61167260016101b1565b61167b90610a27565b611686906001610a61565b903334927f862dfcd9710943e66ad8f1f01a99cc98ab5612a09e62ecc68f63fe2e0f86cb0e916116b590610bb9565b926116bf90610bb9565b936116c86100e2565b9182916116d59183610bc5565b0390a3565b5f631ebf125d60e21b8152806116f260048201610575565b0390fd5b5f639f76fcd760e01b81528061170e60048201610575565b0390fd5b5f635e85ae7360e01b81528061172a60048201610575565b0390fd5b5f63eabab22f60e01b81528061174660048201610575565b0390fd5b906117549161124f565b565b61176790611762611d95565b611771565b61176f611e19565b565b6117855f61177f8382610153565b0161018d565b61179f6117996117945f610878565b6102e5565b916102e5565b146117af576117ad906117cb565b565b5f6338fde52b60e01b8152806117c760048201610575565b0390fd5b6117de6117d95f8390610153565b610931565b906117f46117ee60038401610226565b1561030b565b6119e257611804600583016101b1565b61182161181b611816600486016101b1565b6100f0565b916100f0565b10156119c657611848611836600284016101b1565b611842600485016101b1565b90610a05565b6118666005840161186061185b826101b1565b610a27565b90610a61565b611872600584016101b1565b61188f611889611884600487016101b1565b6100f0565b916100f0565b1490816119b3575b6118df5f806118b86118b36118ae60018a0161018d565b610ad2565b610ade565b846118c16100e2565b90816118cc81610afe565b03925af16118d8610b5e565b501561030b565b6119975782906118f1600586016101b1565b90916119297fd33fcd27cbfb73a2d9058c968b560ccb306500bf536133802048489ecc7355e9936119206100e2565b93849384610b87565b0390a1611935575b5050565b9061194e60026119476001840161018d565b92016101b1565b6119787f6e3c6096795c8298a218b2cfb8bde42726ff7c9a3d27b4d3ba41ab7f74feb5fb92610bb9565b9261198d6119846100e2565b92839283610bc5565b0390a25f80611931565b5f63e55c80d160e01b8152806119af60048201610575565b0390fd5b6119c1600160038601610aa6565b611897565b5f630174d97b60e71b8152806119de60048201610575565b0390fd5b5f63167f21b560e21b8152806119fa60048201610575565b0390fd5b611a0790611756565b565b5f90565b611a19611a1e91610169565b6104aa565b90565b611a2b9054611a0d565b90565b9190611a41905f602085019401906102f1565b565b6020611a8b91611a51611a09565b50611a64611a5f6002611a21565b610512565b611a80635bc008a0611a746100e2565b9586948593849361097b565b835260048301611a2e565b03915afa908115611aea575f91611abc575b50611ab7611ab1611aac610444565b6100f0565b916100f0565b101590565b611add915060203d8111611ae3575b611ad58183610952565b810190610990565b5f611a9d565b503d611acb565b6109ae565b5f90565b5f90565b611b02610180610b0a565b90565b90611c30611c266009611b16611af7565b94611b2d611b255f830161018d565b5f88016112bd565b611b45611b3c6001830161018d565b602088016112bd565b611b5d611b54600283016101b1565b604088016112cb565b611b75611b6c600383016101d8565b606088016112d9565b611b8d611b84600383016101ff565b608088016112bd565b611ba5611b9c60038301610226565b60a088016112d9565b611bbd611bb4600483016101b1565b60c088016112cb565b611bd5611bcc600583016101b1565b60e088016112cb565b611bee611be4600683016101d8565b61010088016112d9565b611c07611bfd600783016101b1565b61012088016112cb565b611c20611c16600883016101d8565b61014088016112d9565b016101b1565b61016084016112cb565b565b611c3b90611b05565b90565b611cb7611cbc91611c4d611aef565b50611c56611aef565b50611c5f611af3565b50611c68611a09565b50611c71611aef565b50611c7a611a09565b50611c83611af3565b50611c8c611af3565b50611c95611a09565b50611c9e611af3565b50611ca7611a09565b50611cb0611af3565b505f610153565b611c32565b90611cc85f83016112e7565b90611cd5602084016112e7565b92611ce260408201611317565b92611cef60608301611324565b92611cfc608084016112e7565b92611d0960a08201611324565b92611d1660c08301611317565b92611d2360e08401611317565b92611d316101008201611324565b92611d3f6101208301611317565b92611d5a610160611d536101408601611324565b9401611317565b919b9a99989796959493929190565b90565b611d80611d7b611d8592611d69565b610134565b6100f0565b90565b611d926002611d6c565b90565b611d9f60036101b1565b611db8611db2611dad611d88565b6100f0565b916100f0565b14611dd157611dcf611dc8611d88565b6003610a61565b565b5f633ee5aeb560e01b815280611de960048201610575565b0390fd5b90565b611e04611dff611e0992611ded565b610134565b6100f0565b90565b611e166001611df0565b90565b611e2b611e24611e0c565b6003610a61565b56fea2646970667358221220a69791b2769a4a01086354274ace3cd501f3fa1e3a0ee0cc563e85f50aa3821064736f6c634300081c0033","linkReferences":{}},"methodIdentifiers":{"REQUIRED_KYC_LEVEL()":"235b97c9","depositFunds(address,uint256)":"921b004b","forteCompliance()":"2be550ce","getOracle()":"833b1fce","getProject(uint256)":"f0f3f2c8","isKYCApproved(address)":"e77db232","projectCount()":"36fbad26","projects(uint256)":"107046bd","refundClient(uint256)":"43eed51c","releaseAfterEvent(uint256)":"cbcbc305","releaseMilestone(uint256)":"317debf5","setForteCompliance(address)":"6c56db5e"},"id":3}