{"abi":[{"type":"function","name":"REQUIRED_KYC_LEVEL","inputs":[],"outputs":[{"name":"","type":"uint256","internalType":"uint256"}],"stateMutability":"view"},{"type":"function","name":"depositFunds","inputs":[{"name":"_artist","type":"address","internalType":"address"},{"name":"_milestoneCount","type":"uint256","internalType":"uint256"}],"outputs":[],"stateMutability":"payable"},{"type":"function","name":"forteCompliance","inputs":[],"outputs":[{"name":"","type":"address","internalType":"contract IForteCompliance"}],"stateMutability":"view"},{"type":"function","name":"getOracle","inputs":[],"outputs":[{"name":"","type":"address","internalType":"contract IOracle"}],"stateMutability":"view"},{"type":"function","name":"getProject","inputs":[{"name":"_projectId","type":"uint256","internalType":"uint256"}],"outputs":[{"name":"client","type":"address","internalType":"address"},{"name":"artist","type":"address","internalType":"address"},{"name":"amount","type":"uint256","internalType":"uint256"},{"name":"released","type":"bool","internalType":"bool"},{"name":"validator","type":"address","internalType":"address"},{"name":"validated","type":"bool","internalType":"bool"},{"name":"milestoneCount","type":"uint256","internalType":"uint256"},{"name":"milestonesPaid","type":"uint256","internalType":"uint256"},{"name":"useFallback","type":"bool","internalType":"bool"},{"name":"fallbackDelay","type":"uint256","internalType":"uint256"},{"name":"useSignature","type":"bool","internalType":"bool"},{"name":"createdAt","type":"uint256","internalType":"uint256"}],"stateMutability":"view"},{"type":"function","name":"isKYCApproved","inputs":[{"name":"user","type":"address","internalType":"address"}],"outputs":[{"name":"","type":"bool","internalType":"bool"}],"stateMutability":"view"},{"type":"function","name":"projectCount","inputs":[],"outputs":[{"name":"","type":"uint256","internalType":"uint256"}],"stateMutability":"view"},{"type":"function","name":"projects","inputs":[{"name":"","type":"uint256","internalType":"uint256"}],"outputs":[{"name":"client","type":"address","internalType":"address"},{"name":"artist","type":"address","internalType":"address"},{"name":"amount","type":"uint256","internalType":"uint256"},{"name":"released","type":"bool","internalType":"bool"},{"name":"validator","type":"address","internalType":"address"},{"name":"validated","type":"bool","internalType":"bool"},{"name":"milestoneCount","type":"uint256","internalType":"uint256"},{"name":"milestonesPaid","type":"uint256","internalType":"uint256"},{"name":"useFallback","type":"bool","internalType":"bool"},{"name":"fallbackDelay","type":"uint256","internalType":"uint256"},{"name":"useSignature","type":"bool","internalType":"bool"},{"name":"createdAt","type":"uint256","internalType":"uint256"}],"stateMutability":"view"},{"type":"function","name":"refundClient","inputs":[{"name":"_projectId","type":"uint256","internalType":"uint256"}],"outputs":[],"stateMutability":"nonpayable"},{"type":"function","name":"releaseAfterEvent","inputs":[{"name":"_projectId","type":"uint256","internalType":"uint256"}],"outputs":[],"stateMutability":"nonpayable"},{"type":"function","name":"releaseMilestone","inputs":[{"name":"_projectId","type":"uint256","internalType":"uint256"}],"outputs":[],"stateMutability":"nonpayable"},{"type":"function","name":"setForteCompliance","inputs":[{"name":"_compliance","type":"address","internalType":"address"}],"outputs":[],"stateMutability":"nonpayable"},{"type":"event","name":"ClientRefunded","inputs":[{"name":"projectId","type":"uint256","indexed":false,"internalType":"uint256"},{"name":"client","type":"address","indexed":true,"internalType":"address"},{"name":"amount","type":"uint256","indexed":false,"internalType":"uint256"}],"anonymous":false},{"type":"event","name":"FundsDeposited","inputs":[{"name":"projectId","type":"uint256","indexed":false,"internalType":"uint256"},{"name":"client","type":"address","indexed":true,"internalType":"address"},{"name":"artist","type":"address","indexed":true,"internalType":"address"},{"name":"amount","type":"uint256","indexed":false,"internalType":"uint256"}],"anonymous":false},{"type":"event","name":"FundsRefunded","inputs":[{"name":"projectId","type":"uint256","indexed":false,"internalType":"uint256"},{"name":"client","type":"address","indexed":true,"internalType":"address"}],"anonymous":false},{"type":"event","name":"FundsReleased","inputs":[{"name":"projectId","type":"uint256","indexed":false,"internalType":"uint256"},{"name":"artist","type":"address","indexed":true,"internalType":"address"},{"name":"amount","type":"uint256","indexed":false,"internalType":"uint256"}],"anonymous":false},{"type":"event","name":"MilestoneReleased","inputs":[{"name":"projectId","type":"uint256","indexed":false,"internalType":"uint256"},{"name":"milestoneIndex","type":"uint256","indexed":false,"internalType":"uint256"},{"name":"amount","type":"uint256","indexed":false,"internalType":"uint256"}],"anonymous":false},{"type":"event","name":"ProjectValidated","inputs":[{"name":"projectId","type":"uint256","indexed":false,"internalType":"uint256"},{"name":"validator","type":"address","indexed":true,"internalType":"address"}],"anonymous":false},{"type":"event","name":"ValidatorAssigned","inputs":[{"name":"projectId","type":"uint256","indexed":false,"internalType":"uint256"},{"name":"validator","type":"address","indexed":true,"internalType":"address"}],"anonymous":false},{"type":"error","name":"AllMilestonesPaid","inputs":[]},{"type":"error","name":"AmountMustBeDivisibleByMilestoneCount","inputs":[]},{"type":"error","name":"AmountMustBeGreaterThanZero","inputs":[]},{"type":"error","name":"CannotRefundAfterFullRelease","inputs":[]},{"type":"error","name":"CannotRefundAfterPartialRelease","inputs":[]},{"type":"error","name":"InvalidArtistAddress","inputs":[]},{"type":"error","name":"KYCNotApproved","inputs":[]},{"type":"error","name":"MilestoneCountMustBeGreaterThanZero","inputs":[]},{"type":"error","name":"NoFundsToRefund","inputs":[]},{"type":"error","name":"OnlyAssignedValidator","inputs":[]},{"type":"error","name":"OnlyClient","inputs":[]},{"type":"error","name":"PriceTooLowSimple","inputs":[]},{"type":"error","name":"ProjectDoesNotExist","inputs":[]},{"type":"error","name":"ProjectMustBeValidated","inputs":[]},{"type":"error","name":"TransferFailedSimple","inputs":[]}],"bytecode":{"object":"0x608060405234602257600e6030565b60146026565b611ef96100bf8239611ef990f35b602c565b60405190565b5f80fd5b603660ae565b565b90565b90565b90565b6050604c6054926038565b603e565b603b565b90565b605f60016041565b90565b5f1b90565b9060715f19916062565b9181191691161790565b608a6086608e92603b565b603e565b603b565b90565b90565b9060a460a060aa92607b565b6091565b82546067565b9055565b60bc60b66057565b60036094565b56fe60806040526004361015610013575b61083a565b61001d5f356100dc565b8063107046bd146100d7578063235b97c9146100d25780632be550ce146100cd578063317debf5146100c857806336fbad26146100c357806343eed51c146100be5780636c56db5e146100b9578063833b1fce146100b4578063921b004b146100af578063cbcbc305146100aa578063e77db232146100a55763f0f3f2c80361000e576107f5565b6107c0565b610778565b61074e565b6106ec565b61068b565b610617565b6105e2565b61057a565b610540565b610471565b6103d1565b60e01c90565b60405190565b5f80fd5b5f80fd5b90565b6100fc816100f0565b0361010357565b5f80fd5b90503590610114826100f3565b565b9060208282031261012f5761012c915f01610107565b90565b6100ec565b90565b61014b610146610150926100f0565b610134565b6100f0565b90565b9061015d90610137565b5f5260205260405f2090565b5f1c90565b60018060a01b031690565b61018561018a91610169565b61016e565b90565b6101979054610179565b90565b90565b6101a96101ae91610169565b61019a565b90565b6101bb905461019d565b90565b60ff1690565b6101d06101d591610169565b6101be565b90565b6101e290546101c4565b90565b60081c90565b6101f76101fc916101e5565b61016e565b90565b61020990546101eb565b90565b60a81c90565b61021e6102239161020c565b6101be565b90565b6102309054610212565b90565b61023d905f610153565b906102495f830161018d565b916102566001820161018d565b91610263600283016101b1565b91610270600382016101d8565b9161027d600383016101ff565b9161028a60038201610226565b91610297600483016101b1565b916102a4600582016101b1565b916102b1600683016101d8565b916102be600782016101b1565b916102d760096102d0600885016101d8565b93016101b1565b90565b60018060a01b031690565b6102ee906102da565b90565b6102fa906102e5565b9052565b610307906100f0565b9052565b151590565b6103199061030b565b9052565b99979593919c9b9a98969492909c6101808b019d5f8c0161033d916102f1565b60208b0161034a916102f1565b60408a01610357916102fe565b6060890161036491610310565b60808801610371916102f1565b60a0870161037e91610310565b60c0860161038b916102fe565b60e08501610398916102fe565b61010084016103a691610310565b61012083016103b4916102fe565b61014082016103c291610310565b610160016103cf916102fe565b565b346104115761040d6103ec6103e7366004610116565b610233565b986104049c9a9c9891989792979693969594956100e2565b9c8d9c8d61031d565b0390f35b6100e8565b5f91031261042057565b6100ec565b90565b61043c61043761044192610425565b610134565b6100f0565b90565b61044e6003610428565b90565b610459610444565b90565b919061046f905f602085019401906102fe565b565b346104a157610481366004610416565b61049d61048c610451565b6104946100e2565b9182918261045c565b0390f35b6100e8565b1c90565b60018060a01b031690565b6104c59060086104ca93026104a6565b6104aa565b90565b906104d891546104b5565b90565b6104e760025f906104cd565b90565b6104fe6104f9610503926102da565b610134565b6102da565b90565b61050f906104ea565b90565b61051b90610506565b90565b61052790610512565b9052565b919061053e905f6020850194019061051e565b565b3461057057610550366004610416565b61056c61055b6104db565b6105636100e2565b9182918261052b565b0390f35b6100e8565b5f0190565b346105a85761059261058d366004610116565b610ed8565b61059a6100e2565b806105a481610575565b0390f35b6100e8565b6105bd9060086105c293026104a6565b61019a565b90565b906105d091546105ad565b90565b6105df60015f906105c5565b90565b34610612576105f2366004610416565b61060e6105fd6105d3565b6106056100e2565b9182918261045c565b0390f35b6100e8565b346106455761062f61062a366004610116565b6111a2565b6106376100e2565b8061064181610575565b0390f35b6100e8565b610653816102e5565b0361065a57565b5f80fd5b9050359061066b8261064a565b565b9060208282031261068657610683915f0161065e565b90565b6100ec565b346106b9576106a361069e36600461066d565b61120f565b6106ab6100e2565b806106b581610575565b0390f35b6100e8565b6106c790610506565b90565b6106d3906106be565b9052565b91906106ea905f602085019401906106ca565b565b3461071c576106fc366004610416565b610718610707611240565b61070f6100e2565b918291826106d7565b0390f35b6100e8565b9190604083820312610749578061073d610746925f860161065e565b93602001610107565b90565b6100ec565b61076261075c366004610721565b9061175f565b61076a6100e2565b8061077481610575565b0390f35b346107a65761079061078b366004610116565b611a13565b6107986100e2565b806107a281610575565b0390f35b6100e8565b91906107be905f60208501940190610310565b565b346107f0576107ec6107db6107d636600461066d565b611a58565b6107e36100e2565b918291826107ab565b0390f35b6100e8565b346108355761083161081061080b366004610116565b611c53565b986108289c9a9c9891989792979693969594956100e2565b9c8d9c8d61031d565b0390f35b6100e8565b5f80fd5b61084f9061084a611e35565b610884565b610857611ea2565b565b90565b61087061086b61087592610859565b610134565b6102da565b90565b6108819061085c565b90565b6108985f6108928382610153565b0161018d565b6108b26108ac6108a75f610878565b6102e5565b916102e5565b146108c2576108c0906108de565b565b5f6338fde52b60e01b8152806108da60048201610575565b0390fd5b8061090c6109066109015f6108fb6108f4611eb6565b9582610153565b0161018d565b6102e5565b916102e5565b0361091c5761091a90610bef565b565b5f63d6d90f8960e01b81528061093460048201610575565b0390fd5b90565b601f801991011690565b634e487b7160e01b5f52604160045260245ffd5b906109639061093b565b810190811067ffffffffffffffff82111761097d57604052565b610945565b60e01b90565b90505190610995826100f3565b565b906020828203126109b0576109ad915f01610988565b90565b6100ec565b6109bd6100e2565b3d5f823e3d90fd5b90565b6109dc6109d76109e1926109c5565b610134565b6100f0565b90565b634e487b7160e01b5f52601260045260245ffd5b634e487b7160e01b5f52601160045260245ffd5b610a18610a1e916100f0565b916100f0565b908115610a29570490565b6109e4565b610a37906100f0565b5f198114610a455760010190565b6109f8565b5f1b90565b90610a5b5f1991610a4a565b9181191691161790565b90565b90610a7d610a78610a8492610137565b610a65565b8254610a4f565b9055565b90610a9460ff91610a4a565b9181191691161790565b610aa79061030b565b90565b90565b90610ac2610abd610ac992610a9e565b610aaa565b8254610a88565b9055565b610ad6906104ea565b90565b610ae290610acd565b90565b610aee90610506565b90565b905090565b610b015f8092610af1565b0190565b610b0e90610af6565b90565b90610b24610b1d6100e2565b9283610959565b565b67ffffffffffffffff8111610b4457610b4060209161093b565b0190565b610945565b90610b5b610b5683610b26565b610b11565b918252565b606090565b3d5f14610b8057610b753d610b49565b903d5f602084013e5b565b610b88610b60565b90610b7e565b604090610bb7610bbe9496959396610bad60608401985f8501906102fe565b60208301906102fe565b01906102fe565b565b610bc990610506565b90565b916020610bed929493610be660408201965f8301906102fe565b01906102fe565b565b610c02610bfd5f8390610153565b610938565b90610c18610c1260038401610226565b1561030b565b610ebc57610c28600583016101b1565b610c45610c3f610c3a600486016101b1565b6100f0565b916100f0565b1015610ea057610c766020610c60610c5b611240565b6106be565b638e15f47390610c6e6100e2565b938492610982565b82528180610c8660048201610575565b03915afa908115610e9b575f91610e6d575b50610cad610ca76103e86109c8565b916100f0565b10610e5157610cd3610cc1600284016101b1565b610ccd600485016101b1565b90610a0c565b610cf160058401610ceb610ce6826101b1565b610a2e565b90610a68565b610cfd600584016101b1565b610d1a610d14610d0f600487016101b1565b6100f0565b916100f0565b149081610e3e575b610d6a5f80610d43610d3e610d3960018a0161018d565b610ad9565b610ae5565b84610d4c6100e2565b9081610d5781610b05565b03925af1610d63610b65565b501561030b565b610e22578290610d7c600586016101b1565b9091610db47fd33fcd27cbfb73a2d9058c968b560ccb306500bf536133802048489ecc7355e993610dab6100e2565b93849384610b8e565b0390a1610dc0575b5050565b90610dd96002610dd26001840161018d565b92016101b1565b610e037f6e3c6096795c8298a218b2cfb8bde42726ff7c9a3d27b4d3ba41ab7f74feb5fb92610bc0565b92610e18610e0f6100e2565b92839283610bcc565b0390a25f80610dbc565b5f63e55c80d160e01b815280610e3a60048201610575565b0390fd5b610e4c600160038601610aad565b610d22565b5f63499372d360e11b815280610e6960048201610575565b0390fd5b610e8e915060203d8111610e94575b610e868183610959565b810190610997565b5f610c98565b503d610e7c565b6109b5565b5f630174d97b60e71b815280610eb860048201610575565b0390fd5b5f63167f21b560e21b815280610ed460048201610575565b0390fd5b610ee19061083e565b565b610ef490610eef611e35565b610efe565b610efc611ea2565b565b610f125f610f0c8382610153565b0161018d565b610f2c610f26610f215f610878565b6102e5565b916102e5565b14610f3c57610f3a90610f58565b565b5f6338fde52b60e01b815280610f5460048201610575565b0390fd5b80610f86610f80610f7b5f610f75610f6e611eb6565b9582610153565b0161018d565b6102e5565b916102e5565b03610f9657610f9490610fce565b565b5f63d6d90f8960e01b815280610fae60048201610575565b0390fd5b610fc6610fc1610fcb92610859565b610134565b6100f0565b90565b610fe1610fdc5f8390610153565b610938565b90610fee600383016101d8565b61118657610ffe600583016101b1565b61101061100a5f610fb2565b916100f0565b0361116a57611021600283016101b1565b61103361102d5f610fb2565b916100f0565b1461114e575f809161110561110085611051600261112c98016101b1565b9361107361106087840161018d565b92600261106c89610fb2565b9101610a68565b80826110b46110a27fd1c90c5ed8b35db630851dbe3ec20c8798b71354223bfe5a5527e84103e89d5b92610bc0565b926110ab6100e2565b9182918261045c565b0390a281856110e37f710864ae79ae7195dbcaa0f79eef4a8f5b490696c2d588a27f4d69ce60ac01fc92610bc0565b926110f86110ef6100e2565b92839283610bcc565b0390a2610ad9565b610ae5565b9061110e6100e2565b908161111981610b05565b03925af1611125610b65565b501561030b565b61113257565b5f63e55c80d160e01b81528061114a60048201610575565b0390fd5b5f634625bdf760e01b81528061116660048201610575565b0390fd5b5f6372748c6b60e11b81528061118260048201610575565b0390fd5b5f636d31177b60e11b81528061119e60048201610575565b0390fd5b6111ab90610ee3565b565b6111b6906104ea565b90565b6111c2906111ad565b90565b906111d660018060a01b0391610a4a565b9181191691161790565b6111e9906111ad565b90565b90565b906112046111ff61120b926111e0565b6111ec565b82546111c5565b9055565b61121b611222916111b9565b60026111ef565b565b5f90565b611231906104ea565b90565b61123d90611228565b90565b611248611224565b5061125a6112555f610878565b611234565b90565b9061127761127161126c611eb6565b611a58565b1561030b565b6112865761128491611505565b565b5f63532fc80960e01b81528061129e60048201610575565b0390fd5b6112ae6112b4916100f0565b916100f0565b9081156112bf570690565b6109e4565b6112cf610180610b11565b90565b906112dc906102e5565b9052565b906112ea906100f0565b9052565b906112f89061030b565b9052565b61130690516102e5565b90565b90565b9061132161131c61132892610bc0565b611309565b82546111c5565b9055565b61133690516100f0565b90565b611343905161030b565b90565b60081b90565b9061135f610100600160a81b0391611346565b9181191691161790565b9061137e61137961138592610bc0565b611309565b825461134c565b9055565b60a81b90565b9061139e60ff60a81b91611389565b9181191691161790565b906113bd6113b86113c492610a9e565b610aaa565b825461138f565b9055565b906114f161016060096114f7946113ec5f82016113e65f88016112fc565b9061130c565b611405600182016113ff602088016112fc565b9061130c565b61141e600282016114186040880161132c565b90610a68565b6114376003820161143160608801611339565b90610aad565b6114506003820161144a608088016112fc565b90611369565b6114696003820161146360a08801611339565b906113a8565b6114826004820161147c60c0880161132c565b90610a68565b61149b6005820161149560e0880161132c565b90610a68565b6114b5600682016114af6101008801611339565b90610aad565b6114cf600782016114c9610120880161132c565b90610a68565b6114e9600882016114e36101408801611339565b90610aad565b01920161132c565b90610a68565b565b90611503916113c8565b565b908161152161151b6115165f610878565b6102e5565b916102e5565b1461174357346115396115335f610fb2565b916100f0565b14611727578061155161154b5f610fb2565b916100f0565b1461170b576115613482906112a2565b61157361156d5f610fb2565b916100f0565b036116ef5761158260016101b1565b903390839034905f905f61159590610878565b905f905f915f935f955f9742996115aa6112c4565b9b5f8d01906115b8916112d2565b60208c01906115c6916112d2565b60408b01906115d4916112e0565b60608a01906115e2916112ee565b60808901906115f0916112d2565b60a08801906115fe916112ee565b60c087019061160c916112e0565b61161590610fb2565b60e0860190611623916112e0565b610100850190611632916112ee565b61163b90610fb2565b61012084019061164a916112e0565b610140830190611659916112ee565b610160820190611668916112e0565b5f8261167391610153565b9061167d916114f9565b61168760016101b1565b61169090610a2e565b61169b906001610a68565b903334927f862dfcd9710943e66ad8f1f01a99cc98ab5612a09e62ecc68f63fe2e0f86cb0e916116ca90610bc0565b926116d490610bc0565b936116dd6100e2565b9182916116ea9183610bcc565b0390a3565b5f631ebf125d60e21b81528061170760048201610575565b0390fd5b5f639f76fcd760e01b81528061172360048201610575565b0390fd5b5f635e85ae7360e01b81528061173f60048201610575565b0390fd5b5f63eabab22f60e01b81528061175b60048201610575565b0390fd5b906117699161125d565b565b61177c90611777611e35565b611786565b611784611ea2565b565b61179a5f6117948382610153565b0161018d565b6117b46117ae6117a95f610878565b6102e5565b916102e5565b146117c4576117c2906117e0565b565b5f6338fde52b60e01b8152806117dc60048201610575565b0390fd5b6117f36117ee5f8390610153565b610938565b9061180961180360038401610226565b1561030b565b6119f757611819600583016101b1565b61183661183061182b600486016101b1565b6100f0565b916100f0565b10156119db5761185d61184b600284016101b1565b611857600485016101b1565b90610a0c565b61187b60058401611875611870826101b1565b610a2e565b90610a68565b611887600584016101b1565b6118a461189e611899600487016101b1565b6100f0565b916100f0565b1490816119c8575b6118f45f806118cd6118c86118c360018a0161018d565b610ad9565b610ae5565b846118d66100e2565b90816118e181610b05565b03925af16118ed610b65565b501561030b565b6119ac578290611906600586016101b1565b909161193e7fd33fcd27cbfb73a2d9058c968b560ccb306500bf536133802048489ecc7355e9936119356100e2565b93849384610b8e565b0390a161194a575b5050565b90611963600261195c6001840161018d565b92016101b1565b61198d7f6e3c6096795c8298a218b2cfb8bde42726ff7c9a3d27b4d3ba41ab7f74feb5fb92610bc0565b926119a26119996100e2565b92839283610bcc565b0390a25f80611946565b5f63e55c80d160e01b8152806119c460048201610575565b0390fd5b6119d6600160038601610aad565b6118ac565b5f630174d97b60e71b8152806119f360048201610575565b0390fd5b5f63167f21b560e21b815280611a0f60048201610575565b0390fd5b611a1c9061176b565b565b5f90565b611a2e611a3391610169565b6104aa565b90565b611a409054611a22565b90565b9190611a56905f602085019401906102f1565b565b6020611aa091611a66611a1e565b50611a79611a746002611a36565b610512565b611a95635bc008a0611a896100e2565b95869485938493610982565b835260048301611a43565b03915afa908115611aff575f91611ad1575b50611acc611ac6611ac1610444565b6100f0565b916100f0565b101590565b611af2915060203d8111611af8575b611aea8183610959565b810190610997565b5f611ab2565b503d611ae0565b6109b5565b5f90565b5f90565b611b17610180610b11565b90565b90611c45611c3b6009611b2b611b0c565b94611b42611b3a5f830161018d565b5f88016112d2565b611b5a611b516001830161018d565b602088016112d2565b611b72611b69600283016101b1565b604088016112e0565b611b8a611b81600383016101d8565b606088016112ee565b611ba2611b99600383016101ff565b608088016112d2565b611bba611bb160038301610226565b60a088016112ee565b611bd2611bc9600483016101b1565b60c088016112e0565b611bea611be1600583016101b1565b60e088016112e0565b611c03611bf9600683016101d8565b61010088016112ee565b611c1c611c12600783016101b1565b61012088016112e0565b611c35611c2b600883016101d8565b61014088016112ee565b016101b1565b61016084016112e0565b565b611c5090611b1a565b90565b611ccc611cd191611c62611b04565b50611c6b611b04565b50611c74611b08565b50611c7d611a1e565b50611c86611b04565b50611c8f611a1e565b50611c98611b08565b50611ca1611b08565b50611caa611a1e565b50611cb3611b08565b50611cbc611a1e565b50611cc5611b08565b505f610153565b611c47565b90611cdd5f83016112fc565b90611cea602084016112fc565b92611cf76040820161132c565b92611d0460608301611339565b92611d11608084016112fc565b92611d1e60a08201611339565b92611d2b60c0830161132c565b92611d3860e0840161132c565b92611d466101008201611339565b92611d54610120830161132c565b92611d6f610160611d686101408601611339565b940161132c565b919b9a99989796959493929190565b90565b611d95611d90611d9a92611d7e565b610134565b6100f0565b90565b611da76002611d81565b90565b60209181520190565b5f7f5265656e7472616e637947756172643a207265656e7472616e742063616c6c00910152565b611de7601f602092611daa565b611df081611db3565b0190565b611e099060208101905f818303910152611dda565b90565b15611e1357565b611e1b6100e2565b62461bcd60e51b815280611e3160048201611df4565b0390fd5b611e62611e4260036101b1565b611e5b611e55611e50611d9d565b6100f0565b916100f0565b1415611e0c565b611e74611e6d611d9d565b6003610a68565b565b90565b611e8d611e88611e9292611e76565b610134565b6100f0565b90565b611e9f6001611e79565b90565b611eb4611ead611e95565b6003610a68565b565b611ebe611b04565b50339056fea2646970667358221220024bf64573b5854af056bb89b3d16ff1d02f78e402e261070b1d963c97dd868b64736f6c634300081c0033","linkReferences":{}},"methodIdentifiers":{"REQUIRED_KYC_LEVEL()":"235b97c9","depositFunds(address,uint256)":"921b004b","forteCompliance()":"2be550ce","getOracle()":"833b1fce","getProject(uint256)":"f0f3f2c8","isKYCApproved(address)":"e77db232","projectCount()":"36fbad26","projects(uint256)":"107046bd","refundClient(uint256)":"43eed51c","releaseAfterEvent(uint256)":"cbcbc305","releaseMilestone(uint256)":"317debf5","setForteCompliance(address)":"6c56db5e"},"id":3}