{"abi":[{"type":"function","name":"depositFunds","inputs":[{"name":"_artist","type":"address","internalType":"address"},{"name":"_milestoneCount","type":"uint256","internalType":"uint256"}],"outputs":[],"stateMutability":"payable"},{"type":"function","name":"getProject","inputs":[{"name":"_projectId","type":"uint256","internalType":"uint256"}],"outputs":[{"name":"client","type":"address","internalType":"address"},{"name":"artist","type":"address","internalType":"address"},{"name":"amount","type":"uint256","internalType":"uint256"},{"name":"released","type":"bool","internalType":"bool"},{"name":"validator","type":"address","internalType":"address"},{"name":"validated","type":"bool","internalType":"bool"},{"name":"milestoneCount","type":"uint256","internalType":"uint256"},{"name":"milestonesPaid","type":"uint256","internalType":"uint256"}],"stateMutability":"view"},{"type":"function","name":"projectCount","inputs":[],"outputs":[{"name":"","type":"uint256","internalType":"uint256"}],"stateMutability":"view"},{"type":"function","name":"projects","inputs":[{"name":"","type":"uint256","internalType":"uint256"}],"outputs":[{"name":"client","type":"address","internalType":"address"},{"name":"artist","type":"address","internalType":"address"},{"name":"amount","type":"uint256","internalType":"uint256"},{"name":"released","type":"bool","internalType":"bool"},{"name":"validator","type":"address","internalType":"address"},{"name":"validated","type":"bool","internalType":"bool"},{"name":"milestoneCount","type":"uint256","internalType":"uint256"},{"name":"milestonesPaid","type":"uint256","internalType":"uint256"}],"stateMutability":"view"},{"type":"function","name":"refundClient","inputs":[{"name":"_projectId","type":"uint256","internalType":"uint256"}],"outputs":[],"stateMutability":"nonpayable"},{"type":"function","name":"releaseAfterEvent","inputs":[{"name":"_projectId","type":"uint256","internalType":"uint256"}],"outputs":[],"stateMutability":"nonpayable"},{"type":"function","name":"releaseMilestone","inputs":[{"name":"_projectId","type":"uint256","internalType":"uint256"}],"outputs":[],"stateMutability":"nonpayable"},{"type":"event","name":"ClientRefunded","inputs":[{"name":"projectId","type":"uint256","indexed":false,"internalType":"uint256"},{"name":"client","type":"address","indexed":true,"internalType":"address"},{"name":"amount","type":"uint256","indexed":false,"internalType":"uint256"}],"anonymous":false},{"type":"event","name":"FundsDeposited","inputs":[{"name":"projectId","type":"uint256","indexed":false,"internalType":"uint256"},{"name":"client","type":"address","indexed":true,"internalType":"address"},{"name":"artist","type":"address","indexed":true,"internalType":"address"},{"name":"amount","type":"uint256","indexed":false,"internalType":"uint256"}],"anonymous":false},{"type":"event","name":"FundsRefunded","inputs":[{"name":"projectId","type":"uint256","indexed":false,"internalType":"uint256"},{"name":"client","type":"address","indexed":true,"internalType":"address"}],"anonymous":false},{"type":"event","name":"FundsReleased","inputs":[{"name":"projectId","type":"uint256","indexed":false,"internalType":"uint256"},{"name":"artist","type":"address","indexed":true,"internalType":"address"},{"name":"amount","type":"uint256","indexed":false,"internalType":"uint256"}],"anonymous":false},{"type":"event","name":"MilestoneReleased","inputs":[{"name":"projectId","type":"uint256","indexed":false,"internalType":"uint256"},{"name":"milestoneIndex","type":"uint256","indexed":false,"internalType":"uint256"},{"name":"amount","type":"uint256","indexed":false,"internalType":"uint256"}],"anonymous":false},{"type":"event","name":"ProjectValidated","inputs":[{"name":"projectId","type":"uint256","indexed":false,"internalType":"uint256"},{"name":"validator","type":"address","indexed":true,"internalType":"address"}],"anonymous":false},{"type":"event","name":"ValidatorAssigned","inputs":[{"name":"projectId","type":"uint256","indexed":false,"internalType":"uint256"},{"name":"validator","type":"address","indexed":true,"internalType":"address"}],"anonymous":false},{"type":"error","name":"ReentrancyGuardReentrantCall","inputs":[]}],"bytecode":{"object":"0x6080604052348015600e575f5ffd5b506001600281905550611ae7806100245f395ff3fe60806040526004361061006f575f3560e01c806343eed51c1161004d57806343eed51c14610108578063921b004b14610130578063cbcbc3051461014c578063f0f3f2c8146101745761006f565b8063107046bd14610073578063317debf5146100b657806336fbad26146100de575b5f5ffd5b34801561007e575f5ffd5b506100996004803603810190610094919061126d565b6101b7565b6040516100ad989796959493929190611300565b60405180910390f35b3480156100c1575f5ffd5b506100dc60048036038101906100d7919061126d565b610271565b005b3480156100e9575f5ffd5b506100f26105ca565b6040516100ff919061137c565b60405180910390f35b348015610113575f5ffd5b5061012e6004803603810190610129919061126d565b6105d0565b005b61014a600480360381019061014591906113bf565b610997565b005b348015610157575f5ffd5b50610172600480360381019061016d919061126d565b610cd3565b005b34801561017f575f5ffd5b5061019a6004803603810190610195919061126d565b61102c565b6040516101ae989796959493929190611300565b60405180910390f35b5f602052805f5260405f205f91509050805f015f9054906101000a900473ffffffffffffffffffffffffffffffffffffffff1690806001015f9054906101000a900473ffffffffffffffffffffffffffffffffffffffff1690806002015490806003015f9054906101000a900460ff16908060030160019054906101000a900473ffffffffffffffffffffffffffffffffffffffff16908060030160159054906101000a900460ff16908060040154908060050154905088565b6102796111e8565b805f73ffffffffffffffffffffffffffffffffffffffff165f5f8381526020019081526020015f205f015f9054906101000a900473ffffffffffffffffffffffffffffffffffffffff1673ffffffffffffffffffffffffffffffffffffffff1603610319576040517f08c379a000000000000000000000000000000000000000000000000000000000815260040161031090611457565b60405180910390fd5b5f5f5f8481526020019081526020015f2090508060030160159054906101000a900460ff1661037d576040517f08c379a0000000000000000000000000000000000000000000000000000000008152600401610374906114e5565b60405180910390fd5b80600401548160050154106103c7576040517f08c379a00000000000000000000000000000000000000000000000000000000081526004016103be9061154d565b60405180910390fd5b5f816004015482600201546103dc91906115c5565b9050816005015f8154809291906103f2906115f5565b91905055508160040154826005015403610423576001826003015f6101000a81548160ff0219169083151502179055505b5f826001015f9054906101000a900473ffffffffffffffffffffffffffffffffffffffff1673ffffffffffffffffffffffffffffffffffffffff168260405161046b90611669565b5f6040518083038185875af1925050503d805f81146104a5576040519150601f19603f3d011682016040523d82523d5f602084013e6104aa565b606091505b50509050806104ee576040517f08c379a00000000000000000000000000000000000000000000000000000000081526004016104e5906116c7565b60405180910390fd5b7fd33fcd27cbfb73a2d9058c968b560ccb306500bf536133802048489ecc7355e985846005015484604051610525939291906116e5565b60405180910390a1826003015f9054906101000a900460ff16156105bb57826001015f9054906101000a900473ffffffffffffffffffffffffffffffffffffffff1673ffffffffffffffffffffffffffffffffffffffff167f6e3c6096795c8298a218b2cfb8bde42726ff7c9a3d27b4d3ba41ab7f74feb5fb8685600201546040516105b292919061171a565b60405180910390a25b505050506105c761122c565b50565b60015481565b6105d86111e8565b805f73ffffffffffffffffffffffffffffffffffffffff165f5f8381526020019081526020015f205f015f9054906101000a900473ffffffffffffffffffffffffffffffffffffffff1673ffffffffffffffffffffffffffffffffffffffff1603610678576040517f08c379a000000000000000000000000000000000000000000000000000000000815260040161066f90611457565b60405180910390fd5b815f5f8281526020019081526020015f205f015f9054906101000a900473ffffffffffffffffffffffffffffffffffffffff1673ffffffffffffffffffffffffffffffffffffffff163373ffffffffffffffffffffffffffffffffffffffff1614610718576040517f08c379a000000000000000000000000000000000000000000000000000000000815260040161070f906117b1565b60405180910390fd5b5f5f5f8581526020019081526020015f209050806003015f9054906101000a900460ff161561077c576040517f08c379a00000000000000000000000000000000000000000000000000000000081526004016107739061183f565b60405180910390fd5b5f816005015411156107c3576040517f08c379a00000000000000000000000000000000000000000000000000000000081526004016107ba906118cd565b60405180910390fd5b5f816002015411610809576040517f08c379a000000000000000000000000000000000000000000000000000000000815260040161080090611935565b60405180910390fd5b5f816002015490505f825f015f9054906101000a900473ffffffffffffffffffffffffffffffffffffffff1690505f83600201819055505f8173ffffffffffffffffffffffffffffffffffffffff168360405161086590611669565b5f6040518083038185875af1925050503d805f811461089f576040519150601f19603f3d011682016040523d82523d5f602084013e6108a4565b606091505b50509050806108e8576040517f08c379a00000000000000000000000000000000000000000000000000000000081526004016108df906116c7565b60405180910390fd5b8173ffffffffffffffffffffffffffffffffffffffff167fd1c90c5ed8b35db630851dbe3ec20c8798b71354223bfe5a5527e84103e89d5b8860405161092e919061137c565b60405180910390a28173ffffffffffffffffffffffffffffffffffffffff167f710864ae79ae7195dbcaa0f79eef4a8f5b490696c2d588a27f4d69ce60ac01fc888560405161097e92919061171a565b60405180910390a250505050505061099461122c565b50565b5f73ffffffffffffffffffffffffffffffffffffffff168273ffffffffffffffffffffffffffffffffffffffff1603610a05576040517f08c379a00000000000000000000000000000000000000000000000000000000081526004016109fc9061199d565b60405180910390fd5b5f3411610a47576040517f08c379a0000000000000000000000000000000000000000000000000000000008152600401610a3e90611a05565b60405180910390fd5b5f8111610a89576040517f08c379a0000000000000000000000000000000000000000000000000000000008152600401610a8090611a93565b60405180910390fd5b5f60015490506040518061010001604052803373ffffffffffffffffffffffffffffffffffffffff1681526020018473ffffffffffffffffffffffffffffffffffffffff1681526020013481526020015f151581526020015f73ffffffffffffffffffffffffffffffffffffffff1681526020015f151581526020018381526020015f8152505f5f8381526020019081526020015f205f820151815f015f6101000a81548173ffffffffffffffffffffffffffffffffffffffff021916908373ffffffffffffffffffffffffffffffffffffffff1602179055506020820151816001015f6101000a81548173ffffffffffffffffffffffffffffffffffffffff021916908373ffffffffffffffffffffffffffffffffffffffff160217905550604082015181600201556060820151816003015f6101000a81548160ff02191690831515021790555060808201518160030160016101000a81548173ffffffffffffffffffffffffffffffffffffffff021916908373ffffffffffffffffffffffffffffffffffffffff16021790555060a08201518160030160156101000a81548160ff02191690831515021790555060c0820151816004015560e0820151816005015590505060015f815480929190610c62906115f5565b91905055508273ffffffffffffffffffffffffffffffffffffffff163373ffffffffffffffffffffffffffffffffffffffff167f862dfcd9710943e66ad8f1f01a99cc98ab5612a09e62ecc68f63fe2e0f86cb0e8334604051610cc692919061171a565b60405180910390a3505050565b610cdb6111e8565b805f73ffffffffffffffffffffffffffffffffffffffff165f5f8381526020019081526020015f205f015f9054906101000a900473ffffffffffffffffffffffffffffffffffffffff1673ffffffffffffffffffffffffffffffffffffffff1603610d7b576040517f08c379a0000000000000000000000000000000000000000000000000000000008152600401610d7290611457565b60405180910390fd5b5f5f5f8481526020019081526020015f2090508060030160159054906101000a900460ff16610ddf576040517f08c379a0000000000000000000000000000000000000000000000000000000008152600401610dd6906114e5565b60405180910390fd5b8060040154816005015410610e29576040517f08c379a0000000000000000000000000000000000000000000000000000000008152600401610e209061154d565b60405180910390fd5b5f81600401548260020154610e3e91906115c5565b9050816005015f815480929190610e54906115f5565b91905055508160040154826005015403610e85576001826003015f6101000a81548160ff0219169083151502179055505b5f826001015f9054906101000a900473ffffffffffffffffffffffffffffffffffffffff1673ffffffffffffffffffffffffffffffffffffffff1682604051610ecd90611669565b5f6040518083038185875af1925050503d805f8114610f07576040519150601f19603f3d011682016040523d82523d5f602084013e610f0c565b606091505b5050905080610f50576040517f08c379a0000000000000000000000000000000000000000000000000000000008152600401610f47906116c7565b60405180910390fd5b7fd33fcd27cbfb73a2d9058c968b560ccb306500bf536133802048489ecc7355e985846005015484604051610f87939291906116e5565b60405180910390a1826003015f9054906101000a900460ff161561101d57826001015f9054906101000a900473ffffffffffffffffffffffffffffffffffffffff1673ffffffffffffffffffffffffffffffffffffffff167f6e3c6096795c8298a218b2cfb8bde42726ff7c9a3d27b4d3ba41ab7f74feb5fb86856002015460405161101492919061171a565b60405180910390a25b5050505061102961122c565b50565b5f5f5f5f5f5f5f5f5f5f5f8b81526020019081526020015f20604051806101000160405290815f82015f9054906101000a900473ffffffffffffffffffffffffffffffffffffffff1673ffffffffffffffffffffffffffffffffffffffff1673ffffffffffffffffffffffffffffffffffffffff168152602001600182015f9054906101000a900473ffffffffffffffffffffffffffffffffffffffff1673ffffffffffffffffffffffffffffffffffffffff1673ffffffffffffffffffffffffffffffffffffffff16815260200160028201548152602001600382015f9054906101000a900460ff161515151581526020016003820160019054906101000a900473ffffffffffffffffffffffffffffffffffffffff1673ffffffffffffffffffffffffffffffffffffffff1673ffffffffffffffffffffffffffffffffffffffff1681526020016003820160159054906101000a900460ff16151515158152602001600482015481526020016005820154815250509050805f015181602001518260400151836060015184608001518560a001518660c001518760e001519850985098509850985098509850985050919395975091939597565b6002805403611223576040517f3ee5aeb500000000000000000000000000000000000000000000000000000000815260040160405180910390fd5b60028081905550565b6001600281905550565b5f5ffd5b5f819050919050565b61124c8161123a565b8114611256575f5ffd5b50565b5f8135905061126781611243565b92915050565b5f6020828403121561128257611281611236565b5b5f61128f84828501611259565b91505092915050565b5f73ffffffffffffffffffffffffffffffffffffffff82169050919050565b5f6112c182611298565b9050919050565b6112d1816112b7565b82525050565b6112e08161123a565b82525050565b5f8115159050919050565b6112fa816112e6565b82525050565b5f610100820190506113145f83018b6112c8565b611321602083018a6112c8565b61132e60408301896112d7565b61133b60608301886112f1565b61134860808301876112c8565b61135560a08301866112f1565b61136260c08301856112d7565b61136f60e08301846112d7565b9998505050505050505050565b5f60208201905061138f5f8301846112d7565b92915050565b61139e816112b7565b81146113a8575f5ffd5b50565b5f813590506113b981611395565b92915050565b5f5f604083850312156113d5576113d4611236565b5b5f6113e2858286016113ab565b92505060206113f385828601611259565b9150509250929050565b5f82825260208201905092915050565b7f4572726f723a2050726f6a65637420646f6573206e6f742065786973742e00005f82015250565b5f611441601e836113fd565b915061144c8261140d565b602082019050919050565b5f6020820190508181035f83015261146e81611435565b9050919050565b7f4572726f723a2050726f6a656374206d7573742062652076616c6964617465645f8201527f206265666f72652072656c656173696e672066756e6473000000000000000000602082015250565b5f6114cf6037836113fd565b91506114da82611475565b604082019050919050565b5f6020820190508181035f8301526114fc816114c3565b9050919050565b7f4572726f723a20416c6c206d696c6573746f6e657320706169642e00000000005f82015250565b5f611537601b836113fd565b915061154282611503565b602082019050919050565b5f6020820190508181035f8301526115648161152b565b9050919050565b7f4e487b71000000000000000000000000000000000000000000000000000000005f52601260045260245ffd5b7f4e487b71000000000000000000000000000000000000000000000000000000005f52601160045260245ffd5b5f6115cf8261123a565b91506115da8361123a565b9250826115ea576115e961156b565b5b828204905092915050565b5f6115ff8261123a565b91507fffffffffffffffffffffffffffffffffffffffffffffffffffffffffffffffff820361163157611630611598565b5b600182019050919050565b5f81905092915050565b50565b5f6116545f8361163c565b915061165f82611646565b5f82019050919050565b5f61167382611649565b9150819050919050565b7f5472616e73666572206661696c65642e000000000000000000000000000000005f82015250565b5f6116b16010836113fd565b91506116bc8261167d565b602082019050919050565b5f6020820190508181035f8301526116de816116a5565b9050919050565b5f6060820190506116f85f8301866112d7565b61170560208301856112d7565b61171260408301846112d7565b949350505050565b5f60408201905061172d5f8301856112d7565b61173a60208301846112d7565b9392505050565b7f4572726f723a204f6e6c792074686520636c69656e742063616e20706572666f5f8201527f726d207468697320616374696f6e2e0000000000000000000000000000000000602082015250565b5f61179b602f836113fd565b91506117a682611741565b604082019050919050565b5f6020820190508181035f8301526117c88161178f565b9050919050565b7f4572726f723a2043616e6e6f7420726566756e642061667465722066756c6c205f8201527f72656c6561736500000000000000000000000000000000000000000000000000602082015250565b5f6118296027836113fd565b9150611834826117cf565b604082019050919050565b5f6020820190508181035f8301526118568161181d565b9050919050565b7f4572726f723a2043616e6e6f7420726566756e642061667465722070617274695f8201527f616c2072656c6561736500000000000000000000000000000000000000000000602082015250565b5f6118b7602a836113fd565b91506118c28261185d565b604082019050919050565b5f6020820190508181035f8301526118e4816118ab565b9050919050565b7f4572726f723a204e6f2066756e647320746f20726566756e642e0000000000005f82015250565b5f61191f601a836113fd565b915061192a826118eb565b602082019050919050565b5f6020820190508181035f83015261194c81611913565b9050919050565b7f496e76616c6964206172746973742061646472657373000000000000000000005f82015250565b5f6119876016836113fd565b915061199282611953565b602082019050919050565b5f6020820190508181035f8301526119b48161197b565b9050919050565b7f416d6f756e74206d757374206265203e203000000000000000000000000000005f82015250565b5f6119ef6012836113fd565b91506119fa826119bb565b602082019050919050565b5f6020820190508181035f830152611a1c816119e3565b9050919050565b7f4d696c6573746f6e6520636f756e74206d7573742062652067726561746572205f8201527f7468616e207a65726f0000000000000000000000000000000000000000000000602082015250565b5f611a7d6029836113fd565b9150611a8882611a23565b604082019050919050565b5f6020820190508181035f830152611aaa81611a71565b905091905056fea2646970667358221220b6e094520dbf27db2ce570eff13aa8084013fc6614f2f9a7cbe49cdd76faa7ed64736f6c634300081c0033","linkReferences":{}},"methodIdentifiers":{"depositFunds(address,uint256)":"921b004b","getProject(uint256)":"f0f3f2c8","projectCount()":"36fbad26","projects(uint256)":"107046bd","refundClient(uint256)":"43eed51c","releaseAfterEvent(uint256)":"cbcbc305","releaseMilestone(uint256)":"317debf5"},"id":4}