{"abi":[{"type":"function","name":"REQUIRED_KYC_LEVEL","inputs":[],"outputs":[{"name":"","type":"uint256","internalType":"uint256"}],"stateMutability":"view"},{"type":"function","name":"forteCompliance","inputs":[],"outputs":[{"name":"","type":"address","internalType":"contract IForteCompliance"}],"stateMutability":"view"},{"type":"function","name":"getOracle","inputs":[],"outputs":[{"name":"","type":"address","internalType":"contract IOracle"}],"stateMutability":"view"},{"type":"function","name":"getProject","inputs":[{"name":"_projectId","type":"uint256","internalType":"uint256"}],"outputs":[{"name":"client","type":"address","internalType":"address"},{"name":"artist","type":"address","internalType":"address"},{"name":"amount","type":"uint256","internalType":"uint256"},{"name":"released","type":"bool","internalType":"bool"},{"name":"validator","type":"address","internalType":"address"},{"name":"validated","type":"bool","internalType":"bool"},{"name":"milestoneCount","type":"uint256","internalType":"uint256"},{"name":"milestonesPaid","type":"uint256","internalType":"uint256"},{"name":"useFallback","type":"bool","internalType":"bool"},{"name":"fallbackDelay","type":"uint256","internalType":"uint256"},{"name":"useSignature","type":"bool","internalType":"bool"},{"name":"createdAt","type":"uint256","internalType":"uint256"}],"stateMutability":"view"},{"type":"function","name":"isKYCApproved","inputs":[{"name":"user","type":"address","internalType":"address"}],"outputs":[{"name":"","type":"bool","internalType":"bool"}],"stateMutability":"view"},{"type":"function","name":"projectCount","inputs":[],"outputs":[{"name":"","type":"uint256","internalType":"uint256"}],"stateMutability":"view"},{"type":"function","name":"projects","inputs":[{"name":"","type":"uint256","internalType":"uint256"}],"outputs":[{"name":"client","type":"address","internalType":"address"},{"name":"artist","type":"address","internalType":"address"},{"name":"amount","type":"uint256","internalType":"uint256"},{"name":"released","type":"bool","internalType":"bool"},{"name":"validator","type":"address","internalType":"address"},{"name":"validated","type":"bool","internalType":"bool"},{"name":"milestoneCount","type":"uint256","internalType":"uint256"},{"name":"milestonesPaid","type":"uint256","internalType":"uint256"},{"name":"useFallback","type":"bool","internalType":"bool"},{"name":"fallbackDelay","type":"uint256","internalType":"uint256"},{"name":"useSignature","type":"bool","internalType":"bool"},{"name":"createdAt","type":"uint256","internalType":"uint256"}],"stateMutability":"view"},{"type":"function","name":"setForteCompliance","inputs":[{"name":"_compliance","type":"address","internalType":"address"}],"outputs":[],"stateMutability":"nonpayable"},{"type":"event","name":"ClientRefunded","inputs":[{"name":"projectId","type":"uint256","indexed":false,"internalType":"uint256"},{"name":"client","type":"address","indexed":true,"internalType":"address"},{"name":"amount","type":"uint256","indexed":false,"internalType":"uint256"}],"anonymous":false},{"type":"event","name":"FundsDeposited","inputs":[{"name":"projectId","type":"uint256","indexed":false,"internalType":"uint256"},{"name":"client","type":"address","indexed":true,"internalType":"address"},{"name":"artist","type":"address","indexed":true,"internalType":"address"},{"name":"amount","type":"uint256","indexed":false,"internalType":"uint256"}],"anonymous":false},{"type":"event","name":"FundsRefunded","inputs":[{"name":"projectId","type":"uint256","indexed":false,"internalType":"uint256"},{"name":"client","type":"address","indexed":true,"internalType":"address"}],"anonymous":false},{"type":"event","name":"FundsReleased","inputs":[{"name":"projectId","type":"uint256","indexed":false,"internalType":"uint256"},{"name":"artist","type":"address","indexed":true,"internalType":"address"},{"name":"amount","type":"uint256","indexed":false,"internalType":"uint256"}],"anonymous":false},{"type":"event","name":"MilestoneReleased","inputs":[{"name":"projectId","type":"uint256","indexed":false,"internalType":"uint256"},{"name":"milestoneIndex","type":"uint256","indexed":false,"internalType":"uint256"},{"name":"amount","type":"uint256","indexed":false,"internalType":"uint256"}],"anonymous":false},{"type":"event","name":"ProjectValidated","inputs":[{"name":"projectId","type":"uint256","indexed":false,"internalType":"uint256"},{"name":"validator","type":"address","indexed":true,"internalType":"address"}],"anonymous":false},{"type":"event","name":"ValidatorAssigned","inputs":[{"name":"projectId","type":"uint256","indexed":false,"internalType":"uint256"},{"name":"validator","type":"address","indexed":true,"internalType":"address"}],"anonymous":false},{"type":"error","name":"KYCNotApproved","inputs":[]},{"type":"error","name":"OnlyAssignedValidator","inputs":[]},{"type":"error","name":"OnlyClient","inputs":[]},{"type":"error","name":"ProjectDoesNotExist","inputs":[]}],"bytecode":{"object":"0x608060405234601c57600e6020565b610c7461002b8239610c7490f35b6026565b60405190565b5f80fdfe60806040526004361015610013575b61070a565b61001d5f3561009c565b8063107046bd14610097578063235b97c9146100925780632be550ce1461008d57806336fbad26146100885780636c56db5e14610083578063833b1fce1461007e578063e77db232146100795763f0f3f2c80361000e576106c5565b610690565b610646565b6105e5565b61056a565b610500565b610431565b610391565b60e01c90565b60405190565b5f80fd5b5f80fd5b90565b6100bc816100b0565b036100c357565b5f80fd5b905035906100d4826100b3565b565b906020828203126100ef576100ec915f016100c7565b90565b6100ac565b90565b61010b610106610110926100b0565b6100f4565b6100b0565b90565b9061011d906100f7565b5f5260205260405f2090565b5f1c90565b60018060a01b031690565b61014561014a91610129565b61012e565b90565b6101579054610139565b90565b90565b61016961016e91610129565b61015a565b90565b61017b905461015d565b90565b60ff1690565b61019061019591610129565b61017e565b90565b6101a29054610184565b90565b60081c90565b6101b76101bc916101a5565b61012e565b90565b6101c990546101ab565b90565b60a81c90565b6101de6101e3916101cc565b61017e565b90565b6101f090546101d2565b90565b6101fd905f610113565b906102095f830161014d565b916102166001820161014d565b9161022360028301610171565b9161023060038201610198565b9161023d600383016101bf565b9161024a600382016101e6565b9161025760048301610171565b9161026460058201610171565b9161027160068301610198565b9161027e60078201610171565b91610297600961029060088501610198565b9301610171565b90565b60018060a01b031690565b6102ae9061029a565b90565b6102ba906102a5565b9052565b6102c7906100b0565b9052565b151590565b6102d9906102cb565b9052565b99979593919c9b9a98969492909c6101808b019d5f8c016102fd916102b1565b60208b0161030a916102b1565b60408a01610317916102be565b60608901610324916102d0565b60808801610331916102b1565b60a0870161033e916102d0565b60c0860161034b916102be565b60e08501610358916102be565b6101008401610366916102d0565b6101208301610374916102be565b6101408201610382916102d0565b6101600161038f916102be565b565b346103d1576103cd6103ac6103a73660046100d6565b6101f3565b986103c49c9a9c9891989792979693969594956100a2565b9c8d9c8d6102dd565b0390f35b6100a8565b5f9103126103e057565b6100ac565b90565b6103fc6103f7610401926103e5565b6100f4565b6100b0565b90565b61040e60036103e8565b90565b610419610404565b90565b919061042f905f602085019401906102be565b565b34610461576104413660046103d6565b61045d61044c610411565b6104546100a2565b9182918261041c565b0390f35b6100a8565b1c90565b60018060a01b031690565b61048590600861048a9302610466565b61046a565b90565b906104989154610475565b90565b6104a760025f9061048d565b90565b6104be6104b96104c39261029a565b6100f4565b61029a565b90565b6104cf906104aa565b90565b6104db906104c6565b90565b6104e7906104d2565b9052565b91906104fe905f602085019401906104de565b565b34610530576105103660046103d6565b61052c61051b61049b565b6105236100a2565b918291826104eb565b0390f35b6100a8565b61054590600861054a9302610466565b61015a565b90565b906105589154610535565b90565b61056760015f9061054d565b90565b3461059a5761057a3660046103d6565b61059661058561055b565b61058d6100a2565b9182918261041c565b0390f35b6100a8565b6105a8816102a5565b036105af57565b5f80fd5b905035906105c08261059f565b565b906020828203126105db576105d8915f016105b3565b90565b6100ac565b5f0190565b34610613576105fd6105f83660046105c2565b610775565b6106056100a2565b8061060f816105e0565b0390f35b6100a8565b610621906104c6565b90565b61062d90610618565b9052565b9190610644905f60208501940190610624565b565b34610676576106563660046103d6565b6106726106616107d1565b6106696100a2565b91829182610631565b0390f35b6100a8565b919061068e905f602085019401906102d0565b565b346106c0576106bc6106ab6106a63660046105c2565b6108b2565b6106b36100a2565b9182918261067b565b0390f35b6100a8565b34610705576107016106e06106db3660046100d6565b610b13565b986106f89c9a9c9891989792979693969594956100a2565b9c8d9c8d6102dd565b0390f35b6100a8565b5f80fd5b610717906104aa565b90565b6107239061070e565b90565b5f1b90565b9061073c60018060a01b0391610726565b9181191691161790565b61074f9061070e565b90565b90565b9061076a61076561077192610746565b610752565b825461072b565b9055565b6107816107889161071a565b6002610755565b565b5f90565b90565b6107a56107a06107aa9261078e565b6100f4565b61029a565b90565b6107b690610791565b90565b6107c2906104aa565b90565b6107ce906107b9565b90565b6107d961078a565b506107eb6107e65f6107ad565b6107c5565b90565b5f90565b6107fe61080391610129565b61046a565b90565b61081090546107f2565b90565b601f801991011690565b634e487b7160e01b5f52604160045260245ffd5b9061083b90610813565b810190811067ffffffffffffffff82111761085557604052565b61081d565b60e01b90565b9050519061086d826100b3565b565b9060208282031261088857610885915f01610860565b90565b6100ac565b91906108a0905f602085019401906102b1565b565b6108aa6100a2565b3d5f823e3d90fd5b60206108fa916108c06107ee565b506108d36108ce6002610806565b6104d2565b6108ef635bc008a06108e36100a2565b9586948593849361085a565b83526004830161088d565b03915afa908115610959575f9161092b575b5061092661092061091b610404565b6100b0565b916100b0565b101590565b61094c915060203d8111610952575b6109448183610831565b81019061086f565b5f61090c565b503d61093a565b6108a2565b5f90565b5f90565b90610970906102a5565b9052565b9061097e906100b0565b9052565b9061098c906102cb565b9052565b906109a361099c6100a2565b9283610831565b565b6109b0610180610990565b90565b90610ade610ad460096109c46109a5565b946109db6109d35f830161014d565b5f8801610966565b6109f36109ea6001830161014d565b60208801610966565b610a0b610a0260028301610171565b60408801610974565b610a23610a1a60038301610198565b60608801610982565b610a3b610a32600383016101bf565b60808801610966565b610a53610a4a600383016101e6565b60a08801610982565b610a6b610a6260048301610171565b60c08801610974565b610a83610a7a60058301610171565b60e08801610974565b610a9c610a9260068301610198565b6101008801610982565b610ab5610aab60078301610171565b6101208801610974565b610ace610ac460088301610198565b6101408801610982565b01610171565b6101608401610974565b565b610ae9906109b3565b90565b610af690516102a5565b90565b610b0390516100b0565b90565b610b1090516102cb565b90565b610b8c610b9191610b2261095e565b50610b2b61095e565b50610b34610962565b50610b3d6107ee565b50610b4661095e565b50610b4f6107ee565b50610b58610962565b50610b61610962565b50610b6a6107ee565b50610b73610962565b50610b7c6107ee565b50610b85610962565b505f610113565b610ae0565b90610b9d5f8301610aec565b90610baa60208401610aec565b92610bb760408201610af9565b92610bc460608301610b06565b92610bd160808401610aec565b92610bde60a08201610b06565b92610beb60c08301610af9565b92610bf860e08401610af9565b92610c066101008201610b06565b92610c146101208301610af9565b92610c2f610160610c286101408601610b06565b9401610af9565b919b9a9998979695949392919056fea26469706673582212204ffc889182f0e9b151d018db81bb27c8238f1098145f153e61a15404c316e87964736f6c634300081c0033","linkReferences":{}},"methodIdentifiers":{"REQUIRED_KYC_LEVEL()":"235b97c9","forteCompliance()":"2be550ce","getOracle()":"833b1fce","getProject(uint256)":"f0f3f2c8","isKYCApproved(address)":"e77db232","projectCount()":"36fbad26","projects(uint256)":"107046bd","setForteCompliance(address)":"6c56db5e"},"id":2}