{"abi":[{"type":"function","name":"addValidator","inputs":[{"name":"_projectId","type":"uint256","internalType":"uint256"},{"name":"_validator","type":"address","internalType":"address"}],"outputs":[],"stateMutability":"nonpayable"},{"type":"function","name":"depositFunds","inputs":[{"name":"_artist","type":"address","internalType":"address"},{"name":"_milestoneCount","type":"uint256","internalType":"uint256"}],"outputs":[],"stateMutability":"payable"},{"type":"function","name":"getProject","inputs":[{"name":"_projectId","type":"uint256","internalType":"uint256"}],"outputs":[{"name":"client","type":"address","internalType":"address"},{"name":"artist","type":"address","internalType":"address"},{"name":"amount","type":"uint256","internalType":"uint256"},{"name":"released","type":"bool","internalType":"bool"},{"name":"validator","type":"address","internalType":"address"},{"name":"validated","type":"bool","internalType":"bool"},{"name":"milestoneCount","type":"uint256","internalType":"uint256"},{"name":"milestonesPaid","type":"uint256","internalType":"uint256"}],"stateMutability":"view"},{"type":"function","name":"projectCount","inputs":[],"outputs":[{"name":"","type":"uint256","internalType":"uint256"}],"stateMutability":"view"},{"type":"function","name":"projects","inputs":[{"name":"","type":"uint256","internalType":"uint256"}],"outputs":[{"name":"client","type":"address","internalType":"address"},{"name":"artist","type":"address","internalType":"address"},{"name":"amount","type":"uint256","internalType":"uint256"},{"name":"released","type":"bool","internalType":"bool"},{"name":"validator","type":"address","internalType":"address"},{"name":"validated","type":"bool","internalType":"bool"},{"name":"milestoneCount","type":"uint256","internalType":"uint256"},{"name":"milestonesPaid","type":"uint256","internalType":"uint256"}],"stateMutability":"view"},{"type":"function","name":"refundClient","inputs":[{"name":"_projectId","type":"uint256","internalType":"uint256"}],"outputs":[],"stateMutability":"nonpayable"},{"type":"function","name":"releaseMilestone","inputs":[{"name":"_projectId","type":"uint256","internalType":"uint256"}],"outputs":[],"stateMutability":"nonpayable"},{"type":"function","name":"validateProject","inputs":[{"name":"_projectId","type":"uint256","internalType":"uint256"}],"outputs":[],"stateMutability":"nonpayable"},{"type":"event","name":"ClientRefunded","inputs":[{"name":"projectId","type":"uint256","indexed":false,"internalType":"uint256"},{"name":"client","type":"address","indexed":true,"internalType":"address"},{"name":"amount","type":"uint256","indexed":false,"internalType":"uint256"}],"anonymous":false},{"type":"event","name":"FundsDeposited","inputs":[{"name":"projectId","type":"uint256","indexed":false,"internalType":"uint256"},{"name":"client","type":"address","indexed":true,"internalType":"address"},{"name":"artist","type":"address","indexed":true,"internalType":"address"},{"name":"amount","type":"uint256","indexed":false,"internalType":"uint256"}],"anonymous":false},{"type":"event","name":"FundsRefunded","inputs":[{"name":"projectId","type":"uint256","indexed":false,"internalType":"uint256"},{"name":"client","type":"address","indexed":true,"internalType":"address"}],"anonymous":false},{"type":"event","name":"FundsReleased","inputs":[{"name":"projectId","type":"uint256","indexed":false,"internalType":"uint256"},{"name":"artist","type":"address","indexed":true,"internalType":"address"},{"name":"amount","type":"uint256","indexed":false,"internalType":"uint256"}],"anonymous":false},{"type":"event","name":"MilestoneReleased","inputs":[{"name":"projectId","type":"uint256","indexed":false,"internalType":"uint256"},{"name":"milestoneIndex","type":"uint256","indexed":false,"internalType":"uint256"},{"name":"amount","type":"uint256","indexed":false,"internalType":"uint256"}],"anonymous":false},{"type":"event","name":"ProjectValidated","inputs":[{"name":"projectId","type":"uint256","indexed":false,"internalType":"uint256"},{"name":"validator","type":"address","indexed":true,"internalType":"address"}],"anonymous":false},{"type":"event","name":"ValidatorAssigned","inputs":[{"name":"projectId","type":"uint256","indexed":false,"internalType":"uint256"},{"name":"validator","type":"address","indexed":true,"internalType":"address"}],"anonymous":false},{"type":"error","name":"ReentrancyGuardReentrantCall","inputs":[]}],"bytecode":{"object":"0x6080604052348015600e575f5ffd5b506001600281905550611f61806100245f395ff3fe60806040526004361061007a575f3560e01c80634b5617531161004d5780634b5617531461013b5780635702146914610163578063921b004b1461018b578063f0f3f2c8146101a75761007a565b8063107046bd1461007e578063317debf5146100c157806336fbad26146100e957806343eed51c14610113575b5f5ffd5b348015610089575f5ffd5b506100a4600480360381019061009f9190611597565b6101ea565b6040516100b898979695949392919061162a565b60405180910390f35b3480156100cc575f5ffd5b506100e760048036038101906100e29190611597565b6102a4565b005b3480156100f4575f5ffd5b506100fd6106ef565b60405161010a91906116a6565b60405180910390f35b34801561011e575f5ffd5b5061013960048036038101906101349190611597565b6106f5565b005b348015610146575f5ffd5b50610161600480360381019061015c91906116e9565b610a75565b005b34801561016e575f5ffd5b5061018960048036038101906101849190611597565b610d71565b005b6101a560048036038101906101a09190611727565b61101a565b005b3480156101b2575f5ffd5b506101cd60048036038101906101c89190611597565b611356565b6040516101e198979695949392919061162a565b60405180910390f35b5f602052805f5260405f205f91509050805f015f9054906101000a900473ffffffffffffffffffffffffffffffffffffffff1690806001015f9054906101000a900473ffffffffffffffffffffffffffffffffffffffff1690806002015490806003015f9054906101000a900460ff16908060030160019054906101000a900473ffffffffffffffffffffffffffffffffffffffff16908060030160159054906101000a900460ff16908060040154908060050154905088565b6102ac611512565b805f73ffffffffffffffffffffffffffffffffffffffff165f5f8381526020019081526020015f205f015f9054906101000a900473ffffffffffffffffffffffffffffffffffffffff1673ffffffffffffffffffffffffffffffffffffffff160361034c576040517f08c379a0000000000000000000000000000000000000000000000000000000008152600401610343906117bf565b60405180910390fd5b815f5f8281526020019081526020015f205f015f9054906101000a900473ffffffffffffffffffffffffffffffffffffffff1673ffffffffffffffffffffffffffffffffffffffff163373ffffffffffffffffffffffffffffffffffffffff16146103ec576040517f08c379a00000000000000000000000000000000000000000000000000000000081526004016103e39061184d565b60405180910390fd5b5f5f5f8581526020019081526020015f209050806003015f9054906101000a900460ff1615610450576040517f08c379a0000000000000000000000000000000000000000000000000000000008152600401610447906118b5565b60405180910390fd5b8060030160159054906101000a900460ff166104a1576040517f08c379a00000000000000000000000000000000000000000000000000000000081526004016104989061191d565b60405180910390fd5b80600401548160050154106104eb576040517f08c379a00000000000000000000000000000000000000000000000000000000081526004016104e290611985565b60405180910390fd5b5f8160040154826002015461050091906119fd565b9050816005015f81548092919061051690611a2d565b91905055508160040154826005015403610547576001826003015f6101000a81548160ff0219169083151502179055505b5f826001015f9054906101000a900473ffffffffffffffffffffffffffffffffffffffff1673ffffffffffffffffffffffffffffffffffffffff168260405161058f90611aa1565b5f6040518083038185875af1925050503d805f81146105c9576040519150601f19603f3d011682016040523d82523d5f602084013e6105ce565b606091505b5050905080610612576040517f08c379a000000000000000000000000000000000000000000000000000000000815260040161060990611aff565b60405180910390fd5b7fd33fcd27cbfb73a2d9058c968b560ccb306500bf536133802048489ecc7355e98684600501548460405161064993929190611b1d565b60405180910390a1826003015f9054906101000a900460ff16156106df57826001015f9054906101000a900473ffffffffffffffffffffffffffffffffffffffff1673ffffffffffffffffffffffffffffffffffffffff167f6e3c6096795c8298a218b2cfb8bde42726ff7c9a3d27b4d3ba41ab7f74feb5fb8785600201546040516106d6929190611b52565b60405180910390a25b50505050506106ec611556565b50565b60015481565b6106fd611512565b805f73ffffffffffffffffffffffffffffffffffffffff165f5f8381526020019081526020015f205f015f9054906101000a900473ffffffffffffffffffffffffffffffffffffffff1673ffffffffffffffffffffffffffffffffffffffff160361079d576040517f08c379a0000000000000000000000000000000000000000000000000000000008152600401610794906117bf565b60405180910390fd5b815f5f8281526020019081526020015f205f015f9054906101000a900473ffffffffffffffffffffffffffffffffffffffff1673ffffffffffffffffffffffffffffffffffffffff163373ffffffffffffffffffffffffffffffffffffffff161461083d576040517f08c379a00000000000000000000000000000000000000000000000000000000081526004016108349061184d565b60405180910390fd5b5f5f5f8581526020019081526020015f209050806003015f9054906101000a900460ff16156108a1576040517f08c379a0000000000000000000000000000000000000000000000000000000008152600401610898906118b5565b60405180910390fd5b5f8160050154146108e7576040517f08c379a00000000000000000000000000000000000000000000000000000000081526004016108de90611bc3565b60405180910390fd5b5f816002015490505f825f015f9054906101000a900473ffffffffffffffffffffffffffffffffffffffff1690505f83600201819055505f8173ffffffffffffffffffffffffffffffffffffffff168360405161094390611aa1565b5f6040518083038185875af1925050503d805f811461097d576040519150601f19603f3d011682016040523d82523d5f602084013e610982565b606091505b50509050806109c6576040517f08c379a00000000000000000000000000000000000000000000000000000000081526004016109bd90611aff565b60405180910390fd5b8173ffffffffffffffffffffffffffffffffffffffff167fd1c90c5ed8b35db630851dbe3ec20c8798b71354223bfe5a5527e84103e89d5b88604051610a0c91906116a6565b60405180910390a28173ffffffffffffffffffffffffffffffffffffffff167f710864ae79ae7195dbcaa0f79eef4a8f5b490696c2d588a27f4d69ce60ac01fc8885604051610a5c929190611b52565b60405180910390a2505050505050610a72611556565b50565b815f73ffffffffffffffffffffffffffffffffffffffff165f5f8381526020019081526020015f205f015f9054906101000a900473ffffffffffffffffffffffffffffffffffffffff1673ffffffffffffffffffffffffffffffffffffffff1603610b15576040517f08c379a0000000000000000000000000000000000000000000000000000000008152600401610b0c906117bf565b60405180910390fd5b825f5f8281526020019081526020015f205f015f9054906101000a900473ffffffffffffffffffffffffffffffffffffffff1673ffffffffffffffffffffffffffffffffffffffff163373ffffffffffffffffffffffffffffffffffffffff1614610bb5576040517f08c379a0000000000000000000000000000000000000000000000000000000008152600401610bac9061184d565b60405180910390fd5b5f5f5f8681526020019081526020015f2090505f73ffffffffffffffffffffffffffffffffffffffff168473ffffffffffffffffffffffffffffffffffffffff1603610c36576040517f08c379a0000000000000000000000000000000000000000000000000000000008152600401610c2d90611c2b565b60405180910390fd5b806003015f9054906101000a900460ff1615610c87576040517f08c379a0000000000000000000000000000000000000000000000000000000008152600401610c7e906118b5565b60405180910390fd5b8060030160159054906101000a900460ff1615610cd9576040517f08c379a0000000000000000000000000000000000000000000000000000000008152600401610cd090611cb9565b60405180910390fd5b838160030160016101000a81548173ffffffffffffffffffffffffffffffffffffffff021916908373ffffffffffffffffffffffffffffffffffffffff1602179055508373ffffffffffffffffffffffffffffffffffffffff167f74c722a7077ba48f1c4a1df3ad9df69eda5ffb9518fedba9bad9596305b8b95e86604051610d6291906116a6565b60405180910390a25050505050565b805f73ffffffffffffffffffffffffffffffffffffffff165f5f8381526020019081526020015f205f015f9054906101000a900473ffffffffffffffffffffffffffffffffffffffff1673ffffffffffffffffffffffffffffffffffffffff1603610e11576040517f08c379a0000000000000000000000000000000000000000000000000000000008152600401610e08906117bf565b60405180910390fd5b815f5f8281526020019081526020015f2060030160019054906101000a900473ffffffffffffffffffffffffffffffffffffffff1673ffffffffffffffffffffffffffffffffffffffff163373ffffffffffffffffffffffffffffffffffffffff1614610eb3576040517f08c379a0000000000000000000000000000000000000000000000000000000008152600401610eaa90611d47565b60405180910390fd5b5f5f5f8581526020019081526020015f209050806003015f9054906101000a900460ff1615610f17576040517f08c379a0000000000000000000000000000000000000000000000000000000008152600401610f0e906118b5565b60405180910390fd5b5f73ffffffffffffffffffffffffffffffffffffffff168160030160019054906101000a900473ffffffffffffffffffffffffffffffffffffffff1673ffffffffffffffffffffffffffffffffffffffff1603610fa9576040517f08c379a0000000000000000000000000000000000000000000000000000000008152600401610fa090611daf565b60405180910390fd5b60018160030160156101000a81548160ff0219169083151502179055503373ffffffffffffffffffffffffffffffffffffffff167f84ffc84db0a14dc30a09c96c2dc65081ab5a1f28b1ec2543ec701b04ad161a9d8560405161100c91906116a6565b60405180910390a250505050565b5f73ffffffffffffffffffffffffffffffffffffffff168273ffffffffffffffffffffffffffffffffffffffff1603611088576040517f08c379a000000000000000000000000000000000000000000000000000000000815260040161107f90611e17565b60405180910390fd5b5f34116110ca576040517f08c379a00000000000000000000000000000000000000000000000000000000081526004016110c190611e7f565b60405180910390fd5b5f811161110c576040517f08c379a000000000000000000000000000000000000000000000000000000000815260040161110390611f0d565b60405180910390fd5b5f60015490506040518061010001604052803373ffffffffffffffffffffffffffffffffffffffff1681526020018473ffffffffffffffffffffffffffffffffffffffff1681526020013481526020015f151581526020015f73ffffffffffffffffffffffffffffffffffffffff1681526020015f151581526020018381526020015f8152505f5f8381526020019081526020015f205f820151815f015f6101000a81548173ffffffffffffffffffffffffffffffffffffffff021916908373ffffffffffffffffffffffffffffffffffffffff1602179055506020820151816001015f6101000a81548173ffffffffffffffffffffffffffffffffffffffff021916908373ffffffffffffffffffffffffffffffffffffffff160217905550604082015181600201556060820151816003015f6101000a81548160ff02191690831515021790555060808201518160030160016101000a81548173ffffffffffffffffffffffffffffffffffffffff021916908373ffffffffffffffffffffffffffffffffffffffff16021790555060a08201518160030160156101000a81548160ff02191690831515021790555060c0820151816004015560e0820151816005015590505060015f8154809291906112e590611a2d565b91905055508273ffffffffffffffffffffffffffffffffffffffff163373ffffffffffffffffffffffffffffffffffffffff167f862dfcd9710943e66ad8f1f01a99cc98ab5612a09e62ecc68f63fe2e0f86cb0e8334604051611349929190611b52565b60405180910390a3505050565b5f5f5f5f5f5f5f5f5f5f5f8b81526020019081526020015f20604051806101000160405290815f82015f9054906101000a900473ffffffffffffffffffffffffffffffffffffffff1673ffffffffffffffffffffffffffffffffffffffff1673ffffffffffffffffffffffffffffffffffffffff168152602001600182015f9054906101000a900473ffffffffffffffffffffffffffffffffffffffff1673ffffffffffffffffffffffffffffffffffffffff1673ffffffffffffffffffffffffffffffffffffffff16815260200160028201548152602001600382015f9054906101000a900460ff161515151581526020016003820160019054906101000a900473ffffffffffffffffffffffffffffffffffffffff1673ffffffffffffffffffffffffffffffffffffffff1673ffffffffffffffffffffffffffffffffffffffff1681526020016003820160159054906101000a900460ff16151515158152602001600482015481526020016005820154815250509050805f015181602001518260400151836060015184608001518560a001518660c001518760e001519850985098509850985098509850985050919395975091939597565b600280540361154d576040517f3ee5aeb500000000000000000000000000000000000000000000000000000000815260040160405180910390fd5b60028081905550565b6001600281905550565b5f5ffd5b5f819050919050565b61157681611564565b8114611580575f5ffd5b50565b5f813590506115918161156d565b92915050565b5f602082840312156115ac576115ab611560565b5b5f6115b984828501611583565b91505092915050565b5f73ffffffffffffffffffffffffffffffffffffffff82169050919050565b5f6115eb826115c2565b9050919050565b6115fb816115e1565b82525050565b61160a81611564565b82525050565b5f8115159050919050565b61162481611610565b82525050565b5f6101008201905061163e5f83018b6115f2565b61164b602083018a6115f2565b6116586040830189611601565b611665606083018861161b565b61167260808301876115f2565b61167f60a083018661161b565b61168c60c0830185611601565b61169960e0830184611601565b9998505050505050505050565b5f6020820190506116b95f830184611601565b92915050565b6116c8816115e1565b81146116d2575f5ffd5b50565b5f813590506116e3816116bf565b92915050565b5f5f604083850312156116ff576116fe611560565b5b5f61170c85828601611583565b925050602061171d858286016116d5565b9150509250929050565b5f5f6040838503121561173d5761173c611560565b5b5f61174a858286016116d5565b925050602061175b85828601611583565b9150509250929050565b5f82825260208201905092915050565b7f4572726f723a2050726f6a65637420646f6573206e6f742065786973742e00005f82015250565b5f6117a9601e83611765565b91506117b482611775565b602082019050919050565b5f6020820190508181035f8301526117d68161179d565b9050919050565b7f4572726f723a204f6e6c792074686520636c69656e742063616e20706572666f5f8201527f726d207468697320616374696f6e2e0000000000000000000000000000000000602082015250565b5f611837602f83611765565b9150611842826117dd565b604082019050919050565b5f6020820190508181035f8301526118648161182b565b9050919050565b7f46756e647320616c72656164792072656c65617365642e0000000000000000005f82015250565b5f61189f601783611765565b91506118aa8261186b565b602082019050919050565b5f6020820190508181035f8301526118cc81611893565b9050919050565b7f50726f6a656374206d7573742062652076616c6964617465642066697273742e5f82015250565b5f611907602083611765565b9150611912826118d3565b602082019050919050565b5f6020820190508181035f830152611934816118fb565b9050919050565b7f416c6c206d696c6573746f6e657320706169642e0000000000000000000000005f82015250565b5f61196f601483611765565b915061197a8261193b565b602082019050919050565b5f6020820190508181035f83015261199c81611963565b9050919050565b7f4e487b71000000000000000000000000000000000000000000000000000000005f52601260045260245ffd5b7f4e487b71000000000000000000000000000000000000000000000000000000005f52601160045260245ffd5b5f611a0782611564565b9150611a1283611564565b925082611a2257611a216119a3565b5b828204905092915050565b5f611a3782611564565b91507fffffffffffffffffffffffffffffffffffffffffffffffffffffffffffffffff8203611a6957611a686119d0565b5b600182019050919050565b5f81905092915050565b50565b5f611a8c5f83611a74565b9150611a9782611a7e565b5f82019050919050565b5f611aab82611a81565b9150819050919050565b7f5472616e73666572206661696c65642e000000000000000000000000000000005f82015250565b5f611ae9601083611765565b9150611af482611ab5565b602082019050919050565b5f6020820190508181035f830152611b1681611add565b9050919050565b5f606082019050611b305f830186611601565b611b3d6020830185611601565b611b4a6040830184611601565b949350505050565b5f604082019050611b655f830185611601565b611b726020830184611601565b9392505050565b7f4d696c6573746f6e657320616c726561647920706169642e00000000000000005f82015250565b5f611bad601883611765565b9150611bb882611b79565b602082019050919050565b5f6020820190508181035f830152611bda81611ba1565b9050919050565b7f496e76616c69642076616c696461746f7220616464726573732e0000000000005f82015250565b5f611c15601a83611765565b9150611c2082611be1565b602082019050919050565b5f6020820190508181035f830152611c4281611c09565b9050919050565b7f43616e6e6f74206368616e67652076616c696461746f722061667465722076615f8201527f6c69646174696f6e2e0000000000000000000000000000000000000000000000602082015250565b5f611ca3602983611765565b9150611cae82611c49565b604082019050919050565b5f6020820190508181035f830152611cd081611c97565b9050919050565b7f4572726f723a204f6e6c79207468652061737369676e65642076616c696461745f8201527f6f722063616e20706572666f726d207468697320616374696f6e2e0000000000602082015250565b5f611d31603b83611765565b9150611d3c82611cd7565b604082019050919050565b5f6020820190508181035f830152611d5e81611d25565b9050919050565b7f4e6f2076616c696461746f722061737369676e65642e000000000000000000005f82015250565b5f611d99601683611765565b9150611da482611d65565b602082019050919050565b5f6020820190508181035f830152611dc681611d8d565b9050919050565b7f496e76616c6964206172746973742061646472657373000000000000000000005f82015250565b5f611e01601683611765565b9150611e0c82611dcd565b602082019050919050565b5f6020820190508181035f830152611e2e81611df5565b9050919050565b7f4d757374206465706f73697420455448000000000000000000000000000000005f82015250565b5f611e69601083611765565b9150611e7482611e35565b602082019050919050565b5f6020820190508181035f830152611e9681611e5d565b9050919050565b7f4d696c6573746f6e6520636f756e74206d7573742062652067726561746572205f8201527f7468616e207a65726f0000000000000000000000000000000000000000000000602082015250565b5f611ef7602983611765565b9150611f0282611e9d565b604082019050919050565b5f6020820190508181035f830152611f2481611eeb565b905091905056fea264697066735822122087d9e64858e44fac40667273818e73170d3c56b3cef034f0476b7ba8e850988b64736f6c634300081c0033","linkReferences":{}},"methodIdentifiers":{"addValidator(uint256,address)":"4b561753","depositFunds(address,uint256)":"921b004b","getProject(uint256)":"f0f3f2c8","projectCount()":"36fbad26","projects(uint256)":"107046bd","refundClient(uint256)":"43eed51c","releaseMilestone(uint256)":"317debf5","validateProject(uint256)":"57021469"},"id":0}