{"abi":[{"type":"constructor","inputs":[],"stateMutability":"nonpayable"},{"type":"function","name":"addValidator","inputs":[{"name":"_projectId","type":"uint256","internalType":"uint256"},{"name":"_validator","type":"address","internalType":"address"}],"outputs":[],"stateMutability":"nonpayable"},{"type":"function","name":"createProject","inputs":[{"name":"_projectId","type":"uint256","internalType":"uint256"},{"name":"_artist","type":"address","internalType":"address payable"},{"name":"_milestoneCount","type":"uint256","internalType":"uint256"}],"outputs":[],"stateMutability":"nonpayable"},{"type":"function","name":"depositFunds","inputs":[{"name":"_artist","type":"address","internalType":"address"},{"name":"_milestoneCount","type":"uint256","internalType":"uint256"}],"outputs":[],"stateMutability":"payable"},{"type":"function","name":"disputes","inputs":[{"name":"","type":"uint256","internalType":"uint256"}],"outputs":[{"name":"initiator","type":"address","internalType":"address"},{"name":"reason","type":"string","internalType":"string"},{"name":"openedAt","type":"uint256","internalType":"uint256"},{"name":"status","type":"uint8","internalType":"enum DisputeModule.DisputeStatus"}],"stateMutability":"view"},{"type":"function","name":"fallbackModule","inputs":[],"outputs":[{"name":"","type":"address","internalType":"contract IFallbackModule"}],"stateMutability":"view"},{"type":"function","name":"forteRules","inputs":[],"outputs":[{"name":"","type":"address","internalType":"contract IForteRules"}],"stateMutability":"view"},{"type":"function","name":"getDispute","inputs":[{"name":"_projectId","type":"uint256","internalType":"uint256"}],"outputs":[{"name":"","type":"address","internalType":"address"},{"name":"","type":"string","internalType":"string"},{"name":"","type":"uint256","internalType":"uint256"},{"name":"","type":"uint8","internalType":"enum DisputeModule.DisputeStatus"}],"stateMutability":"view"},{"type":"function","name":"getOracle","inputs":[],"outputs":[{"name":"","type":"address","internalType":"contract IOracle"}],"stateMutability":"view"},{"type":"function","name":"getProject","inputs":[{"name":"_projectId","type":"uint256","internalType":"uint256"}],"outputs":[{"name":"client","type":"address","internalType":"address"},{"name":"artist","type":"address","internalType":"address"},{"name":"amount","type":"uint256","internalType":"uint256"},{"name":"released","type":"bool","internalType":"bool"},{"name":"validator","type":"address","internalType":"address"},{"name":"validated","type":"bool","internalType":"bool"},{"name":"milestoneCount","type":"uint256","internalType":"uint256"},{"name":"milestonesPaid","type":"uint256","internalType":"uint256"}],"stateMutability":"view"},{"type":"function","name":"openDispute","inputs":[{"name":"_projectId","type":"uint256","internalType":"uint256"},{"name":"_reason","type":"string","internalType":"string"}],"outputs":[],"stateMutability":"nonpayable"},{"type":"function","name":"oracle","inputs":[],"outputs":[{"name":"","type":"address","internalType":"contract IOracle"}],"stateMutability":"view"},{"type":"function","name":"owner","inputs":[],"outputs":[{"name":"","type":"address","internalType":"address"}],"stateMutability":"view"},{"type":"function","name":"projectConfigs","inputs":[{"name":"","type":"uint256","internalType":"uint256"}],"outputs":[{"name":"useForteRules","type":"bool","internalType":"bool"},{"name":"useFallback","type":"bool","internalType":"bool"},{"name":"useSignature","type":"bool","internalType":"bool"}],"stateMutability":"view"},{"type":"function","name":"projectCount","inputs":[],"outputs":[{"name":"","type":"uint256","internalType":"uint256"}],"stateMutability":"view"},{"type":"function","name":"projects","inputs":[{"name":"","type":"uint256","internalType":"uint256"}],"outputs":[{"name":"client","type":"address","internalType":"address"},{"name":"artist","type":"address","internalType":"address"},{"name":"amount","type":"uint256","internalType":"uint256"},{"name":"released","type":"bool","internalType":"bool"},{"name":"validator","type":"address","internalType":"address"},{"name":"validated","type":"bool","internalType":"bool"},{"name":"milestoneCount","type":"uint256","internalType":"uint256"},{"name":"milestonesPaid","type":"uint256","internalType":"uint256"}],"stateMutability":"view"},{"type":"function","name":"refundClient","inputs":[{"name":"_projectId","type":"uint256","internalType":"uint256"}],"outputs":[],"stateMutability":"nonpayable"},{"type":"function","name":"releaseAfterEvent","inputs":[{"name":"_projectId","type":"uint256","internalType":"uint256"}],"outputs":[],"stateMutability":"nonpayable"},{"type":"function","name":"releaseMilestone","inputs":[{"name":"projectId","type":"uint256","internalType":"uint256"}],"outputs":[],"stateMutability":"nonpayable"},{"type":"function","name":"renounceOwnership","inputs":[],"outputs":[],"stateMutability":"nonpayable"},{"type":"function","name":"setFallbackModule","inputs":[{"name":"_addr","type":"address","internalType":"address"}],"outputs":[],"stateMutability":"nonpayable"},{"type":"function","name":"setForteRulesModule","inputs":[{"name":"_addr","type":"address","internalType":"address"}],"outputs":[],"stateMutability":"nonpayable"},{"type":"function","name":"setOracle","inputs":[{"name":"_oracle","type":"address","internalType":"address"}],"outputs":[],"stateMutability":"nonpayable"},{"type":"function","name":"setOracleOverride","inputs":[{"name":"o","type":"address","internalType":"contract IOracle"}],"outputs":[],"stateMutability":"nonpayable"},{"type":"function","name":"setProjectConfig","inputs":[{"name":"_projectId","type":"uint256","internalType":"uint256"},{"name":"_useForte","type":"bool","internalType":"bool"},{"name":"_useFallback","type":"bool","internalType":"bool"},{"name":"_useSig","type":"bool","internalType":"bool"}],"outputs":[],"stateMutability":"nonpayable"},{"type":"function","name":"setSignatureModule","inputs":[{"name":"_addr","type":"address","internalType":"address"}],"outputs":[],"stateMutability":"nonpayable"},{"type":"function","name":"signatureModule","inputs":[],"outputs":[{"name":"","type":"address","internalType":"contract ISignatureModule"}],"stateMutability":"view"},{"type":"function","name":"transferOwnership","inputs":[{"name":"newOwner","type":"address","internalType":"address"}],"outputs":[],"stateMutability":"nonpayable"},{"type":"function","name":"validateProject","inputs":[{"name":"_projectId","type":"uint256","internalType":"uint256"}],"outputs":[],"stateMutability":"nonpayable"},{"type":"event","name":"ClientRefunded","inputs":[{"name":"projectId","type":"uint256","indexed":false,"internalType":"uint256"},{"name":"client","type":"address","indexed":true,"internalType":"address"},{"name":"amount","type":"uint256","indexed":false,"internalType":"uint256"}],"anonymous":false},{"type":"event","name":"DisputeOpened","inputs":[{"name":"projectId","type":"uint256","indexed":true,"internalType":"uint256"},{"name":"initiator","type":"address","indexed":true,"internalType":"address"},{"name":"reason","type":"string","indexed":false,"internalType":"string"}],"anonymous":false},{"type":"event","name":"FundsDeposited","inputs":[{"name":"projectId","type":"uint256","indexed":false,"internalType":"uint256"},{"name":"client","type":"address","indexed":true,"internalType":"address"},{"name":"artist","type":"address","indexed":true,"internalType":"address"},{"name":"amount","type":"uint256","indexed":false,"internalType":"uint256"}],"anonymous":false},{"type":"event","name":"FundsRefunded","inputs":[{"name":"projectId","type":"uint256","indexed":false,"internalType":"uint256"},{"name":"client","type":"address","indexed":true,"internalType":"address"}],"anonymous":false},{"type":"event","name":"FundsReleased","inputs":[{"name":"projectId","type":"uint256","indexed":false,"internalType":"uint256"},{"name":"artist","type":"address","indexed":true,"internalType":"address"},{"name":"amount","type":"uint256","indexed":false,"internalType":"uint256"}],"anonymous":false},{"type":"event","name":"MilestoneReleased","inputs":[{"name":"projectId","type":"uint256","indexed":false,"internalType":"uint256"},{"name":"milestoneIndex","type":"uint256","indexed":false,"internalType":"uint256"},{"name":"amount","type":"uint256","indexed":false,"internalType":"uint256"}],"anonymous":false},{"type":"event","name":"OwnershipTransferred","inputs":[{"name":"previousOwner","type":"address","indexed":true,"internalType":"address"},{"name":"newOwner","type":"address","indexed":true,"internalType":"address"}],"anonymous":false},{"type":"event","name":"ProjectValidated","inputs":[{"name":"projectId","type":"uint256","indexed":false,"internalType":"uint256"},{"name":"validator","type":"address","indexed":true,"internalType":"address"}],"anonymous":false},{"type":"event","name":"ValidatorAssigned","inputs":[{"name":"projectId","type":"uint256","indexed":false,"internalType":"uint256"},{"name":"validator","type":"address","indexed":true,"internalType":"address"}],"anonymous":false},{"type":"error","name":"OwnableInvalidOwner","inputs":[{"name":"owner","type":"address","internalType":"address"}]},{"type":"error","name":"OwnableUnauthorizedAccount","inputs":[{"name":"account","type":"address","internalType":"address"}]},{"type":"error","name":"ReentrancyGuardReentrantCall","inputs":[]}],"bytecode":{"object":"0x608060405234801561000f575f5ffd5b50335f73ffffffffffffffffffffffffffffffffffffffff168173ffffffffffffffffffffffffffffffffffffffff1603610081575f6040517f1e4fbdf7000000000000000000000000000000000000000000000000000000008152600401610078919061019e565b60405180910390fd5b6100908161009e60201b60201c565b5060016003819055506101b7565b5f5f5f9054906101000a900473ffffffffffffffffffffffffffffffffffffffff169050815f5f6101000a81548173ffffffffffffffffffffffffffffffffffffffff021916908373ffffffffffffffffffffffffffffffffffffffff1602179055508173ffffffffffffffffffffffffffffffffffffffff168173ffffffffffffffffffffffffffffffffffffffff167f8be0079c531659141344cd1fd0a4f28419497f9722a3daafe3b4186f6b6457e060405160405180910390a35050565b5f73ffffffffffffffffffffffffffffffffffffffff82169050919050565b5f6101888261015f565b9050919050565b6101988161017e565b82525050565b5f6020820190506101b15f83018461018f565b92915050565b614c0c806101c45f395ff3fe6080604052600436106101b6575f3560e01c80637adbf973116100eb578063e1e7cf8411610089578063f0f3f2c811610063578063f0f3f2c8146105c9578063f2fde38b1461060c578063f6ce28bd14610634578063f8ec8b301461065c576101b6565b8063e1e7cf8414610538578063e3a96cbd14610560578063efa047261461059f576101b6565b80638da5cb5b116100c55780638da5cb5b146104a2578063921b004b146104cc578063cbcbc305146104e8578063d23d422214610510576101b6565b80637adbf973146104265780637dc0d1d01461044e578063833b1fce14610478576101b6565b806336fbad2611610158578063564a565d11610132578063564a565d1461038157806357021469146103c057806368f98317146103e8578063715018a614610410576101b6565b806336fbad261461030757806343eed51c146103315780634b56175314610359576101b6565b8063216a631311610194578063216a63131461024f578063317debf51461027957806331e709dc146102a157806336f691c4146102df576101b6565b80630d01e5ef146101ba578063107046bd146101e2578063117159ca14610225575b5f5ffd5b3480156101c5575f5ffd5b506101e060048036038101906101db91906131c4565b610684565b005b3480156101ed575f5ffd5b5061020860048036038101906102039190613222565b6106c7565b60405161021c989796959493929190613285565b60405180910390f35b348015610230575f5ffd5b50610239610782565b604051610246919061335c565b60405180910390f35b34801561025a575f5ffd5b506102636107a7565b6040516102709190613395565b60405180910390f35b348015610284575f5ffd5b5061029f600480360381019061029a9190613222565b6107cc565b005b3480156102ac575f5ffd5b506102c760048036038101906102c29190613222565b610d5b565b6040516102d6939291906133ae565b60405180910390f35b3480156102ea575f5ffd5b506103056004803603810190610300919061351f565b610da5565b005b348015610312575f5ffd5b5061031b61116b565b6040516103289190613579565b60405180910390f35b34801561033c575f5ffd5b5061035760048036038101906103529190613222565b611171565b005b348015610364575f5ffd5b5061037f600480360381019061037a9190613592565b61153a565b005b34801561038c575f5ffd5b506103a760048036038101906103a29190613222565b611839565b6040516103b794939291906136a3565b60405180910390f35b3480156103cb575f5ffd5b506103e660048036038101906103e19190613222565b611916565b005b3480156103f3575f5ffd5b5061040e600480360381019061040991906131c4565b611c24565b005b34801561041b575f5ffd5b50610424611c67565b005b348015610431575f5ffd5b5061044c600480360381019061044791906131c4565b611c7a565b005b348015610459575f5ffd5b50610462611cc5565b60405161046f919061370d565b60405180910390f35b348015610483575f5ffd5b5061048c611cea565b604051610499919061370d565b60405180910390f35b3480156104ad575f5ffd5b506104b6611d90565b6040516104c39190613726565b60405180910390f35b6104e660048036038101906104e1919061373f565b611db7565b005b3480156104f3575f5ffd5b5061050e60048036038101906105099190613222565b6120f4565b005b34801561051b575f5ffd5b50610536600480360381019061053191906137b8565b612445565b005b348015610543575f5ffd5b5061055e6004803603810190610559919061381e565b612488565b005b34801561056b575f5ffd5b5061058660048036038101906105819190613222565b612706565b60405161059694939291906136a3565b60405180910390f35b3480156105aa575f5ffd5b506105b3612875565b6040516105c0919061388e565b60405180910390f35b3480156105d4575f5ffd5b506105ef60048036038101906105ea9190613222565b61289a565b604051610603989796959493929190613285565b60405180910390f35b348015610617575f5ffd5b50610632600480360381019061062d91906131c4565b612a57565b005b34801561063f575f5ffd5b5061065a600480360381019061065591906138d1565b612adb565b005b348015610667575f5ffd5b50610682600480360381019061067d91906131c4565b612c11565b005b8060055f6101000a81548173ffffffffffffffffffffffffffffffffffffffff021916908373ffffffffffffffffffffffffffffffffffffffff16021790555050565b6001602052805f5260405f205f91509050805f015f9054906101000a900473ffffffffffffffffffffffffffffffffffffffff1690806001015f9054906101000a900473ffffffffffffffffffffffffffffffffffffffff1690806002015490806003015f9054906101000a900460ff16908060030160019054906101000a900473ffffffffffffffffffffffffffffffffffffffff16908060030160159054906101000a900460ff16908060040154908060050154905088565b60075f9054906101000a900473ffffffffffffffffffffffffffffffffffffffff1681565b60055f9054906101000a900473ffffffffffffffffffffffffffffffffffffffff1681565b8060015f8281526020019081526020015f205f015f9054906101000a900473ffffffffffffffffffffffffffffffffffffffff1673ffffffffffffffffffffffffffffffffffffffff163373ffffffffffffffffffffffffffffffffffffffff161461086d576040517f08c379a0000000000000000000000000000000000000000000000000000000008152600401610864906139a5565b60405180910390fd5b5f600a5f8481526020019081526020015f206040518060600160405290815f82015f9054906101000a900460ff161515151581526020015f820160019054906101000a900460ff161515151581526020015f820160029054906101000a900460ff16151515158152505090505f60015f8581526020019081526020015f20600501549050815f015115610a64575f73ffffffffffffffffffffffffffffffffffffffff1660055f9054906101000a900473ffffffffffffffffffffffffffffffffffffffff1673ffffffffffffffffffffffffffffffffffffffff1603610989576040517f08c379a000000000000000000000000000000000000000000000000000000000815260040161098090613a0d565b60405180910390fd5b60055f9054906101000a900473ffffffffffffffffffffffffffffffffffffffff1673ffffffffffffffffffffffffffffffffffffffff1663e5dc0b3285836040518363ffffffff1660e01b81526004016109e5929190613a2b565b602060405180830381865afa158015610a00573d5f5f3e3d5ffd5b505050506040513d601f19601f82011682018060405250810190610a249190613a66565b610a63576040517f08c379a0000000000000000000000000000000000000000000000000000000008152600401610a5a90613adb565b60405180910390fd5b5b816020015115610bd8575f73ffffffffffffffffffffffffffffffffffffffff1660065f9054906101000a900473ffffffffffffffffffffffffffffffffffffffff1673ffffffffffffffffffffffffffffffffffffffff1603610afd576040517f08c379a0000000000000000000000000000000000000000000000000000000008152600401610af490613b43565b60405180910390fd5b60065f9054906101000a900473ffffffffffffffffffffffffffffffffffffffff1673ffffffffffffffffffffffffffffffffffffffff1663f36f43e585836040518363ffffffff1660e01b8152600401610b59929190613a2b565b602060405180830381865afa158015610b74573d5f5f3e3d5ffd5b505050506040513d601f19601f82011682018060405250810190610b989190613a66565b610bd7576040517f08c379a0000000000000000000000000000000000000000000000000000000008152600401610bce90613bab565b60405180910390fd5b5b816040015115610d4c575f73ffffffffffffffffffffffffffffffffffffffff1660075f9054906101000a900473ffffffffffffffffffffffffffffffffffffffff1673ffffffffffffffffffffffffffffffffffffffff1603610c71576040517f08c379a0000000000000000000000000000000000000000000000000000000008152600401610c6890613c13565b60405180910390fd5b60075f9054906101000a900473ffffffffffffffffffffffffffffffffffffffff1673ffffffffffffffffffffffffffffffffffffffff1663e8f394b485836040518363ffffffff1660e01b8152600401610ccd929190613a2b565b602060405180830381865afa158015610ce8573d5f5f3e3d5ffd5b505050506040513d601f19601f82011682018060405250810190610d0c9190613a66565b610d4b576040517f08c379a0000000000000000000000000000000000000000000000000000000008152600401610d4290613ca1565b60405180910390fd5b5b610d5584612c54565b50505050565b600a602052805f5260405f205f91509050805f015f9054906101000a900460ff1690805f0160019054906101000a900460ff1690805f0160029054906101000a900460ff16905083565b815f73ffffffffffffffffffffffffffffffffffffffff1660015f8381526020019081526020015f205f015f9054906101000a900473ffffffffffffffffffffffffffffffffffffffff1673ffffffffffffffffffffffffffffffffffffffff1603610e46576040517f08c379a0000000000000000000000000000000000000000000000000000000008152600401610e3d90613d09565b60405180910390fd5b8260015f8281526020019081526020015f205f015f9054906101000a900473ffffffffffffffffffffffffffffffffffffffff1673ffffffffffffffffffffffffffffffffffffffff163373ffffffffffffffffffffffffffffffffffffffff1614610ee7576040517f08c379a0000000000000000000000000000000000000000000000000000000008152600401610ede906139a5565b60405180910390fd5b60015f8581526020019081526020015f206003015f9054906101000a900460ff1615610f48576040517f08c379a0000000000000000000000000000000000000000000000000000000008152600401610f3f90613d97565b60405180910390fd5b5f60015f8681526020019081526020015f20600501541115610f9f576040517f08c379a0000000000000000000000000000000000000000000000000000000008152600401610f9690613e25565b60405180910390fd5b5f6002811115610fb257610fb1613630565b5b60045f8681526020019081526020015f206003015f9054906101000a900460ff166002811115610fe557610fe4613630565b5b14611025576040517f08c379a000000000000000000000000000000000000000000000000000000000815260040161101c90613e8d565b60405180910390fd5b60405180608001604052803373ffffffffffffffffffffffffffffffffffffffff1681526020018481526020014281526020016001600281111561106c5761106b613630565b5b81525060045f8681526020019081526020015f205f820151815f015f6101000a81548173ffffffffffffffffffffffffffffffffffffffff021916908373ffffffffffffffffffffffffffffffffffffffff16021790555060208201518160010190816110d9919061409f565b50604082015181600201556060820151816003015f6101000a81548160ff0219169083600281111561110e5761110d613630565b5b02179055509050503373ffffffffffffffffffffffffffffffffffffffff16847f9b58afa035c5fa58f85c5a54b65bd3562d5aa7679e973bc1404fe25e8babab218560405161115d919061416e565b60405180910390a350505050565b60025481565b611179612fba565b805f73ffffffffffffffffffffffffffffffffffffffff1660015f8381526020019081526020015f205f015f9054906101000a900473ffffffffffffffffffffffffffffffffffffffff1673ffffffffffffffffffffffffffffffffffffffff160361121a576040517f08c379a000000000000000000000000000000000000000000000000000000000815260040161121190613d09565b60405180910390fd5b8160015f8281526020019081526020015f205f015f9054906101000a900473ffffffffffffffffffffffffffffffffffffffff1673ffffffffffffffffffffffffffffffffffffffff163373ffffffffffffffffffffffffffffffffffffffff16146112bb576040517f08c379a00000000000000000000000000000000000000000000000000000000081526004016112b2906139a5565b60405180910390fd5b5f60015f8581526020019081526020015f209050806003015f9054906101000a900460ff1615611320576040517f08c379a0000000000000000000000000000000000000000000000000000000008152600401611317906141fe565b60405180910390fd5b5f816005015414611366576040517f08c379a000000000000000000000000000000000000000000000000000000000815260040161135d9061428c565b60405180910390fd5b5f8160020154116113ac576040517f08c379a00000000000000000000000000000000000000000000000000000000081526004016113a3906142f4565b60405180910390fd5b5f816002015490505f825f015f9054906101000a900473ffffffffffffffffffffffffffffffffffffffff1690505f83600201819055508073ffffffffffffffffffffffffffffffffffffffff167fd1c90c5ed8b35db630851dbe3ec20c8798b71354223bfe5a5527e84103e89d5b876040516114299190613579565b60405180910390a28073ffffffffffffffffffffffffffffffffffffffff167f710864ae79ae7195dbcaa0f79eef4a8f5b490696c2d588a27f4d69ce60ac01fc8784604051611479929190613a2b565b60405180910390a25f8173ffffffffffffffffffffffffffffffffffffffff16836040516114a69061433f565b5f6040518083038185875af1925050503d805f81146114e0576040519150601f19603f3d011682016040523d82523d5f602084013e6114e5565b606091505b5050905080611529576040517f08c379a00000000000000000000000000000000000000000000000000000000081526004016115209061439d565b60405180910390fd5b505050505050611537613000565b50565b815f73ffffffffffffffffffffffffffffffffffffffff1660015f8381526020019081526020015f205f015f9054906101000a900473ffffffffffffffffffffffffffffffffffffffff1673ffffffffffffffffffffffffffffffffffffffff16036115db576040517f08c379a00000000000000000000000000000000000000000000000000000000081526004016115d290613d09565b60405180910390fd5b8260015f8281526020019081526020015f205f015f9054906101000a900473ffffffffffffffffffffffffffffffffffffffff1673ffffffffffffffffffffffffffffffffffffffff163373ffffffffffffffffffffffffffffffffffffffff161461167c576040517f08c379a0000000000000000000000000000000000000000000000000000000008152600401611673906139a5565b60405180910390fd5b5f60015f8681526020019081526020015f2090505f73ffffffffffffffffffffffffffffffffffffffff168473ffffffffffffffffffffffffffffffffffffffff16036116fe576040517f08c379a00000000000000000000000000000000000000000000000000000000081526004016116f590614405565b60405180910390fd5b806003015f9054906101000a900460ff161561174f576040517f08c379a00000000000000000000000000000000000000000000000000000000081526004016117469061446d565b60405180910390fd5b8060030160159054906101000a900460ff16156117a1576040517f08c379a0000000000000000000000000000000000000000000000000000000008152600401611798906144fb565b60405180910390fd5b838160030160016101000a81548173ffffffffffffffffffffffffffffffffffffffff021916908373ffffffffffffffffffffffffffffffffffffffff1602179055508373ffffffffffffffffffffffffffffffffffffffff167f74c722a7077ba48f1c4a1df3ad9df69eda5ffb9518fedba9bad9596305b8b95e8660405161182a9190613579565b60405180910390a25050505050565b6004602052805f5260405f205f91509050805f015f9054906101000a900473ffffffffffffffffffffffffffffffffffffffff169080600101805461187d90613ed8565b80601f01602080910402602001604051908101604052809291908181526020018280546118a990613ed8565b80156118f45780601f106118cb576101008083540402835291602001916118f4565b820191905f5260205f20905b8154815290600101906020018083116118d757829003601f168201915b505050505090806002015490806003015f9054906101000a900460ff16905084565b805f73ffffffffffffffffffffffffffffffffffffffff1660015f8381526020019081526020015f205f015f9054906101000a900473ffffffffffffffffffffffffffffffffffffffff1673ffffffffffffffffffffffffffffffffffffffff16036119b7576040517f08c379a00000000000000000000000000000000000000000000000000000000081526004016119ae90613d09565b60405180910390fd5b8160015f8281526020019081526020015f2060030160019054906101000a900473ffffffffffffffffffffffffffffffffffffffff1673ffffffffffffffffffffffffffffffffffffffff163373ffffffffffffffffffffffffffffffffffffffff1614611a5a576040517f08c379a0000000000000000000000000000000000000000000000000000000008152600401611a5190614589565b60405180910390fd5b60015f8481526020019081526020015f2060030160159054906101000a900460ff1615611abc576040517f08c379a0000000000000000000000000000000000000000000000000000000008152600401611ab3906145f1565b60405180910390fd5b5f60015f8581526020019081526020015f209050806003015f9054906101000a900460ff1615611b21576040517f08c379a0000000000000000000000000000000000000000000000000000000008152600401611b189061446d565b60405180910390fd5b5f73ffffffffffffffffffffffffffffffffffffffff168160030160019054906101000a900473ffffffffffffffffffffffffffffffffffffffff1673ffffffffffffffffffffffffffffffffffffffff1603611bb3576040517f08c379a0000000000000000000000000000000000000000000000000000000008152600401611baa90614659565b60405180910390fd5b60018160030160156101000a81548160ff0219169083151502179055503373ffffffffffffffffffffffffffffffffffffffff167f84ffc84db0a14dc30a09c96c2dc65081ab5a1f28b1ec2543ec701b04ad161a9d85604051611c169190613579565b60405180910390a250505050565b8060075f6101000a81548173ffffffffffffffffffffffffffffffffffffffff021916908373ffffffffffffffffffffffffffffffffffffffff16021790555050565b611c6f61300a565b611c785f613091565b565b611c8261300a565b8060095f6101000a81548173ffffffffffffffffffffffffffffffffffffffff021916908373ffffffffffffffffffffffffffffffffffffffff16021790555050565b60095f9054906101000a900473ffffffffffffffffffffffffffffffffffffffff1681565b5f5f73ffffffffffffffffffffffffffffffffffffffff1660085f9054906101000a900473ffffffffffffffffffffffffffffffffffffffff1673ffffffffffffffffffffffffffffffffffffffff1614611d685760085f9054906101000a900473ffffffffffffffffffffffffffffffffffffffff169050611d8d565b60095f9054906101000a900473ffffffffffffffffffffffffffffffffffffffff1690505b90565b5f5f5f9054906101000a900473ffffffffffffffffffffffffffffffffffffffff16905090565b5f73ffffffffffffffffffffffffffffffffffffffff168273ffffffffffffffffffffffffffffffffffffffff1603611e25576040517f08c379a0000000000000000000000000000000000000000000000000000000008152600401611e1c906146c1565b60405180910390fd5b5f3411611e67576040517f08c379a0000000000000000000000000000000000000000000000000000000008152600401611e5e90614729565b60405180910390fd5b5f8111611ea9576040517f08c379a0000000000000000000000000000000000000000000000000000000008152600401611ea0906147b7565b60405180910390fd5b5f60025490506040518061010001604052803373ffffffffffffffffffffffffffffffffffffffff1681526020018473ffffffffffffffffffffffffffffffffffffffff1681526020013481526020015f151581526020015f73ffffffffffffffffffffffffffffffffffffffff1681526020015f151581526020018381526020015f81525060015f8381526020019081526020015f205f820151815f015f6101000a81548173ffffffffffffffffffffffffffffffffffffffff021916908373ffffffffffffffffffffffffffffffffffffffff1602179055506020820151816001015f6101000a81548173ffffffffffffffffffffffffffffffffffffffff021916908373ffffffffffffffffffffffffffffffffffffffff160217905550604082015181600201556060820151816003015f6101000a81548160ff02191690831515021790555060808201518160030160016101000a81548173ffffffffffffffffffffffffffffffffffffffff021916908373ffffffffffffffffffffffffffffffffffffffff16021790555060a08201518160030160156101000a81548160ff02191690831515021790555060c0820151816004015560e0820151816005015590505060025f81548092919061208390614802565b91905055508273ffffffffffffffffffffffffffffffffffffffff163373ffffffffffffffffffffffffffffffffffffffff167f862dfcd9710943e66ad8f1f01a99cc98ab5612a09e62ecc68f63fe2e0f86cb0e83346040516120e7929190613a2b565b60405180910390a3505050565b6120fc612fba565b805f73ffffffffffffffffffffffffffffffffffffffff1660015f8381526020019081526020015f205f015f9054906101000a900473ffffffffffffffffffffffffffffffffffffffff1673ffffffffffffffffffffffffffffffffffffffff160361219d576040517f08c379a000000000000000000000000000000000000000000000000000000000815260040161219490613d09565b60405180910390fd5b5f60015f8481526020019081526020015f2090508060030160159054906101000a900460ff16612202576040517f08c379a00000000000000000000000000000000000000000000000000000000081526004016121f9906148b9565b60405180910390fd5b806004015481600501541061224c576040517f08c379a000000000000000000000000000000000000000000000000000000000815260040161224390614921565b60405180910390fd5b5f81600401548260020154612261919061496c565b9050816005015f81548092919061227790614802565b91905055505f8260040154836005015414905080156122ad576001836003015f6101000a81548160ff0219169083151502179055505b5f836001015f9054906101000a900473ffffffffffffffffffffffffffffffffffffffff1673ffffffffffffffffffffffffffffffffffffffff16836040516122f59061433f565b5f6040518083038185875af1925050503d805f811461232f576040519150601f19603f3d011682016040523d82523d5f602084013e612334565b606091505b5050905080612378576040517f08c379a000000000000000000000000000000000000000000000000000000000815260040161236f9061439d565b60405180910390fd5b7fd33fcd27cbfb73a2d9058c968b560ccb306500bf536133802048489ecc7355e9868560050154856040516123af9392919061499c565b60405180910390a1811561243557836001015f9054906101000a900473ffffffffffffffffffffffffffffffffffffffff1673ffffffffffffffffffffffffffffffffffffffff167f6e3c6096795c8298a218b2cfb8bde42726ff7c9a3d27b4d3ba41ab7f74feb5fb87866002015460405161242c929190613a2b565b60405180910390a25b5050505050612442613000565b50565b8060085f6101000a81548173ffffffffffffffffffffffffffffffffffffffff021916908373ffffffffffffffffffffffffffffffffffffffff16021790555050565b5f73ffffffffffffffffffffffffffffffffffffffff1660015f8581526020019081526020015f205f015f9054906101000a900473ffffffffffffffffffffffffffffffffffffffff1673ffffffffffffffffffffffffffffffffffffffff1614612528576040517f08c379a000000000000000000000000000000000000000000000000000000000815260040161251f90614a1b565b60405180910390fd5b6040518061010001604052803373ffffffffffffffffffffffffffffffffffffffff1681526020018373ffffffffffffffffffffffffffffffffffffffff1681526020015f81526020015f151581526020015f73ffffffffffffffffffffffffffffffffffffffff1681526020015f151581526020018281526020015f81525060015f8581526020019081526020015f205f820151815f015f6101000a81548173ffffffffffffffffffffffffffffffffffffffff021916908373ffffffffffffffffffffffffffffffffffffffff1602179055506020820151816001015f6101000a81548173ffffffffffffffffffffffffffffffffffffffff021916908373ffffffffffffffffffffffffffffffffffffffff160217905550604082015181600201556060820151816003015f6101000a81548160ff02191690831515021790555060808201518160030160016101000a81548173ffffffffffffffffffffffffffffffffffffffff021916908373ffffffffffffffffffffffffffffffffffffffff16021790555060a08201518160030160156101000a81548160ff02191690831515021790555060c0820151816004015560e0820151816005015590505060025f8154809291906126fc90614802565b9190505550505050565b5f60605f5f5f60045f8781526020019081526020015f206040518060800160405290815f82015f9054906101000a900473ffffffffffffffffffffffffffffffffffffffff1673ffffffffffffffffffffffffffffffffffffffff1673ffffffffffffffffffffffffffffffffffffffff16815260200160018201805461278c90613ed8565b80601f01602080910402602001604051908101604052809291908181526020018280546127b890613ed8565b80156128035780601f106127da57610100808354040283529160200191612803565b820191905f5260205f20905b8154815290600101906020018083116127e657829003601f168201915b5050505050815260200160028201548152602001600382015f9054906101000a900460ff16600281111561283a57612839613630565b5b600281111561284c5761284b613630565b5b815250509050805f01518160200151826040015183606001519450945094509450509193509193565b60065f9054906101000a900473ffffffffffffffffffffffffffffffffffffffff1681565b5f5f5f5f5f5f5f5f5f60015f8b81526020019081526020015f20604051806101000160405290815f82015f9054906101000a900473ffffffffffffffffffffffffffffffffffffffff1673ffffffffffffffffffffffffffffffffffffffff1673ffffffffffffffffffffffffffffffffffffffff168152602001600182015f9054906101000a900473ffffffffffffffffffffffffffffffffffffffff1673ffffffffffffffffffffffffffffffffffffffff1673ffffffffffffffffffffffffffffffffffffffff16815260200160028201548152602001600382015f9054906101000a900460ff161515151581526020016003820160019054906101000a900473ffffffffffffffffffffffffffffffffffffffff1673ffffffffffffffffffffffffffffffffffffffff1673ffffffffffffffffffffffffffffffffffffffff1681526020016003820160159054906101000a900460ff16151515158152602001600482015481526020016005820154815250509050805f015181602001518260400151836060015184608001518560a001518660c001518760e001519850985098509850985098509850985050919395975091939597565b612a5f61300a565b5f73ffffffffffffffffffffffffffffffffffffffff168173ffffffffffffffffffffffffffffffffffffffff1603612acf575f6040517f1e4fbdf7000000000000000000000000000000000000000000000000000000008152600401612ac69190613726565b60405180910390fd5b612ad881613091565b50565b60015f8581526020019081526020015f205f015f9054906101000a900473ffffffffffffffffffffffffffffffffffffffff1673ffffffffffffffffffffffffffffffffffffffff163373ffffffffffffffffffffffffffffffffffffffff1614612b7b576040517f08c379a0000000000000000000000000000000000000000000000000000000008152600401612b7290614aa9565b60405180910390fd5b604051806060016040528084151581526020018315158152602001821515815250600a5f8681526020019081526020015f205f820151815f015f6101000a81548160ff0219169083151502179055506020820151815f0160016101000a81548160ff0219169083151502179055506040820151815f0160026101000a81548160ff02191690831515021790555090505050505050565b8060065f6101000a81548173ffffffffffffffffffffffffffffffffffffffff021916908373ffffffffffffffffffffffffffffffffffffffff16021790555050565b5f60015f8381526020019081526020015f2090508060030160159054906101000a900460ff16612cb9576040517f08c379a0000000000000000000000000000000000000000000000000000000008152600401612cb0906148b9565b60405180910390fd5b8060040154816005015410612d03576040517f08c379a0000000000000000000000000000000000000000000000000000000008152600401612cfa90614921565b60405180910390fd5b5f612d0c611cea565b73ffffffffffffffffffffffffffffffffffffffff16638e15f4736040518163ffffffff1660e01b8152600401602060405180830381865afa158015612d54573d5f5f3e3d5ffd5b505050506040513d601f19601f82011682018060405250810190612d789190614adb565b90506103e8811015612dbf576040517f08c379a0000000000000000000000000000000000000000000000000000000008152600401612db690614b50565b60405180910390fd5b5f82600401548360020154612dd4919061496c565b9050826005015f815480929190612dea90614802565b91905055508260040154836005015403612e1b576001836003015f6101000a81548160ff0219169083151502179055505b5f836001015f9054906101000a900473ffffffffffffffffffffffffffffffffffffffff1673ffffffffffffffffffffffffffffffffffffffff1682604051612e639061433f565b5f6040518083038185875af1925050503d805f8114612e9d576040519150601f19603f3d011682016040523d82523d5f602084013e612ea2565b606091505b5050905080612ee6576040517f08c379a0000000000000000000000000000000000000000000000000000000008152600401612edd90614bb8565b60405180910390fd5b7fd33fcd27cbfb73a2d9058c968b560ccb306500bf536133802048489ecc7355e985856005015484604051612f1d9392919061499c565b60405180910390a1836003015f9054906101000a900460ff1615612fb357836001015f9054906101000a900473ffffffffffffffffffffffffffffffffffffffff1673ffffffffffffffffffffffffffffffffffffffff167f6e3c6096795c8298a218b2cfb8bde42726ff7c9a3d27b4d3ba41ab7f74feb5fb868660020154604051612faa929190613a2b565b60405180910390a25b5050505050565b600260035403612ff6576040517f3ee5aeb500000000000000000000000000000000000000000000000000000000815260040160405180910390fd5b6002600381905550565b6001600381905550565b613012613152565b73ffffffffffffffffffffffffffffffffffffffff16613030611d90565b73ffffffffffffffffffffffffffffffffffffffff161461308f57613053613152565b6040517f118cdaa70000000000000000000000000000000000000000000000000000000081526004016130869190613726565b60405180910390fd5b565b5f5f5f9054906101000a900473ffffffffffffffffffffffffffffffffffffffff169050815f5f6101000a81548173ffffffffffffffffffffffffffffffffffffffff021916908373ffffffffffffffffffffffffffffffffffffffff1602179055508173ffffffffffffffffffffffffffffffffffffffff168173ffffffffffffffffffffffffffffffffffffffff167f8be0079c531659141344cd1fd0a4f28419497f9722a3daafe3b4186f6b6457e060405160405180910390a35050565b5f33905090565b5f604051905090565b5f5ffd5b5f5ffd5b5f73ffffffffffffffffffffffffffffffffffffffff82169050919050565b5f6131938261316a565b9050919050565b6131a381613189565b81146131ad575f5ffd5b50565b5f813590506131be8161319a565b92915050565b5f602082840312156131d9576131d8613162565b5b5f6131e6848285016131b0565b91505092915050565b5f819050919050565b613201816131ef565b811461320b575f5ffd5b50565b5f8135905061321c816131f8565b92915050565b5f6020828403121561323757613236613162565b5b5f6132448482850161320e565b91505092915050565b61325681613189565b82525050565b613265816131ef565b82525050565b5f8115159050919050565b61327f8161326b565b82525050565b5f610100820190506132995f83018b61324d565b6132a6602083018a61324d565b6132b3604083018961325c565b6132c06060830188613276565b6132cd608083018761324d565b6132da60a0830186613276565b6132e760c083018561325c565b6132f460e083018461325c565b9998505050505050505050565b5f819050919050565b5f61332461331f61331a8461316a565b613301565b61316a565b9050919050565b5f6133358261330a565b9050919050565b5f6133468261332b565b9050919050565b6133568161333c565b82525050565b5f60208201905061336f5f83018461334d565b92915050565b5f61337f8261332b565b9050919050565b61338f81613375565b82525050565b5f6020820190506133a85f830184613386565b92915050565b5f6060820190506133c15f830186613276565b6133ce6020830185613276565b6133db6040830184613276565b949350505050565b5f5ffd5b5f5ffd5b5f601f19601f8301169050919050565b7f4e487b71000000000000000000000000000000000000000000000000000000005f52604160045260245ffd5b613431826133eb565b810181811067ffffffffffffffff821117156134505761344f6133fb565b5b80604052505050565b5f613462613159565b905061346e8282613428565b919050565b5f67ffffffffffffffff82111561348d5761348c6133fb565b5b613496826133eb565b9050602081019050919050565b828183375f83830152505050565b5f6134c36134be84613473565b613459565b9050828152602081018484840111156134df576134de6133e7565b5b6134ea8482856134a3565b509392505050565b5f82601f830112613506576135056133e3565b5b81356135168482602086016134b1565b91505092915050565b5f5f6040838503121561353557613534613162565b5b5f6135428582860161320e565b925050602083013567ffffffffffffffff81111561356357613562613166565b5b61356f858286016134f2565b9150509250929050565b5f60208201905061358c5f83018461325c565b92915050565b5f5f604083850312156135a8576135a7613162565b5b5f6135b58582860161320e565b92505060206135c6858286016131b0565b9150509250929050565b5f81519050919050565b5f82825260208201905092915050565b8281835e5f83830152505050565b5f613602826135d0565b61360c81856135da565b935061361c8185602086016135ea565b613625816133eb565b840191505092915050565b7f4e487b71000000000000000000000000000000000000000000000000000000005f52602160045260245ffd5b6003811061366e5761366d613630565b5b50565b5f81905061367e8261365d565b919050565b5f61368d82613671565b9050919050565b61369d81613683565b82525050565b5f6080820190506136b65f83018761324d565b81810360208301526136c881866135f8565b90506136d7604083018561325c565b6136e46060830184613694565b95945050505050565b5f6136f78261332b565b9050919050565b613707816136ed565b82525050565b5f6020820190506137205f8301846136fe565b92915050565b5f6020820190506137395f83018461324d565b92915050565b5f5f6040838503121561375557613754613162565b5b5f613762858286016131b0565b92505060206137738582860161320e565b9150509250929050565b5f61378782613189565b9050919050565b6137978161377d565b81146137a1575f5ffd5b50565b5f813590506137b28161378e565b92915050565b5f602082840312156137cd576137cc613162565b5b5f6137da848285016137a4565b91505092915050565b5f6137ed8261316a565b9050919050565b6137fd816137e3565b8114613807575f5ffd5b50565b5f81359050613818816137f4565b92915050565b5f5f5f6060848603121561383557613834613162565b5b5f6138428682870161320e565b93505060206138538682870161380a565b92505060406138648682870161320e565b9150509250925092565b5f6138788261332b565b9050919050565b6138888161386e565b82525050565b5f6020820190506138a15f83018461387f565b92915050565b6138b08161326b565b81146138ba575f5ffd5b50565b5f813590506138cb816138a7565b92915050565b5f5f5f5f608085870312156138e9576138e8613162565b5b5f6138f68782880161320e565b9450506020613907878288016138bd565b9350506040613918878288016138bd565b9250506060613929878288016138bd565b91505092959194509250565b7f4572726f723a204f6e6c792074686520636c69656e742063616e20706572666f5f8201527f726d207468697320616374696f6e2e0000000000000000000000000000000000602082015250565b5f61398f602f836135da565b915061399a82613935565b604082019050919050565b5f6020820190508181035f8301526139bc81613983565b9050919050565b7f466f72746552756c6573206d6f64756c65206e6f7420736574000000000000005f82015250565b5f6139f76019836135da565b9150613a02826139c3565b602082019050919050565b5f6020820190508181035f830152613a24816139eb565b9050919050565b5f604082019050613a3e5f83018561325c565b613a4b602083018461325c565b9392505050565b5f81519050613a60816138a7565b92915050565b5f60208284031215613a7b57613a7a613162565b5b5f613a8884828501613a52565b91505092915050565b7f52656c6561736520626c6f636b656420627920466f7274652072756c657300005f82015250565b5f613ac5601e836135da565b9150613ad082613a91565b602082019050919050565b5f6020820190508181035f830152613af281613ab9565b9050919050565b7f46616c6c6261636b206d6f64756c65206e6f74207365740000000000000000005f82015250565b5f613b2d6017836135da565b9150613b3882613af9565b602082019050919050565b5f6020820190508181035f830152613b5a81613b21565b9050919050565b7f46616c6c6261636b20636f6e646974696f6e206e6f74206d65740000000000005f82015250565b5f613b95601a836135da565b9150613ba082613b61565b602082019050919050565b5f6020820190508181035f830152613bc281613b89565b9050919050565b7f5369676e6174757265206d6f64756c65206e6f742073657400000000000000005f82015250565b5f613bfd6018836135da565b9150613c0882613bc9565b602082019050919050565b5f6020820190508181035f830152613c2a81613bf1565b9050919050565b7f426f746820636c69656e7420616e6420617274697374206d75737420636f6e665f8201527f69726d0000000000000000000000000000000000000000000000000000000000602082015250565b5f613c8b6023836135da565b9150613c9682613c31565b604082019050919050565b5f6020820190508181035f830152613cb881613c7f565b9050919050565b7f4572726f723a2050726f6a65637420646f6573206e6f742065786973742e00005f82015250565b5f613cf3601e836135da565b9150613cfe82613cbf565b602082019050919050565b5f6020820190508181035f830152613d2081613ce7565b9050919050565b7f4572726f723a2043616e6e6f74206f70656e20646973707574652061667465725f8201527f2066756c6c2072656c6561736500000000000000000000000000000000000000602082015250565b5f613d81602d836135da565b9150613d8c82613d27565b604082019050919050565b5f6020820190508181035f830152613dae81613d75565b9050919050565b7f4572726f723a2043616e6e6f74206f70656e20646973707574652061667465725f8201527f207061727469616c2072656c6561736500000000000000000000000000000000602082015250565b5f613e0f6030836135da565b9150613e1a82613db5565b604082019050919050565b5f6020820190508181035f830152613e3c81613e03565b9050919050565b7f4572726f723a204469737075746520616c7265616479206578697374730000005f82015250565b5f613e77601d836135da565b9150613e8282613e43565b602082019050919050565b5f6020820190508181035f830152613ea481613e6b565b9050919050565b7f4e487b71000000000000000000000000000000000000000000000000000000005f52602260045260245ffd5b5f6002820490506001821680613eef57607f821691505b602082108103613f0257613f01613eab565b5b50919050565b5f819050815f5260205f209050919050565b5f6020601f8301049050919050565b5f82821b905092915050565b5f60088302613f647fffffffffffffffffffffffffffffffffffffffffffffffffffffffffffffffff82613f29565b613f6e8683613f29565b95508019841693508086168417925050509392505050565b5f613fa0613f9b613f96846131ef565b613301565b6131ef565b9050919050565b5f819050919050565b613fb983613f86565b613fcd613fc582613fa7565b848454613f35565b825550505050565b5f5f905090565b613fe4613fd5565b613fef818484613fb0565b505050565b5b81811015614012576140075f82613fdc565b600181019050613ff5565b5050565b601f8211156140575761402881613f08565b61403184613f1a565b81016020851015614040578190505b61405461404c85613f1a565b830182613ff4565b50505b505050565b5f82821c905092915050565b5f6140775f198460080261405c565b1980831691505092915050565b5f61408f8383614068565b9150826002028217905092915050565b6140a8826135d0565b67ffffffffffffffff8111156140c1576140c06133fb565b5b6140cb8254613ed8565b6140d6828285614016565b5f60209050601f831160018114614107575f84156140f5578287015190505b6140ff8582614084565b865550614166565b601f19841661411586613f08565b5f5b8281101561413c57848901518255600182019150602085019450602081019050614117565b868310156141595784890151614155601f891682614068565b8355505b6001600288020188555050505b505050505050565b5f6020820190508181035f83015261418681846135f8565b905092915050565b7f4572726f723a2043616e6e6f7420726566756e642061667465722066756c6c205f8201527f72656c6561736500000000000000000000000000000000000000000000000000602082015250565b5f6141e86027836135da565b91506141f38261418e565b604082019050919050565b5f6020820190508181035f830152614215816141dc565b9050919050565b7f4572726f723a2043616e6e6f7420726566756e642061667465722070617274695f8201527f616c2072656c6561736500000000000000000000000000000000000000000000602082015250565b5f614276602a836135da565b91506142818261421c565b604082019050919050565b5f6020820190508181035f8301526142a38161426a565b9050919050565b7f4572726f723a204e6f2066756e647320746f20726566756e64000000000000005f82015250565b5f6142de6019836135da565b91506142e9826142aa565b602082019050919050565b5f6020820190508181035f83015261430b816142d2565b9050919050565b5f81905092915050565b50565b5f61432a5f83614312565b91506143358261431c565b5f82019050919050565b5f6143498261431f565b9150819050919050565b7f5472616e73666572206661696c656400000000000000000000000000000000005f82015250565b5f614387600f836135da565b915061439282614353565b602082019050919050565b5f6020820190508181035f8301526143b48161437b565b9050919050565b7f496e76616c69642076616c696461746f7220616464726573732e0000000000005f82015250565b5f6143ef601a836135da565b91506143fa826143bb565b602082019050919050565b5f6020820190508181035f83015261441c816143e3565b9050919050565b7f46756e647320616c72656164792072656c65617365642e0000000000000000005f82015250565b5f6144576017836135da565b915061446282614423565b602082019050919050565b5f6020820190508181035f8301526144848161444b565b9050919050565b7f43616e6e6f74206368616e67652076616c696461746f722061667465722076615f8201527f6c69646174696f6e2e0000000000000000000000000000000000000000000000602082015250565b5f6144e56029836135da565b91506144f08261448b565b604082019050919050565b5f6020820190508181035f830152614512816144d9565b9050919050565b7f4572726f723a204f6e6c79207468652061737369676e65642076616c696461745f8201527f6f722063616e20706572666f726d207468697320616374696f6e2e0000000000602082015250565b5f614573603b836135da565b915061457e82614519565b604082019050919050565b5f6020820190508181035f8301526145a081614567565b9050919050565b7f50726f6a65637420616c72656164792076616c6964617465642e0000000000005f82015250565b5f6145db601a836135da565b91506145e6826145a7565b602082019050919050565b5f6020820190508181035f830152614608816145cf565b9050919050565b7f4e6f2076616c696461746f722061737369676e65642e000000000000000000005f82015250565b5f6146436016836135da565b915061464e8261460f565b602082019050919050565b5f6020820190508181035f83015261467081614637565b9050919050565b7f496e76616c6964206172746973742061646472657373000000000000000000005f82015250565b5f6146ab6016836135da565b91506146b682614677565b602082019050919050565b5f6020820190508181035f8301526146d88161469f565b9050919050565b7f416d6f756e74206d757374206265203e203000000000000000000000000000005f82015250565b5f6147136012836135da565b915061471e826146df565b602082019050919050565b5f6020820190508181035f83015261474081614707565b9050919050565b7f4d696c6573746f6e6520636f756e74206d7573742062652067726561746572205f8201527f7468616e207a65726f0000000000000000000000000000000000000000000000602082015250565b5f6147a16029836135da565b91506147ac82614747565b604082019050919050565b5f6020820190508181035f8301526147ce81614795565b9050919050565b7f4e487b71000000000000000000000000000000000000000000000000000000005f52601160045260245ffd5b5f61480c826131ef565b91507fffffffffffffffffffffffffffffffffffffffffffffffffffffffffffffffff820361483e5761483d6147d5565b5b600182019050919050565b7f4572726f723a2050726f6a656374206d7573742062652076616c6964617465645f8201527f206265666f72652072656c656173696e672066756e6473000000000000000000602082015250565b5f6148a36037836135da565b91506148ae82614849565b604082019050919050565b5f6020820190508181035f8301526148d081614897565b9050919050565b7f4572726f723a20416c6c206d696c6573746f6e657320706169642e00000000005f82015250565b5f61490b601b836135da565b9150614916826148d7565b602082019050919050565b5f6020820190508181035f830152614938816148ff565b9050919050565b7f4e487b71000000000000000000000000000000000000000000000000000000005f52601260045260245ffd5b5f614976826131ef565b9150614981836131ef565b9250826149915761499061493f565b5b828204905092915050565b5f6060820190506149af5f83018661325c565b6149bc602083018561325c565b6149c9604083018461325c565b949350505050565b7f50726f6a65637420616c726561647920657869737473000000000000000000005f82015250565b5f614a056016836135da565b9150614a10826149d1565b602082019050919050565b5f6020820190508181035f830152614a32816149f9565b9050919050565b7f4f6e6c7920636c69656e742063616e20636f6e6669677572652070726f6a65635f8201527f7400000000000000000000000000000000000000000000000000000000000000602082015250565b5f614a936021836135da565b9150614a9e82614a39565b604082019050919050565b5f6020820190508181035f830152614ac081614a87565b9050919050565b5f81519050614ad5816131f8565b92915050565b5f60208284031215614af057614aef613162565b5b5f614afd84828501614ac7565b91505092915050565b7f507269636520746f6f206c6f77000000000000000000000000000000000000005f82015250565b5f614b3a600d836135da565b9150614b4582614b06565b602082019050919050565b5f6020820190508181035f830152614b6781614b2e565b9050919050565b7f5472616e73666572206661696c65642e000000000000000000000000000000005f82015250565b5f614ba26010836135da565b9150614bad82614b6e565b602082019050919050565b5f6020820190508181035f830152614bcf81614b96565b905091905056fea264697066735822122013c09133d85ec5839258ae7a57a9d760c2e6d383ee0fb0ea59db6dac450c219864736f6c634300081c0033","linkReferences":{}},"methodIdentifiers":{"addValidator(uint256,address)":"4b561753","createProject(uint256,address,uint256)":"e1e7cf84","depositFunds(address,uint256)":"921b004b","disputes(uint256)":"564a565d","fallbackModule()":"efa04726","forteRules()":"216a6313","getDispute(uint256)":"e3a96cbd","getOracle()":"833b1fce","getProject(uint256)":"f0f3f2c8","openDispute(uint256,string)":"36f691c4","oracle()":"7dc0d1d0","owner()":"8da5cb5b","projectConfigs(uint256)":"31e709dc","projectCount()":"36fbad26","projects(uint256)":"107046bd","refundClient(uint256)":"43eed51c","releaseAfterEvent(uint256)":"cbcbc305","releaseMilestone(uint256)":"317debf5","renounceOwnership()":"715018a6","setFallbackModule(address)":"f8ec8b30","setForteRulesModule(address)":"0d01e5ef","setOracle(address)":"7adbf973","setOracleOverride(address)":"d23d4222","setProjectConfig(uint256,bool,bool,bool)":"f6ce28bd","setSignatureModule(address)":"68f98317","signatureModule()":"117159ca","transferOwnership(address)":"f2fde38b","validateProject(uint256)":"57021469"},"id":0}