{"abi":[{"type":"function","name":"addValidator","inputs":[{"name":"_projectId","type":"uint256","internalType":"uint256"},{"name":"_validator","type":"address","internalType":"address"}],"outputs":[],"stateMutability":"nonpayable"},{"type":"function","name":"createProject","inputs":[{"name":"_projectId","type":"uint256","internalType":"uint256"},{"name":"_artist","type":"address","internalType":"address payable"},{"name":"_milestoneCount","type":"uint256","internalType":"uint256"}],"outputs":[],"stateMutability":"nonpayable"},{"type":"function","name":"depositFunds","inputs":[{"name":"_artist","type":"address","internalType":"address"},{"name":"_milestoneCount","type":"uint256","internalType":"uint256"}],"outputs":[],"stateMutability":"payable"},{"type":"function","name":"disputes","inputs":[{"name":"","type":"uint256","internalType":"uint256"}],"outputs":[{"name":"initiator","type":"address","internalType":"address"},{"name":"reason","type":"string","internalType":"string"},{"name":"openedAt","type":"uint256","internalType":"uint256"},{"name":"status","type":"uint8","internalType":"enum DisputeModule.DisputeStatus"}],"stateMutability":"view"},{"type":"function","name":"getDispute","inputs":[{"name":"_projectId","type":"uint256","internalType":"uint256"}],"outputs":[{"name":"","type":"address","internalType":"address"},{"name":"","type":"string","internalType":"string"},{"name":"","type":"uint256","internalType":"uint256"},{"name":"","type":"uint8","internalType":"enum DisputeModule.DisputeStatus"}],"stateMutability":"view"},{"type":"function","name":"getProject","inputs":[{"name":"_projectId","type":"uint256","internalType":"uint256"}],"outputs":[{"name":"client","type":"address","internalType":"address"},{"name":"artist","type":"address","internalType":"address"},{"name":"amount","type":"uint256","internalType":"uint256"},{"name":"released","type":"bool","internalType":"bool"},{"name":"validator","type":"address","internalType":"address"},{"name":"validated","type":"bool","internalType":"bool"},{"name":"milestoneCount","type":"uint256","internalType":"uint256"},{"name":"milestonesPaid","type":"uint256","internalType":"uint256"}],"stateMutability":"view"},{"type":"function","name":"openDispute","inputs":[{"name":"_projectId","type":"uint256","internalType":"uint256"},{"name":"_reason","type":"string","internalType":"string"}],"outputs":[],"stateMutability":"nonpayable"},{"type":"function","name":"projectCount","inputs":[],"outputs":[{"name":"","type":"uint256","internalType":"uint256"}],"stateMutability":"view"},{"type":"function","name":"projects","inputs":[{"name":"","type":"uint256","internalType":"uint256"}],"outputs":[{"name":"client","type":"address","internalType":"address"},{"name":"artist","type":"address","internalType":"address"},{"name":"amount","type":"uint256","internalType":"uint256"},{"name":"released","type":"bool","internalType":"bool"},{"name":"validator","type":"address","internalType":"address"},{"name":"validated","type":"bool","internalType":"bool"},{"name":"milestoneCount","type":"uint256","internalType":"uint256"},{"name":"milestonesPaid","type":"uint256","internalType":"uint256"}],"stateMutability":"view"},{"type":"function","name":"refundClient","inputs":[{"name":"_projectId","type":"uint256","internalType":"uint256"}],"outputs":[],"stateMutability":"nonpayable"},{"type":"function","name":"releaseAfterEvent","inputs":[{"name":"_projectId","type":"uint256","internalType":"uint256"}],"outputs":[],"stateMutability":"nonpayable"},{"type":"function","name":"releaseMilestone","inputs":[{"name":"_projectId","type":"uint256","internalType":"uint256"}],"outputs":[],"stateMutability":"nonpayable"},{"type":"function","name":"validateProject","inputs":[{"name":"_projectId","type":"uint256","internalType":"uint256"}],"outputs":[],"stateMutability":"nonpayable"},{"type":"event","name":"ClientRefunded","inputs":[{"name":"projectId","type":"uint256","indexed":false,"internalType":"uint256"},{"name":"client","type":"address","indexed":true,"internalType":"address"},{"name":"amount","type":"uint256","indexed":false,"internalType":"uint256"}],"anonymous":false},{"type":"event","name":"DisputeOpened","inputs":[{"name":"projectId","type":"uint256","indexed":true,"internalType":"uint256"},{"name":"initiator","type":"address","indexed":true,"internalType":"address"},{"name":"reason","type":"string","indexed":false,"internalType":"string"}],"anonymous":false},{"type":"event","name":"FundsDeposited","inputs":[{"name":"projectId","type":"uint256","indexed":false,"internalType":"uint256"},{"name":"client","type":"address","indexed":true,"internalType":"address"},{"name":"artist","type":"address","indexed":true,"internalType":"address"},{"name":"amount","type":"uint256","indexed":false,"internalType":"uint256"}],"anonymous":false},{"type":"event","name":"FundsRefunded","inputs":[{"name":"projectId","type":"uint256","indexed":false,"internalType":"uint256"},{"name":"client","type":"address","indexed":true,"internalType":"address"}],"anonymous":false},{"type":"event","name":"FundsReleased","inputs":[{"name":"projectId","type":"uint256","indexed":false,"internalType":"uint256"},{"name":"artist","type":"address","indexed":true,"internalType":"address"},{"name":"amount","type":"uint256","indexed":false,"internalType":"uint256"}],"anonymous":false},{"type":"event","name":"MilestoneReleased","inputs":[{"name":"projectId","type":"uint256","indexed":false,"internalType":"uint256"},{"name":"milestoneIndex","type":"uint256","indexed":false,"internalType":"uint256"},{"name":"amount","type":"uint256","indexed":false,"internalType":"uint256"}],"anonymous":false},{"type":"event","name":"ProjectValidated","inputs":[{"name":"projectId","type":"uint256","indexed":false,"internalType":"uint256"},{"name":"validator","type":"address","indexed":true,"internalType":"address"}],"anonymous":false},{"type":"event","name":"ValidatorAssigned","inputs":[{"name":"projectId","type":"uint256","indexed":false,"internalType":"uint256"},{"name":"validator","type":"address","indexed":true,"internalType":"address"}],"anonymous":false},{"type":"error","name":"ReentrancyGuardReentrantCall","inputs":[]}],"bytecode":{"object":"0x6080604052348015600e575f5ffd5b506001600281905550613422806100245f395ff3fe6080604052600436106100c1575f3560e01c8063564a565d1161007e578063cbcbc30511610058578063cbcbc30514610255578063e1e7cf841461027d578063e3a96cbd146102a5578063f0f3f2c8146102e4576100c1565b8063564a565d146101d25780635702146914610211578063921b004b14610239576100c1565b8063107046bd146100c5578063317debf51461010857806336f691c41461013057806336fbad261461015857806343eed51c146101825780634b561753146101aa575b5f5ffd5b3480156100d0575f5ffd5b506100eb60048036038101906100e691906121c4565b610327565b6040516100ff989796959493929190612257565b60405180910390f35b348015610113575f5ffd5b5061012e600480360381019061012991906121c4565b6103e1565b005b34801561013b575f5ffd5b506101566004803603810190610151919061240f565b61073a565b005b348015610163575f5ffd5b5061016c610a46565b6040516101799190612469565b60405180910390f35b34801561018d575f5ffd5b506101a860048036038101906101a391906121c4565b610a4c565b005b3480156101b5575f5ffd5b506101d060048036038101906101cb91906124ac565b610e13565b005b3480156101dd575f5ffd5b506101f860048036038101906101f391906121c4565b61110f565b60405161020894939291906125bd565b60405180910390f35b34801561021c575f5ffd5b50610237600480360381019061023291906121c4565b6111ec565b005b610253600480360381019061024e9190612607565b6114f6565b005b348015610260575f5ffd5b5061027b600480360381019061027691906121c4565b611832565b005b348015610288575f5ffd5b506102a3600480360381019061029e9190612680565b611b8b565b005b3480156102b0575f5ffd5b506102cb60048036038101906102c691906121c4565b611e07565b6040516102db94939291906125bd565b60405180910390f35b3480156102ef575f5ffd5b5061030a600480360381019061030591906121c4565b611f76565b60405161031e989796959493929190612257565b60405180910390f35b5f602052805f5260405f205f91509050805f015f9054906101000a900473ffffffffffffffffffffffffffffffffffffffff1690806001015f9054906101000a900473ffffffffffffffffffffffffffffffffffffffff1690806002015490806003015f9054906101000a900460ff16908060030160019054906101000a900473ffffffffffffffffffffffffffffffffffffffff16908060030160159054906101000a900460ff16908060040154908060050154905088565b6103e9612132565b805f73ffffffffffffffffffffffffffffffffffffffff165f5f8381526020019081526020015f205f015f9054906101000a900473ffffffffffffffffffffffffffffffffffffffff1673ffffffffffffffffffffffffffffffffffffffff1603610489576040517f08c379a00000000000000000000000000000000000000000000000000000000081526004016104809061271a565b60405180910390fd5b5f5f5f8481526020019081526020015f2090508060030160159054906101000a900460ff166104ed576040517f08c379a00000000000000000000000000000000000000000000000000000000081526004016104e4906127a8565b60405180910390fd5b8060040154816005015410610537576040517f08c379a000000000000000000000000000000000000000000000000000000000815260040161052e90612810565b60405180910390fd5b5f8160040154826002015461054c9190612888565b9050816005015f815480929190610562906128b8565b91905055508160040154826005015403610593576001826003015f6101000a81548160ff0219169083151502179055505b5f826001015f9054906101000a900473ffffffffffffffffffffffffffffffffffffffff1673ffffffffffffffffffffffffffffffffffffffff16826040516105db9061292c565b5f6040518083038185875af1925050503d805f8114610615576040519150601f19603f3d011682016040523d82523d5f602084013e61061a565b606091505b505090508061065e576040517f08c379a00000000000000000000000000000000000000000000000000000000081526004016106559061298a565b60405180910390fd5b7fd33fcd27cbfb73a2d9058c968b560ccb306500bf536133802048489ecc7355e985846005015484604051610695939291906129a8565b60405180910390a1826003015f9054906101000a900460ff161561072b57826001015f9054906101000a900473ffffffffffffffffffffffffffffffffffffffff1673ffffffffffffffffffffffffffffffffffffffff167f6e3c6096795c8298a218b2cfb8bde42726ff7c9a3d27b4d3ba41ab7f74feb5fb8685600201546040516107229291906129dd565b60405180910390a25b50505050610737612176565b50565b815f73ffffffffffffffffffffffffffffffffffffffff165f5f8381526020019081526020015f205f015f9054906101000a900473ffffffffffffffffffffffffffffffffffffffff1673ffffffffffffffffffffffffffffffffffffffff16036107da576040517f08c379a00000000000000000000000000000000000000000000000000000000081526004016107d19061271a565b60405180910390fd5b825f5f8281526020019081526020015f205f015f9054906101000a900473ffffffffffffffffffffffffffffffffffffffff1673ffffffffffffffffffffffffffffffffffffffff163373ffffffffffffffffffffffffffffffffffffffff161461087a576040517f08c379a000000000000000000000000000000000000000000000000000000000815260040161087190612a74565b60405180910390fd5b5f600281111561088d5761088c61254a565b5b60035f8681526020019081526020015f206003015f9054906101000a900460ff1660028111156108c0576108bf61254a565b5b14610900576040517f08c379a00000000000000000000000000000000000000000000000000000000081526004016108f790612adc565b60405180910390fd5b60405180608001604052803373ffffffffffffffffffffffffffffffffffffffff168152602001848152602001428152602001600160028111156109475761094661254a565b5b81525060035f8681526020019081526020015f205f820151815f015f6101000a81548173ffffffffffffffffffffffffffffffffffffffff021916908373ffffffffffffffffffffffffffffffffffffffff16021790555060208201518160010190816109b49190612cf7565b50604082015181600201556060820151816003015f6101000a81548160ff021916908360028111156109e9576109e861254a565b5b02179055509050503373ffffffffffffffffffffffffffffffffffffffff16847f9b58afa035c5fa58f85c5a54b65bd3562d5aa7679e973bc1404fe25e8babab2185604051610a389190612dc6565b60405180910390a350505050565b60015481565b610a54612132565b805f73ffffffffffffffffffffffffffffffffffffffff165f5f8381526020019081526020015f205f015f9054906101000a900473ffffffffffffffffffffffffffffffffffffffff1673ffffffffffffffffffffffffffffffffffffffff1603610af4576040517f08c379a0000000000000000000000000000000000000000000000000000000008152600401610aeb9061271a565b60405180910390fd5b815f5f8281526020019081526020015f205f015f9054906101000a900473ffffffffffffffffffffffffffffffffffffffff1673ffffffffffffffffffffffffffffffffffffffff163373ffffffffffffffffffffffffffffffffffffffff1614610b94576040517f08c379a0000000000000000000000000000000000000000000000000000000008152600401610b8b90612a74565b60405180910390fd5b5f5f5f8581526020019081526020015f209050806003015f9054906101000a900460ff1615610bf8576040517f08c379a0000000000000000000000000000000000000000000000000000000008152600401610bef90612e56565b60405180910390fd5b5f81600501541115610c3f576040517f08c379a0000000000000000000000000000000000000000000000000000000008152600401610c3690612ee4565b60405180910390fd5b5f816002015411610c85576040517f08c379a0000000000000000000000000000000000000000000000000000000008152600401610c7c90612f4c565b60405180910390fd5b5f816002015490505f825f015f9054906101000a900473ffffffffffffffffffffffffffffffffffffffff1690505f83600201819055505f8173ffffffffffffffffffffffffffffffffffffffff1683604051610ce19061292c565b5f6040518083038185875af1925050503d805f8114610d1b576040519150601f19603f3d011682016040523d82523d5f602084013e610d20565b606091505b5050905080610d64576040517f08c379a0000000000000000000000000000000000000000000000000000000008152600401610d5b9061298a565b60405180910390fd5b8173ffffffffffffffffffffffffffffffffffffffff167fd1c90c5ed8b35db630851dbe3ec20c8798b71354223bfe5a5527e84103e89d5b88604051610daa9190612469565b60405180910390a28173ffffffffffffffffffffffffffffffffffffffff167f710864ae79ae7195dbcaa0f79eef4a8f5b490696c2d588a27f4d69ce60ac01fc8885604051610dfa9291906129dd565b60405180910390a2505050505050610e10612176565b50565b815f73ffffffffffffffffffffffffffffffffffffffff165f5f8381526020019081526020015f205f015f9054906101000a900473ffffffffffffffffffffffffffffffffffffffff1673ffffffffffffffffffffffffffffffffffffffff1603610eb3576040517f08c379a0000000000000000000000000000000000000000000000000000000008152600401610eaa9061271a565b60405180910390fd5b825f5f8281526020019081526020015f205f015f9054906101000a900473ffffffffffffffffffffffffffffffffffffffff1673ffffffffffffffffffffffffffffffffffffffff163373ffffffffffffffffffffffffffffffffffffffff1614610f53576040517f08c379a0000000000000000000000000000000000000000000000000000000008152600401610f4a90612a74565b60405180910390fd5b5f5f5f8681526020019081526020015f2090505f73ffffffffffffffffffffffffffffffffffffffff168473ffffffffffffffffffffffffffffffffffffffff1603610fd4576040517f08c379a0000000000000000000000000000000000000000000000000000000008152600401610fcb90612fb4565b60405180910390fd5b806003015f9054906101000a900460ff1615611025576040517f08c379a000000000000000000000000000000000000000000000000000000000815260040161101c9061301c565b60405180910390fd5b8060030160159054906101000a900460ff1615611077576040517f08c379a000000000000000000000000000000000000000000000000000000000815260040161106e906130aa565b60405180910390fd5b838160030160016101000a81548173ffffffffffffffffffffffffffffffffffffffff021916908373ffffffffffffffffffffffffffffffffffffffff1602179055508373ffffffffffffffffffffffffffffffffffffffff167f74c722a7077ba48f1c4a1df3ad9df69eda5ffb9518fedba9bad9596305b8b95e866040516111009190612469565b60405180910390a25050505050565b6003602052805f5260405f205f91509050805f015f9054906101000a900473ffffffffffffffffffffffffffffffffffffffff169080600101805461115390612b27565b80601f016020809104026020016040519081016040528092919081815260200182805461117f90612b27565b80156111ca5780601f106111a1576101008083540402835291602001916111ca565b820191905f5260205f20905b8154815290600101906020018083116111ad57829003601f168201915b505050505090806002015490806003015f9054906101000a900460ff16905084565b805f73ffffffffffffffffffffffffffffffffffffffff165f5f8381526020019081526020015f205f015f9054906101000a900473ffffffffffffffffffffffffffffffffffffffff1673ffffffffffffffffffffffffffffffffffffffff160361128c576040517f08c379a00000000000000000000000000000000000000000000000000000000081526004016112839061271a565b60405180910390fd5b815f5f8281526020019081526020015f2060030160019054906101000a900473ffffffffffffffffffffffffffffffffffffffff1673ffffffffffffffffffffffffffffffffffffffff163373ffffffffffffffffffffffffffffffffffffffff161461132e576040517f08c379a000000000000000000000000000000000000000000000000000000000815260040161132590613138565b60405180910390fd5b5f5f8481526020019081526020015f2060030160159054906101000a900460ff161561138f576040517f08c379a0000000000000000000000000000000000000000000000000000000008152600401611386906131a0565b60405180910390fd5b5f5f5f8581526020019081526020015f209050806003015f9054906101000a900460ff16156113f3576040517f08c379a00000000000000000000000000000000000000000000000000000000081526004016113ea9061301c565b60405180910390fd5b5f73ffffffffffffffffffffffffffffffffffffffff168160030160019054906101000a900473ffffffffffffffffffffffffffffffffffffffff1673ffffffffffffffffffffffffffffffffffffffff1603611485576040517f08c379a000000000000000000000000000000000000000000000000000000000815260040161147c90613208565b60405180910390fd5b60018160030160156101000a81548160ff0219169083151502179055503373ffffffffffffffffffffffffffffffffffffffff167f84ffc84db0a14dc30a09c96c2dc65081ab5a1f28b1ec2543ec701b04ad161a9d856040516114e89190612469565b60405180910390a250505050565b5f73ffffffffffffffffffffffffffffffffffffffff168273ffffffffffffffffffffffffffffffffffffffff1603611564576040517f08c379a000000000000000000000000000000000000000000000000000000000815260040161155b90613270565b60405180910390fd5b5f34116115a6576040517f08c379a000000000000000000000000000000000000000000000000000000000815260040161159d906132d8565b60405180910390fd5b5f81116115e8576040517f08c379a00000000000000000000000000000000000000000000000000000000081526004016115df90613366565b60405180910390fd5b5f60015490506040518061010001604052803373ffffffffffffffffffffffffffffffffffffffff1681526020018473ffffffffffffffffffffffffffffffffffffffff1681526020013481526020015f151581526020015f73ffffffffffffffffffffffffffffffffffffffff1681526020015f151581526020018381526020015f8152505f5f8381526020019081526020015f205f820151815f015f6101000a81548173ffffffffffffffffffffffffffffffffffffffff021916908373ffffffffffffffffffffffffffffffffffffffff1602179055506020820151816001015f6101000a81548173ffffffffffffffffffffffffffffffffffffffff021916908373ffffffffffffffffffffffffffffffffffffffff160217905550604082015181600201556060820151816003015f6101000a81548160ff02191690831515021790555060808201518160030160016101000a81548173ffffffffffffffffffffffffffffffffffffffff021916908373ffffffffffffffffffffffffffffffffffffffff16021790555060a08201518160030160156101000a81548160ff02191690831515021790555060c0820151816004015560e0820151816005015590505060015f8154809291906117c1906128b8565b91905055508273ffffffffffffffffffffffffffffffffffffffff163373ffffffffffffffffffffffffffffffffffffffff167f862dfcd9710943e66ad8f1f01a99cc98ab5612a09e62ecc68f63fe2e0f86cb0e83346040516118259291906129dd565b60405180910390a3505050565b61183a612132565b805f73ffffffffffffffffffffffffffffffffffffffff165f5f8381526020019081526020015f205f015f9054906101000a900473ffffffffffffffffffffffffffffffffffffffff1673ffffffffffffffffffffffffffffffffffffffff16036118da576040517f08c379a00000000000000000000000000000000000000000000000000000000081526004016118d19061271a565b60405180910390fd5b5f5f5f8481526020019081526020015f2090508060030160159054906101000a900460ff1661193e576040517f08c379a0000000000000000000000000000000000000000000000000000000008152600401611935906127a8565b60405180910390fd5b8060040154816005015410611988576040517f08c379a000000000000000000000000000000000000000000000000000000000815260040161197f90612810565b60405180910390fd5b5f8160040154826002015461199d9190612888565b9050816005015f8154809291906119b3906128b8565b919050555081600401548260050154036119e4576001826003015f6101000a81548160ff0219169083151502179055505b5f826001015f9054906101000a900473ffffffffffffffffffffffffffffffffffffffff1673ffffffffffffffffffffffffffffffffffffffff1682604051611a2c9061292c565b5f6040518083038185875af1925050503d805f8114611a66576040519150601f19603f3d011682016040523d82523d5f602084013e611a6b565b606091505b5050905080611aaf576040517f08c379a0000000000000000000000000000000000000000000000000000000008152600401611aa69061298a565b60405180910390fd5b7fd33fcd27cbfb73a2d9058c968b560ccb306500bf536133802048489ecc7355e985846005015484604051611ae6939291906129a8565b60405180910390a1826003015f9054906101000a900460ff1615611b7c57826001015f9054906101000a900473ffffffffffffffffffffffffffffffffffffffff1673ffffffffffffffffffffffffffffffffffffffff167f6e3c6096795c8298a218b2cfb8bde42726ff7c9a3d27b4d3ba41ab7f74feb5fb868560020154604051611b739291906129dd565b60405180910390a25b50505050611b88612176565b50565b5f73ffffffffffffffffffffffffffffffffffffffff165f5f8581526020019081526020015f205f015f9054906101000a900473ffffffffffffffffffffffffffffffffffffffff1673ffffffffffffffffffffffffffffffffffffffff1614611c2a576040517f08c379a0000000000000000000000000000000000000000000000000000000008152600401611c21906133ce565b60405180910390fd5b6040518061010001604052803373ffffffffffffffffffffffffffffffffffffffff1681526020018373ffffffffffffffffffffffffffffffffffffffff1681526020015f81526020015f151581526020015f73ffffffffffffffffffffffffffffffffffffffff1681526020015f151581526020018281526020015f8152505f5f8581526020019081526020015f205f820151815f015f6101000a81548173ffffffffffffffffffffffffffffffffffffffff021916908373ffffffffffffffffffffffffffffffffffffffff1602179055506020820151816001015f6101000a81548173ffffffffffffffffffffffffffffffffffffffff021916908373ffffffffffffffffffffffffffffffffffffffff160217905550604082015181600201556060820151816003015f6101000a81548160ff02191690831515021790555060808201518160030160016101000a81548173ffffffffffffffffffffffffffffffffffffffff021916908373ffffffffffffffffffffffffffffffffffffffff16021790555060a08201518160030160156101000a81548160ff02191690831515021790555060c0820151816004015560e0820151816005015590505060015f815480929190611dfd906128b8565b9190505550505050565b5f60605f5f5f60035f8781526020019081526020015f206040518060800160405290815f82015f9054906101000a900473ffffffffffffffffffffffffffffffffffffffff1673ffffffffffffffffffffffffffffffffffffffff1673ffffffffffffffffffffffffffffffffffffffff168152602001600182018054611e8d90612b27565b80601f0160208091040260200160405190810160405280929190818152602001828054611eb990612b27565b8015611f045780601f10611edb57610100808354040283529160200191611f04565b820191905f5260205f20905b815481529060010190602001808311611ee757829003601f168201915b5050505050815260200160028201548152602001600382015f9054906101000a900460ff166002811115611f3b57611f3a61254a565b5b6002811115611f4d57611f4c61254a565b5b815250509050805f01518160200151826040015183606001519450945094509450509193509193565b5f5f5f5f5f5f5f5f5f5f5f8b81526020019081526020015f20604051806101000160405290815f82015f9054906101000a900473ffffffffffffffffffffffffffffffffffffffff1673ffffffffffffffffffffffffffffffffffffffff1673ffffffffffffffffffffffffffffffffffffffff168152602001600182015f9054906101000a900473ffffffffffffffffffffffffffffffffffffffff1673ffffffffffffffffffffffffffffffffffffffff1673ffffffffffffffffffffffffffffffffffffffff16815260200160028201548152602001600382015f9054906101000a900460ff161515151581526020016003820160019054906101000a900473ffffffffffffffffffffffffffffffffffffffff1673ffffffffffffffffffffffffffffffffffffffff1673ffffffffffffffffffffffffffffffffffffffff1681526020016003820160159054906101000a900460ff16151515158152602001600482015481526020016005820154815250509050805f015181602001518260400151836060015184608001518560a001518660c001518760e001519850985098509850985098509850985050919395975091939597565b600280540361216d576040517f3ee5aeb500000000000000000000000000000000000000000000000000000000815260040160405180910390fd5b60028081905550565b6001600281905550565b5f604051905090565b5f5ffd5b5f5ffd5b5f819050919050565b6121a381612191565b81146121ad575f5ffd5b50565b5f813590506121be8161219a565b92915050565b5f602082840312156121d9576121d8612189565b5b5f6121e6848285016121b0565b91505092915050565b5f73ffffffffffffffffffffffffffffffffffffffff82169050919050565b5f612218826121ef565b9050919050565b6122288161220e565b82525050565b61223781612191565b82525050565b5f8115159050919050565b6122518161223d565b82525050565b5f6101008201905061226b5f83018b61221f565b612278602083018a61221f565b612285604083018961222e565b6122926060830188612248565b61229f608083018761221f565b6122ac60a0830186612248565b6122b960c083018561222e565b6122c660e083018461222e565b9998505050505050505050565b5f5ffd5b5f5ffd5b5f601f19601f8301169050919050565b7f4e487b71000000000000000000000000000000000000000000000000000000005f52604160045260245ffd5b612321826122db565b810181811067ffffffffffffffff821117156123405761233f6122eb565b5b80604052505050565b5f612352612180565b905061235e8282612318565b919050565b5f67ffffffffffffffff82111561237d5761237c6122eb565b5b612386826122db565b9050602081019050919050565b828183375f83830152505050565b5f6123b36123ae84612363565b612349565b9050828152602081018484840111156123cf576123ce6122d7565b5b6123da848285612393565b509392505050565b5f82601f8301126123f6576123f56122d3565b5b81356124068482602086016123a1565b91505092915050565b5f5f6040838503121561242557612424612189565b5b5f612432858286016121b0565b925050602083013567ffffffffffffffff8111156124535761245261218d565b5b61245f858286016123e2565b9150509250929050565b5f60208201905061247c5f83018461222e565b92915050565b61248b8161220e565b8114612495575f5ffd5b50565b5f813590506124a681612482565b92915050565b5f5f604083850312156124c2576124c1612189565b5b5f6124cf858286016121b0565b92505060206124e085828601612498565b9150509250929050565b5f81519050919050565b5f82825260208201905092915050565b8281835e5f83830152505050565b5f61251c826124ea565b61252681856124f4565b9350612536818560208601612504565b61253f816122db565b840191505092915050565b7f4e487b71000000000000000000000000000000000000000000000000000000005f52602160045260245ffd5b600381106125885761258761254a565b5b50565b5f81905061259882612577565b919050565b5f6125a78261258b565b9050919050565b6125b78161259d565b82525050565b5f6080820190506125d05f83018761221f565b81810360208301526125e28186612512565b90506125f1604083018561222e565b6125fe60608301846125ae565b95945050505050565b5f5f6040838503121561261d5761261c612189565b5b5f61262a85828601612498565b925050602061263b858286016121b0565b9150509250929050565b5f61264f826121ef565b9050919050565b61265f81612645565b8114612669575f5ffd5b50565b5f8135905061267a81612656565b92915050565b5f5f5f6060848603121561269757612696612189565b5b5f6126a4868287016121b0565b93505060206126b58682870161266c565b92505060406126c6868287016121b0565b9150509250925092565b7f4572726f723a2050726f6a65637420646f6573206e6f742065786973742e00005f82015250565b5f612704601e836124f4565b915061270f826126d0565b602082019050919050565b5f6020820190508181035f830152612731816126f8565b9050919050565b7f4572726f723a2050726f6a656374206d7573742062652076616c6964617465645f8201527f206265666f72652072656c656173696e672066756e6473000000000000000000602082015250565b5f6127926037836124f4565b915061279d82612738565b604082019050919050565b5f6020820190508181035f8301526127bf81612786565b9050919050565b7f4572726f723a20416c6c206d696c6573746f6e657320706169642e00000000005f82015250565b5f6127fa601b836124f4565b9150612805826127c6565b602082019050919050565b5f6020820190508181035f830152612827816127ee565b9050919050565b7f4e487b71000000000000000000000000000000000000000000000000000000005f52601260045260245ffd5b7f4e487b71000000000000000000000000000000000000000000000000000000005f52601160045260245ffd5b5f61289282612191565b915061289d83612191565b9250826128ad576128ac61282e565b5b828204905092915050565b5f6128c282612191565b91507fffffffffffffffffffffffffffffffffffffffffffffffffffffffffffffffff82036128f4576128f361285b565b5b600182019050919050565b5f81905092915050565b50565b5f6129175f836128ff565b915061292282612909565b5f82019050919050565b5f6129368261290c565b9150819050919050565b7f5472616e73666572206661696c65642e000000000000000000000000000000005f82015250565b5f6129746010836124f4565b915061297f82612940565b602082019050919050565b5f6020820190508181035f8301526129a181612968565b9050919050565b5f6060820190506129bb5f83018661222e565b6129c8602083018561222e565b6129d5604083018461222e565b949350505050565b5f6040820190506129f05f83018561222e565b6129fd602083018461222e565b9392505050565b7f4572726f723a204f6e6c792074686520636c69656e742063616e20706572666f5f8201527f726d207468697320616374696f6e2e0000000000000000000000000000000000602082015250565b5f612a5e602f836124f4565b9150612a6982612a04565b604082019050919050565b5f6020820190508181035f830152612a8b81612a52565b9050919050565b7f4469737075746520616c726561647920657869737473000000000000000000005f82015250565b5f612ac66016836124f4565b9150612ad182612a92565b602082019050919050565b5f6020820190508181035f830152612af381612aba565b9050919050565b7f4e487b71000000000000000000000000000000000000000000000000000000005f52602260045260245ffd5b5f6002820490506001821680612b3e57607f821691505b602082108103612b5157612b50612afa565b5b50919050565b5f819050815f5260205f209050919050565b5f6020601f8301049050919050565b5f82821b905092915050565b5f60088302612bb37fffffffffffffffffffffffffffffffffffffffffffffffffffffffffffffffff82612b78565b612bbd8683612b78565b95508019841693508086168417925050509392505050565b5f819050919050565b5f612bf8612bf3612bee84612191565b612bd5565b612191565b9050919050565b5f819050919050565b612c1183612bde565b612c25612c1d82612bff565b848454612b84565b825550505050565b5f5f905090565b612c3c612c2d565b612c47818484612c08565b505050565b5b81811015612c6a57612c5f5f82612c34565b600181019050612c4d565b5050565b601f821115612caf57612c8081612b57565b612c8984612b69565b81016020851015612c98578190505b612cac612ca485612b69565b830182612c4c565b50505b505050565b5f82821c905092915050565b5f612ccf5f1984600802612cb4565b1980831691505092915050565b5f612ce78383612cc0565b9150826002028217905092915050565b612d00826124ea565b67ffffffffffffffff811115612d1957612d186122eb565b5b612d238254612b27565b612d2e828285612c6e565b5f60209050601f831160018114612d5f575f8415612d4d578287015190505b612d578582612cdc565b865550612dbe565b601f198416612d6d86612b57565b5f5b82811015612d9457848901518255600182019150602085019450602081019050612d6f565b86831015612db15784890151612dad601f891682612cc0565b8355505b6001600288020188555050505b505050505050565b5f6020820190508181035f830152612dde8184612512565b905092915050565b7f4572726f723a2043616e6e6f7420726566756e642061667465722066756c6c205f8201527f72656c6561736500000000000000000000000000000000000000000000000000602082015250565b5f612e406027836124f4565b9150612e4b82612de6565b604082019050919050565b5f6020820190508181035f830152612e6d81612e34565b9050919050565b7f4572726f723a2043616e6e6f7420726566756e642061667465722070617274695f8201527f616c2072656c6561736500000000000000000000000000000000000000000000602082015250565b5f612ece602a836124f4565b9150612ed982612e74565b604082019050919050565b5f6020820190508181035f830152612efb81612ec2565b9050919050565b7f4572726f723a204e6f2066756e647320746f20726566756e642e0000000000005f82015250565b5f612f36601a836124f4565b9150612f4182612f02565b602082019050919050565b5f6020820190508181035f830152612f6381612f2a565b9050919050565b7f496e76616c69642076616c696461746f7220616464726573732e0000000000005f82015250565b5f612f9e601a836124f4565b9150612fa982612f6a565b602082019050919050565b5f6020820190508181035f830152612fcb81612f92565b9050919050565b7f46756e647320616c72656164792072656c65617365642e0000000000000000005f82015250565b5f6130066017836124f4565b915061301182612fd2565b602082019050919050565b5f6020820190508181035f83015261303381612ffa565b9050919050565b7f43616e6e6f74206368616e67652076616c696461746f722061667465722076615f8201527f6c69646174696f6e2e0000000000000000000000000000000000000000000000602082015250565b5f6130946029836124f4565b915061309f8261303a565b604082019050919050565b5f6020820190508181035f8301526130c181613088565b9050919050565b7f4572726f723a204f6e6c79207468652061737369676e65642076616c696461745f8201527f6f722063616e20706572666f726d207468697320616374696f6e2e0000000000602082015250565b5f613122603b836124f4565b915061312d826130c8565b604082019050919050565b5f6020820190508181035f83015261314f81613116565b9050919050565b7f50726f6a65637420616c72656164792076616c6964617465642e0000000000005f82015250565b5f61318a601a836124f4565b915061319582613156565b602082019050919050565b5f6020820190508181035f8301526131b78161317e565b9050919050565b7f4e6f2076616c696461746f722061737369676e65642e000000000000000000005f82015250565b5f6131f26016836124f4565b91506131fd826131be565b602082019050919050565b5f6020820190508181035f83015261321f816131e6565b9050919050565b7f496e76616c6964206172746973742061646472657373000000000000000000005f82015250565b5f61325a6016836124f4565b915061326582613226565b602082019050919050565b5f6020820190508181035f8301526132878161324e565b9050919050565b7f416d6f756e74206d757374206265203e203000000000000000000000000000005f82015250565b5f6132c26012836124f4565b91506132cd8261328e565b602082019050919050565b5f6020820190508181035f8301526132ef816132b6565b9050919050565b7f4d696c6573746f6e6520636f756e74206d7573742062652067726561746572205f8201527f7468616e207a65726f0000000000000000000000000000000000000000000000602082015250565b5f6133506029836124f4565b915061335b826132f6565b604082019050919050565b5f6020820190508181035f83015261337d81613344565b9050919050565b7f50726f6a65637420616c726561647920657869737473000000000000000000005f82015250565b5f6133b86016836124f4565b91506133c382613384565b602082019050919050565b5f6020820190508181035f8301526133e5816133ac565b905091905056fea26469706673582212206124438d61df2b577e6681643583e9713b9bc3463057a1da1eefbf308fdcf8c264736f6c634300081c0033","linkReferences":{}},"methodIdentifiers":{"addValidator(uint256,address)":"4b561753","createProject(uint256,address,uint256)":"e1e7cf84","depositFunds(address,uint256)":"921b004b","disputes(uint256)":"564a565d","getDispute(uint256)":"e3a96cbd","getProject(uint256)":"f0f3f2c8","openDispute(uint256,string)":"36f691c4","projectCount()":"36fbad26","projects(uint256)":"107046bd","refundClient(uint256)":"43eed51c","releaseAfterEvent(uint256)":"cbcbc305","releaseMilestone(uint256)":"317debf5","validateProject(uint256)":"57021469"},"id":0}