{"abi":[{"type":"constructor","inputs":[],"stateMutability":"nonpayable"},{"type":"function","name":"REQUIRED_KYC_LEVEL","inputs":[],"outputs":[{"name":"","type":"uint256","internalType":"uint256"}],"stateMutability":"view"},{"type":"function","name":"addValidator","inputs":[{"name":"_projectId","type":"uint256","internalType":"uint256"},{"name":"_validator","type":"address","internalType":"address"}],"outputs":[],"stateMutability":"nonpayable"},{"type":"function","name":"createProject","inputs":[{"name":"_projectId","type":"uint256","internalType":"uint256"},{"name":"_artist","type":"address","internalType":"address payable"},{"name":"_milestoneCount","type":"uint256","internalType":"uint256"}],"outputs":[],"stateMutability":"nonpayable"},{"type":"function","name":"depositFunds","inputs":[{"name":"_artist","type":"address","internalType":"address"},{"name":"_milestoneCount","type":"uint256","internalType":"uint256"}],"outputs":[],"stateMutability":"payable"},{"type":"function","name":"disputes","inputs":[{"name":"","type":"uint256","internalType":"uint256"}],"outputs":[{"name":"initiator","type":"address","internalType":"address"},{"name":"reason","type":"string","internalType":"string"},{"name":"openedAt","type":"uint256","internalType":"uint256"},{"name":"status","type":"uint8","internalType":"enum DisputeModule.DisputeStatus"}],"stateMutability":"view"},{"type":"function","name":"fallbackModule","inputs":[],"outputs":[{"name":"","type":"address","internalType":"contract IFallbackModule"}],"stateMutability":"view"},{"type":"function","name":"forteCompliance","inputs":[],"outputs":[{"name":"","type":"address","internalType":"contract IForteCompliance"}],"stateMutability":"view"},{"type":"function","name":"forteRules","inputs":[],"outputs":[{"name":"","type":"address","internalType":"contract IForteRules"}],"stateMutability":"view"},{"type":"function","name":"getDispute","inputs":[{"name":"_projectId","type":"uint256","internalType":"uint256"}],"outputs":[{"name":"initiator","type":"address","internalType":"address"},{"name":"reason","type":"string","internalType":"string"},{"name":"openedAt","type":"uint256","internalType":"uint256"},{"name":"status","type":"uint8","internalType":"enum DisputeModule.DisputeStatus"}],"stateMutability":"view"},{"type":"function","name":"getOracle","inputs":[],"outputs":[{"name":"","type":"address","internalType":"contract IOracle"}],"stateMutability":"view"},{"type":"function","name":"getProject","inputs":[{"name":"_projectId","type":"uint256","internalType":"uint256"}],"outputs":[{"name":"client","type":"address","internalType":"address"},{"name":"artist","type":"address","internalType":"address"},{"name":"amount","type":"uint256","internalType":"uint256"},{"name":"released","type":"bool","internalType":"bool"},{"name":"validator","type":"address","internalType":"address"},{"name":"validated","type":"bool","internalType":"bool"},{"name":"milestoneCount","type":"uint256","internalType":"uint256"},{"name":"milestonesPaid","type":"uint256","internalType":"uint256"},{"name":"useFallback","type":"bool","internalType":"bool"},{"name":"fallbackDelay","type":"uint256","internalType":"uint256"},{"name":"useSignature","type":"bool","internalType":"bool"},{"name":"createdAt","type":"uint256","internalType":"uint256"}],"stateMutability":"view"},{"type":"function","name":"isKYCApproved","inputs":[{"name":"user","type":"address","internalType":"address"}],"outputs":[{"name":"","type":"bool","internalType":"bool"}],"stateMutability":"view"},{"type":"function","name":"openDispute","inputs":[{"name":"_projectId","type":"uint256","internalType":"uint256"},{"name":"_reason","type":"string","internalType":"string"}],"outputs":[],"stateMutability":"nonpayable"},{"type":"function","name":"oracle","inputs":[],"outputs":[{"name":"","type":"address","internalType":"contract IOracle"}],"stateMutability":"view"},{"type":"function","name":"owner","inputs":[],"outputs":[{"name":"","type":"address","internalType":"address"}],"stateMutability":"view"},{"type":"function","name":"pause","inputs":[],"outputs":[],"stateMutability":"nonpayable"},{"type":"function","name":"paused","inputs":[],"outputs":[{"name":"","type":"bool","internalType":"bool"}],"stateMutability":"view"},{"type":"function","name":"projectConfigs","inputs":[{"name":"","type":"uint256","internalType":"uint256"}],"outputs":[{"name":"useForteRules","type":"bool","internalType":"bool"},{"name":"useFallback","type":"bool","internalType":"bool"},{"name":"useSignature","type":"bool","internalType":"bool"}],"stateMutability":"view"},{"type":"function","name":"projectCount","inputs":[],"outputs":[{"name":"","type":"uint256","internalType":"uint256"}],"stateMutability":"view"},{"type":"function","name":"projects","inputs":[{"name":"","type":"uint256","internalType":"uint256"}],"outputs":[{"name":"client","type":"address","internalType":"address"},{"name":"artist","type":"address","internalType":"address"},{"name":"amount","type":"uint256","internalType":"uint256"},{"name":"released","type":"bool","internalType":"bool"},{"name":"validator","type":"address","internalType":"address"},{"name":"validated","type":"bool","internalType":"bool"},{"name":"milestoneCount","type":"uint256","internalType":"uint256"},{"name":"milestonesPaid","type":"uint256","internalType":"uint256"},{"name":"useFallback","type":"bool","internalType":"bool"},{"name":"fallbackDelay","type":"uint256","internalType":"uint256"},{"name":"useSignature","type":"bool","internalType":"bool"},{"name":"createdAt","type":"uint256","internalType":"uint256"}],"stateMutability":"view"},{"type":"function","name":"refundClient","inputs":[{"name":"_projectId","type":"uint256","internalType":"uint256"}],"outputs":[],"stateMutability":"nonpayable"},{"type":"function","name":"releaseAfterEvent","inputs":[{"name":"_projectId","type":"uint256","internalType":"uint256"}],"outputs":[],"stateMutability":"nonpayable"},{"type":"function","name":"releaseMilestone","inputs":[{"name":"projectId","type":"uint256","internalType":"uint256"}],"outputs":[],"stateMutability":"nonpayable"},{"type":"function","name":"renounceOwnership","inputs":[],"outputs":[],"stateMutability":"nonpayable"},{"type":"function","name":"rulesModule","inputs":[],"outputs":[{"name":"","type":"address","internalType":"address"}],"stateMutability":"view"},{"type":"function","name":"rulesetIds","inputs":[{"name":"","type":"uint256","internalType":"uint256"}],"outputs":[{"name":"","type":"uint256","internalType":"uint256"}],"stateMutability":"view"},{"type":"function","name":"setFallbackModule","inputs":[{"name":"_addr","type":"address","internalType":"address"}],"outputs":[],"stateMutability":"nonpayable"},{"type":"function","name":"setForteCompliance","inputs":[{"name":"_compliance","type":"address","internalType":"address"}],"outputs":[],"stateMutability":"nonpayable"},{"type":"function","name":"setForteRulesModule","inputs":[{"name":"_addr","type":"address","internalType":"address"}],"outputs":[],"stateMutability":"nonpayable"},{"type":"function","name":"setOracle","inputs":[{"name":"_oracle","type":"address","internalType":"address"}],"outputs":[],"stateMutability":"nonpayable"},{"type":"function","name":"setOracleOverride","inputs":[{"name":"o","type":"address","internalType":"contract IOracle"}],"outputs":[],"stateMutability":"nonpayable"},{"type":"function","name":"setProjectConfig","inputs":[{"name":"_projectId","type":"uint256","internalType":"uint256"},{"name":"_useForte","type":"bool","internalType":"bool"},{"name":"_useFallback","type":"bool","internalType":"bool"},{"name":"_useSig","type":"bool","internalType":"bool"}],"outputs":[],"stateMutability":"nonpayable"},{"type":"function","name":"setRulesModule","inputs":[{"name":"_addr","type":"address","internalType":"address"}],"outputs":[],"stateMutability":"nonpayable"},{"type":"function","name":"setRulesetId","inputs":[{"name":"projectId","type":"uint256","internalType":"uint256"},{"name":"rulesetId","type":"uint256","internalType":"uint256"}],"outputs":[],"stateMutability":"nonpayable"},{"type":"function","name":"setSignatureModule","inputs":[{"name":"_addr","type":"address","internalType":"address"}],"outputs":[],"stateMutability":"nonpayable"},{"type":"function","name":"signatureModule","inputs":[],"outputs":[{"name":"","type":"address","internalType":"contract ISignatureModule"}],"stateMutability":"view"},{"type":"function","name":"transferOwnership","inputs":[{"name":"newOwner","type":"address","internalType":"address"}],"outputs":[],"stateMutability":"nonpayable"},{"type":"function","name":"unpause","inputs":[],"outputs":[],"stateMutability":"nonpayable"},{"type":"function","name":"validateProject","inputs":[{"name":"_projectId","type":"uint256","internalType":"uint256"}],"outputs":[],"stateMutability":"nonpayable"},{"type":"event","name":"ClientRefunded","inputs":[{"name":"projectId","type":"uint256","indexed":false,"internalType":"uint256"},{"name":"client","type":"address","indexed":true,"internalType":"address"},{"name":"amount","type":"uint256","indexed":false,"internalType":"uint256"}],"anonymous":false},{"type":"event","name":"DisputeOpened","inputs":[{"name":"projectId","type":"uint256","indexed":true,"internalType":"uint256"},{"name":"initiator","type":"address","indexed":true,"internalType":"address"},{"name":"reason","type":"string","indexed":false,"internalType":"string"}],"anonymous":false},{"type":"event","name":"FundsDeposited","inputs":[{"name":"projectId","type":"uint256","indexed":false,"internalType":"uint256"},{"name":"client","type":"address","indexed":true,"internalType":"address"},{"name":"artist","type":"address","indexed":true,"internalType":"address"},{"name":"amount","type":"uint256","indexed":false,"internalType":"uint256"}],"anonymous":false},{"type":"event","name":"FundsRefunded","inputs":[{"name":"projectId","type":"uint256","indexed":false,"internalType":"uint256"},{"name":"client","type":"address","indexed":true,"internalType":"address"}],"anonymous":false},{"type":"event","name":"FundsReleased","inputs":[{"name":"projectId","type":"uint256","indexed":false,"internalType":"uint256"},{"name":"artist","type":"address","indexed":true,"internalType":"address"},{"name":"amount","type":"uint256","indexed":false,"internalType":"uint256"}],"anonymous":false},{"type":"event","name":"MilestoneReleased","inputs":[{"name":"projectId","type":"uint256","indexed":false,"internalType":"uint256"},{"name":"milestoneIndex","type":"uint256","indexed":false,"internalType":"uint256"},{"name":"amount","type":"uint256","indexed":false,"internalType":"uint256"}],"anonymous":false},{"type":"event","name":"OwnershipTransferred","inputs":[{"name":"previousOwner","type":"address","indexed":true,"internalType":"address"},{"name":"newOwner","type":"address","indexed":true,"internalType":"address"}],"anonymous":false},{"type":"event","name":"Paused","inputs":[{"name":"account","type":"address","indexed":false,"internalType":"address"}],"anonymous":false},{"type":"event","name":"ProjectValidated","inputs":[{"name":"projectId","type":"uint256","indexed":false,"internalType":"uint256"},{"name":"validator","type":"address","indexed":true,"internalType":"address"}],"anonymous":false},{"type":"event","name":"Unpaused","inputs":[{"name":"account","type":"address","indexed":false,"internalType":"address"}],"anonymous":false},{"type":"event","name":"ValidatorAssigned","inputs":[{"name":"projectId","type":"uint256","indexed":false,"internalType":"uint256"},{"name":"validator","type":"address","indexed":true,"internalType":"address"}],"anonymous":false},{"type":"error","name":"AllMilestonesPaid","inputs":[]},{"type":"error","name":"AmountMustBeDivisibleByMilestoneCount","inputs":[]},{"type":"error","name":"AmountMustBeGreaterThanZero","inputs":[]},{"type":"error","name":"CannotChangeValidatorAfterValidation","inputs":[]},{"type":"error","name":"CannotRefundAfterFullRelease","inputs":[]},{"type":"error","name":"CannotRefundAfterPartialRelease","inputs":[]},{"type":"error","name":"FundsAlreadyReleased","inputs":[]},{"type":"error","name":"InvalidArtistAddress","inputs":[]},{"type":"error","name":"InvalidValidatorAddress","inputs":[]},{"type":"error","name":"KYCNotApproved","inputs":[]},{"type":"error","name":"MilestoneCountMustBeGreaterThanZero","inputs":[]},{"type":"error","name":"NoFundsToRefund","inputs":[]},{"type":"error","name":"OnlyAssignedValidator","inputs":[]},{"type":"error","name":"OnlyClient","inputs":[]},{"type":"error","name":"OwnableInvalidOwner","inputs":[{"name":"owner","type":"address","internalType":"address"}]},{"type":"error","name":"OwnableUnauthorizedAccount","inputs":[{"name":"account","type":"address","internalType":"address"}]},{"type":"error","name":"PriceTooLowSimple","inputs":[]},{"type":"error","name":"ProjectAlreadyValidated","inputs":[]},{"type":"error","name":"ProjectDoesNotExist","inputs":[]},{"type":"error","name":"ProjectMustBeValidated","inputs":[]},{"type":"error","name":"ReentrancyGuardReentrantCall","inputs":[]},{"type":"error","name":"TransferFailedSimple","inputs":[]},{"type":"error","name":"ValidatorNotAssigned","inputs":[]}],"bytecode":{"object":"0x60806040523461002757610011610036565b61001961002c565b614dc661033c8239614dc690f35b610032565b60405190565b5f80fd5b61003f33610041565b565b61004a9061004c565b565b61005590610057565b565b610060906100ee565b565b90565b90565b90565b61007f61007a61008492610062565b610068565b610065565b90565b610091600161006b565b90565b5f1b90565b906100a55f1991610094565b9181191691161790565b6100c36100be6100c892610065565b610068565b610065565b90565b90565b906100e36100de6100ea926100af565b6100cb565b8254610099565b9055565b6100f79061010b565b610109610102610087565b60046100ce565b565b61011490610169565b565b60a01b90565b9061012b60ff60a01b91610116565b9181191691161790565b151590565b61014390610135565b90565b90565b9061015e6101596101659261013a565b610146565b825461011c565b9055565b610172906101e2565b61017c5f5f610149565b565b90565b60018060a01b031690565b6101a061019b6101a59261017e565b610068565b610181565b90565b6101b19061018c565b90565b6101bd90610181565b90565b6101c9906101b4565b9052565b91906101e0905f602085019401906101c0565b565b806101fd6101f76101f25f6101a8565b6101b4565b916101b4565b1461020d5761020b906102dc565b565b6102306102195f6101a8565b5f918291631e4fbdf760e01b8352600483016101cd565b0390fd5b5f1c90565b60018060a01b031690565b61025061025591610234565b610239565b90565b6102629054610244565b90565b9061027660018060a01b0391610094565b9181191691161790565b61029461028f61029992610181565b610068565b610181565b90565b6102a590610280565b90565b6102b19061029c565b90565b90565b906102cc6102c76102d3926102a8565b6102b4565b8254610265565b9055565b5f0190565b6102e55f610258565b6102ef825f6102b7565b9061032361031d7f8be0079c531659141344cd1fd0a4f28419497f9722a3daafe3b4186f6b6457e0936102a8565b916102a8565b9161032c61002c565b80610336816102d7565b0390a356fe60806040526004361015610013575b611740565b61001d5f3561028c565b80630d01e5ef14610287578063107046bd14610282578063117159ca1461027d5780631c2c936f14610278578063216a631314610273578063235b97c91461026e5780632be550ce14610269578063317debf51461026457806331e709dc1461025f57806336f691c41461025a57806336fbad26146102555780633f4ba83a1461025057806343eed51c1461024b5780634b561753146102465780634d3f8fb814610241578063564a565d1461023c578063570214691461023757806357b91efb146102325780635c975abb1461022d57806368f98317146102285780636c56db5e14610223578063715018a61461021e5780637adbf973146102195780637dc0d1d014610214578063833b1fce1461020f5780638456cb591461020a5780638da5cb5b14610205578063921b004b14610200578063950c04f4146101fb578063cbcbc305146101f6578063d23d4222146101f1578063e1e7cf84146101ec578063e3a96cbd146101e7578063e77db232146101e2578063efa04726146101dd578063f0f3f2c8146101d8578063f2fde38b146101d3578063f6ce28bd146101ce5763f8ec8b300361000e5761170d565b6116d6565b61163a565b6115f5565b6115c0565b61151d565b6114e4565b6114b0565b611414565b611394565b611360565b611309565b6112a7565b611274565b61123f565b61120a565b611169565b611136565b611103565b6110d0565b61109b565b611053565b611020565b610fe7565b610d57565b610cd9565b610c79565b610c46565b610c11565b610bce565b610a66565b610973565b61093e565b61089b565b61082f565b61078c565b6106ed565b6105ff565b610301565b60e01c90565b60405190565b5f80fd5b5f80fd5b5f80fd5b60018060a01b031690565b6102b8906102a4565b90565b6102c4816102af565b036102cb57565b5f80fd5b905035906102dc826102bb565b565b906020828203126102f7576102f4915f016102cf565b90565b61029c565b5f0190565b3461032f576103196103143660046102de565b6118a1565b610321610292565b8061032b816102fc565b0390f35b610298565b90565b61034081610334565b0361034757565b5f80fd5b9050359061035882610337565b565b9060208282031261037357610370915f0161034b565b90565b61029c565b90565b61038f61038a61039492610334565b610378565b610334565b90565b906103a19061037b565b5f5260205260405f2090565b5f1c90565b60018060a01b031690565b6103c96103ce916103ad565b6103b2565b90565b6103db90546103bd565b90565b90565b6103ed6103f2916103ad565b6103de565b90565b6103ff90546103e1565b90565b60ff1690565b610414610419916103ad565b610402565b90565b6104269054610408565b90565b60081c90565b61043b61044091610429565b6103b2565b90565b61044d905461042f565b90565b60a81c90565b61046261046791610450565b610402565b90565b6104749054610456565b90565b610482906001610397565b9061048e5f83016103d1565b9161049b600182016103d1565b916104a8600283016103f5565b916104b56003820161041c565b916104c260038301610443565b916104cf6003820161046a565b916104dc600483016103f5565b916104e9600582016103f5565b916104f66006830161041c565b91610503600782016103f5565b9161051c60096105156008850161041c565b93016103f5565b90565b610528906102af565b9052565b61053590610334565b9052565b151590565b61054790610539565b9052565b99979593919c9b9a98969492909c6101808b019d5f8c0161056b9161051f565b60208b016105789161051f565b60408a016105859161052c565b606089016105929161053e565b6080880161059f9161051f565b60a087016105ac9161053e565b60c086016105b99161052c565b60e085016105c69161052c565b61010084016105d49161053e565b61012083016105e29161052c565b61014082016105f09161053e565b610160016105fd9161052c565b565b3461063f5761063b61061a61061536600461035a565b610477565b986106329c9a9c989198979297969396959495610292565b9c8d9c8d61054b565b0390f35b610298565b5f91031261064e57565b61029c565b1c90565b60018060a01b031690565b6106729060086106779302610653565b610657565b90565b906106859154610662565b90565b61069460085f9061067a565b90565b6106ab6106a66106b0926102a4565b610378565b6102a4565b90565b6106bc90610697565b90565b6106c8906106b3565b90565b6106d4906106bf565b9052565b91906106eb905f602085019401906106cb565b565b3461071d576106fd366004610644565b610719610708610688565b610710610292565b918291826106d8565b0390f35b610298565b9061072c9061037b565b5f5260205260405f2090565b61074890600861074d9302610653565b6103de565b90565b9061075b9154610738565b90565b6107749061076f600a915f92610722565b610750565b90565b919061078a905f6020850194019061052c565b565b346107bc576107b86107a76107a236600461035a565b61075e565b6107af610292565b91829182610777565b0390f35b610298565b60018060a01b031690565b6107dc9060086107e19302610653565b6107c1565b90565b906107ef91546107cc565b90565b6107fe60065f906107e4565b90565b61080a906106b3565b90565b61081690610801565b9052565b919061082d905f6020850194019061080d565b565b3461085f5761083f366004610644565b61085b61084a6107f2565b610852610292565b9182918261081a565b0390f35b610298565b90565b61087b61087661088092610864565b610378565b610334565b90565b61088d6003610867565b90565b610898610883565b90565b346108cb576108ab366004610644565b6108c76108b6610890565b6108be610292565b91829182610777565b0390f35b610298565b60018060a01b031690565b6108eb9060086108f09302610653565b6108d0565b90565b906108fe91546108db565b90565b61090d60035f906108f3565b90565b610919906106b3565b90565b61092590610910565b9052565b919061093c905f6020850194019061091c565b565b3461096e5761094e366004610644565b61096a610959610901565b610961610292565b91829182610929565b0390f35b610298565b346109a15761098b61098636600461035a565b612276565b610993610292565b8061099d816102fc565b0390f35b610298565b906109b09061037b565b5f5260205260405f2090565b6109c86109cd91610429565b610402565b90565b6109da90546109bc565b90565b60101c90565b6109ef6109f4916109dd565b610402565b90565b610a0190546109e3565b90565b610a0f90600d6109a6565b610a1a5f820161041c565b91610a315f610a2a8185016109d0565b93016109f7565b90565b604090610a5d610a649496959396610a5360608401985f85019061053e565b602083019061053e565b019061053e565b565b34610a9957610a95610a81610a7c36600461035a565b610a04565b610a8c939193610292565b93849384610a34565b0390f35b610298565b5f80fd5b5f80fd5b601f801991011690565b634e487b7160e01b5f52604160045260245ffd5b90610ace90610aa6565b810190811067ffffffffffffffff821117610ae857604052565b610ab0565b90610b00610af9610292565b9283610ac4565b565b67ffffffffffffffff8111610b2057610b1c602091610aa6565b0190565b610ab0565b90825f939282370152565b90929192610b45610b4082610b02565b610aed565b93818552602085019082840111610b6157610b5f92610b25565b565b610aa2565b9080601f83011215610b8457816020610b8193359101610b30565b90565b610a9e565b919091604081840312610bc957610ba2835f830161034b565b92602082013567ffffffffffffffff8111610bc457610bc19201610b66565b90565b6102a0565b61029c565b34610bfd57610be7610be1366004610b89565b906128e4565b610bef610292565b80610bf9816102fc565b0390f35b610298565b610c0e60025f90610750565b90565b34610c4157610c21366004610644565b610c3d610c2c610c02565b610c34610292565b91829182610777565b0390f35b610298565b34610c7457610c56366004610644565b610c5e612a29565b610c66610292565b80610c70816102fc565b0390f35b610298565b34610ca757610c91610c8c36600461035a565b612d7e565b610c99610292565b80610ca3816102fc565b0390f35b610298565b9190604083820312610cd45780610cc8610cd1925f860161034b565b936020016102cf565b90565b61029c565b34610d0857610cf2610cec366004610cac565b90612f78565b610cfa610292565b80610d04816102fc565b0390f35b610298565b610d1d906008610d229302610653565b6103b2565b90565b90610d309154610d0d565b90565b610d3f60095f90610d25565b90565b9190610d55905f6020850194019061051f565b565b34610d8757610d67366004610644565b610d83610d72610d33565b610d7a610292565b91829182610d42565b0390f35b610298565b90610d969061037b565b5f5260205260405f2090565b634e487b7160e01b5f52602260045260245ffd5b9060016002830492168015610dd6575b6020831014610dd157565b610da2565b91607f1691610dc6565b60209181520190565b5f5260205f2090565b905f9291805490610e0c610e0583610db6565b8094610de0565b916001811690815f14610e635750600114610e27575b505050565b610e349192939450610de9565b915f925b818410610e4b57505001905f8080610e22565b60018160209295939554848601520191019290610e38565b92949550505060ff19168252151560200201905f8080610e22565b90610e8891610df2565b90565b90610eab610ea492610e9b610292565b93848092610e7e565b0383610ac4565b565b60ff1690565b610ebf610ec4916103ad565b610ead565b90565b610ed19054610eb3565b90565b610edf906005610d8c565b90610eeb5f83016103d1565b91610ef860018201610e8b565b91610f116003610f0a600285016103f5565b9301610ec7565b90565b5190565b60209181520190565b90825f9392825e0152565b610f4b610f54602093610f5993610f4281610f14565b93848093610f18565b95869101610f21565b610aa6565b0190565b634e487b7160e01b5f52602160045260245ffd5b60031115610f7b57565b610f5d565b90610f8a82610f71565b565b610f9590610f80565b90565b610fa190610f8c565b9052565b610fde610fd3606093610fe596989795610fc660808601925f87019061051f565b8482036020860152610f2c565b96604083019061052c565b0190610f98565b565b3461101b57611017611002610ffd36600461035a565b610ed4565b9061100e949294610292565b94859485610fa5565b0390f35b610298565b3461104e5761103861103336600461035a565b61317a565b611040610292565b8061104a816102fc565b0390f35b610298565b346110815761106b6110663660046102de565b6131ca565b611073610292565b8061107d816102fc565b0390f35b610298565b9190611099905f6020850194019061053e565b565b346110cb576110ab366004610644565b6110c76110b66131d9565b6110be610292565b91829182611086565b0390f35b610298565b346110fe576110e86110e33660046102de565b613282565b6110f0610292565b806110fa816102fc565b0390f35b610298565b346111315761111b6111163660046102de565b6132d4565b611123610292565b8061112d816102fc565b0390f35b610298565b3461116457611146366004610644565b61114e61330e565b611156610292565b80611160816102fc565b0390f35b610298565b346111975761118161117c3660046102de565b6133ac565b611189610292565b80611193816102fc565b0390f35b610298565b60018060a01b031690565b6111b79060086111bc9302610653565b61119c565b90565b906111ca91546111a7565b90565b6111d9600c5f906111bf565b90565b6111e5906106b3565b90565b6111f1906111dc565b9052565b9190611208905f602085019401906111e8565b565b3461123a5761121a366004610644565b6112366112256111cd565b61122d610292565b918291826111f5565b0390f35b610298565b3461126f5761124f366004610644565b61126b61125a6133dc565b611262610292565b918291826111f5565b0390f35b610298565b346112a257611284366004610644565b61128c61352b565b611294610292565b8061129e816102fc565b0390f35b610298565b346112d7576112b7366004610644565b6112d36112c2613539565b6112ca610292565b91829182610d42565b0390f35b610298565b919060408382031261130457806112f8611301925f86016102cf565b9360200161034b565b90565b61029c565b61131d6113173660046112dc565b90613a9b565b611325610292565b8061132f816102fc565b0390f35b919060408382031261135b578061134f611358925f860161034b565b9360200161034b565b90565b61029c565b3461138f57611379611373366004611333565b90613b8d565b611381610292565b8061138b816102fc565b0390f35b610298565b346113c2576113ac6113a736600461035a565b613eab565b6113b4610292565b806113be816102fc565b0390f35b610298565b6113d0906102af565b90565b6113dc816113c7565b036113e357565b5f80fd5b905035906113f4826113d3565b565b9060208282031261140f5761140c915f016113e7565b90565b61029c565b346114425761142c6114273660046113f6565b613eb6565b611434610292565b8061143e816102fc565b0390f35b610298565b611450906102a4565b90565b61145c81611447565b0361146357565b5f80fd5b9050359061147482611453565b565b90916060828403126114ab576114a8611491845f850161034b565b9361149f8160208601611467565b9360400161034b565b90565b61029c565b346114df576114c96114c3366004611476565b91614120565b6114d1610292565b806114db816102fc565b0390f35b610298565b34611518576115146114ff6114fa36600461035a565b6141b8565b9061150b949294610292565b94859485610fa5565b0390f35b610298565b3461154d576115496115386115333660046102de565b61426d565b611540610292565b91829182611086565b0390f35b610298565b60018060a01b031690565b61156d9060086115729302610653565b611552565b90565b90611580915461155d565b90565b61158f60075f90611575565b90565b61159b906106b3565b90565b6115a790611592565b9052565b91906115be905f6020850194019061159e565b565b346115f0576115d0366004610644565b6115ec6115db611583565b6115e3610292565b918291826115ab565b0390f35b610298565b346116355761163161161061160b36600461035a565b614460565b986116289c9a9c989198979297969396959495610292565b9c8d9c8d61054b565b0390f35b610298565b346116685761165261164d3660046102de565b6145f1565b61165a610292565b80611664816102fc565b0390f35b610298565b61167681610539565b0361167d57565b5f80fd5b9050359061168e8261166d565b565b6080818303126116d1576116a6825f830161034b565b926116ce6116b78460208501611681565b936116c58160408601611681565b93606001611681565b90565b61029c565b34611708576116f26116e9366004611690565b92919091614852565b6116fa610292565b80611704816102fc565b0390f35b610298565b3461173b576117256117203660046102de565b6148f4565b61172d610292565b80611737816102fc565b0390f35b610298565b5f80fd5b611755906117506148ff565b611800565b565b60a01c90565b61176961176e91611757565b610402565b90565b61177b905461175d565b90565b5f7f5061757361626c653a2070617573656400000000000000000000000000000000910152565b6117b26010602092610f18565b6117bb8161177e565b0190565b6117d49060208101905f8183039101526117a5565b90565b156117de57565b6117e6610292565b62461bcd60e51b8152806117fc600482016117bf565b0390fd5b6118239061181e6118196118135f611771565b15610539565b6117d7565b61188c565b565b61182e90610697565b90565b61183a90611825565b90565b5f1b90565b9061185360018060a01b039161183d565b9181191691161790565b61186690611825565b90565b90565b9061188161187c6118889261185d565b611869565b8254611842565b9055565b61189861189f91611831565b600661186c565b565b6118aa90611744565b565b6118cf906118ca6118c56118bf5f611771565b15610539565b6117d7565b6118d1565b565b806118f96118f36118ee5f6118e833956001610397565b016103d1565b6102af565b916102af565b036119095761190790611e5a565b565b5f63d6d90f8960e01b815280611921600482016102fc565b0390fd5b9061192f90610539565b9052565b61193d6060610aed565b90565b9061198d6119845f611950611933565b9461196761195f83830161041c565b838801611925565b61197e6119758383016109d0565b60208801611925565b016109f7565b60408401611925565b565b61199890611940565b90565b6119a59051610539565b90565b6119b46119b9916103ad565b6107c1565b90565b6119c690546119a8565b90565b90565b6119e06119db6119e5926119c9565b610378565b6102a4565b90565b6119f1906119cc565b90565b60e01b90565b90505190611a078261166d565b565b90602082820312611a2257611a1f915f016119fa565b90565b61029c565b916020611a48929493611a4160408201965f83019061052c565b019061052c565b565b611a52610292565b3d5f823e3d90fd5b5f7f426c6f636b656420627920466f7274652072756c657300000000000000000000910152565b611a8e6016602092610f18565b611a9781611a5a565b0190565b611ab09060208101905f818303910152611a81565b90565b15611aba57565b611ac2610292565b62461bcd60e51b815280611ad860048201611a9b565b0390fd5b611af0611aeb611af5926119c9565b610378565b610334565b90565b611b0190610697565b90565b611b0d90611af8565b90565b611b19906106b3565b90565b5190565b60209181520190565b611b48611b51602093611b5693611b3f81611b1c565b93848093611b20565b95869101610f21565b610aa6565b0190565b611b7e611b8b949293611b7460608401955f85019061051f565b602083019061052c565b6040818403910152611b29565b90565b5f7f52656c6561736520626c6f636b656420627920466f7274652072756c65730000910152565b611bc2601e602092610f18565b611bcb81611b8e565b0190565b611be49060208101905f818303910152611bb5565b90565b15611bee57565b611bf6610292565b62461bcd60e51b815280611c0c60048201611bcf565b0390fd5b611c1c611c21916103ad565b611552565b90565b611c2e9054611c10565b90565b5f7f46616c6c6261636b206d6f64756c65206e6f7420736574000000000000000000910152565b611c656017602092610f18565b611c6e81611c31565b0190565b611c879060208101905f818303910152611c58565b90565b15611c9157565b611c99610292565b62461bcd60e51b815280611caf60048201611c72565b0390fd5b5f7f46616c6c6261636b206e6f742072656164790000000000000000000000000000910152565b611ce76012602092610f18565b611cf081611cb3565b0190565b611d099060208101905f818303910152611cda565b90565b15611d1357565b611d1b610292565b62461bcd60e51b815280611d3160048201611cf4565b0390fd5b611d41611d46916103ad565b610657565b90565b611d539054611d35565b90565b5f7f5369676e6174757265206d6f64756c65206e6f74207365740000000000000000910152565b611d8a6018602092610f18565b611d9381611d56565b0190565b611dac9060208101905f818303910152611d7d565b90565b15611db657565b611dbe610292565b62461bcd60e51b815280611dd460048201611d97565b0390fd5b5f7f5369676e61747572652072657175697265640000000000000000000000000000910152565b611e0c6012602092610f18565b611e1581611dd8565b0190565b611e2e9060208101905f818303910152611dff565b90565b15611e3857565b611e40610292565b62461bcd60e51b815280611e5660048201611e19565b0390fd5b611e6e611e69600d83906109a6565b61198f565b611e856005611e7f60018590610397565b016103f5565b611e905f830161199b565b80612242575b6121ac575b611eaf611eaa600a8590610722565b6103f5565b611ec1611ebb5f611adc565b91610334565b1180612180575b6120a3575b611ed96020830161199b565b611fcd575b506040611eeb910161199b565b611efb575b611ef99061496c565b565b611f7390611f35611f14611f0f6008611d49565b6106bf565b611f2e611f28611f235f6119e8565b6102af565b916102af565b1415611daf565b6020611f49611f446008611d49565b6106bf565b632430454390611f688492611f5c610292565b968794859384936119f4565b835260048301610777565b03915afa918215611fc857611ef992611f93915f91611f9a575b50611e31565b9050611ef0565b611fbb915060203d8111611fc1575b611fb38183610ac4565b810190611a09565b5f611f8d565b503d611fa9565b611a4a565b90612004611fe3611fde6007611c24565b611592565b611ffd611ff7611ff25f6119e8565b6102af565b916102af565b1415611c8a565b60206120186120136007611c24565b611592565b9263f36f43e59361203c869295612047612030610292565b978895869485946119f4565b845260048401611a27565b03915afa90811561209e57612069604092611eeb945f91612070575b50611d0c565b9150611ede565b612091915060203d8111612097575b6120898183610ac4565b810190611a09565b5f612063565b503d61207f565b611a4a565b826120cf82916120c06120b4610292565b93849260208401611a27565b60208201810382520382610ac4565b60206120eb6120e66120e160096103d1565b611b04565b611b10565b63b6f52c4d90612122339261212d61210d612108600a8c90610722565b6103f5565b96612116610292565b978896879586956119f4565b855260048501611b5a565b03915afa801561217b57612148915f9161214d575b50611be7565b611ecd565b61216e915060203d8111612174575b6121668183610ac4565b810190611a09565b5f612142565b503d61215c565b611a4a565b5061218b60096103d1565b6121a561219f61219a5f6119e8565b6102af565b916102af565b1415611ec8565b6121be6121b960066119bc565b610801565b602063e5dc0b329185906121e485946121ef6121d8610292565b968795869485946119f4565b845260048401611a27565b03915afa801561223d5761220a915f9161220f575b50611ab3565b611e9b565b612230915060203d8111612236575b6122288183610ac4565b810190611a09565b5f612204565b503d61221e565b611a4a565b5061225561225060066119bc565b610801565b61226f6122696122645f6119e8565b6102af565b916102af565b1415611e96565b61227f906118ac565b565b906122975f612291846001610397565b016103d1565b6122b16122ab6122a65f6119e8565b6102af565b916102af565b146122c1576122bf916122dd565b565b5f6338fde52b60e01b8152806122d9600482016102fc565b0390fd5b90816123066123006122fb5f6122f533956001610397565b016103d1565b6102af565b916102af565b0361231657612314916127df565b565b5f63d6d90f8960e01b81528061232e600482016102fc565b0390fd5b90565b60207f2066756c6c2072656c6561736500000000000000000000000000000000000000917f4572726f723a2043616e6e6f74206f70656e20646973707574652061667465725f8201520152565b61238f602d604092610f18565b61239881612335565b0190565b6123b19060208101905f818303910152612382565b90565b156123bb57565b6123c3610292565b62461bcd60e51b8152806123d96004820161239c565b0390fd5b5f7f4572726f723a204469737075746520616c726561647920657869737473000000910152565b612411601d602092610f18565b61241a816123dd565b0190565b6124339060208101905f818303910152612404565b90565b1561243d57565b612445610292565b62461bcd60e51b81528061245b6004820161241e565b0390fd5b6124696080610aed565b90565b90612476906102af565b9052565b52565b9061248790610334565b9052565b9061249590610f80565b9052565b6124a390516102af565b90565b6124af906106b3565b90565b90565b906124ca6124c56124d1926124a6565b6124b2565b8254611842565b9055565b5190565b601f602091010490565b1b90565b919060086125029102916124fc5f19846124e3565b926124e3565b9181191691161790565b90565b919061252561252061252d9361037b565b61250c565b9083546124e7565b9055565b5f90565b61254791612541612531565b9161250f565b565b5b818110612555575050565b806125625f600193612535565b0161254a565b9190601f8111612578575b505050565b6125846125a993610de9565b906020612590846124d9565b830193106125b1575b6125a2906124d9565b0190612549565b5f8080612573565b91506125a281929050612599565b906125cf905f1990600802610653565b191690565b816125de916125bf565b906002021790565b906125f081610f14565b9067ffffffffffffffff82116126b0576126148261260e8554610db6565b85612568565b602090601f831160011461264857918091612637935f9261263c575b50506125d4565b90555b565b90915001515f80612630565b601f1983169161265785610de9565b925f5b8181106126985750916002939185600196941061267e575b5050500201905561263a565b61268e910151601f8416906125bf565b90555f8080612672565b9193602060018192878701518155019501920161265a565b610ab0565b906126bf916125e6565b565b6126cb9051610334565b90565b906126da5f199161183d565b9181191691161790565b906126f96126f46127009261037b565b61250c565b82546126ce565b9055565b61270e9051610f80565b90565b9061271d60ff9161183d565b9181191691161790565b61273090610f80565b90565b90565b9061274b61274661275292612727565b612733565b8254612711565b9055565b906127b3606060036127b9946127795f82016127735f8801612499565b906124b5565b6127926001820161278c602088016124d5565b906126b5565b6127ab600282016127a5604088016126c1565b906126e4565b019201612704565b90612736565b565b906127c591612756565b565b6127dc9160208201915f818403910152610f2c565b90565b61280f61280a61280460036127fe6127f960018790610397565b612332565b0161041c565b15610539565b6123b4565b612841612829600361282360058590610d8c565b01610ec7565b61283b6128355f610f80565b91610f80565b14612436565b61289333612882846128794261287060019361286761285e61245f565b975f890161246c565b6020870161247a565b6040850161247d565b6060830161248b565b61288e60058490610d8c565b6127bb565b903390916128df6128cd6128c77f9b58afa035c5fa58f85c5a54b65bd3562d5aa7679e973bc1404fe25e8babab219361037b565b936124a6565b936128d6610292565b918291826127c7565b0390a3565b906128ee91612281565b565b6128f86148ff565b6129006129d2565b565b5f7f5061757361626c653a20616c726561647920756e706175736564000000000000910152565b612936601a602092610f18565b61293f81612902565b0190565b6129589060208101905f818303910152612929565b90565b1561296257565b61296a610292565b62461bcd60e51b81528061298060048201612943565b0390fd5b60a01b90565b9061299960ff60a01b91612984565b9181191691161790565b6129ac90610539565b90565b90565b906129c76129c26129ce926129a3565b6129af565b825461298a565b9055565b6129e36129de5f611771565b61295b565b6129ed5f5f6129b2565b33612a247f5db9ee0a495bf2e6ff9c91a7834c1ba4fdd244a5e8aa4e537bd38aeae4b073aa91612a1b610292565b91829182610d42565b0390a1565b612a316128f0565b565b612a4490612a3f614c8c565b612a4e565b612a4c614d10565b565b612a635f612a5d836001610397565b016103d1565b612a7d612a77612a725f6119e8565b6102af565b916102af565b14612a8d57612a8b90612aa9565b565b5f6338fde52b60e01b815280612aa5600482016102fc565b0390fd5b80612ad1612acb612ac65f612ac033956001610397565b016103d1565b6102af565b916102af565b03612ae157612adf90612ba9565b565b5f63d6d90f8960e01b815280612af9600482016102fc565b0390fd5b612b0690610697565b90565b612b1290612afd565b90565b612b1e906106b3565b90565b905090565b612b315f8092612b21565b0190565b612b3e90612b26565b90565b67ffffffffffffffff8111612b5f57612b5b602091610aa6565b0190565b610ab0565b90612b76612b7183612b41565b610aed565b918252565b606090565b3d5f14612b9b57612b903d612b64565b903d5f602084013e5b565b612ba3612b7b565b90612b99565b612bbd612bb860018390610397565b612332565b90612bca6003830161041c565b612d6257612bda600583016103f5565b612bec612be65f611adc565b91610334565b03612d4657612bfd600283016103f5565b612c0f612c095f611adc565b91610334565b14612d2a575f8091612ce1612cdc85612c2d6002612d0898016103f5565b93612c4f612c3c8784016103d1565b926002612c4889611adc565b91016126e4565b8082612c90612c7e7fd1c90c5ed8b35db630851dbe3ec20c8798b71354223bfe5a5527e84103e89d5b926124a6565b92612c87610292565b91829182610777565b0390a28185612cbf7f710864ae79ae7195dbcaa0f79eef4a8f5b490696c2d588a27f4d69ce60ac01fc926124a6565b92612cd4612ccb610292565b92839283611a27565b0390a2612b09565b612b15565b90612cea610292565b9081612cf581612b35565b03925af1612d01612b80565b5015610539565b612d0e57565b5f63e55c80d160e01b815280612d26600482016102fc565b0390fd5b5f634625bdf760e01b815280612d42600482016102fc565b0390fd5b5f6372748c6b60e11b815280612d5e600482016102fc565b0390fd5b5f636d31177b60e11b815280612d7a600482016102fc565b0390fd5b612d8790612a33565b565b90612d9f5f612d99846001610397565b016103d1565b612db9612db3612dae5f6119e8565b6102af565b916102af565b14612dc957612dc791612de5565b565b5f6338fde52b60e01b815280612de1600482016102fc565b0390fd5b9081612e0e612e08612e035f612dfd33956001610397565b016103d1565b6102af565b916102af565b03612e1e57612e1c91612e7d565b565b5f63d6d90f8960e01b815280612e36600482016102fc565b0390fd5b60081b90565b90612e53610100600160a81b0391612e3a565b9181191691161790565b90612e72612e6d612e79926124a6565b6124b2565b8254612e40565b9055565b612e91612e8c60018390610397565b612332565b612e9d6003820161041c565b612f5c57612ead6003820161046a565b612f405782612ecc612ec6612ec15f6119e8565b6102af565b916102af565b14612f2457612edf906003849101612e5d565b90612f1f612f0d7f74c722a7077ba48f1c4a1df3ad9df69eda5ffb9518fedba9bad9596305b8b95e926124a6565b92612f16610292565b91829182610777565b0390a2565b5f63713ce51160e01b815280612f3c600482016102fc565b0390fd5b5f63b5f9044160e01b815280612f58600482016102fc565b0390fd5b5f635c1508a760e01b815280612f74600482016102fc565b0390fd5b90612f8291612d89565b565b612f995f612f93836001610397565b016103d1565b612fb3612fad612fa85f6119e8565b6102af565b916102af565b14612fc357612fc190612fdf565b565b5f6338fde52b60e01b815280612fdb600482016102fc565b0390fd5b80613008613002612ffd6003612ff733956001610397565b01610443565b6102af565b916102af565b036130185761301690613073565b565b5f6381d009a360e01b815280613030600482016102fc565b0390fd5b60a81b90565b9061304960ff60a81b91613034565b9181191691161790565b9061306861306361306f926129a3565b6129af565b825461303a565b9055565b61308761308260018390610397565b612332565b6130936003820161046a565b61315e576130a36003820161041c565b613142576130b360038201610443565b6130cd6130c76130c25f6119e8565b6102af565b916102af565b14613126576130e190600360019101613053565b3361312161310f7f84ffc84db0a14dc30a09c96c2dc65081ab5a1f28b1ec2543ec701b04ad161a9d926124a6565b92613118610292565b91829182610777565b0390a2565b5f6342b985dd60e01b81528061313e600482016102fc565b0390fd5b5f635c1508a760e01b81528061315a600482016102fc565b0390fd5b5f63166de09760e01b815280613176600482016102fc565b0390fd5b61318390612f84565b565b613196906131916148ff565b613198565b565b6131bb906131b66131b16131ab5f611771565b15610539565b6117d7565b6131bd565b565b6131c89060096124b5565b565b6131d390613185565b565b5f90565b6131e16131d5565b506131eb5f611771565b90565b6131ff906131fa6148ff565b613201565b565b6132249061321f61321a6132145f611771565b15610539565b6117d7565b61326d565b565b61322f90610697565b90565b61323b90613226565b90565b61324790613226565b90565b90565b9061326261325d6132699261323e565b61324a565b8254611842565b9055565b61327961328091613232565b600861324d565b565b61328b906131ee565b565b61329690610697565b90565b6132a29061328d565b90565b6132ae9061328d565b90565b90565b906132c96132c46132d0926132a5565b6132b1565b8254611842565b9055565b6132e06132e791613299565b60036132b4565b565b6132f16148ff565b6132f96132fb565b565b61330c6133075f6119e8565b614d24565b565b6133166132e9565b565b613329906133246148ff565b61332b565b565b61334e9061334961334461333e5f611771565b15610539565b6117d7565b613397565b565b61335990610697565b90565b61336590613350565b90565b61337190613350565b90565b90565b9061338c61338761339392613368565b613374565b8254611842565b9055565b6133a36133aa9161335c565b600c613377565b565b6133b590613318565b565b5f90565b6133c76133cc916103ad565b61119c565b90565b6133d990546133bb565b90565b6133e46133b7565b506133f76133f2600b6133cf565b6111dc565b61341161340b6134065f6119e8565b6102af565b916102af565b14155f1461342757613423600b6133cf565b5b90565b613431600c6133cf565b613424565b61343e6148ff565b6134466134ca565b565b5f7f5061757361626c653a20616c7265616479207061757365640000000000000000910152565b61347c6018602092610f18565b61348581613448565b0190565b61349e9060208101905f81830391015261346f565b90565b156134a857565b6134b0610292565b62461bcd60e51b8152806134c660048201613489565b0390fd5b6134e46134df6134d95f611771565b15610539565b6134a1565b6134ef60015f6129b2565b336135267f62e78cea01bee320cd4e420270b5ea74000d11b0c9f74754ebdbfc544b05a2589161351d610292565b91829182610d42565b0390a1565b613533613436565b565b5f90565b613541613535565b5061354b5f6103d1565b90565b906135729161356d6135686135625f611771565b15610539565b6117d7565b6138bb565b565b5f7f496e76616c696420617274697374206164647265737300000000000000000000910152565b6135a86016602092610f18565b6135b181613574565b0190565b6135ca9060208101905f81830391015261359b565b90565b156135d457565b6135dc610292565b62461bcd60e51b8152806135f2600482016135b5565b0390fd5b5f7f5a65726f2076616c756500000000000000000000000000000000000000000000910152565b61362a600a602092610f18565b613633816135f6565b0190565b61364c9060208101905f81830391015261361d565b90565b1561365657565b61365e610292565b62461bcd60e51b81528061367460048201613637565b0390fd5b60207f7468616e20300000000000000000000000000000000000000000000000000000917f4d696c6573746f6e6520636f756e74206d7573742062652067726561746572205f8201520152565b6136d26026604092610f18565b6136db81613678565b0190565b6136f49060208101905f8183039101526136c5565b90565b156136fe57565b613706610292565b62461bcd60e51b81528061371c600482016136df565b0390fd5b61372b610180610aed565b90565b9061374361373e61374a926129a3565b6129af565b8254612711565b9055565b90613877610160600961387d946137725f820161376c5f8801612499565b906124b5565b61378b6001820161378560208801612499565b906124b5565b6137a46002820161379e604088016126c1565b906126e4565b6137bd600382016137b76060880161199b565b9061372e565b6137d6600382016137d060808801612499565b90612e5d565b6137ef600382016137e960a0880161199b565b90613053565b6138086004820161380260c088016126c1565b906126e4565b6138216005820161381b60e088016126c1565b906126e4565b61383b60068201613835610100880161199b565b9061372e565b6138556007820161384f61012088016126c1565b906126e4565b61386f60088201613869610140880161199b565b9061372e565b0192016126c1565b906126e4565b565b906138899161374e565b565b634e487b7160e01b5f52601160045260245ffd5b6138a890610334565b5f1981146138b65760010190565b61388b565b90815f6138c7906119e8565b6138d0906102af565b906138da906102af565b14156138e5906135cd565b345f6138f090611adc565b906138fa90610334565b116139049061364f565b805f61390f90611adc565b9061391990610334565b11613923906136f7565b61392d60026103f5565b903390839034905f905f613940906119e8565b905f905f915f935f955f974299613955613720565b9b5f8d01906139639161246c565b60208c01906139719161246c565b60408b019061397f9161247d565b60608a019061398d91611925565b608089019061399b9161246c565b60a08801906139a991611925565b60c08701906139b79161247d565b6139c090611adc565b60e08601906139ce9161247d565b6101008501906139dd91611925565b6139e690611adc565b6101208401906139f59161247d565b610140830190613a0491611925565b610160820190613a139161247d565b600182613a1f91610397565b90613a299161387f565b613a3360026103f5565b613a3c9061389f565b613a479060026126e4565b903334927f862dfcd9710943e66ad8f1f01a99cc98ab5612a09e62ecc68f63fe2e0f86cb0e91613a76906124a6565b92613a80906124a6565b93613a89610292565b918291613a969183611a27565b0390a3565b90613aa59161354e565b565b90613ab991613ab46148ff565b613b3d565b565b5f7f50726f6a65637420646f6573206e6f7420657869737400000000000000000000910152565b613aef6016602092610f18565b613af881613abb565b0190565b613b119060208101905f818303910152613ae2565b90565b15613b1b57565b613b23610292565b62461bcd60e51b815280613b3960048201613afc565b0390fd5b613b86613b8b92613b7e613b5d5f613b5760018790610397565b016103d1565b613b77613b71613b6c5f6119e8565b6102af565b916102af565b1415613b14565b91600a610722565b6126e4565b565b90613b9791613aa7565b565b613baa90613ba5614c8c565b613bb4565b613bb2614d10565b565b613bc95f613bc3836001610397565b016103d1565b613be3613bdd613bd85f6119e8565b6102af565b916102af565b14613bf357613bf190613c77565b565b5f6338fde52b60e01b815280613c0b600482016102fc565b0390fd5b634e487b7160e01b5f52601260045260245ffd5b613c2f613c3591610334565b91610334565b908115613c40570490565b613c0f565b604090613c6e613c759496959396613c6460608401985f85019061052c565b602083019061052c565b019061052c565b565b613c8b613c8660018390610397565b612332565b90613ca1613c9b6003840161046a565b15610539565b613e8f57613cb1600583016103f5565b613cce613cc8613cc3600486016103f5565b610334565b91610334565b1015613e7357613cf5613ce3600284016103f5565b613cef600485016103f5565b90613c23565b613d1360058401613d0d613d08826103f5565b61389f565b906126e4565b613d1f600584016103f5565b613d3c613d36613d31600487016103f5565b610334565b91610334565b149081613e60575b613d8c5f80613d65613d60613d5b60018a016103d1565b612b09565b612b15565b84613d6e610292565b9081613d7981612b35565b03925af1613d85612b80565b5015610539565b613e44578290613d9e600586016103f5565b9091613dd67fd33fcd27cbfb73a2d9058c968b560ccb306500bf536133802048489ecc7355e993613dcd610292565b93849384613c45565b0390a1613de2575b5050565b90613dfb6002613df4600184016103d1565b92016103f5565b613e257f6e3c6096795c8298a218b2cfb8bde42726ff7c9a3d27b4d3ba41ab7f74feb5fb926124a6565b92613e3a613e31610292565b92839283611a27565b0390a25f80613dde565b5f63e55c80d160e01b815280613e5c600482016102fc565b0390fd5b613e6e60016003860161372e565b613d44565b5f630174d97b60e71b815280613e8b600482016102fc565b0390fd5b5f63167f21b560e21b815280613ea7600482016102fc565b0390fd5b613eb490613b99565b565b613ec190600b613377565b565b90613ee89291613ee3613ede613ed85f611771565b15610539565b6117d7565b613f6c565b565b5f7f50726f6a65637420616c72656164792065786973747300000000000000000000910152565b613f1e6016602092610f18565b613f2781613eea565b0190565b613f409060208101905f818303910152613f11565b90565b15613f4a57565b613f52610292565b62461bcd60e51b815280613f6860048201613f2b565b0390fd5b9091600182613f7a91610397565b5f01613f85906103d1565b5f613f8f906119e8565b613f98906102af565b90613fa2906102af565b14613fac90613f43565b825f613fb7906119e8565b613fc0906102af565b90613fca90612b15565b1415613fd5906135cd565b805f613fe090611adc565b90613fea90610334565b11613ff4906136f7565b3392905f905f905f614005906119e8565b905f905f915f935f955f97429961401a613720565b9c5f8e01906140289161246c565b61403190612b15565b60208d019061403f9161246c565b61404890611adc565b60408c01906140569161247d565b60608b019061406491611925565b60808a01906140729161246c565b60a089019061408091611925565b60c088019061408e9161247d565b61409790611adc565b60e08701906140a59161247d565b6101008601906140b491611925565b6140bd90611adc565b6101208501906140cc9161247d565b6101408401906140db91611925565b6101608301906140ea9161247d565b6001906140f691610397565b906141009161387f565b61410a60026103f5565b6141139061389f565b61411e9060026126e4565b565b9061412b9291613ec3565b565b606090565b5f90565b6141406080610aed565b90565b906141aa6141a16003614154614136565b9461416b6141635f83016103d1565b5f880161246c565b61418361417a60018301610e8b565b6020880161247a565b61419b614192600283016103f5565b6040880161247d565b01610ec7565b6060840161248b565b565b6141b590614143565b90565b6141ea6141ef916141c7613535565b506141d061412d565b506141d9612531565b506141e2614132565b506005610d8c565b6141ac565b6141fa5f8201612499565b6020820151926142186060614211604086016126c1565b9401612704565b9193929190565b61422b614230916103ad565b6108d0565b90565b61423d905461421f565b90565b9050519061424d82610337565b565b9060208282031261426857614265915f01614240565b90565b61029c565b60206142b59161427b6131d5565b5061428e6142896003614233565b610910565b6142aa635bc008a061429e610292565b958694859384936119f4565b835260048301610d42565b03915afa908115614314575f916142e6575b506142e16142db6142d6610883565b610334565b91610334565b101590565b614307915060203d811161430d575b6142ff8183610ac4565b81019061424f565b5f6142c7565b503d6142f5565b611a4a565b614324610180610aed565b90565b906144526144486009614338614319565b9461434f6143475f83016103d1565b5f880161246c565b61436761435e600183016103d1565b6020880161246c565b61437f614376600283016103f5565b6040880161247d565b61439761438e6003830161041c565b60608801611925565b6143af6143a660038301610443565b6080880161246c565b6143c76143be6003830161046a565b60a08801611925565b6143df6143d6600483016103f5565b60c0880161247d565b6143f76143ee600583016103f5565b60e0880161247d565b6144106144066006830161041c565b6101008801611925565b61442961441f600783016103f5565b610120880161247d565b6144426144386008830161041c565b6101408801611925565b016103f5565b610160840161247d565b565b61445d90614327565b90565b6144da6144df9161446f613535565b50614478613535565b50614481612531565b5061448a6131d5565b50614493613535565b5061449c6131d5565b506144a5612531565b506144ae612531565b506144b76131d5565b506144c0612531565b506144c96131d5565b506144d2612531565b506001610397565b614454565b906144eb5f8301612499565b906144f860208401612499565b92614505604082016126c1565b926145126060830161199b565b9261451f60808401612499565b9261452c60a0820161199b565b9261453960c083016126c1565b9261454660e084016126c1565b92614554610100820161199b565b9261456261012083016126c1565b9261457d610160614576610140860161199b565b94016126c1565b919b9a99989796959493929190565b61459d906145986148ff565b61459f565b565b806145ba6145b46145af5f6119e8565b6102af565b916102af565b146145ca576145c890614d24565b565b6145ed6145d65f6119e8565b5f918291631e4fbdf760e01b835260048301610d42565b0390fd5b6145fa9061458c565b565b9061462293929161461d6146186146125f611771565b15610539565b6117d7565b6147a4565b565b60207f7400000000000000000000000000000000000000000000000000000000000000917f4f6e6c7920636c69656e742063616e20636f6e6669677572652070726f6a65635f8201520152565b61467e6021604092610f18565b61468781614624565b0190565b6146a09060208101905f818303910152614671565b90565b156146aa57565b6146b2610292565b62461bcd60e51b8152806146c86004820161468b565b0390fd5b6146d66060610aed565b90565b906146e661ff0091612e3a565b9181191691161790565b9061470561470061470c926129a3565b6129af565b82546146d9565b9055565b60101b90565b9061472462ff000091614710565b9181191691161790565b9061474361473e61474a926129a3565b6129af565b8254614716565b9055565b9061479060405f6147969461477082820161476a84880161199b565b9061372e565b6147888282016147826020880161199b565b906146f0565b01920161199b565b9061472e565b565b906147a29161474e565b565b6148446148509461483b61484b946147e3336147dd6147d76147d25f6147cc60018c90610397565b016103d1565b6102af565b916102af565b146146a3565b61481d6147fc5f6147f660018990610397565b016103d1565b61481661481061480b5f6119e8565b6102af565b916102af565b1415613b14565b956148326148296146cc565b975f8901611925565b60208701611925565b60408501611925565b600d6109a6565b614798565b565b9061485e9392916145fc565b565b6148719061486c6148ff565b614873565b565b6148969061489161488c6148865f611771565b15610539565b6117d7565b6148df565b565b6148a190610697565b90565b6148ad90614898565b90565b6148b990614898565b90565b90565b906148d46148cf6148db926148b0565b6148bc565b8254611842565b9055565b6148eb6148f2916148a4565b60076148bf565b565b6148fd90614860565b565b614907613539565b61492061491a614915614d83565b6102af565b916102af565b0361492757565b614949614932614d83565b5f91829163118cdaa760e01b835260048301610d42565b0390fd5b90565b61496461495f6149699261494d565b610378565b610334565b90565b61498061497b60018390610397565b612332565b906149966149906003840161046a565b15610539565b614c44576149a6600583016103f5565b6149c36149bd6149b8600486016103f5565b610334565b91610334565b1015614c28576149f460206149de6149d96133dc565b6111dc565b638e15f473906149ec610292565b9384926119f4565b82528180614a04600482016102fc565b03915afa908115614c23575f91614bf5575b50614a2b614a256103e8614950565b91610334565b10614bd957614a51614a3f600284016103f5565b614a4b600485016103f5565b90613c23565b614a6f60058401614a69614a64826103f5565b61389f565b906126e4565b614a7b600584016103f5565b614a98614a92614a8d600487016103f5565b610334565b91610334565b14614bc6575b614ae65f80614abf614aba614ab5600189016103d1565b612b09565b612b15565b84614ac8610292565b9081614ad381612b35565b03925af1614adf612b80565b5015610539565b614baa578190614af8600585016103f5565b9091614b307fd33fcd27cbfb73a2d9058c968b560ccb306500bf536133802048489ecc7355e993614b27610292565b93849384613c45565b0390a1614b3f6003830161041c565b614b48575b5050565b90614b616002614b5a600184016103d1565b92016103f5565b614b8b7f6e3c6096795c8298a218b2cfb8bde42726ff7c9a3d27b4d3ba41ab7f74feb5fb926124a6565b92614ba0614b97610292565b92839283611a27565b0390a25f80614b44565b5f63e55c80d160e01b815280614bc2600482016102fc565b0390fd5b614bd460016003850161372e565b614a9e565b5f63499372d360e11b815280614bf1600482016102fc565b0390fd5b614c16915060203d8111614c1c575b614c0e8183610ac4565b81019061424f565b5f614a16565b503d614c04565b611a4a565b5f630174d97b60e71b815280614c40600482016102fc565b0390fd5b5f63167f21b560e21b815280614c5c600482016102fc565b0390fd5b90565b614c77614c72614c7c92614c60565b610378565b610334565b90565b614c896002614c63565b90565b614c9660046103f5565b614caf614ca9614ca4614c7f565b610334565b91610334565b14614cc857614cc6614cbf614c7f565b60046126e4565b565b5f633ee5aeb560e01b815280614ce0600482016102fc565b0390fd5b90565b614cfb614cf6614d0092614ce4565b610378565b610334565b90565b614d0d6001614ce7565b90565b614d22614d1b614d03565b60046126e4565b565b614d2d5f6103d1565b614d37825f6124b5565b90614d6b614d657f8be0079c531659141344cd1fd0a4f28419497f9722a3daafe3b4186f6b6457e0936124a6565b916124a6565b91614d74610292565b80614d7e816102fc565b0390a3565b614d8b613535565b50339056fea264697066735822122075c7a59a93d136e2964172c02e92ce94fb436e539cb2c8fea7d345237056f0fc64736f6c634300081c0033","linkReferences":{}},"methodIdentifiers":{"REQUIRED_KYC_LEVEL()":"235b97c9","addValidator(uint256,address)":"4b561753","createProject(uint256,address,uint256)":"e1e7cf84","depositFunds(address,uint256)":"921b004b","disputes(uint256)":"564a565d","fallbackModule()":"efa04726","forteCompliance()":"2be550ce","forteRules()":"216a6313","getDispute(uint256)":"e3a96cbd","getOracle()":"833b1fce","getProject(uint256)":"f0f3f2c8","isKYCApproved(address)":"e77db232","openDispute(uint256,string)":"36f691c4","oracle()":"7dc0d1d0","owner()":"8da5cb5b","pause()":"8456cb59","paused()":"5c975abb","projectConfigs(uint256)":"31e709dc","projectCount()":"36fbad26","projects(uint256)":"107046bd","refundClient(uint256)":"43eed51c","releaseAfterEvent(uint256)":"cbcbc305","releaseMilestone(uint256)":"317debf5","renounceOwnership()":"715018a6","rulesModule()":"4d3f8fb8","rulesetIds(uint256)":"1c2c936f","setFallbackModule(address)":"f8ec8b30","setForteCompliance(address)":"6c56db5e","setForteRulesModule(address)":"0d01e5ef","setOracle(address)":"7adbf973","setOracleOverride(address)":"d23d4222","setProjectConfig(uint256,bool,bool,bool)":"f6ce28bd","setRulesModule(address)":"57b91efb","setRulesetId(uint256,uint256)":"950c04f4","setSignatureModule(address)":"68f98317","signatureModule()":"117159ca","transferOwnership(address)":"f2fde38b","unpause()":"3f4ba83a","validateProject(uint256)":"57021469"},"id":0}