{"abi":[{"type":"constructor","inputs":[],"stateMutability":"nonpayable"},{"type":"function","name":"addValidator","inputs":[{"name":"_projectId","type":"uint256","internalType":"uint256"},{"name":"_validator","type":"address","internalType":"address"}],"outputs":[],"stateMutability":"nonpayable"},{"type":"function","name":"createProject","inputs":[{"name":"_projectId","type":"uint256","internalType":"uint256"},{"name":"_artist","type":"address","internalType":"address payable"},{"name":"_milestoneCount","type":"uint256","internalType":"uint256"}],"outputs":[],"stateMutability":"nonpayable"},{"type":"function","name":"depositFunds","inputs":[{"name":"_artist","type":"address","internalType":"address"},{"name":"_milestoneCount","type":"uint256","internalType":"uint256"}],"outputs":[],"stateMutability":"payable"},{"type":"function","name":"disputes","inputs":[{"name":"","type":"uint256","internalType":"uint256"}],"outputs":[{"name":"initiator","type":"address","internalType":"address"},{"name":"reason","type":"string","internalType":"string"},{"name":"openedAt","type":"uint256","internalType":"uint256"},{"name":"status","type":"uint8","internalType":"enum DisputeModule.DisputeStatus"}],"stateMutability":"view"},{"type":"function","name":"getDispute","inputs":[{"name":"_projectId","type":"uint256","internalType":"uint256"}],"outputs":[{"name":"","type":"address","internalType":"address"},{"name":"","type":"string","internalType":"string"},{"name":"","type":"uint256","internalType":"uint256"},{"name":"","type":"uint8","internalType":"enum DisputeModule.DisputeStatus"}],"stateMutability":"view"},{"type":"function","name":"getOracle","inputs":[],"outputs":[{"name":"","type":"address","internalType":"contract IOracle"}],"stateMutability":"view"},{"type":"function","name":"getProject","inputs":[{"name":"_projectId","type":"uint256","internalType":"uint256"}],"outputs":[{"name":"client","type":"address","internalType":"address"},{"name":"artist","type":"address","internalType":"address"},{"name":"amount","type":"uint256","internalType":"uint256"},{"name":"released","type":"bool","internalType":"bool"},{"name":"validator","type":"address","internalType":"address"},{"name":"validated","type":"bool","internalType":"bool"},{"name":"milestoneCount","type":"uint256","internalType":"uint256"},{"name":"milestonesPaid","type":"uint256","internalType":"uint256"}],"stateMutability":"view"},{"type":"function","name":"openDispute","inputs":[{"name":"_projectId","type":"uint256","internalType":"uint256"},{"name":"_reason","type":"string","internalType":"string"}],"outputs":[],"stateMutability":"nonpayable"},{"type":"function","name":"oracle","inputs":[],"outputs":[{"name":"","type":"address","internalType":"contract IOracle"}],"stateMutability":"view"},{"type":"function","name":"owner","inputs":[],"outputs":[{"name":"","type":"address","internalType":"address"}],"stateMutability":"view"},{"type":"function","name":"projectCount","inputs":[],"outputs":[{"name":"","type":"uint256","internalType":"uint256"}],"stateMutability":"view"},{"type":"function","name":"projects","inputs":[{"name":"","type":"uint256","internalType":"uint256"}],"outputs":[{"name":"client","type":"address","internalType":"address"},{"name":"artist","type":"address","internalType":"address"},{"name":"amount","type":"uint256","internalType":"uint256"},{"name":"released","type":"bool","internalType":"bool"},{"name":"validator","type":"address","internalType":"address"},{"name":"validated","type":"bool","internalType":"bool"},{"name":"milestoneCount","type":"uint256","internalType":"uint256"},{"name":"milestonesPaid","type":"uint256","internalType":"uint256"}],"stateMutability":"view"},{"type":"function","name":"refundClient","inputs":[{"name":"_projectId","type":"uint256","internalType":"uint256"}],"outputs":[],"stateMutability":"nonpayable"},{"type":"function","name":"releaseAfterEvent","inputs":[{"name":"_projectId","type":"uint256","internalType":"uint256"}],"outputs":[],"stateMutability":"nonpayable"},{"type":"function","name":"releaseMilestone","inputs":[{"name":"_projectId","type":"uint256","internalType":"uint256"}],"outputs":[],"stateMutability":"nonpayable"},{"type":"function","name":"renounceOwnership","inputs":[],"outputs":[],"stateMutability":"nonpayable"},{"type":"function","name":"setOracle","inputs":[{"name":"_oracle","type":"address","internalType":"address"}],"outputs":[],"stateMutability":"nonpayable"},{"type":"function","name":"setOracleOverride","inputs":[{"name":"o","type":"address","internalType":"contract IOracle"}],"outputs":[],"stateMutability":"nonpayable"},{"type":"function","name":"transferOwnership","inputs":[{"name":"newOwner","type":"address","internalType":"address"}],"outputs":[],"stateMutability":"nonpayable"},{"type":"function","name":"validateProject","inputs":[{"name":"_projectId","type":"uint256","internalType":"uint256"}],"outputs":[],"stateMutability":"nonpayable"},{"type":"event","name":"ClientRefunded","inputs":[{"name":"projectId","type":"uint256","indexed":false,"internalType":"uint256"},{"name":"client","type":"address","indexed":true,"internalType":"address"},{"name":"amount","type":"uint256","indexed":false,"internalType":"uint256"}],"anonymous":false},{"type":"event","name":"DisputeOpened","inputs":[{"name":"projectId","type":"uint256","indexed":true,"internalType":"uint256"},{"name":"initiator","type":"address","indexed":true,"internalType":"address"},{"name":"reason","type":"string","indexed":false,"internalType":"string"}],"anonymous":false},{"type":"event","name":"FundsDeposited","inputs":[{"name":"projectId","type":"uint256","indexed":false,"internalType":"uint256"},{"name":"client","type":"address","indexed":true,"internalType":"address"},{"name":"artist","type":"address","indexed":true,"internalType":"address"},{"name":"amount","type":"uint256","indexed":false,"internalType":"uint256"}],"anonymous":false},{"type":"event","name":"FundsRefunded","inputs":[{"name":"projectId","type":"uint256","indexed":false,"internalType":"uint256"},{"name":"client","type":"address","indexed":true,"internalType":"address"}],"anonymous":false},{"type":"event","name":"FundsReleased","inputs":[{"name":"projectId","type":"uint256","indexed":false,"internalType":"uint256"},{"name":"artist","type":"address","indexed":true,"internalType":"address"},{"name":"amount","type":"uint256","indexed":false,"internalType":"uint256"}],"anonymous":false},{"type":"event","name":"MilestoneReleased","inputs":[{"name":"projectId","type":"uint256","indexed":false,"internalType":"uint256"},{"name":"milestoneIndex","type":"uint256","indexed":false,"internalType":"uint256"},{"name":"amount","type":"uint256","indexed":false,"internalType":"uint256"}],"anonymous":false},{"type":"event","name":"OwnershipTransferred","inputs":[{"name":"previousOwner","type":"address","indexed":true,"internalType":"address"},{"name":"newOwner","type":"address","indexed":true,"internalType":"address"}],"anonymous":false},{"type":"event","name":"ProjectValidated","inputs":[{"name":"projectId","type":"uint256","indexed":false,"internalType":"uint256"},{"name":"validator","type":"address","indexed":true,"internalType":"address"}],"anonymous":false},{"type":"event","name":"ValidatorAssigned","inputs":[{"name":"projectId","type":"uint256","indexed":false,"internalType":"uint256"},{"name":"validator","type":"address","indexed":true,"internalType":"address"}],"anonymous":false},{"type":"error","name":"OwnableInvalidOwner","inputs":[{"name":"owner","type":"address","internalType":"address"}]},{"type":"error","name":"OwnableUnauthorizedAccount","inputs":[{"name":"account","type":"address","internalType":"address"}]},{"type":"error","name":"ReentrancyGuardReentrantCall","inputs":[]}],"bytecode":{"object":"0x608060405234801561000f575f5ffd5b50335f73ffffffffffffffffffffffffffffffffffffffff168173ffffffffffffffffffffffffffffffffffffffff1603610081575f6040517f1e4fbdf7000000000000000000000000000000000000000000000000000000008152600401610078919061019e565b60405180910390fd5b6100908161009e60201b60201c565b5060016003819055506101b7565b5f5f5f9054906101000a900473ffffffffffffffffffffffffffffffffffffffff169050815f5f6101000a81548173ffffffffffffffffffffffffffffffffffffffff021916908373ffffffffffffffffffffffffffffffffffffffff1602179055508173ffffffffffffffffffffffffffffffffffffffff168173ffffffffffffffffffffffffffffffffffffffff167f8be0079c531659141344cd1fd0a4f28419497f9722a3daafe3b4186f6b6457e060405160405180910390a35050565b5f73ffffffffffffffffffffffffffffffffffffffff82169050919050565b5f6101888261015f565b9050919050565b6101988161017e565b82525050565b5f6020820190506101b15f83018461018f565b92915050565b613c39806101c45f395ff3fe60806040526004361061011e575f3560e01c80637dc0d1d01161009f578063d23d422211610063578063d23d422214610396578063e1e7cf84146103be578063e3a96cbd146103e6578063f0f3f2c814610425578063f2fde38b146104685761011e565b80637dc0d1d0146102d4578063833b1fce146102fe5780638da5cb5b14610328578063921b004b14610352578063cbcbc3051461036e5761011e565b80634b561753116100e65780634b56175314610207578063564a565d1461022f578063570214691461026e578063715018a6146102965780637adbf973146102ac5761011e565b8063107046bd14610122578063317debf51461016557806336f691c41461018d57806336fbad26146101b557806343eed51c146101df575b5f5ffd5b34801561012d575f5ffd5b506101486004803603810190610143919061281f565b610490565b60405161015c9897969594939291906128b2565b60405180910390f35b348015610170575f5ffd5b5061018b6004803603810190610186919061281f565b61054b565b005b348015610198575f5ffd5b506101b360048036038101906101ae9190612a6a565b610a1b565b005b3480156101c0575f5ffd5b506101c9610d29565b6040516101d69190612ac4565b60405180910390f35b3480156101ea575f5ffd5b506102056004803603810190610200919061281f565b610d2f565b005b348015610212575f5ffd5b5061022d60048036038101906102289190612b07565b6110f9565b005b34801561023a575f5ffd5b506102556004803603810190610250919061281f565b6113f8565b6040516102659493929190612c18565b60405180910390f35b348015610279575f5ffd5b50610294600480360381019061028f919061281f565b6114d5565b005b3480156102a1575f5ffd5b506102aa6117e3565b005b3480156102b7575f5ffd5b506102d260048036038101906102cd9190612c62565b6117f6565b005b3480156102df575f5ffd5b506102e8611841565b6040516102f59190612ce8565b60405180910390f35b348015610309575f5ffd5b50610312611866565b60405161031f9190612ce8565b60405180910390f35b348015610333575f5ffd5b5061033c61190c565b6040516103499190612d01565b60405180910390f35b61036c60048036038101906103679190612d1a565b611933565b005b348015610379575f5ffd5b50610394600480360381019061038f919061281f565b611c70565b005b3480156103a1575f5ffd5b506103bc60048036038101906103b79190612d93565b611fcb565b005b3480156103c9575f5ffd5b506103e460048036038101906103df9190612df9565b61200e565b005b3480156103f1575f5ffd5b5061040c6004803603810190610407919061281f565b61228c565b60405161041c9493929190612c18565b60405180910390f35b348015610430575f5ffd5b5061044b6004803603810190610446919061281f565b6123fb565b60405161045f9897969594939291906128b2565b60405180910390f35b348015610473575f5ffd5b5061048e60048036038101906104899190612c62565b6125b8565b005b6001602052805f5260405f205f91509050805f015f9054906101000a900473ffffffffffffffffffffffffffffffffffffffff1690806001015f9054906101000a900473ffffffffffffffffffffffffffffffffffffffff1690806002015490806003015f9054906101000a900460ff16908060030160019054906101000a900473ffffffffffffffffffffffffffffffffffffffff16908060030160159054906101000a900460ff16908060040154908060050154905088565b61055361263c565b805f73ffffffffffffffffffffffffffffffffffffffff1660015f8381526020019081526020015f205f015f9054906101000a900473ffffffffffffffffffffffffffffffffffffffff1673ffffffffffffffffffffffffffffffffffffffff16036105f4576040517f08c379a00000000000000000000000000000000000000000000000000000000081526004016105eb90612e93565b60405180910390fd5b6103e86105ff611866565b73ffffffffffffffffffffffffffffffffffffffff16638e15f4736040518163ffffffff1660e01b8152600401602060405180830381865afa158015610647573d5f5f3e3d5ffd5b505050506040513d601f19601f8201168201806040525081019061066b9190612ec5565b10156106ac576040517f08c379a00000000000000000000000000000000000000000000000000000000081526004016106a390612f3a565b60405180910390fd5b5f60015f8481526020019081526020015f2090508060030160159054906101000a900460ff16610711576040517f08c379a000000000000000000000000000000000000000000000000000000000815260040161070890612fc8565b60405180910390fd5b806004015481600501541061075b576040517f08c379a000000000000000000000000000000000000000000000000000000000815260040161075290613030565b60405180910390fd5b5f610764611866565b73ffffffffffffffffffffffffffffffffffffffff16638e15f4736040518163ffffffff1660e01b8152600401602060405180830381865afa1580156107ac573d5f5f3e3d5ffd5b505050506040513d601f19601f820116820180604052508101906107d09190612ec5565b90506103e8811015610817576040517f08c379a000000000000000000000000000000000000000000000000000000000815260040161080e90612f3a565b60405180910390fd5b5f8260040154836002015461082c91906130a8565b9050826005015f815480929190610842906130d8565b91905055508260040154836005015403610873576001836003015f6101000a81548160ff0219169083151502179055505b5f836001015f9054906101000a900473ffffffffffffffffffffffffffffffffffffffff1673ffffffffffffffffffffffffffffffffffffffff16826040516108bb9061314c565b5f6040518083038185875af1925050503d805f81146108f5576040519150601f19603f3d011682016040523d82523d5f602084013e6108fa565b606091505b505090508061093e576040517f08c379a0000000000000000000000000000000000000000000000000000000008152600401610935906131aa565b60405180910390fd5b7fd33fcd27cbfb73a2d9058c968b560ccb306500bf536133802048489ecc7355e986856005015484604051610975939291906131c8565b60405180910390a1836003015f9054906101000a900460ff1615610a0b57836001015f9054906101000a900473ffffffffffffffffffffffffffffffffffffffff1673ffffffffffffffffffffffffffffffffffffffff167f6e3c6096795c8298a218b2cfb8bde42726ff7c9a3d27b4d3ba41ab7f74feb5fb878660020154604051610a029291906131fd565b60405180910390a25b5050505050610a18612682565b50565b815f73ffffffffffffffffffffffffffffffffffffffff1660015f8381526020019081526020015f205f015f9054906101000a900473ffffffffffffffffffffffffffffffffffffffff1673ffffffffffffffffffffffffffffffffffffffff1603610abc576040517f08c379a0000000000000000000000000000000000000000000000000000000008152600401610ab390612e93565b60405180910390fd5b8260015f8281526020019081526020015f205f015f9054906101000a900473ffffffffffffffffffffffffffffffffffffffff1673ffffffffffffffffffffffffffffffffffffffff163373ffffffffffffffffffffffffffffffffffffffff1614610b5d576040517f08c379a0000000000000000000000000000000000000000000000000000000008152600401610b5490613294565b60405180910390fd5b5f6002811115610b7057610b6f612ba5565b5b60045f8681526020019081526020015f206003015f9054906101000a900460ff166002811115610ba357610ba2612ba5565b5b14610be3576040517f08c379a0000000000000000000000000000000000000000000000000000000008152600401610bda906132fc565b60405180910390fd5b60405180608001604052803373ffffffffffffffffffffffffffffffffffffffff16815260200184815260200142815260200160016002811115610c2a57610c29612ba5565b5b81525060045f8681526020019081526020015f205f820151815f015f6101000a81548173ffffffffffffffffffffffffffffffffffffffff021916908373ffffffffffffffffffffffffffffffffffffffff1602179055506020820151816001019081610c97919061350e565b50604082015181600201556060820151816003015f6101000a81548160ff02191690836002811115610ccc57610ccb612ba5565b5b02179055509050503373ffffffffffffffffffffffffffffffffffffffff16847f9b58afa035c5fa58f85c5a54b65bd3562d5aa7679e973bc1404fe25e8babab2185604051610d1b91906135dd565b60405180910390a350505050565b60025481565b610d3761263c565b805f73ffffffffffffffffffffffffffffffffffffffff1660015f8381526020019081526020015f205f015f9054906101000a900473ffffffffffffffffffffffffffffffffffffffff1673ffffffffffffffffffffffffffffffffffffffff1603610dd8576040517f08c379a0000000000000000000000000000000000000000000000000000000008152600401610dcf90612e93565b60405180910390fd5b8160015f8281526020019081526020015f205f015f9054906101000a900473ffffffffffffffffffffffffffffffffffffffff1673ffffffffffffffffffffffffffffffffffffffff163373ffffffffffffffffffffffffffffffffffffffff1614610e79576040517f08c379a0000000000000000000000000000000000000000000000000000000008152600401610e7090613294565b60405180910390fd5b5f60015f8581526020019081526020015f209050806003015f9054906101000a900460ff1615610ede576040517f08c379a0000000000000000000000000000000000000000000000000000000008152600401610ed59061366d565b60405180910390fd5b5f81600501541115610f25576040517f08c379a0000000000000000000000000000000000000000000000000000000008152600401610f1c906136fb565b60405180910390fd5b5f816002015411610f6b576040517f08c379a0000000000000000000000000000000000000000000000000000000008152600401610f6290613763565b60405180910390fd5b5f816002015490505f825f015f9054906101000a900473ffffffffffffffffffffffffffffffffffffffff1690505f83600201819055505f8173ffffffffffffffffffffffffffffffffffffffff1683604051610fc79061314c565b5f6040518083038185875af1925050503d805f8114611001576040519150601f19603f3d011682016040523d82523d5f602084013e611006565b606091505b505090508061104a576040517f08c379a0000000000000000000000000000000000000000000000000000000008152600401611041906131aa565b60405180910390fd5b8173ffffffffffffffffffffffffffffffffffffffff167fd1c90c5ed8b35db630851dbe3ec20c8798b71354223bfe5a5527e84103e89d5b886040516110909190612ac4565b60405180910390a28173ffffffffffffffffffffffffffffffffffffffff167f710864ae79ae7195dbcaa0f79eef4a8f5b490696c2d588a27f4d69ce60ac01fc88856040516110e09291906131fd565b60405180910390a25050505050506110f6612682565b50565b815f73ffffffffffffffffffffffffffffffffffffffff1660015f8381526020019081526020015f205f015f9054906101000a900473ffffffffffffffffffffffffffffffffffffffff1673ffffffffffffffffffffffffffffffffffffffff160361119a576040517f08c379a000000000000000000000000000000000000000000000000000000000815260040161119190612e93565b60405180910390fd5b8260015f8281526020019081526020015f205f015f9054906101000a900473ffffffffffffffffffffffffffffffffffffffff1673ffffffffffffffffffffffffffffffffffffffff163373ffffffffffffffffffffffffffffffffffffffff161461123b576040517f08c379a000000000000000000000000000000000000000000000000000000000815260040161123290613294565b60405180910390fd5b5f60015f8681526020019081526020015f2090505f73ffffffffffffffffffffffffffffffffffffffff168473ffffffffffffffffffffffffffffffffffffffff16036112bd576040517f08c379a00000000000000000000000000000000000000000000000000000000081526004016112b4906137cb565b60405180910390fd5b806003015f9054906101000a900460ff161561130e576040517f08c379a000000000000000000000000000000000000000000000000000000000815260040161130590613833565b60405180910390fd5b8060030160159054906101000a900460ff1615611360576040517f08c379a0000000000000000000000000000000000000000000000000000000008152600401611357906138c1565b60405180910390fd5b838160030160016101000a81548173ffffffffffffffffffffffffffffffffffffffff021916908373ffffffffffffffffffffffffffffffffffffffff1602179055508373ffffffffffffffffffffffffffffffffffffffff167f74c722a7077ba48f1c4a1df3ad9df69eda5ffb9518fedba9bad9596305b8b95e866040516113e99190612ac4565b60405180910390a25050505050565b6004602052805f5260405f205f91509050805f015f9054906101000a900473ffffffffffffffffffffffffffffffffffffffff169080600101805461143c90613347565b80601f016020809104026020016040519081016040528092919081815260200182805461146890613347565b80156114b35780601f1061148a576101008083540402835291602001916114b3565b820191905f5260205f20905b81548152906001019060200180831161149657829003601f168201915b505050505090806002015490806003015f9054906101000a900460ff16905084565b805f73ffffffffffffffffffffffffffffffffffffffff1660015f8381526020019081526020015f205f015f9054906101000a900473ffffffffffffffffffffffffffffffffffffffff1673ffffffffffffffffffffffffffffffffffffffff1603611576576040517f08c379a000000000000000000000000000000000000000000000000000000000815260040161156d90612e93565b60405180910390fd5b8160015f8281526020019081526020015f2060030160019054906101000a900473ffffffffffffffffffffffffffffffffffffffff1673ffffffffffffffffffffffffffffffffffffffff163373ffffffffffffffffffffffffffffffffffffffff1614611619576040517f08c379a00000000000000000000000000000000000000000000000000000000081526004016116109061394f565b60405180910390fd5b60015f8481526020019081526020015f2060030160159054906101000a900460ff161561167b576040517f08c379a0000000000000000000000000000000000000000000000000000000008152600401611672906139b7565b60405180910390fd5b5f60015f8581526020019081526020015f209050806003015f9054906101000a900460ff16156116e0576040517f08c379a00000000000000000000000000000000000000000000000000000000081526004016116d790613833565b60405180910390fd5b5f73ffffffffffffffffffffffffffffffffffffffff168160030160019054906101000a900473ffffffffffffffffffffffffffffffffffffffff1673ffffffffffffffffffffffffffffffffffffffff1603611772576040517f08c379a000000000000000000000000000000000000000000000000000000000815260040161176990613a1f565b60405180910390fd5b60018160030160156101000a81548160ff0219169083151502179055503373ffffffffffffffffffffffffffffffffffffffff167f84ffc84db0a14dc30a09c96c2dc65081ab5a1f28b1ec2543ec701b04ad161a9d856040516117d59190612ac4565b60405180910390a250505050565b6117eb61268c565b6117f45f612713565b565b6117fe61268c565b8060065f6101000a81548173ffffffffffffffffffffffffffffffffffffffff021916908373ffffffffffffffffffffffffffffffffffffffff16021790555050565b60065f9054906101000a900473ffffffffffffffffffffffffffffffffffffffff1681565b5f5f73ffffffffffffffffffffffffffffffffffffffff1660055f9054906101000a900473ffffffffffffffffffffffffffffffffffffffff1673ffffffffffffffffffffffffffffffffffffffff16146118e45760055f9054906101000a900473ffffffffffffffffffffffffffffffffffffffff169050611909565b60065f9054906101000a900473ffffffffffffffffffffffffffffffffffffffff1690505b90565b5f5f5f9054906101000a900473ffffffffffffffffffffffffffffffffffffffff16905090565b5f73ffffffffffffffffffffffffffffffffffffffff168273ffffffffffffffffffffffffffffffffffffffff16036119a1576040517f08c379a000000000000000000000000000000000000000000000000000000000815260040161199890613a87565b60405180910390fd5b5f34116119e3576040517f08c379a00000000000000000000000000000000000000000000000000000000081526004016119da90613aef565b60405180910390fd5b5f8111611a25576040517f08c379a0000000000000000000000000000000000000000000000000000000008152600401611a1c90613b7d565b60405180910390fd5b5f60025490506040518061010001604052803373ffffffffffffffffffffffffffffffffffffffff1681526020018473ffffffffffffffffffffffffffffffffffffffff1681526020013481526020015f151581526020015f73ffffffffffffffffffffffffffffffffffffffff1681526020015f151581526020018381526020015f81525060015f8381526020019081526020015f205f820151815f015f6101000a81548173ffffffffffffffffffffffffffffffffffffffff021916908373ffffffffffffffffffffffffffffffffffffffff1602179055506020820151816001015f6101000a81548173ffffffffffffffffffffffffffffffffffffffff021916908373ffffffffffffffffffffffffffffffffffffffff160217905550604082015181600201556060820151816003015f6101000a81548160ff02191690831515021790555060808201518160030160016101000a81548173ffffffffffffffffffffffffffffffffffffffff021916908373ffffffffffffffffffffffffffffffffffffffff16021790555060a08201518160030160156101000a81548160ff02191690831515021790555060c0820151816004015560e0820151816005015590505060025f815480929190611bff906130d8565b91905055508273ffffffffffffffffffffffffffffffffffffffff163373ffffffffffffffffffffffffffffffffffffffff167f862dfcd9710943e66ad8f1f01a99cc98ab5612a09e62ecc68f63fe2e0f86cb0e8334604051611c639291906131fd565b60405180910390a3505050565b611c7861263c565b805f73ffffffffffffffffffffffffffffffffffffffff1660015f8381526020019081526020015f205f015f9054906101000a900473ffffffffffffffffffffffffffffffffffffffff1673ffffffffffffffffffffffffffffffffffffffff1603611d19576040517f08c379a0000000000000000000000000000000000000000000000000000000008152600401611d1090612e93565b60405180910390fd5b5f60015f8481526020019081526020015f2090508060030160159054906101000a900460ff16611d7e576040517f08c379a0000000000000000000000000000000000000000000000000000000008152600401611d7590612fc8565b60405180910390fd5b8060040154816005015410611dc8576040517f08c379a0000000000000000000000000000000000000000000000000000000008152600401611dbf90613030565b60405180910390fd5b5f81600401548260020154611ddd91906130a8565b9050816005015f815480929190611df3906130d8565b91905055508160040154826005015403611e24576001826003015f6101000a81548160ff0219169083151502179055505b5f826001015f9054906101000a900473ffffffffffffffffffffffffffffffffffffffff1673ffffffffffffffffffffffffffffffffffffffff1682604051611e6c9061314c565b5f6040518083038185875af1925050503d805f8114611ea6576040519150601f19603f3d011682016040523d82523d5f602084013e611eab565b606091505b5050905080611eef576040517f08c379a0000000000000000000000000000000000000000000000000000000008152600401611ee6906131aa565b60405180910390fd5b7fd33fcd27cbfb73a2d9058c968b560ccb306500bf536133802048489ecc7355e985846005015484604051611f26939291906131c8565b60405180910390a1826003015f9054906101000a900460ff1615611fbc57826001015f9054906101000a900473ffffffffffffffffffffffffffffffffffffffff1673ffffffffffffffffffffffffffffffffffffffff167f6e3c6096795c8298a218b2cfb8bde42726ff7c9a3d27b4d3ba41ab7f74feb5fb868560020154604051611fb39291906131fd565b60405180910390a25b50505050611fc8612682565b50565b8060055f6101000a81548173ffffffffffffffffffffffffffffffffffffffff021916908373ffffffffffffffffffffffffffffffffffffffff16021790555050565b5f73ffffffffffffffffffffffffffffffffffffffff1660015f8581526020019081526020015f205f015f9054906101000a900473ffffffffffffffffffffffffffffffffffffffff1673ffffffffffffffffffffffffffffffffffffffff16146120ae576040517f08c379a00000000000000000000000000000000000000000000000000000000081526004016120a590613be5565b60405180910390fd5b6040518061010001604052803373ffffffffffffffffffffffffffffffffffffffff1681526020018373ffffffffffffffffffffffffffffffffffffffff1681526020015f81526020015f151581526020015f73ffffffffffffffffffffffffffffffffffffffff1681526020015f151581526020018281526020015f81525060015f8581526020019081526020015f205f820151815f015f6101000a81548173ffffffffffffffffffffffffffffffffffffffff021916908373ffffffffffffffffffffffffffffffffffffffff1602179055506020820151816001015f6101000a81548173ffffffffffffffffffffffffffffffffffffffff021916908373ffffffffffffffffffffffffffffffffffffffff160217905550604082015181600201556060820151816003015f6101000a81548160ff02191690831515021790555060808201518160030160016101000a81548173ffffffffffffffffffffffffffffffffffffffff021916908373ffffffffffffffffffffffffffffffffffffffff16021790555060a08201518160030160156101000a81548160ff02191690831515021790555060c0820151816004015560e0820151816005015590505060025f815480929190612282906130d8565b9190505550505050565b5f60605f5f5f60045f8781526020019081526020015f206040518060800160405290815f82015f9054906101000a900473ffffffffffffffffffffffffffffffffffffffff1673ffffffffffffffffffffffffffffffffffffffff1673ffffffffffffffffffffffffffffffffffffffff16815260200160018201805461231290613347565b80601f016020809104026020016040519081016040528092919081815260200182805461233e90613347565b80156123895780601f1061236057610100808354040283529160200191612389565b820191905f5260205f20905b81548152906001019060200180831161236c57829003601f168201915b5050505050815260200160028201548152602001600382015f9054906101000a900460ff1660028111156123c0576123bf612ba5565b5b60028111156123d2576123d1612ba5565b5b815250509050805f01518160200151826040015183606001519450945094509450509193509193565b5f5f5f5f5f5f5f5f5f60015f8b81526020019081526020015f20604051806101000160405290815f82015f9054906101000a900473ffffffffffffffffffffffffffffffffffffffff1673ffffffffffffffffffffffffffffffffffffffff1673ffffffffffffffffffffffffffffffffffffffff168152602001600182015f9054906101000a900473ffffffffffffffffffffffffffffffffffffffff1673ffffffffffffffffffffffffffffffffffffffff1673ffffffffffffffffffffffffffffffffffffffff16815260200160028201548152602001600382015f9054906101000a900460ff161515151581526020016003820160019054906101000a900473ffffffffffffffffffffffffffffffffffffffff1673ffffffffffffffffffffffffffffffffffffffff1673ffffffffffffffffffffffffffffffffffffffff1681526020016003820160159054906101000a900460ff16151515158152602001600482015481526020016005820154815250509050805f015181602001518260400151836060015184608001518560a001518660c001518760e001519850985098509850985098509850985050919395975091939597565b6125c061268c565b5f73ffffffffffffffffffffffffffffffffffffffff168173ffffffffffffffffffffffffffffffffffffffff1603612630575f6040517f1e4fbdf70000000000000000000000000000000000000000000000000000000081526004016126279190612d01565b60405180910390fd5b61263981612713565b50565b600260035403612678576040517f3ee5aeb500000000000000000000000000000000000000000000000000000000815260040160405180910390fd5b6002600381905550565b6001600381905550565b6126946127d4565b73ffffffffffffffffffffffffffffffffffffffff166126b261190c565b73ffffffffffffffffffffffffffffffffffffffff1614612711576126d56127d4565b6040517f118cdaa70000000000000000000000000000000000000000000000000000000081526004016127089190612d01565b60405180910390fd5b565b5f5f5f9054906101000a900473ffffffffffffffffffffffffffffffffffffffff169050815f5f6101000a81548173ffffffffffffffffffffffffffffffffffffffff021916908373ffffffffffffffffffffffffffffffffffffffff1602179055508173ffffffffffffffffffffffffffffffffffffffff168173ffffffffffffffffffffffffffffffffffffffff167f8be0079c531659141344cd1fd0a4f28419497f9722a3daafe3b4186f6b6457e060405160405180910390a35050565b5f33905090565b5f604051905090565b5f5ffd5b5f5ffd5b5f819050919050565b6127fe816127ec565b8114612808575f5ffd5b50565b5f81359050612819816127f5565b92915050565b5f60208284031215612834576128336127e4565b5b5f6128418482850161280b565b91505092915050565b5f73ffffffffffffffffffffffffffffffffffffffff82169050919050565b5f6128738261284a565b9050919050565b61288381612869565b82525050565b612892816127ec565b82525050565b5f8115159050919050565b6128ac81612898565b82525050565b5f610100820190506128c65f83018b61287a565b6128d3602083018a61287a565b6128e06040830189612889565b6128ed60608301886128a3565b6128fa608083018761287a565b61290760a08301866128a3565b61291460c0830185612889565b61292160e0830184612889565b9998505050505050505050565b5f5ffd5b5f5ffd5b5f601f19601f8301169050919050565b7f4e487b71000000000000000000000000000000000000000000000000000000005f52604160045260245ffd5b61297c82612936565b810181811067ffffffffffffffff8211171561299b5761299a612946565b5b80604052505050565b5f6129ad6127db565b90506129b98282612973565b919050565b5f67ffffffffffffffff8211156129d8576129d7612946565b5b6129e182612936565b9050602081019050919050565b828183375f83830152505050565b5f612a0e612a09846129be565b6129a4565b905082815260208101848484011115612a2a57612a29612932565b5b612a358482856129ee565b509392505050565b5f82601f830112612a5157612a5061292e565b5b8135612a618482602086016129fc565b91505092915050565b5f5f60408385031215612a8057612a7f6127e4565b5b5f612a8d8582860161280b565b925050602083013567ffffffffffffffff811115612aae57612aad6127e8565b5b612aba85828601612a3d565b9150509250929050565b5f602082019050612ad75f830184612889565b92915050565b612ae681612869565b8114612af0575f5ffd5b50565b5f81359050612b0181612add565b92915050565b5f5f60408385031215612b1d57612b1c6127e4565b5b5f612b2a8582860161280b565b9250506020612b3b85828601612af3565b9150509250929050565b5f81519050919050565b5f82825260208201905092915050565b8281835e5f83830152505050565b5f612b7782612b45565b612b818185612b4f565b9350612b91818560208601612b5f565b612b9a81612936565b840191505092915050565b7f4e487b71000000000000000000000000000000000000000000000000000000005f52602160045260245ffd5b60038110612be357612be2612ba5565b5b50565b5f819050612bf382612bd2565b919050565b5f612c0282612be6565b9050919050565b612c1281612bf8565b82525050565b5f608082019050612c2b5f83018761287a565b8181036020830152612c3d8186612b6d565b9050612c4c6040830185612889565b612c596060830184612c09565b95945050505050565b5f60208284031215612c7757612c766127e4565b5b5f612c8484828501612af3565b91505092915050565b5f819050919050565b5f612cb0612cab612ca68461284a565b612c8d565b61284a565b9050919050565b5f612cc182612c96565b9050919050565b5f612cd282612cb7565b9050919050565b612ce281612cc8565b82525050565b5f602082019050612cfb5f830184612cd9565b92915050565b5f602082019050612d145f83018461287a565b92915050565b5f5f60408385031215612d3057612d2f6127e4565b5b5f612d3d85828601612af3565b9250506020612d4e8582860161280b565b9150509250929050565b5f612d6282612869565b9050919050565b612d7281612d58565b8114612d7c575f5ffd5b50565b5f81359050612d8d81612d69565b92915050565b5f60208284031215612da857612da76127e4565b5b5f612db584828501612d7f565b91505092915050565b5f612dc88261284a565b9050919050565b612dd881612dbe565b8114612de2575f5ffd5b50565b5f81359050612df381612dcf565b92915050565b5f5f5f60608486031215612e1057612e0f6127e4565b5b5f612e1d8682870161280b565b9350506020612e2e86828701612de5565b9250506040612e3f8682870161280b565b9150509250925092565b7f4572726f723a2050726f6a65637420646f6573206e6f742065786973742e00005f82015250565b5f612e7d601e83612b4f565b9150612e8882612e49565b602082019050919050565b5f6020820190508181035f830152612eaa81612e71565b9050919050565b5f81519050612ebf816127f5565b92915050565b5f60208284031215612eda57612ed96127e4565b5b5f612ee784828501612eb1565b91505092915050565b7f507269636520746f6f206c6f77000000000000000000000000000000000000005f82015250565b5f612f24600d83612b4f565b9150612f2f82612ef0565b602082019050919050565b5f6020820190508181035f830152612f5181612f18565b9050919050565b7f4572726f723a2050726f6a656374206d7573742062652076616c6964617465645f8201527f206265666f72652072656c656173696e672066756e6473000000000000000000602082015250565b5f612fb2603783612b4f565b9150612fbd82612f58565b604082019050919050565b5f6020820190508181035f830152612fdf81612fa6565b9050919050565b7f4572726f723a20416c6c206d696c6573746f6e657320706169642e00000000005f82015250565b5f61301a601b83612b4f565b915061302582612fe6565b602082019050919050565b5f6020820190508181035f8301526130478161300e565b9050919050565b7f4e487b71000000000000000000000000000000000000000000000000000000005f52601260045260245ffd5b7f4e487b71000000000000000000000000000000000000000000000000000000005f52601160045260245ffd5b5f6130b2826127ec565b91506130bd836127ec565b9250826130cd576130cc61304e565b5b828204905092915050565b5f6130e2826127ec565b91507fffffffffffffffffffffffffffffffffffffffffffffffffffffffffffffffff82036131145761311361307b565b5b600182019050919050565b5f81905092915050565b50565b5f6131375f8361311f565b915061314282613129565b5f82019050919050565b5f6131568261312c565b9150819050919050565b7f5472616e73666572206661696c65642e000000000000000000000000000000005f82015250565b5f613194601083612b4f565b915061319f82613160565b602082019050919050565b5f6020820190508181035f8301526131c181613188565b9050919050565b5f6060820190506131db5f830186612889565b6131e86020830185612889565b6131f56040830184612889565b949350505050565b5f6040820190506132105f830185612889565b61321d6020830184612889565b9392505050565b7f4572726f723a204f6e6c792074686520636c69656e742063616e20706572666f5f8201527f726d207468697320616374696f6e2e0000000000000000000000000000000000602082015250565b5f61327e602f83612b4f565b915061328982613224565b604082019050919050565b5f6020820190508181035f8301526132ab81613272565b9050919050565b7f4469737075746520616c726561647920657869737473000000000000000000005f82015250565b5f6132e6601683612b4f565b91506132f1826132b2565b602082019050919050565b5f6020820190508181035f830152613313816132da565b9050919050565b7f4e487b71000000000000000000000000000000000000000000000000000000005f52602260045260245ffd5b5f600282049050600182168061335e57607f821691505b6020821081036133715761337061331a565b5b50919050565b5f819050815f5260205f209050919050565b5f6020601f8301049050919050565b5f82821b905092915050565b5f600883026133d37fffffffffffffffffffffffffffffffffffffffffffffffffffffffffffffffff82613398565b6133dd8683613398565b95508019841693508086168417925050509392505050565b5f61340f61340a613405846127ec565b612c8d565b6127ec565b9050919050565b5f819050919050565b613428836133f5565b61343c61343482613416565b8484546133a4565b825550505050565b5f5f905090565b613453613444565b61345e81848461341f565b505050565b5b81811015613481576134765f8261344b565b600181019050613464565b5050565b601f8211156134c65761349781613377565b6134a084613389565b810160208510156134af578190505b6134c36134bb85613389565b830182613463565b50505b505050565b5f82821c905092915050565b5f6134e65f19846008026134cb565b1980831691505092915050565b5f6134fe83836134d7565b9150826002028217905092915050565b61351782612b45565b67ffffffffffffffff8111156135305761352f612946565b5b61353a8254613347565b613545828285613485565b5f60209050601f831160018114613576575f8415613564578287015190505b61356e85826134f3565b8655506135d5565b601f19841661358486613377565b5f5b828110156135ab57848901518255600182019150602085019450602081019050613586565b868310156135c857848901516135c4601f8916826134d7565b8355505b6001600288020188555050505b505050505050565b5f6020820190508181035f8301526135f58184612b6d565b905092915050565b7f4572726f723a2043616e6e6f7420726566756e642061667465722066756c6c205f8201527f72656c6561736500000000000000000000000000000000000000000000000000602082015250565b5f613657602783612b4f565b9150613662826135fd565b604082019050919050565b5f6020820190508181035f8301526136848161364b565b9050919050565b7f4572726f723a2043616e6e6f7420726566756e642061667465722070617274695f8201527f616c2072656c6561736500000000000000000000000000000000000000000000602082015250565b5f6136e5602a83612b4f565b91506136f08261368b565b604082019050919050565b5f6020820190508181035f830152613712816136d9565b9050919050565b7f4572726f723a204e6f2066756e647320746f20726566756e642e0000000000005f82015250565b5f61374d601a83612b4f565b915061375882613719565b602082019050919050565b5f6020820190508181035f83015261377a81613741565b9050919050565b7f496e76616c69642076616c696461746f7220616464726573732e0000000000005f82015250565b5f6137b5601a83612b4f565b91506137c082613781565b602082019050919050565b5f6020820190508181035f8301526137e2816137a9565b9050919050565b7f46756e647320616c72656164792072656c65617365642e0000000000000000005f82015250565b5f61381d601783612b4f565b9150613828826137e9565b602082019050919050565b5f6020820190508181035f83015261384a81613811565b9050919050565b7f43616e6e6f74206368616e67652076616c696461746f722061667465722076615f8201527f6c69646174696f6e2e0000000000000000000000000000000000000000000000602082015250565b5f6138ab602983612b4f565b91506138b682613851565b604082019050919050565b5f6020820190508181035f8301526138d88161389f565b9050919050565b7f4572726f723a204f6e6c79207468652061737369676e65642076616c696461745f8201527f6f722063616e20706572666f726d207468697320616374696f6e2e0000000000602082015250565b5f613939603b83612b4f565b9150613944826138df565b604082019050919050565b5f6020820190508181035f8301526139668161392d565b9050919050565b7f50726f6a65637420616c72656164792076616c6964617465642e0000000000005f82015250565b5f6139a1601a83612b4f565b91506139ac8261396d565b602082019050919050565b5f6020820190508181035f8301526139ce81613995565b9050919050565b7f4e6f2076616c696461746f722061737369676e65642e000000000000000000005f82015250565b5f613a09601683612b4f565b9150613a14826139d5565b602082019050919050565b5f6020820190508181035f830152613a36816139fd565b9050919050565b7f496e76616c6964206172746973742061646472657373000000000000000000005f82015250565b5f613a71601683612b4f565b9150613a7c82613a3d565b602082019050919050565b5f6020820190508181035f830152613a9e81613a65565b9050919050565b7f416d6f756e74206d757374206265203e203000000000000000000000000000005f82015250565b5f613ad9601283612b4f565b9150613ae482613aa5565b602082019050919050565b5f6020820190508181035f830152613b0681613acd565b9050919050565b7f4d696c6573746f6e6520636f756e74206d7573742062652067726561746572205f8201527f7468616e207a65726f0000000000000000000000000000000000000000000000602082015250565b5f613b67602983612b4f565b9150613b7282613b0d565b604082019050919050565b5f6020820190508181035f830152613b9481613b5b565b9050919050565b7f50726f6a65637420616c726561647920657869737473000000000000000000005f82015250565b5f613bcf601683612b4f565b9150613bda82613b9b565b602082019050919050565b5f6020820190508181035f830152613bfc81613bc3565b905091905056fea2646970667358221220c1470490faa882ae0faadc0d85e106869742139ecc79283cb31d628a8aa6fddd64736f6c634300081c0033","linkReferences":{}},"methodIdentifiers":{"addValidator(uint256,address)":"4b561753","createProject(uint256,address,uint256)":"e1e7cf84","depositFunds(address,uint256)":"921b004b","disputes(uint256)":"564a565d","getDispute(uint256)":"e3a96cbd","getOracle()":"833b1fce","getProject(uint256)":"f0f3f2c8","openDispute(uint256,string)":"36f691c4","oracle()":"7dc0d1d0","owner()":"8da5cb5b","projectCount()":"36fbad26","projects(uint256)":"107046bd","refundClient(uint256)":"43eed51c","releaseAfterEvent(uint256)":"cbcbc305","releaseMilestone(uint256)":"317debf5","renounceOwnership()":"715018a6","setOracle(address)":"7adbf973","setOracleOverride(address)":"d23d4222","transferOwnership(address)":"f2fde38b","validateProject(uint256)":"57021469"},"id":0}