{"abi":[{"type":"constructor","inputs":[],"stateMutability":"nonpayable"},{"type":"function","name":"REQUIRED_KYC_LEVEL","inputs":[],"outputs":[{"name":"","type":"uint256","internalType":"uint256"}],"stateMutability":"view"},{"type":"function","name":"addValidator","inputs":[{"name":"_projectId","type":"uint256","internalType":"uint256"},{"name":"_validator","type":"address","internalType":"address"}],"outputs":[],"stateMutability":"nonpayable"},{"type":"function","name":"createProject","inputs":[{"name":"_projectId","type":"uint256","internalType":"uint256"},{"name":"_artist","type":"address","internalType":"address payable"},{"name":"_milestoneCount","type":"uint256","internalType":"uint256"}],"outputs":[],"stateMutability":"nonpayable"},{"type":"function","name":"depositFunds","inputs":[{"name":"_artist","type":"address","internalType":"address"},{"name":"_milestoneCount","type":"uint256","internalType":"uint256"}],"outputs":[],"stateMutability":"payable"},{"type":"function","name":"disputes","inputs":[{"name":"","type":"uint256","internalType":"uint256"}],"outputs":[{"name":"initiator","type":"address","internalType":"address"},{"name":"reason","type":"string","internalType":"string"},{"name":"openedAt","type":"uint256","internalType":"uint256"},{"name":"status","type":"uint8","internalType":"enum DisputeModule.DisputeStatus"}],"stateMutability":"view"},{"type":"function","name":"fallbackModule","inputs":[],"outputs":[{"name":"","type":"address","internalType":"contract IFallbackModule"}],"stateMutability":"view"},{"type":"function","name":"forteCompliance","inputs":[],"outputs":[{"name":"","type":"address","internalType":"contract IForteCompliance"}],"stateMutability":"view"},{"type":"function","name":"forteRules","inputs":[],"outputs":[{"name":"","type":"address","internalType":"contract IForteRules"}],"stateMutability":"view"},{"type":"function","name":"getDispute","inputs":[{"name":"_projectId","type":"uint256","internalType":"uint256"}],"outputs":[{"name":"initiator","type":"address","internalType":"address"},{"name":"reason","type":"string","internalType":"string"},{"name":"openedAt","type":"uint256","internalType":"uint256"},{"name":"status","type":"uint8","internalType":"enum DisputeModule.DisputeStatus"}],"stateMutability":"view"},{"type":"function","name":"getOracle","inputs":[],"outputs":[{"name":"","type":"address","internalType":"contract IOracle"}],"stateMutability":"view"},{"type":"function","name":"getProject","inputs":[{"name":"_projectId","type":"uint256","internalType":"uint256"}],"outputs":[{"name":"client","type":"address","internalType":"address"},{"name":"artist","type":"address","internalType":"address"},{"name":"amount","type":"uint256","internalType":"uint256"},{"name":"released","type":"bool","internalType":"bool"},{"name":"validator","type":"address","internalType":"address"},{"name":"validated","type":"bool","internalType":"bool"},{"name":"milestoneCount","type":"uint256","internalType":"uint256"},{"name":"milestonesPaid","type":"uint256","internalType":"uint256"},{"name":"useFallback","type":"bool","internalType":"bool"},{"name":"fallbackDelay","type":"uint256","internalType":"uint256"},{"name":"useSignature","type":"bool","internalType":"bool"},{"name":"createdAt","type":"uint256","internalType":"uint256"}],"stateMutability":"view"},{"type":"function","name":"isKYCApproved","inputs":[{"name":"user","type":"address","internalType":"address"}],"outputs":[{"name":"","type":"bool","internalType":"bool"}],"stateMutability":"view"},{"type":"function","name":"openDispute","inputs":[{"name":"_projectId","type":"uint256","internalType":"uint256"},{"name":"_reason","type":"string","internalType":"string"}],"outputs":[],"stateMutability":"nonpayable"},{"type":"function","name":"oracle","inputs":[],"outputs":[{"name":"","type":"address","internalType":"contract IOracle"}],"stateMutability":"view"},{"type":"function","name":"owner","inputs":[],"outputs":[{"name":"","type":"address","internalType":"address"}],"stateMutability":"view"},{"type":"function","name":"pause","inputs":[],"outputs":[],"stateMutability":"nonpayable"},{"type":"function","name":"paused","inputs":[],"outputs":[{"name":"","type":"bool","internalType":"bool"}],"stateMutability":"view"},{"type":"function","name":"projectConfigs","inputs":[{"name":"","type":"uint256","internalType":"uint256"}],"outputs":[{"name":"useForteRules","type":"bool","internalType":"bool"},{"name":"useFallback","type":"bool","internalType":"bool"},{"name":"useSignature","type":"bool","internalType":"bool"}],"stateMutability":"view"},{"type":"function","name":"projectCount","inputs":[],"outputs":[{"name":"","type":"uint256","internalType":"uint256"}],"stateMutability":"view"},{"type":"function","name":"projects","inputs":[{"name":"","type":"uint256","internalType":"uint256"}],"outputs":[{"name":"client","type":"address","internalType":"address"},{"name":"artist","type":"address","internalType":"address"},{"name":"amount","type":"uint256","internalType":"uint256"},{"name":"released","type":"bool","internalType":"bool"},{"name":"validator","type":"address","internalType":"address"},{"name":"validated","type":"bool","internalType":"bool"},{"name":"milestoneCount","type":"uint256","internalType":"uint256"},{"name":"milestonesPaid","type":"uint256","internalType":"uint256"},{"name":"useFallback","type":"bool","internalType":"bool"},{"name":"fallbackDelay","type":"uint256","internalType":"uint256"},{"name":"useSignature","type":"bool","internalType":"bool"},{"name":"createdAt","type":"uint256","internalType":"uint256"}],"stateMutability":"view"},{"type":"function","name":"refundClient","inputs":[{"name":"_projectId","type":"uint256","internalType":"uint256"}],"outputs":[],"stateMutability":"nonpayable"},{"type":"function","name":"releaseAfterEvent","inputs":[{"name":"_projectId","type":"uint256","internalType":"uint256"}],"outputs":[],"stateMutability":"nonpayable"},{"type":"function","name":"releaseMilestone","inputs":[{"name":"projectId","type":"uint256","internalType":"uint256"}],"outputs":[],"stateMutability":"nonpayable"},{"type":"function","name":"renounceOwnership","inputs":[],"outputs":[],"stateMutability":"nonpayable"},{"type":"function","name":"rulesModule","inputs":[],"outputs":[{"name":"","type":"address","internalType":"address"}],"stateMutability":"view"},{"type":"function","name":"rulesetIds","inputs":[{"name":"","type":"uint256","internalType":"uint256"}],"outputs":[{"name":"","type":"uint256","internalType":"uint256"}],"stateMutability":"view"},{"type":"function","name":"setFallbackModule","inputs":[{"name":"_addr","type":"address","internalType":"address"}],"outputs":[],"stateMutability":"nonpayable"},{"type":"function","name":"setForteCompliance","inputs":[{"name":"_compliance","type":"address","internalType":"address"}],"outputs":[],"stateMutability":"nonpayable"},{"type":"function","name":"setForteRulesModule","inputs":[{"name":"_addr","type":"address","internalType":"address"}],"outputs":[],"stateMutability":"nonpayable"},{"type":"function","name":"setOracle","inputs":[{"name":"_oracle","type":"address","internalType":"address"}],"outputs":[],"stateMutability":"nonpayable"},{"type":"function","name":"setOracleOverride","inputs":[{"name":"o","type":"address","internalType":"contract IOracle"}],"outputs":[],"stateMutability":"nonpayable"},{"type":"function","name":"setProjectConfig","inputs":[{"name":"_projectId","type":"uint256","internalType":"uint256"},{"name":"_useForte","type":"bool","internalType":"bool"},{"name":"_useFallback","type":"bool","internalType":"bool"},{"name":"_useSig","type":"bool","internalType":"bool"}],"outputs":[],"stateMutability":"nonpayable"},{"type":"function","name":"setRulesModule","inputs":[{"name":"_addr","type":"address","internalType":"address"}],"outputs":[],"stateMutability":"nonpayable"},{"type":"function","name":"setRulesetId","inputs":[{"name":"projectId","type":"uint256","internalType":"uint256"},{"name":"rulesetId","type":"uint256","internalType":"uint256"}],"outputs":[],"stateMutability":"nonpayable"},{"type":"function","name":"setSignatureModule","inputs":[{"name":"_addr","type":"address","internalType":"address"}],"outputs":[],"stateMutability":"nonpayable"},{"type":"function","name":"signatureModule","inputs":[],"outputs":[{"name":"","type":"address","internalType":"contract ISignatureModule"}],"stateMutability":"view"},{"type":"function","name":"transferOwnership","inputs":[{"name":"newOwner","type":"address","internalType":"address"}],"outputs":[],"stateMutability":"nonpayable"},{"type":"function","name":"unpause","inputs":[],"outputs":[],"stateMutability":"nonpayable"},{"type":"function","name":"validateProject","inputs":[{"name":"_projectId","type":"uint256","internalType":"uint256"}],"outputs":[],"stateMutability":"nonpayable"},{"type":"event","name":"ClientRefunded","inputs":[{"name":"projectId","type":"uint256","indexed":false,"internalType":"uint256"},{"name":"client","type":"address","indexed":true,"internalType":"address"},{"name":"amount","type":"uint256","indexed":false,"internalType":"uint256"}],"anonymous":false},{"type":"event","name":"DisputeOpened","inputs":[{"name":"projectId","type":"uint256","indexed":true,"internalType":"uint256"},{"name":"initiator","type":"address","indexed":true,"internalType":"address"},{"name":"reason","type":"string","indexed":false,"internalType":"string"}],"anonymous":false},{"type":"event","name":"FundsDeposited","inputs":[{"name":"projectId","type":"uint256","indexed":false,"internalType":"uint256"},{"name":"client","type":"address","indexed":true,"internalType":"address"},{"name":"artist","type":"address","indexed":true,"internalType":"address"},{"name":"amount","type":"uint256","indexed":false,"internalType":"uint256"}],"anonymous":false},{"type":"event","name":"FundsRefunded","inputs":[{"name":"projectId","type":"uint256","indexed":false,"internalType":"uint256"},{"name":"client","type":"address","indexed":true,"internalType":"address"}],"anonymous":false},{"type":"event","name":"FundsReleased","inputs":[{"name":"projectId","type":"uint256","indexed":false,"internalType":"uint256"},{"name":"artist","type":"address","indexed":true,"internalType":"address"},{"name":"amount","type":"uint256","indexed":false,"internalType":"uint256"}],"anonymous":false},{"type":"event","name":"MilestoneReleased","inputs":[{"name":"projectId","type":"uint256","indexed":false,"internalType":"uint256"},{"name":"milestoneIndex","type":"uint256","indexed":false,"internalType":"uint256"},{"name":"amount","type":"uint256","indexed":false,"internalType":"uint256"}],"anonymous":false},{"type":"event","name":"OwnershipTransferred","inputs":[{"name":"previousOwner","type":"address","indexed":true,"internalType":"address"},{"name":"newOwner","type":"address","indexed":true,"internalType":"address"}],"anonymous":false},{"type":"event","name":"Paused","inputs":[{"name":"account","type":"address","indexed":false,"internalType":"address"}],"anonymous":false},{"type":"event","name":"ProjectValidated","inputs":[{"name":"projectId","type":"uint256","indexed":false,"internalType":"uint256"},{"name":"validator","type":"address","indexed":true,"internalType":"address"}],"anonymous":false},{"type":"event","name":"Unpaused","inputs":[{"name":"account","type":"address","indexed":false,"internalType":"address"}],"anonymous":false},{"type":"event","name":"ValidatorAssigned","inputs":[{"name":"projectId","type":"uint256","indexed":false,"internalType":"uint256"},{"name":"validator","type":"address","indexed":true,"internalType":"address"}],"anonymous":false},{"type":"error","name":"AllMilestonesPaid","inputs":[]},{"type":"error","name":"AmountMustBeDivisibleByMilestoneCount","inputs":[]},{"type":"error","name":"AmountMustBeGreaterThanZero","inputs":[]},{"type":"error","name":"CannotChangeValidatorAfterValidation","inputs":[]},{"type":"error","name":"CannotRefundAfterFullRelease","inputs":[]},{"type":"error","name":"CannotRefundAfterPartialRelease","inputs":[]},{"type":"error","name":"FundsAlreadyReleased","inputs":[]},{"type":"error","name":"InvalidArtistAddress","inputs":[]},{"type":"error","name":"InvalidValidatorAddress","inputs":[]},{"type":"error","name":"KYCNotApproved","inputs":[]},{"type":"error","name":"MilestoneCountMustBeGreaterThanZero","inputs":[]},{"type":"error","name":"NoFundsToRefund","inputs":[]},{"type":"error","name":"OnlyAssignedValidator","inputs":[]},{"type":"error","name":"OnlyClient","inputs":[]},{"type":"error","name":"OwnableInvalidOwner","inputs":[{"name":"owner","type":"address","internalType":"address"}]},{"type":"error","name":"OwnableUnauthorizedAccount","inputs":[{"name":"account","type":"address","internalType":"address"}]},{"type":"error","name":"PriceTooLowSimple","inputs":[]},{"type":"error","name":"ProjectAlreadyValidated","inputs":[]},{"type":"error","name":"ProjectDoesNotExist","inputs":[]},{"type":"error","name":"ProjectMustBeValidated","inputs":[]},{"type":"error","name":"ReentrancyGuardReentrantCall","inputs":[]},{"type":"error","name":"TransferFailedSimple","inputs":[]},{"type":"error","name":"ValidatorNotAssigned","inputs":[]}],"bytecode":{"object":"0x60806040523461002757610011610036565b61001961002c565b614dc461033c8239614dc490f35b610032565b60405190565b5f80fd5b61003f33610041565b565b61004a9061004c565b565b61005590610057565b565b610060906100ee565b565b90565b90565b90565b61007f61007a61008492610062565b610068565b610065565b90565b610091600161006b565b90565b5f1b90565b906100a55f1991610094565b9181191691161790565b6100c36100be6100c892610065565b610068565b610065565b90565b90565b906100e36100de6100ea926100af565b6100cb565b8254610099565b9055565b6100f79061010b565b610109610102610087565b60046100ce565b565b61011490610169565b565b60a01b90565b9061012b60ff60a01b91610116565b9181191691161790565b151590565b61014390610135565b90565b90565b9061015e6101596101659261013a565b610146565b825461011c565b9055565b610172906101e2565b61017c5f5f610149565b565b90565b60018060a01b031690565b6101a061019b6101a59261017e565b610068565b610181565b90565b6101b19061018c565b90565b6101bd90610181565b90565b6101c9906101b4565b9052565b91906101e0905f602085019401906101c0565b565b806101fd6101f76101f25f6101a8565b6101b4565b916101b4565b1461020d5761020b906102dc565b565b6102306102195f6101a8565b5f918291631e4fbdf760e01b8352600483016101cd565b0390fd5b5f1c90565b60018060a01b031690565b61025061025591610234565b610239565b90565b6102629054610244565b90565b9061027660018060a01b0391610094565b9181191691161790565b61029461028f61029992610181565b610068565b610181565b90565b6102a590610280565b90565b6102b19061029c565b90565b90565b906102cc6102c76102d3926102a8565b6102b4565b8254610265565b9055565b5f0190565b6102e55f610258565b6102ef825f6102b7565b9061032361031d7f8be0079c531659141344cd1fd0a4f28419497f9722a3daafe3b4186f6b6457e0936102a8565b916102a8565b9161032c61002c565b80610336816102d7565b0390a356fe60806040526004361015610013575b611740565b61001d5f3561028c565b80630d01e5ef14610287578063107046bd14610282578063117159ca1461027d5780631c2c936f14610278578063216a631314610273578063235b97c91461026e5780632be550ce14610269578063317debf51461026457806331e709dc1461025f57806336f691c41461025a57806336fbad26146102555780633f4ba83a1461025057806343eed51c1461024b5780634b561753146102465780634d3f8fb814610241578063564a565d1461023c578063570214691461023757806357b91efb146102325780635c975abb1461022d57806368f98317146102285780636c56db5e14610223578063715018a61461021e5780637adbf973146102195780637dc0d1d014610214578063833b1fce1461020f5780638456cb591461020a5780638da5cb5b14610205578063921b004b14610200578063950c04f4146101fb578063cbcbc305146101f6578063d23d4222146101f1578063e1e7cf84146101ec578063e3a96cbd146101e7578063e77db232146101e2578063efa04726146101dd578063f0f3f2c8146101d8578063f2fde38b146101d3578063f6ce28bd146101ce5763f8ec8b300361000e5761170d565b6116d6565b61163a565b6115f5565b6115c0565b61151d565b6114e4565b6114b0565b611414565b611394565b611360565b611309565b6112a7565b611274565b61123f565b61120a565b611169565b611136565b611103565b6110d0565b61109b565b611053565b611020565b610fe7565b610d57565b610cd9565b610c79565b610c46565b610c11565b610bce565b610a66565b610973565b61093e565b61089b565b61082f565b61078c565b6106ed565b6105ff565b610301565b60e01c90565b60405190565b5f80fd5b5f80fd5b5f80fd5b60018060a01b031690565b6102b8906102a4565b90565b6102c4816102af565b036102cb57565b5f80fd5b905035906102dc826102bb565b565b906020828203126102f7576102f4915f016102cf565b90565b61029c565b5f0190565b3461032f576103196103143660046102de565b6118a1565b610321610292565b8061032b816102fc565b0390f35b610298565b90565b61034081610334565b0361034757565b5f80fd5b9050359061035882610337565b565b9060208282031261037357610370915f0161034b565b90565b61029c565b90565b61038f61038a61039492610334565b610378565b610334565b90565b906103a19061037b565b5f5260205260405f2090565b5f1c90565b60018060a01b031690565b6103c96103ce916103ad565b6103b2565b90565b6103db90546103bd565b90565b90565b6103ed6103f2916103ad565b6103de565b90565b6103ff90546103e1565b90565b60ff1690565b610414610419916103ad565b610402565b90565b6104269054610408565b90565b60081c90565b61043b61044091610429565b6103b2565b90565b61044d905461042f565b90565b60a81c90565b61046261046791610450565b610402565b90565b6104749054610456565b90565b610482906001610397565b9061048e5f83016103d1565b9161049b600182016103d1565b916104a8600283016103f5565b916104b56003820161041c565b916104c260038301610443565b916104cf6003820161046a565b916104dc600483016103f5565b916104e9600582016103f5565b916104f66006830161041c565b91610503600782016103f5565b9161051c60096105156008850161041c565b93016103f5565b90565b610528906102af565b9052565b61053590610334565b9052565b151590565b61054790610539565b9052565b99979593919c9b9a98969492909c6101808b019d5f8c0161056b9161051f565b60208b016105789161051f565b60408a016105859161052c565b606089016105929161053e565b6080880161059f9161051f565b60a087016105ac9161053e565b60c086016105b99161052c565b60e085016105c69161052c565b61010084016105d49161053e565b61012083016105e29161052c565b61014082016105f09161053e565b610160016105fd9161052c565b565b3461063f5761063b61061a61061536600461035a565b610477565b986106329c9a9c989198979297969396959495610292565b9c8d9c8d61054b565b0390f35b610298565b5f91031261064e57565b61029c565b1c90565b60018060a01b031690565b6106729060086106779302610653565b610657565b90565b906106859154610662565b90565b61069460085f9061067a565b90565b6106ab6106a66106b0926102a4565b610378565b6102a4565b90565b6106bc90610697565b90565b6106c8906106b3565b90565b6106d4906106bf565b9052565b91906106eb905f602085019401906106cb565b565b3461071d576106fd366004610644565b610719610708610688565b610710610292565b918291826106d8565b0390f35b610298565b9061072c9061037b565b5f5260205260405f2090565b61074890600861074d9302610653565b6103de565b90565b9061075b9154610738565b90565b6107749061076f600a915f92610722565b610750565b90565b919061078a905f6020850194019061052c565b565b346107bc576107b86107a76107a236600461035a565b61075e565b6107af610292565b91829182610777565b0390f35b610298565b60018060a01b031690565b6107dc9060086107e19302610653565b6107c1565b90565b906107ef91546107cc565b90565b6107fe60065f906107e4565b90565b61080a906106b3565b90565b61081690610801565b9052565b919061082d905f6020850194019061080d565b565b3461085f5761083f366004610644565b61085b61084a6107f2565b610852610292565b9182918261081a565b0390f35b610298565b90565b61087b61087661088092610864565b610378565b610334565b90565b61088d6003610867565b90565b610898610883565b90565b346108cb576108ab366004610644565b6108c76108b6610890565b6108be610292565b91829182610777565b0390f35b610298565b60018060a01b031690565b6108eb9060086108f09302610653565b6108d0565b90565b906108fe91546108db565b90565b61090d60035f906108f3565b90565b610919906106b3565b90565b61092590610910565b9052565b919061093c905f6020850194019061091c565b565b3461096e5761094e366004610644565b61096a610959610901565b610961610292565b91829182610929565b0390f35b610298565b346109a15761098b61098636600461035a565b612274565b610993610292565b8061099d816102fc565b0390f35b610298565b906109b09061037b565b5f5260205260405f2090565b6109c86109cd91610429565b610402565b90565b6109da90546109bc565b90565b60101c90565b6109ef6109f4916109dd565b610402565b90565b610a0190546109e3565b90565b610a0f90600d6109a6565b610a1a5f820161041c565b91610a315f610a2a8185016109d0565b93016109f7565b90565b604090610a5d610a649496959396610a5360608401985f85019061053e565b602083019061053e565b019061053e565b565b34610a9957610a95610a81610a7c36600461035a565b610a04565b610a8c939193610292565b93849384610a34565b0390f35b610298565b5f80fd5b5f80fd5b601f801991011690565b634e487b7160e01b5f52604160045260245ffd5b90610ace90610aa6565b810190811067ffffffffffffffff821117610ae857604052565b610ab0565b90610b00610af9610292565b9283610ac4565b565b67ffffffffffffffff8111610b2057610b1c602091610aa6565b0190565b610ab0565b90825f939282370152565b90929192610b45610b4082610b02565b610aed565b93818552602085019082840111610b6157610b5f92610b25565b565b610aa2565b9080601f83011215610b8457816020610b8193359101610b30565b90565b610a9e565b919091604081840312610bc957610ba2835f830161034b565b92602082013567ffffffffffffffff8111610bc457610bc19201610b66565b90565b6102a0565b61029c565b34610bfd57610be7610be1366004610b89565b906128e2565b610bef610292565b80610bf9816102fc565b0390f35b610298565b610c0e60025f90610750565b90565b34610c4157610c21366004610644565b610c3d610c2c610c02565b610c34610292565b91829182610777565b0390f35b610298565b34610c7457610c56366004610644565b610c5e612a27565b610c66610292565b80610c70816102fc565b0390f35b610298565b34610ca757610c91610c8c36600461035a565b612d7c565b610c99610292565b80610ca3816102fc565b0390f35b610298565b9190604083820312610cd45780610cc8610cd1925f860161034b565b936020016102cf565b90565b61029c565b34610d0857610cf2610cec366004610cac565b90612f76565b610cfa610292565b80610d04816102fc565b0390f35b610298565b610d1d906008610d229302610653565b6103b2565b90565b90610d309154610d0d565b90565b610d3f60095f90610d25565b90565b9190610d55905f6020850194019061051f565b565b34610d8757610d67366004610644565b610d83610d72610d33565b610d7a610292565b91829182610d42565b0390f35b610298565b90610d969061037b565b5f5260205260405f2090565b634e487b7160e01b5f52602260045260245ffd5b9060016002830492168015610dd6575b6020831014610dd157565b610da2565b91607f1691610dc6565b60209181520190565b5f5260205f2090565b905f9291805490610e0c610e0583610db6565b8094610de0565b916001811690815f14610e635750600114610e27575b505050565b610e349192939450610de9565b915f925b818410610e4b57505001905f8080610e22565b60018160209295939554848601520191019290610e38565b92949550505060ff19168252151560200201905f8080610e22565b90610e8891610df2565b90565b90610eab610ea492610e9b610292565b93848092610e7e565b0383610ac4565b565b60ff1690565b610ebf610ec4916103ad565b610ead565b90565b610ed19054610eb3565b90565b610edf906005610d8c565b90610eeb5f83016103d1565b91610ef860018201610e8b565b91610f116003610f0a600285016103f5565b9301610ec7565b90565b5190565b60209181520190565b90825f9392825e0152565b610f4b610f54602093610f5993610f4281610f14565b93848093610f18565b95869101610f21565b610aa6565b0190565b634e487b7160e01b5f52602160045260245ffd5b60031115610f7b57565b610f5d565b90610f8a82610f71565b565b610f9590610f80565b90565b610fa190610f8c565b9052565b610fde610fd3606093610fe596989795610fc660808601925f87019061051f565b8482036020860152610f2c565b96604083019061052c565b0190610f98565b565b3461101b57611017611002610ffd36600461035a565b610ed4565b9061100e949294610292565b94859485610fa5565b0390f35b610298565b3461104e5761103861103336600461035a565b613178565b611040610292565b8061104a816102fc565b0390f35b610298565b346110815761106b6110663660046102de565b6131c8565b611073610292565b8061107d816102fc565b0390f35b610298565b9190611099905f6020850194019061053e565b565b346110cb576110ab366004610644565b6110c76110b66131d7565b6110be610292565b91829182611086565b0390f35b610298565b346110fe576110e86110e33660046102de565b613280565b6110f0610292565b806110fa816102fc565b0390f35b610298565b346111315761111b6111163660046102de565b6132d2565b611123610292565b8061112d816102fc565b0390f35b610298565b3461116457611146366004610644565b61114e61330c565b611156610292565b80611160816102fc565b0390f35b610298565b346111975761118161117c3660046102de565b6133aa565b611189610292565b80611193816102fc565b0390f35b610298565b60018060a01b031690565b6111b79060086111bc9302610653565b61119c565b90565b906111ca91546111a7565b90565b6111d9600c5f906111bf565b90565b6111e5906106b3565b90565b6111f1906111dc565b9052565b9190611208905f602085019401906111e8565b565b3461123a5761121a366004610644565b6112366112256111cd565b61122d610292565b918291826111f5565b0390f35b610298565b3461126f5761124f366004610644565b61126b61125a6133da565b611262610292565b918291826111f5565b0390f35b610298565b346112a257611284366004610644565b61128c613529565b611294610292565b8061129e816102fc565b0390f35b610298565b346112d7576112b7366004610644565b6112d36112c2613537565b6112ca610292565b91829182610d42565b0390f35b610298565b919060408382031261130457806112f8611301925f86016102cf565b9360200161034b565b90565b61029c565b61131d6113173660046112dc565b90613a99565b611325610292565b8061132f816102fc565b0390f35b919060408382031261135b578061134f611358925f860161034b565b9360200161034b565b90565b61029c565b3461138f57611379611373366004611333565b90613b8b565b611381610292565b8061138b816102fc565b0390f35b610298565b346113c2576113ac6113a736600461035a565b613ea9565b6113b4610292565b806113be816102fc565b0390f35b610298565b6113d0906102af565b90565b6113dc816113c7565b036113e357565b5f80fd5b905035906113f4826113d3565b565b9060208282031261140f5761140c915f016113e7565b90565b61029c565b346114425761142c6114273660046113f6565b613eb4565b611434610292565b8061143e816102fc565b0390f35b610298565b611450906102a4565b90565b61145c81611447565b0361146357565b5f80fd5b9050359061147482611453565b565b90916060828403126114ab576114a8611491845f850161034b565b9361149f8160208601611467565b9360400161034b565b90565b61029c565b346114df576114c96114c3366004611476565b9161411e565b6114d1610292565b806114db816102fc565b0390f35b610298565b34611518576115146114ff6114fa36600461035a565b6141b6565b9061150b949294610292565b94859485610fa5565b0390f35b610298565b3461154d576115496115386115333660046102de565b61426b565b611540610292565b91829182611086565b0390f35b610298565b60018060a01b031690565b61156d9060086115729302610653565b611552565b90565b90611580915461155d565b90565b61158f60075f90611575565b90565b61159b906106b3565b90565b6115a790611592565b9052565b91906115be905f6020850194019061159e565b565b346115f0576115d0366004610644565b6115ec6115db611583565b6115e3610292565b918291826115ab565b0390f35b610298565b346116355761163161161061160b36600461035a565b61445e565b986116289c9a9c989198979297969396959495610292565b9c8d9c8d61054b565b0390f35b610298565b346116685761165261164d3660046102de565b6145ef565b61165a610292565b80611664816102fc565b0390f35b610298565b61167681610539565b0361167d57565b5f80fd5b9050359061168e8261166d565b565b6080818303126116d1576116a6825f830161034b565b926116ce6116b78460208501611681565b936116c58160408601611681565b93606001611681565b90565b61029c565b34611708576116f26116e9366004611690565b92919091614850565b6116fa610292565b80611704816102fc565b0390f35b610298565b3461173b576117256117203660046102de565b6148f2565b61172d610292565b80611737816102fc565b0390f35b610298565b5f80fd5b611755906117506148fd565b611800565b565b60a01c90565b61176961176e91611757565b610402565b90565b61177b905461175d565b90565b5f7f5061757361626c653a2070617573656400000000000000000000000000000000910152565b6117b26010602092610f18565b6117bb8161177e565b0190565b6117d49060208101905f8183039101526117a5565b90565b156117de57565b6117e6610292565b62461bcd60e51b8152806117fc600482016117bf565b0390fd5b6118239061181e6118196118135f611771565b15610539565b6117d7565b61188c565b565b61182e90610697565b90565b61183a90611825565b90565b5f1b90565b9061185360018060a01b039161183d565b9181191691161790565b61186690611825565b90565b90565b9061188161187c6118889261185d565b611869565b8254611842565b9055565b61189861189f91611831565b600661186c565b565b6118aa90611744565b565b6118cf906118ca6118c56118bf5f611771565b15610539565b6117d7565b6118d1565b565b806118f96118f36118ee5f6118e833956001610397565b016103d1565b6102af565b916102af565b036119095761190790611e5a565b565b5f63d6d90f8960e01b815280611921600482016102fc565b0390fd5b9061192f90610539565b9052565b61193d6060610aed565b90565b9061198d6119845f611950611933565b9461196761195f83830161041c565b838801611925565b61197e6119758383016109d0565b60208801611925565b016109f7565b60408401611925565b565b61199890611940565b90565b6119a59051610539565b90565b6119b46119b9916103ad565b6107c1565b90565b6119c690546119a8565b90565b90565b6119e06119db6119e5926119c9565b610378565b6102a4565b90565b6119f1906119cc565b90565b60e01b90565b90505190611a078261166d565b565b90602082820312611a2257611a1f915f016119fa565b90565b61029c565b916020611a48929493611a4160408201965f83019061052c565b019061052c565b565b611a52610292565b3d5f823e3d90fd5b5f7f426c6f636b656420627920466f7274652072756c657300000000000000000000910152565b611a8e6016602092610f18565b611a9781611a5a565b0190565b611ab09060208101905f818303910152611a81565b90565b15611aba57565b611ac2610292565b62461bcd60e51b815280611ad860048201611a9b565b0390fd5b611af0611aeb611af5926119c9565b610378565b610334565b90565b611b0190610697565b90565b611b0d90611af8565b90565b611b19906106b3565b90565b5190565b60209181520190565b611b48611b51602093611b5693611b3f81611b1c565b93848093611b20565b95869101610f21565b610aa6565b0190565b611b7e611b8b949293611b7460608401955f85019061051f565b602083019061052c565b6040818403910152611b29565b90565b5f7f52656c6561736520626c6f636b656420627920466f7274652072756c65730000910152565b611bc2601e602092610f18565b611bcb81611b8e565b0190565b611be49060208101905f818303910152611bb5565b90565b15611bee57565b611bf6610292565b62461bcd60e51b815280611c0c60048201611bcf565b0390fd5b611c1c611c21916103ad565b611552565b90565b611c2e9054611c10565b90565b5f7f46616c6c6261636b206d6f64756c65206e6f7420736574000000000000000000910152565b611c656017602092610f18565b611c6e81611c31565b0190565b611c879060208101905f818303910152611c58565b90565b15611c9157565b611c99610292565b62461bcd60e51b815280611caf60048201611c72565b0390fd5b5f7f46616c6c6261636b206e6f742072656164790000000000000000000000000000910152565b611ce76012602092610f18565b611cf081611cb3565b0190565b611d099060208101905f818303910152611cda565b90565b15611d1357565b611d1b610292565b62461bcd60e51b815280611d3160048201611cf4565b0390fd5b611d41611d46916103ad565b610657565b90565b611d539054611d35565b90565b5f7f5369676e6174757265206d6f64756c65206e6f74207365740000000000000000910152565b611d8a6018602092610f18565b611d9381611d56565b0190565b611dac9060208101905f818303910152611d7d565b90565b15611db657565b611dbe610292565b62461bcd60e51b815280611dd460048201611d97565b0390fd5b5f7f5369676e61747572652072657175697265640000000000000000000000000000910152565b611e0c6012602092610f18565b611e1581611dd8565b0190565b611e2e9060208101905f818303910152611dff565b90565b15611e3857565b611e40610292565b62461bcd60e51b815280611e5660048201611e19565b0390fd5b611e6e611e69600d83906109a6565b61198f565b611e856005611e7f60018590610397565b016103f5565b611e905f830161199b565b80612240575b6121aa575b611eaf611eaa600a8590610722565b6103f5565b611ec1611ebb5f611adc565b91610334565b118061217e575b6120a2575b50611eda6020820161199b565b611fcd575b6040611eeb910161199b565b611efb575b611ef99061496a565b565b611f7390611f35611f14611f0f6008611d49565b6106bf565b611f2e611f28611f235f6119e8565b6102af565b916102af565b1415611daf565b6020611f49611f446008611d49565b6106bf565b632430454390611f688492611f5c610292565b968794859384936119f4565b835260048301610777565b03915afa918215611fc857611ef992611f93915f91611f9a575b50611e31565b9050611ef0565b611fbb915060203d8111611fc1575b611fb38183610ac4565b810190611a09565b5f611f8d565b503d611fa9565b611a4a565b61204590612007611fe6611fe16007611c24565b611592565b612000611ffa611ff55f6119e8565b6102af565b916102af565b1415611c8a565b602061201b6120166007611c24565b611592565b635a23b1f19061203a869261202e610292565b968794859384936119f4565b835260048301610777565b03915afa90811561209d57612067604092611eeb945f9161206f575b50611d0c565b915050611edf565b612090915060203d8111612096575b6120888183610ac4565b810190611a09565b5f612061565b503d61207e565b611a4a565b6120cc836120bd6120b1610292565b93849260208401611a27565b60208201810382520382610ac4565b60206120e86120e36120de60096103d1565b611b04565b611b10565b63b6f52c4d9061211f339261212a61210a612105600a8b90610722565b6103f5565b96612113610292565b978896879586956119f4565b855260048501611b5a565b03915afa801561217957612145915f9161214b575b50611be7565b5f611ecd565b61216c915060203d8111612172575b6121648183610ac4565b810190611a09565b5f61213f565b503d61215a565b611a4a565b5061218960096103d1565b6121a361219d6121985f6119e8565b6102af565b916102af565b1415611ec8565b6121bc6121b760066119bc565b610801565b602063e5dc0b329185906121e285946121ed6121d6610292565b968795869485946119f4565b845260048401611a27565b03915afa801561223b57612208915f9161220d575b50611ab3565b611e9b565b61222e915060203d8111612234575b6122268183610ac4565b810190611a09565b5f612202565b503d61221c565b611a4a565b5061225361224e60066119bc565b610801565b61226d6122676122625f6119e8565b6102af565b916102af565b1415611e96565b61227d906118ac565b565b906122955f61228f846001610397565b016103d1565b6122af6122a96122a45f6119e8565b6102af565b916102af565b146122bf576122bd916122db565b565b5f6338fde52b60e01b8152806122d7600482016102fc565b0390fd5b90816123046122fe6122f95f6122f333956001610397565b016103d1565b6102af565b916102af565b0361231457612312916127dd565b565b5f63d6d90f8960e01b81528061232c600482016102fc565b0390fd5b90565b60207f2066756c6c2072656c6561736500000000000000000000000000000000000000917f4572726f723a2043616e6e6f74206f70656e20646973707574652061667465725f8201520152565b61238d602d604092610f18565b61239681612333565b0190565b6123af9060208101905f818303910152612380565b90565b156123b957565b6123c1610292565b62461bcd60e51b8152806123d76004820161239a565b0390fd5b5f7f4572726f723a204469737075746520616c726561647920657869737473000000910152565b61240f601d602092610f18565b612418816123db565b0190565b6124319060208101905f818303910152612402565b90565b1561243b57565b612443610292565b62461bcd60e51b8152806124596004820161241c565b0390fd5b6124676080610aed565b90565b90612474906102af565b9052565b52565b9061248590610334565b9052565b9061249390610f80565b9052565b6124a190516102af565b90565b6124ad906106b3565b90565b90565b906124c86124c36124cf926124a4565b6124b0565b8254611842565b9055565b5190565b601f602091010490565b1b90565b919060086125009102916124fa5f19846124e1565b926124e1565b9181191691161790565b90565b919061252361251e61252b9361037b565b61250a565b9083546124e5565b9055565b5f90565b6125459161253f61252f565b9161250d565b565b5b818110612553575050565b806125605f600193612533565b01612548565b9190601f8111612576575b505050565b6125826125a793610de9565b90602061258e846124d7565b830193106125af575b6125a0906124d7565b0190612547565b5f8080612571565b91506125a081929050612597565b906125cd905f1990600802610653565b191690565b816125dc916125bd565b906002021790565b906125ee81610f14565b9067ffffffffffffffff82116126ae576126128261260c8554610db6565b85612566565b602090601f831160011461264657918091612635935f9261263a575b50506125d2565b90555b565b90915001515f8061262e565b601f1983169161265585610de9565b925f5b8181106126965750916002939185600196941061267c575b50505002019055612638565b61268c910151601f8416906125bd565b90555f8080612670565b91936020600181928787015181550195019201612658565b610ab0565b906126bd916125e4565b565b6126c99051610334565b90565b906126d85f199161183d565b9181191691161790565b906126f76126f26126fe9261037b565b61250a565b82546126cc565b9055565b61270c9051610f80565b90565b9061271b60ff9161183d565b9181191691161790565b61272e90610f80565b90565b90565b9061274961274461275092612725565b612731565b825461270f565b9055565b906127b1606060036127b7946127775f82016127715f8801612497565b906124b3565b6127906001820161278a602088016124d3565b906126b3565b6127a9600282016127a3604088016126bf565b906126e2565b019201612702565b90612734565b565b906127c391612754565b565b6127da9160208201915f818403910152610f2c565b90565b61280d61280861280260036127fc6127f760018790610397565b612330565b0161041c565b15610539565b6123b2565b61283f612827600361282160058590610d8c565b01610ec7565b6128396128335f610f80565b91610f80565b14612434565b61289133612880846128774261286e60019361286561285c61245d565b975f890161246a565b60208701612478565b6040850161247b565b60608301612489565b61288c60058490610d8c565b6127b9565b903390916128dd6128cb6128c57f9b58afa035c5fa58f85c5a54b65bd3562d5aa7679e973bc1404fe25e8babab219361037b565b936124a4565b936128d4610292565b918291826127c5565b0390a3565b906128ec9161227f565b565b6128f66148fd565b6128fe6129d0565b565b5f7f5061757361626c653a20616c726561647920756e706175736564000000000000910152565b612934601a602092610f18565b61293d81612900565b0190565b6129569060208101905f818303910152612927565b90565b1561296057565b612968610292565b62461bcd60e51b81528061297e60048201612941565b0390fd5b60a01b90565b9061299760ff60a01b91612982565b9181191691161790565b6129aa90610539565b90565b90565b906129c56129c06129cc926129a1565b6129ad565b8254612988565b9055565b6129e16129dc5f611771565b612959565b6129eb5f5f6129b0565b33612a227f5db9ee0a495bf2e6ff9c91a7834c1ba4fdd244a5e8aa4e537bd38aeae4b073aa91612a19610292565b91829182610d42565b0390a1565b612a2f6128ee565b565b612a4290612a3d614c8a565b612a4c565b612a4a614d0e565b565b612a615f612a5b836001610397565b016103d1565b612a7b612a75612a705f6119e8565b6102af565b916102af565b14612a8b57612a8990612aa7565b565b5f6338fde52b60e01b815280612aa3600482016102fc565b0390fd5b80612acf612ac9612ac45f612abe33956001610397565b016103d1565b6102af565b916102af565b03612adf57612add90612ba7565b565b5f63d6d90f8960e01b815280612af7600482016102fc565b0390fd5b612b0490610697565b90565b612b1090612afb565b90565b612b1c906106b3565b90565b905090565b612b2f5f8092612b1f565b0190565b612b3c90612b24565b90565b67ffffffffffffffff8111612b5d57612b59602091610aa6565b0190565b610ab0565b90612b74612b6f83612b3f565b610aed565b918252565b606090565b3d5f14612b9957612b8e3d612b62565b903d5f602084013e5b565b612ba1612b79565b90612b97565b612bbb612bb660018390610397565b612330565b90612bc86003830161041c565b612d6057612bd8600583016103f5565b612bea612be45f611adc565b91610334565b03612d4457612bfb600283016103f5565b612c0d612c075f611adc565b91610334565b14612d28575f8091612cdf612cda85612c2b6002612d0698016103f5565b93612c4d612c3a8784016103d1565b926002612c4689611adc565b91016126e2565b8082612c8e612c7c7fd1c90c5ed8b35db630851dbe3ec20c8798b71354223bfe5a5527e84103e89d5b926124a4565b92612c85610292565b91829182610777565b0390a28185612cbd7f710864ae79ae7195dbcaa0f79eef4a8f5b490696c2d588a27f4d69ce60ac01fc926124a4565b92612cd2612cc9610292565b92839283611a27565b0390a2612b07565b612b13565b90612ce8610292565b9081612cf381612b33565b03925af1612cff612b7e565b5015610539565b612d0c57565b5f63e55c80d160e01b815280612d24600482016102fc565b0390fd5b5f634625bdf760e01b815280612d40600482016102fc565b0390fd5b5f6372748c6b60e11b815280612d5c600482016102fc565b0390fd5b5f636d31177b60e11b815280612d78600482016102fc565b0390fd5b612d8590612a31565b565b90612d9d5f612d97846001610397565b016103d1565b612db7612db1612dac5f6119e8565b6102af565b916102af565b14612dc757612dc591612de3565b565b5f6338fde52b60e01b815280612ddf600482016102fc565b0390fd5b9081612e0c612e06612e015f612dfb33956001610397565b016103d1565b6102af565b916102af565b03612e1c57612e1a91612e7b565b565b5f63d6d90f8960e01b815280612e34600482016102fc565b0390fd5b60081b90565b90612e51610100600160a81b0391612e38565b9181191691161790565b90612e70612e6b612e77926124a4565b6124b0565b8254612e3e565b9055565b612e8f612e8a60018390610397565b612330565b612e9b6003820161041c565b612f5a57612eab6003820161046a565b612f3e5782612eca612ec4612ebf5f6119e8565b6102af565b916102af565b14612f2257612edd906003849101612e5b565b90612f1d612f0b7f74c722a7077ba48f1c4a1df3ad9df69eda5ffb9518fedba9bad9596305b8b95e926124a4565b92612f14610292565b91829182610777565b0390a2565b5f63713ce51160e01b815280612f3a600482016102fc565b0390fd5b5f63b5f9044160e01b815280612f56600482016102fc565b0390fd5b5f635c1508a760e01b815280612f72600482016102fc565b0390fd5b90612f8091612d87565b565b612f975f612f91836001610397565b016103d1565b612fb1612fab612fa65f6119e8565b6102af565b916102af565b14612fc157612fbf90612fdd565b565b5f6338fde52b60e01b815280612fd9600482016102fc565b0390fd5b80613006613000612ffb6003612ff533956001610397565b01610443565b6102af565b916102af565b036130165761301490613071565b565b5f6381d009a360e01b81528061302e600482016102fc565b0390fd5b60a81b90565b9061304760ff60a81b91613032565b9181191691161790565b9061306661306161306d926129a1565b6129ad565b8254613038565b9055565b61308561308060018390610397565b612330565b6130916003820161046a565b61315c576130a16003820161041c565b613140576130b160038201610443565b6130cb6130c56130c05f6119e8565b6102af565b916102af565b14613124576130df90600360019101613051565b3361311f61310d7f84ffc84db0a14dc30a09c96c2dc65081ab5a1f28b1ec2543ec701b04ad161a9d926124a4565b92613116610292565b91829182610777565b0390a2565b5f6342b985dd60e01b81528061313c600482016102fc565b0390fd5b5f635c1508a760e01b815280613158600482016102fc565b0390fd5b5f63166de09760e01b815280613174600482016102fc565b0390fd5b61318190612f82565b565b6131949061318f6148fd565b613196565b565b6131b9906131b46131af6131a95f611771565b15610539565b6117d7565b6131bb565b565b6131c69060096124b3565b565b6131d190613183565b565b5f90565b6131df6131d3565b506131e95f611771565b90565b6131fd906131f86148fd565b6131ff565b565b6132229061321d6132186132125f611771565b15610539565b6117d7565b61326b565b565b61322d90610697565b90565b61323990613224565b90565b61324590613224565b90565b90565b9061326061325b6132679261323c565b613248565b8254611842565b9055565b61327761327e91613230565b600861324b565b565b613289906131ec565b565b61329490610697565b90565b6132a09061328b565b90565b6132ac9061328b565b90565b90565b906132c76132c26132ce926132a3565b6132af565b8254611842565b9055565b6132de6132e591613297565b60036132b2565b565b6132ef6148fd565b6132f76132f9565b565b61330a6133055f6119e8565b614d22565b565b6133146132e7565b565b613327906133226148fd565b613329565b565b61334c9061334761334261333c5f611771565b15610539565b6117d7565b613395565b565b61335790610697565b90565b6133639061334e565b90565b61336f9061334e565b90565b90565b9061338a61338561339192613366565b613372565b8254611842565b9055565b6133a16133a89161335a565b600c613375565b565b6133b390613316565b565b5f90565b6133c56133ca916103ad565b61119c565b90565b6133d790546133b9565b90565b6133e26133b5565b506133f56133f0600b6133cd565b6111dc565b61340f6134096134045f6119e8565b6102af565b916102af565b14155f1461342557613421600b6133cd565b5b90565b61342f600c6133cd565b613422565b61343c6148fd565b6134446134c8565b565b5f7f5061757361626c653a20616c7265616479207061757365640000000000000000910152565b61347a6018602092610f18565b61348381613446565b0190565b61349c9060208101905f81830391015261346d565b90565b156134a657565b6134ae610292565b62461bcd60e51b8152806134c460048201613487565b0390fd5b6134e26134dd6134d75f611771565b15610539565b61349f565b6134ed60015f6129b0565b336135247f62e78cea01bee320cd4e420270b5ea74000d11b0c9f74754ebdbfc544b05a2589161351b610292565b91829182610d42565b0390a1565b613531613434565b565b5f90565b61353f613533565b506135495f6103d1565b90565b906135709161356b6135666135605f611771565b15610539565b6117d7565b6138b9565b565b5f7f496e76616c696420617274697374206164647265737300000000000000000000910152565b6135a66016602092610f18565b6135af81613572565b0190565b6135c89060208101905f818303910152613599565b90565b156135d257565b6135da610292565b62461bcd60e51b8152806135f0600482016135b3565b0390fd5b5f7f5a65726f2076616c756500000000000000000000000000000000000000000000910152565b613628600a602092610f18565b613631816135f4565b0190565b61364a9060208101905f81830391015261361b565b90565b1561365457565b61365c610292565b62461bcd60e51b81528061367260048201613635565b0390fd5b60207f7468616e20300000000000000000000000000000000000000000000000000000917f4d696c6573746f6e6520636f756e74206d7573742062652067726561746572205f8201520152565b6136d06026604092610f18565b6136d981613676565b0190565b6136f29060208101905f8183039101526136c3565b90565b156136fc57565b613704610292565b62461bcd60e51b81528061371a600482016136dd565b0390fd5b613729610180610aed565b90565b9061374161373c613748926129a1565b6129ad565b825461270f565b9055565b90613875610160600961387b946137705f820161376a5f8801612497565b906124b3565b6137896001820161378360208801612497565b906124b3565b6137a26002820161379c604088016126bf565b906126e2565b6137bb600382016137b56060880161199b565b9061372c565b6137d4600382016137ce60808801612497565b90612e5b565b6137ed600382016137e760a0880161199b565b90613051565b6138066004820161380060c088016126bf565b906126e2565b61381f6005820161381960e088016126bf565b906126e2565b61383960068201613833610100880161199b565b9061372c565b6138536007820161384d61012088016126bf565b906126e2565b61386d60088201613867610140880161199b565b9061372c565b0192016126bf565b906126e2565b565b906138879161374c565b565b634e487b7160e01b5f52601160045260245ffd5b6138a690610334565b5f1981146138b45760010190565b613889565b90815f6138c5906119e8565b6138ce906102af565b906138d8906102af565b14156138e3906135cb565b345f6138ee90611adc565b906138f890610334565b116139029061364d565b805f61390d90611adc565b9061391790610334565b11613921906136f5565b61392b60026103f5565b903390839034905f905f61393e906119e8565b905f905f915f935f955f97429961395361371e565b9b5f8d01906139619161246a565b60208c019061396f9161246a565b60408b019061397d9161247b565b60608a019061398b91611925565b60808901906139999161246a565b60a08801906139a791611925565b60c08701906139b59161247b565b6139be90611adc565b60e08601906139cc9161247b565b6101008501906139db91611925565b6139e490611adc565b6101208401906139f39161247b565b610140830190613a0291611925565b610160820190613a119161247b565b600182613a1d91610397565b90613a279161387d565b613a3160026103f5565b613a3a9061389d565b613a459060026126e2565b903334927f862dfcd9710943e66ad8f1f01a99cc98ab5612a09e62ecc68f63fe2e0f86cb0e91613a74906124a4565b92613a7e906124a4565b93613a87610292565b918291613a949183611a27565b0390a3565b90613aa39161354c565b565b90613ab791613ab26148fd565b613b3b565b565b5f7f50726f6a65637420646f6573206e6f7420657869737400000000000000000000910152565b613aed6016602092610f18565b613af681613ab9565b0190565b613b0f9060208101905f818303910152613ae0565b90565b15613b1957565b613b21610292565b62461bcd60e51b815280613b3760048201613afa565b0390fd5b613b84613b8992613b7c613b5b5f613b5560018790610397565b016103d1565b613b75613b6f613b6a5f6119e8565b6102af565b916102af565b1415613b12565b91600a610722565b6126e2565b565b90613b9591613aa5565b565b613ba890613ba3614c8a565b613bb2565b613bb0614d0e565b565b613bc75f613bc1836001610397565b016103d1565b613be1613bdb613bd65f6119e8565b6102af565b916102af565b14613bf157613bef90613c75565b565b5f6338fde52b60e01b815280613c09600482016102fc565b0390fd5b634e487b7160e01b5f52601260045260245ffd5b613c2d613c3391610334565b91610334565b908115613c3e570490565b613c0d565b604090613c6c613c739496959396613c6260608401985f85019061052c565b602083019061052c565b019061052c565b565b613c89613c8460018390610397565b612330565b90613c9f613c996003840161046a565b15610539565b613e8d57613caf600583016103f5565b613ccc613cc6613cc1600486016103f5565b610334565b91610334565b1015613e7157613cf3613ce1600284016103f5565b613ced600485016103f5565b90613c21565b613d1160058401613d0b613d06826103f5565b61389d565b906126e2565b613d1d600584016103f5565b613d3a613d34613d2f600487016103f5565b610334565b91610334565b149081613e5e575b613d8a5f80613d63613d5e613d5960018a016103d1565b612b07565b612b13565b84613d6c610292565b9081613d7781612b33565b03925af1613d83612b7e565b5015610539565b613e42578290613d9c600586016103f5565b9091613dd47fd33fcd27cbfb73a2d9058c968b560ccb306500bf536133802048489ecc7355e993613dcb610292565b93849384613c43565b0390a1613de0575b5050565b90613df96002613df2600184016103d1565b92016103f5565b613e237f6e3c6096795c8298a218b2cfb8bde42726ff7c9a3d27b4d3ba41ab7f74feb5fb926124a4565b92613e38613e2f610292565b92839283611a27565b0390a25f80613ddc565b5f63e55c80d160e01b815280613e5a600482016102fc565b0390fd5b613e6c60016003860161372c565b613d42565b5f630174d97b60e71b815280613e89600482016102fc565b0390fd5b5f63167f21b560e21b815280613ea5600482016102fc565b0390fd5b613eb290613b97565b565b613ebf90600b613375565b565b90613ee69291613ee1613edc613ed65f611771565b15610539565b6117d7565b613f6a565b565b5f7f50726f6a65637420616c72656164792065786973747300000000000000000000910152565b613f1c6016602092610f18565b613f2581613ee8565b0190565b613f3e9060208101905f818303910152613f0f565b90565b15613f4857565b613f50610292565b62461bcd60e51b815280613f6660048201613f29565b0390fd5b9091600182613f7891610397565b5f01613f83906103d1565b5f613f8d906119e8565b613f96906102af565b90613fa0906102af565b14613faa90613f41565b825f613fb5906119e8565b613fbe906102af565b90613fc890612b13565b1415613fd3906135cb565b805f613fde90611adc565b90613fe890610334565b11613ff2906136f5565b3392905f905f905f614003906119e8565b905f905f915f935f955f97429961401861371e565b9c5f8e01906140269161246a565b61402f90612b13565b60208d019061403d9161246a565b61404690611adc565b60408c01906140549161247b565b60608b019061406291611925565b60808a01906140709161246a565b60a089019061407e91611925565b60c088019061408c9161247b565b61409590611adc565b60e08701906140a39161247b565b6101008601906140b291611925565b6140bb90611adc565b6101208501906140ca9161247b565b6101408401906140d991611925565b6101608301906140e89161247b565b6001906140f491610397565b906140fe9161387d565b61410860026103f5565b6141119061389d565b61411c9060026126e2565b565b906141299291613ec1565b565b606090565b5f90565b61413e6080610aed565b90565b906141a861419f6003614152614134565b946141696141615f83016103d1565b5f880161246a565b61418161417860018301610e8b565b60208801612478565b614199614190600283016103f5565b6040880161247b565b01610ec7565b60608401612489565b565b6141b390614141565b90565b6141e86141ed916141c5613533565b506141ce61412b565b506141d761252f565b506141e0614130565b506005610d8c565b6141aa565b6141f85f8201612497565b602082015192614216606061420f604086016126bf565b9401612702565b9193929190565b61422961422e916103ad565b6108d0565b90565b61423b905461421d565b90565b9050519061424b82610337565b565b9060208282031261426657614263915f0161423e565b90565b61029c565b60206142b3916142796131d3565b5061428c6142876003614231565b610910565b6142a8635bc008a061429c610292565b958694859384936119f4565b835260048301610d42565b03915afa908115614312575f916142e4575b506142df6142d96142d4610883565b610334565b91610334565b101590565b614305915060203d811161430b575b6142fd8183610ac4565b81019061424d565b5f6142c5565b503d6142f3565b611a4a565b614322610180610aed565b90565b906144506144466009614336614317565b9461434d6143455f83016103d1565b5f880161246a565b61436561435c600183016103d1565b6020880161246a565b61437d614374600283016103f5565b6040880161247b565b61439561438c6003830161041c565b60608801611925565b6143ad6143a460038301610443565b6080880161246a565b6143c56143bc6003830161046a565b60a08801611925565b6143dd6143d4600483016103f5565b60c0880161247b565b6143f56143ec600583016103f5565b60e0880161247b565b61440e6144046006830161041c565b6101008801611925565b61442761441d600783016103f5565b610120880161247b565b6144406144366008830161041c565b6101408801611925565b016103f5565b610160840161247b565b565b61445b90614325565b90565b6144d86144dd9161446d613533565b50614476613533565b5061447f61252f565b506144886131d3565b50614491613533565b5061449a6131d3565b506144a361252f565b506144ac61252f565b506144b56131d3565b506144be61252f565b506144c76131d3565b506144d061252f565b506001610397565b614452565b906144e95f8301612497565b906144f660208401612497565b92614503604082016126bf565b926145106060830161199b565b9261451d60808401612497565b9261452a60a0820161199b565b9261453760c083016126bf565b9261454460e084016126bf565b92614552610100820161199b565b9261456061012083016126bf565b9261457b610160614574610140860161199b565b94016126bf565b919b9a99989796959493929190565b61459b906145966148fd565b61459d565b565b806145b86145b26145ad5f6119e8565b6102af565b916102af565b146145c8576145c690614d22565b565b6145eb6145d45f6119e8565b5f918291631e4fbdf760e01b835260048301610d42565b0390fd5b6145f89061458a565b565b9061462093929161461b6146166146105f611771565b15610539565b6117d7565b6147a2565b565b60207f7400000000000000000000000000000000000000000000000000000000000000917f4f6e6c7920636c69656e742063616e20636f6e6669677572652070726f6a65635f8201520152565b61467c6021604092610f18565b61468581614622565b0190565b61469e9060208101905f81830391015261466f565b90565b156146a857565b6146b0610292565b62461bcd60e51b8152806146c660048201614689565b0390fd5b6146d46060610aed565b90565b906146e461ff0091612e38565b9181191691161790565b906147036146fe61470a926129a1565b6129ad565b82546146d7565b9055565b60101b90565b9061472262ff00009161470e565b9181191691161790565b9061474161473c614748926129a1565b6129ad565b8254614714565b9055565b9061478e60405f6147949461476e82820161476884880161199b565b9061372c565b6147868282016147806020880161199b565b906146ee565b01920161199b565b9061472c565b565b906147a09161474c565b565b61484261484e94614839614849946147e1336147db6147d56147d05f6147ca60018c90610397565b016103d1565b6102af565b916102af565b146146a1565b61481b6147fa5f6147f460018990610397565b016103d1565b61481461480e6148095f6119e8565b6102af565b916102af565b1415613b12565b956148306148276146ca565b975f8901611925565b60208701611925565b60408501611925565b600d6109a6565b614796565b565b9061485c9392916145fa565b565b61486f9061486a6148fd565b614871565b565b6148949061488f61488a6148845f611771565b15610539565b6117d7565b6148dd565b565b61489f90610697565b90565b6148ab90614896565b90565b6148b790614896565b90565b90565b906148d26148cd6148d9926148ae565b6148ba565b8254611842565b9055565b6148e96148f0916148a2565b60076148bd565b565b6148fb9061485e565b565b614905613537565b61491e614918614913614d81565b6102af565b916102af565b0361492557565b614947614930614d81565b5f91829163118cdaa760e01b835260048301610d42565b0390fd5b90565b61496261495d6149679261494b565b610378565b610334565b90565b61497e61497960018390610397565b612330565b9061499461498e6003840161046a565b15610539565b614c42576149a4600583016103f5565b6149c16149bb6149b6600486016103f5565b610334565b91610334565b1015614c26576149f260206149dc6149d76133da565b6111dc565b638e15f473906149ea610292565b9384926119f4565b82528180614a02600482016102fc565b03915afa908115614c21575f91614bf3575b50614a29614a236103e861494e565b91610334565b10614bd757614a4f614a3d600284016103f5565b614a49600485016103f5565b90613c21565b614a6d60058401614a67614a62826103f5565b61389d565b906126e2565b614a79600584016103f5565b614a96614a90614a8b600487016103f5565b610334565b91610334565b14614bc4575b614ae45f80614abd614ab8614ab3600189016103d1565b612b07565b612b13565b84614ac6610292565b9081614ad181612b33565b03925af1614add612b7e565b5015610539565b614ba8578190614af6600585016103f5565b9091614b2e7fd33fcd27cbfb73a2d9058c968b560ccb306500bf536133802048489ecc7355e993614b25610292565b93849384613c43565b0390a1614b3d6003830161041c565b614b46575b5050565b90614b5f6002614b58600184016103d1565b92016103f5565b614b897f6e3c6096795c8298a218b2cfb8bde42726ff7c9a3d27b4d3ba41ab7f74feb5fb926124a4565b92614b9e614b95610292565b92839283611a27565b0390a25f80614b42565b5f63e55c80d160e01b815280614bc0600482016102fc565b0390fd5b614bd260016003850161372c565b614a9c565b5f63499372d360e11b815280614bef600482016102fc565b0390fd5b614c14915060203d8111614c1a575b614c0c8183610ac4565b81019061424d565b5f614a14565b503d614c02565b611a4a565b5f630174d97b60e71b815280614c3e600482016102fc565b0390fd5b5f63167f21b560e21b815280614c5a600482016102fc565b0390fd5b90565b614c75614c70614c7a92614c5e565b610378565b610334565b90565b614c876002614c61565b90565b614c9460046103f5565b614cad614ca7614ca2614c7d565b610334565b91610334565b14614cc657614cc4614cbd614c7d565b60046126e2565b565b5f633ee5aeb560e01b815280614cde600482016102fc565b0390fd5b90565b614cf9614cf4614cfe92614ce2565b610378565b610334565b90565b614d0b6001614ce5565b90565b614d20614d19614d01565b60046126e2565b565b614d2b5f6103d1565b614d35825f6124b3565b90614d69614d637f8be0079c531659141344cd1fd0a4f28419497f9722a3daafe3b4186f6b6457e0936124a4565b916124a4565b91614d72610292565b80614d7c816102fc565b0390a3565b614d89613533565b50339056fea26469706673582212201acd5c206c4f5151e061e3804e372e2cf9256c351eba5a5ca5eb6f483a4c9ae664736f6c634300081c0033","linkReferences":{}},"methodIdentifiers":{"REQUIRED_KYC_LEVEL()":"235b97c9","addValidator(uint256,address)":"4b561753","createProject(uint256,address,uint256)":"e1e7cf84","depositFunds(address,uint256)":"921b004b","disputes(uint256)":"564a565d","fallbackModule()":"efa04726","forteCompliance()":"2be550ce","forteRules()":"216a6313","getDispute(uint256)":"e3a96cbd","getOracle()":"833b1fce","getProject(uint256)":"f0f3f2c8","isKYCApproved(address)":"e77db232","openDispute(uint256,string)":"36f691c4","oracle()":"7dc0d1d0","owner()":"8da5cb5b","pause()":"8456cb59","paused()":"5c975abb","projectConfigs(uint256)":"31e709dc","projectCount()":"36fbad26","projects(uint256)":"107046bd","refundClient(uint256)":"43eed51c","releaseAfterEvent(uint256)":"cbcbc305","releaseMilestone(uint256)":"317debf5","renounceOwnership()":"715018a6","rulesModule()":"4d3f8fb8","rulesetIds(uint256)":"1c2c936f","setFallbackModule(address)":"f8ec8b30","setForteCompliance(address)":"6c56db5e","setForteRulesModule(address)":"0d01e5ef","setOracle(address)":"7adbf973","setOracleOverride(address)":"d23d4222","setProjectConfig(uint256,bool,bool,bool)":"f6ce28bd","setRulesModule(address)":"57b91efb","setRulesetId(uint256,uint256)":"950c04f4","setSignatureModule(address)":"68f98317","signatureModule()":"117159ca","transferOwnership(address)":"f2fde38b","unpause()":"3f4ba83a","validateProject(uint256)":"57021469"},"id":0}