{"abi":[{"type":"constructor","inputs":[],"stateMutability":"nonpayable"},{"type":"function","name":"REQUIRED_KYC_LEVEL","inputs":[],"outputs":[{"name":"","type":"uint256","internalType":"uint256"}],"stateMutability":"view"},{"type":"function","name":"addValidator","inputs":[{"name":"_projectId","type":"uint256","internalType":"uint256"},{"name":"_validator","type":"address","internalType":"address"}],"outputs":[],"stateMutability":"nonpayable"},{"type":"function","name":"createProject","inputs":[{"name":"_projectId","type":"uint256","internalType":"uint256"},{"name":"_artist","type":"address","internalType":"address payable"},{"name":"_milestoneCount","type":"uint256","internalType":"uint256"}],"outputs":[],"stateMutability":"nonpayable"},{"type":"function","name":"depositFunds","inputs":[{"name":"_artist","type":"address","internalType":"address"},{"name":"_milestoneCount","type":"uint256","internalType":"uint256"}],"outputs":[],"stateMutability":"payable"},{"type":"function","name":"disputes","inputs":[{"name":"","type":"uint256","internalType":"uint256"}],"outputs":[{"name":"initiator","type":"address","internalType":"address"},{"name":"reason","type":"string","internalType":"string"},{"name":"openedAt","type":"uint256","internalType":"uint256"},{"name":"status","type":"uint8","internalType":"enum DisputeModule.DisputeStatus"}],"stateMutability":"view"},{"type":"function","name":"fallbackModule","inputs":[],"outputs":[{"name":"","type":"address","internalType":"contract IFallbackModule"}],"stateMutability":"view"},{"type":"function","name":"forteCompliance","inputs":[],"outputs":[{"name":"","type":"address","internalType":"contract IForteCompliance"}],"stateMutability":"view"},{"type":"function","name":"forteRules","inputs":[],"outputs":[{"name":"","type":"address","internalType":"contract IForteRules"}],"stateMutability":"view"},{"type":"function","name":"getDispute","inputs":[{"name":"_projectId","type":"uint256","internalType":"uint256"}],"outputs":[{"name":"initiator","type":"address","internalType":"address"},{"name":"reason","type":"string","internalType":"string"},{"name":"openedAt","type":"uint256","internalType":"uint256"},{"name":"status","type":"uint8","internalType":"enum DisputeModule.DisputeStatus"}],"stateMutability":"view"},{"type":"function","name":"getOracle","inputs":[],"outputs":[{"name":"","type":"address","internalType":"contract IOracle"}],"stateMutability":"view"},{"type":"function","name":"getProject","inputs":[{"name":"_projectId","type":"uint256","internalType":"uint256"}],"outputs":[{"name":"client","type":"address","internalType":"address"},{"name":"artist","type":"address","internalType":"address"},{"name":"amount","type":"uint256","internalType":"uint256"},{"name":"released","type":"bool","internalType":"bool"},{"name":"validator","type":"address","internalType":"address"},{"name":"validated","type":"bool","internalType":"bool"},{"name":"milestoneCount","type":"uint256","internalType":"uint256"},{"name":"milestonesPaid","type":"uint256","internalType":"uint256"},{"name":"useFallback","type":"bool","internalType":"bool"},{"name":"fallbackDelay","type":"uint256","internalType":"uint256"},{"name":"useSignature","type":"bool","internalType":"bool"},{"name":"createdAt","type":"uint256","internalType":"uint256"}],"stateMutability":"view"},{"type":"function","name":"isKYCApproved","inputs":[{"name":"user","type":"address","internalType":"address"}],"outputs":[{"name":"","type":"bool","internalType":"bool"}],"stateMutability":"view"},{"type":"function","name":"openDispute","inputs":[{"name":"_projectId","type":"uint256","internalType":"uint256"},{"name":"_reason","type":"string","internalType":"string"}],"outputs":[],"stateMutability":"nonpayable"},{"type":"function","name":"oracle","inputs":[],"outputs":[{"name":"","type":"address","internalType":"contract IOracle"}],"stateMutability":"view"},{"type":"function","name":"owner","inputs":[],"outputs":[{"name":"","type":"address","internalType":"address"}],"stateMutability":"view"},{"type":"function","name":"pause","inputs":[],"outputs":[],"stateMutability":"nonpayable"},{"type":"function","name":"paused","inputs":[],"outputs":[{"name":"","type":"bool","internalType":"bool"}],"stateMutability":"view"},{"type":"function","name":"projectConfigs","inputs":[{"name":"","type":"uint256","internalType":"uint256"}],"outputs":[{"name":"useForteRules","type":"bool","internalType":"bool"},{"name":"useFallback","type":"bool","internalType":"bool"},{"name":"useSignature","type":"bool","internalType":"bool"}],"stateMutability":"view"},{"type":"function","name":"projectCount","inputs":[],"outputs":[{"name":"","type":"uint256","internalType":"uint256"}],"stateMutability":"view"},{"type":"function","name":"projects","inputs":[{"name":"","type":"uint256","internalType":"uint256"}],"outputs":[{"name":"client","type":"address","internalType":"address"},{"name":"artist","type":"address","internalType":"address"},{"name":"amount","type":"uint256","internalType":"uint256"},{"name":"released","type":"bool","internalType":"bool"},{"name":"validator","type":"address","internalType":"address"},{"name":"validated","type":"bool","internalType":"bool"},{"name":"milestoneCount","type":"uint256","internalType":"uint256"},{"name":"milestonesPaid","type":"uint256","internalType":"uint256"},{"name":"useFallback","type":"bool","internalType":"bool"},{"name":"fallbackDelay","type":"uint256","internalType":"uint256"},{"name":"useSignature","type":"bool","internalType":"bool"},{"name":"createdAt","type":"uint256","internalType":"uint256"}],"stateMutability":"view"},{"type":"function","name":"refundClient","inputs":[{"name":"_projectId","type":"uint256","internalType":"uint256"}],"outputs":[],"stateMutability":"nonpayable"},{"type":"function","name":"releaseAfterEvent","inputs":[{"name":"_projectId","type":"uint256","internalType":"uint256"}],"outputs":[],"stateMutability":"nonpayable"},{"type":"function","name":"releaseMilestone","inputs":[{"name":"projectId","type":"uint256","internalType":"uint256"}],"outputs":[],"stateMutability":"nonpayable"},{"type":"function","name":"renounceOwnership","inputs":[],"outputs":[],"stateMutability":"nonpayable"},{"type":"function","name":"setFallbackModule","inputs":[{"name":"_addr","type":"address","internalType":"address"}],"outputs":[],"stateMutability":"nonpayable"},{"type":"function","name":"setForteCompliance","inputs":[{"name":"_compliance","type":"address","internalType":"address"}],"outputs":[],"stateMutability":"nonpayable"},{"type":"function","name":"setForteRulesModule","inputs":[{"name":"_addr","type":"address","internalType":"address"}],"outputs":[],"stateMutability":"nonpayable"},{"type":"function","name":"setOracle","inputs":[{"name":"_oracle","type":"address","internalType":"address"}],"outputs":[],"stateMutability":"nonpayable"},{"type":"function","name":"setOracleOverride","inputs":[{"name":"o","type":"address","internalType":"contract IOracle"}],"outputs":[],"stateMutability":"nonpayable"},{"type":"function","name":"setProjectConfig","inputs":[{"name":"_projectId","type":"uint256","internalType":"uint256"},{"name":"_useForte","type":"bool","internalType":"bool"},{"name":"_useFallback","type":"bool","internalType":"bool"},{"name":"_useSig","type":"bool","internalType":"bool"}],"outputs":[],"stateMutability":"nonpayable"},{"type":"function","name":"setSignatureModule","inputs":[{"name":"_addr","type":"address","internalType":"address"}],"outputs":[],"stateMutability":"nonpayable"},{"type":"function","name":"signatureModule","inputs":[],"outputs":[{"name":"","type":"address","internalType":"contract ISignatureModule"}],"stateMutability":"view"},{"type":"function","name":"transferOwnership","inputs":[{"name":"newOwner","type":"address","internalType":"address"}],"outputs":[],"stateMutability":"nonpayable"},{"type":"function","name":"unpause","inputs":[],"outputs":[],"stateMutability":"nonpayable"},{"type":"function","name":"validateProject","inputs":[{"name":"_projectId","type":"uint256","internalType":"uint256"}],"outputs":[],"stateMutability":"nonpayable"},{"type":"event","name":"ClientRefunded","inputs":[{"name":"projectId","type":"uint256","indexed":false,"internalType":"uint256"},{"name":"client","type":"address","indexed":true,"internalType":"address"},{"name":"amount","type":"uint256","indexed":false,"internalType":"uint256"}],"anonymous":false},{"type":"event","name":"DisputeOpened","inputs":[{"name":"projectId","type":"uint256","indexed":true,"internalType":"uint256"},{"name":"initiator","type":"address","indexed":true,"internalType":"address"},{"name":"reason","type":"string","indexed":false,"internalType":"string"}],"anonymous":false},{"type":"event","name":"FundsDeposited","inputs":[{"name":"projectId","type":"uint256","indexed":false,"internalType":"uint256"},{"name":"client","type":"address","indexed":true,"internalType":"address"},{"name":"artist","type":"address","indexed":true,"internalType":"address"},{"name":"amount","type":"uint256","indexed":false,"internalType":"uint256"}],"anonymous":false},{"type":"event","name":"FundsRefunded","inputs":[{"name":"projectId","type":"uint256","indexed":false,"internalType":"uint256"},{"name":"client","type":"address","indexed":true,"internalType":"address"}],"anonymous":false},{"type":"event","name":"FundsReleased","inputs":[{"name":"projectId","type":"uint256","indexed":false,"internalType":"uint256"},{"name":"artist","type":"address","indexed":true,"internalType":"address"},{"name":"amount","type":"uint256","indexed":false,"internalType":"uint256"}],"anonymous":false},{"type":"event","name":"MilestoneReleased","inputs":[{"name":"projectId","type":"uint256","indexed":false,"internalType":"uint256"},{"name":"milestoneIndex","type":"uint256","indexed":false,"internalType":"uint256"},{"name":"amount","type":"uint256","indexed":false,"internalType":"uint256"}],"anonymous":false},{"type":"event","name":"OwnershipTransferred","inputs":[{"name":"previousOwner","type":"address","indexed":true,"internalType":"address"},{"name":"newOwner","type":"address","indexed":true,"internalType":"address"}],"anonymous":false},{"type":"event","name":"Paused","inputs":[{"name":"account","type":"address","indexed":false,"internalType":"address"}],"anonymous":false},{"type":"event","name":"ProjectValidated","inputs":[{"name":"projectId","type":"uint256","indexed":false,"internalType":"uint256"},{"name":"validator","type":"address","indexed":true,"internalType":"address"}],"anonymous":false},{"type":"event","name":"Unpaused","inputs":[{"name":"account","type":"address","indexed":false,"internalType":"address"}],"anonymous":false},{"type":"event","name":"ValidatorAssigned","inputs":[{"name":"projectId","type":"uint256","indexed":false,"internalType":"uint256"},{"name":"validator","type":"address","indexed":true,"internalType":"address"}],"anonymous":false},{"type":"error","name":"AllMilestonesPaid","inputs":[]},{"type":"error","name":"AmountMustBeDivisibleByMilestoneCount","inputs":[]},{"type":"error","name":"AmountMustBeGreaterThanZero","inputs":[]},{"type":"error","name":"CannotChangeValidatorAfterValidation","inputs":[]},{"type":"error","name":"CannotRefundAfterFullRelease","inputs":[]},{"type":"error","name":"CannotRefundAfterPartialRelease","inputs":[]},{"type":"error","name":"FundsAlreadyReleased","inputs":[]},{"type":"error","name":"InvalidArtistAddress","inputs":[]},{"type":"error","name":"InvalidValidatorAddress","inputs":[]},{"type":"error","name":"KYCNotApproved","inputs":[]},{"type":"error","name":"MilestoneCountMustBeGreaterThanZero","inputs":[]},{"type":"error","name":"NoFundsToRefund","inputs":[]},{"type":"error","name":"OnlyAssignedValidator","inputs":[]},{"type":"error","name":"OnlyClient","inputs":[]},{"type":"error","name":"OwnableInvalidOwner","inputs":[{"name":"owner","type":"address","internalType":"address"}]},{"type":"error","name":"OwnableUnauthorizedAccount","inputs":[{"name":"account","type":"address","internalType":"address"}]},{"type":"error","name":"PriceTooLowSimple","inputs":[]},{"type":"error","name":"ProjectAlreadyValidated","inputs":[]},{"type":"error","name":"ProjectDoesNotExist","inputs":[]},{"type":"error","name":"ProjectMustBeValidated","inputs":[]},{"type":"error","name":"ReentrancyGuardReentrantCall","inputs":[]},{"type":"error","name":"TransferFailedSimple","inputs":[]},{"type":"error","name":"ValidatorNotAssigned","inputs":[]}],"bytecode":{"object":"0x60806040523461002757610011610036565b61001961002c565b6148ab61033c82396148ab90f35b610032565b60405190565b5f80fd5b61003f33610041565b565b61004a9061004c565b565b61005590610057565b565b610060906100ee565b565b90565b90565b90565b61007f61007a61008492610062565b610068565b610065565b90565b610091600161006b565b90565b5f1b90565b906100a55f1991610094565b9181191691161790565b6100c36100be6100c892610065565b610068565b610065565b90565b90565b906100e36100de6100ea926100af565b6100cb565b8254610099565b9055565b6100f79061010b565b610109610102610087565b60046100ce565b565b61011490610169565b565b60a01b90565b9061012b60ff60a01b91610116565b9181191691161790565b151590565b61014390610135565b90565b90565b9061015e6101596101659261013a565b610146565b825461011c565b9055565b610172906101e2565b61017c5f5f610149565b565b90565b60018060a01b031690565b6101a061019b6101a59261017e565b610068565b610181565b90565b6101b19061018c565b90565b6101bd90610181565b90565b6101c9906101b4565b9052565b91906101e0905f602085019401906101c0565b565b806101fd6101f76101f25f6101a8565b6101b4565b916101b4565b1461020d5761020b906102dc565b565b6102306102195f6101a8565b5f918291631e4fbdf760e01b8352600483016101cd565b0390fd5b5f1c90565b60018060a01b031690565b61025061025591610234565b610239565b90565b6102629054610244565b90565b9061027660018060a01b0391610094565b9181191691161790565b61029461028f61029992610181565b610068565b610181565b90565b6102a590610280565b90565b6102b19061029c565b90565b90565b906102cc6102c76102d3926102a8565b6102b4565b8254610265565b9055565b5f0190565b6102e55f610258565b6102ef825f6102b7565b9061032361031d7f8be0079c531659141344cd1fd0a4f28419497f9722a3daafe3b4186f6b6457e0936102a8565b916102a8565b9161032c61002c565b80610336816102d7565b0390a356fe60806040526004361015610013575b61159e565b61001d5f3561024c565b80630d01e5ef14610247578063107046bd14610242578063117159ca1461023d578063216a631314610238578063235b97c9146102335780632be550ce1461022e578063317debf51461022957806331e709dc1461022457806336f691c41461021f57806336fbad261461021a5780633f4ba83a1461021557806343eed51c146102105780634b5617531461020b578063564a565d1461020657806357021469146102015780635c975abb146101fc57806368f98317146101f75780636c56db5e146101f2578063715018a6146101ed5780637adbf973146101e85780637dc0d1d0146101e3578063833b1fce146101de5780638456cb59146101d95780638da5cb5b146101d4578063921b004b146101cf578063cbcbc305146101ca578063d23d4222146101c5578063e1e7cf84146101c0578063e3a96cbd146101bb578063e77db232146101b6578063efa04726146101b1578063f0f3f2c8146101ac578063f2fde38b146101a7578063f6ce28bd146101a25763f8ec8b300361000e5761156b565b611534565b611498565b611453565b61141e565b61137b565b611342565b61130e565b611272565b6111f2565b6111c8565b611166565b61111e565b6110e9565b6110b4565b611013565b610fe0565b610fad565b610f7a565b610f45565b610efd565b610ec4565b610c35565b610bd5565b610ba2565b610b6d565b610b04565b61099c565b6108a9565b610874565b6107d1565b610750565b6106ad565b6105bf565b6102c1565b60e01c90565b60405190565b5f80fd5b5f80fd5b5f80fd5b60018060a01b031690565b61027890610264565b90565b6102848161026f565b0361028b57565b5f80fd5b9050359061029c8261027b565b565b906020828203126102b7576102b4915f0161028f565b90565b61025c565b5f0190565b346102ef576102d96102d436600461029e565b6116ff565b6102e1610252565b806102eb816102bc565b0390f35b610258565b90565b610300816102f4565b0361030757565b5f80fd5b90503590610318826102f7565b565b9060208282031261033357610330915f0161030b565b90565b61025c565b90565b61034f61034a610354926102f4565b610338565b6102f4565b90565b906103619061033b565b5f5260205260405f2090565b5f1c90565b60018060a01b031690565b61038961038e9161036d565b610372565b90565b61039b905461037d565b90565b90565b6103ad6103b29161036d565b61039e565b90565b6103bf90546103a1565b90565b60ff1690565b6103d46103d99161036d565b6103c2565b90565b6103e690546103c8565b90565b60081c90565b6103fb610400916103e9565b610372565b90565b61040d90546103ef565b90565b60a81c90565b61042261042791610410565b6103c2565b90565b6104349054610416565b90565b610442906001610357565b9061044e5f8301610391565b9161045b60018201610391565b91610468600283016103b5565b91610475600382016103dc565b9161048260038301610403565b9161048f6003820161042a565b9161049c600483016103b5565b916104a9600582016103b5565b916104b6600683016103dc565b916104c3600782016103b5565b916104dc60096104d5600885016103dc565b93016103b5565b90565b6104e89061026f565b9052565b6104f5906102f4565b9052565b151590565b610507906104f9565b9052565b99979593919c9b9a98969492909c6101808b019d5f8c0161052b916104df565b60208b01610538916104df565b60408a01610545916104ec565b60608901610552916104fe565b6080880161055f916104df565b60a0870161056c916104fe565b60c08601610579916104ec565b60e08501610586916104ec565b6101008401610594916104fe565b61012083016105a2916104ec565b61014082016105b0916104fe565b610160016105bd916104ec565b565b346105ff576105fb6105da6105d536600461031a565b610437565b986105f29c9a9c989198979297969396959495610252565b9c8d9c8d61050b565b0390f35b610258565b5f91031261060e57565b61025c565b1c90565b60018060a01b031690565b6106329060086106379302610613565b610617565b90565b906106459154610622565b90565b61065460085f9061063a565b90565b61066b61066661067092610264565b610338565b610264565b90565b61067c90610657565b90565b61068890610673565b90565b6106949061067f565b9052565b91906106ab905f6020850194019061068b565b565b346106dd576106bd366004610604565b6106d96106c8610648565b6106d0610252565b91829182610698565b0390f35b610258565b60018060a01b031690565b6106fd9060086107029302610613565b6106e2565b90565b9061071091546106ed565b90565b61071f60065f90610705565b90565b61072b90610673565b90565b61073790610722565b9052565b919061074e905f6020850194019061072e565b565b3461078057610760366004610604565b61077c61076b610713565b610773610252565b9182918261073b565b0390f35b610258565b90565b61079c6107976107a192610785565b610338565b6102f4565b90565b6107ae6003610788565b90565b6107b96107a4565b90565b91906107cf905f602085019401906104ec565b565b34610801576107e1366004610604565b6107fd6107ec6107b1565b6107f4610252565b918291826107bc565b0390f35b610258565b60018060a01b031690565b6108219060086108269302610613565b610806565b90565b906108349154610811565b90565b61084360035f90610829565b90565b61084f90610673565b90565b61085b90610846565b9052565b9190610872905f60208501940190610852565b565b346108a457610884366004610604565b6108a061088f610837565b610897610252565b9182918261085f565b0390f35b610258565b346108d7576108c16108bc36600461031a565b611f09565b6108c9610252565b806108d3816102bc565b0390f35b610258565b906108e69061033b565b5f5260205260405f2090565b6108fe610903916103e9565b6103c2565b90565b61091090546108f2565b90565b60101c90565b61092561092a91610913565b6103c2565b90565b6109379054610919565b90565b61094590600b6108dc565b6109505f82016103dc565b916109675f610960818501610906565b930161092d565b90565b60409061099361099a949695939661098960608401985f8501906104fe565b60208301906104fe565b01906104fe565b565b346109cf576109cb6109b76109b236600461031a565b61093a565b6109c2939193610252565b9384938461096a565b0390f35b610258565b5f80fd5b5f80fd5b601f801991011690565b634e487b7160e01b5f52604160045260245ffd5b90610a04906109dc565b810190811067ffffffffffffffff821117610a1e57604052565b6109e6565b90610a36610a2f610252565b92836109fa565b565b67ffffffffffffffff8111610a5657610a526020916109dc565b0190565b6109e6565b90825f939282370152565b90929192610a7b610a7682610a38565b610a23565b93818552602085019082840111610a9757610a9592610a5b565b565b6109d8565b9080601f83011215610aba57816020610ab793359101610a66565b90565b6109d4565b919091604081840312610aff57610ad8835f830161030b565b92602082013567ffffffffffffffff8111610afa57610af79201610a9c565b90565b610260565b61025c565b34610b3357610b1d610b17366004610abf565b90612577565b610b25610252565b80610b2f816102bc565b0390f35b610258565b610b48906008610b4d9302610613565b61039e565b90565b90610b5b9154610b38565b90565b610b6a60025f90610b50565b90565b34610b9d57610b7d366004610604565b610b99610b88610b5e565b610b90610252565b918291826107bc565b0390f35b610258565b34610bd057610bb2366004610604565b610bba6126bc565b610bc2610252565b80610bcc816102bc565b0390f35b610258565b34610c0357610bed610be836600461031a565b612a2d565b610bf5610252565b80610bff816102bc565b0390f35b610258565b9190604083820312610c305780610c24610c2d925f860161030b565b9360200161028f565b90565b61025c565b34610c6457610c4e610c48366004610c08565b90612c27565b610c56610252565b80610c60816102bc565b0390f35b610258565b90610c739061033b565b5f5260205260405f2090565b634e487b7160e01b5f52602260045260245ffd5b9060016002830492168015610cb3575b6020831014610cae57565b610c7f565b91607f1691610ca3565b60209181520190565b5f5260205f2090565b905f9291805490610ce9610ce283610c93565b8094610cbd565b916001811690815f14610d405750600114610d04575b505050565b610d119192939450610cc6565b915f925b818410610d2857505001905f8080610cff565b60018160209295939554848601520191019290610d15565b92949550505060ff19168252151560200201905f8080610cff565b90610d6591610ccf565b90565b90610d88610d8192610d78610252565b93848092610d5b565b03836109fa565b565b60ff1690565b610d9c610da19161036d565b610d8a565b90565b610dae9054610d90565b90565b610dbc906005610c69565b90610dc85f8301610391565b91610dd560018201610d68565b91610dee6003610de7600285016103b5565b9301610da4565b90565b5190565b60209181520190565b90825f9392825e0152565b610e28610e31602093610e3693610e1f81610df1565b93848093610df5565b95869101610dfe565b6109dc565b0190565b634e487b7160e01b5f52602160045260245ffd5b60031115610e5857565b610e3a565b90610e6782610e4e565b565b610e7290610e5d565b90565b610e7e90610e69565b9052565b610ebb610eb0606093610ec296989795610ea360808601925f8701906104df565b8482036020860152610e09565b9660408301906104ec565b0190610e75565b565b34610ef857610ef4610edf610eda36600461031a565b610db1565b90610eeb949294610252565b94859485610e82565b0390f35b610258565b34610f2b57610f15610f1036600461031a565b612e29565b610f1d610252565b80610f27816102bc565b0390f35b610258565b9190610f43905f602085019401906104fe565b565b34610f7557610f55366004610604565b610f71610f60612e38565b610f68610252565b91829182610f30565b0390f35b610258565b34610fa857610f92610f8d36600461029e565b612ee1565b610f9a610252565b80610fa4816102bc565b0390f35b610258565b34610fdb57610fc5610fc036600461029e565b612f33565b610fcd610252565b80610fd7816102bc565b0390f35b610258565b3461100e57610ff0366004610604565b610ff8612f6d565b611000610252565b8061100a816102bc565b0390f35b610258565b346110415761102b61102636600461029e565b61300b565b611033610252565b8061103d816102bc565b0390f35b610258565b60018060a01b031690565b6110619060086110669302610613565b611046565b90565b906110749154611051565b90565b611083600a5f90611069565b90565b61108f90610673565b90565b61109b90611086565b9052565b91906110b2905f60208501940190611092565b565b346110e4576110c4366004610604565b6110e06110cf611077565b6110d7610252565b9182918261109f565b0390f35b610258565b34611119576110f9366004610604565b61111561110461303b565b61110c610252565b9182918261109f565b0390f35b610258565b3461114c5761112e366004610604565b611136613184565b61113e610252565b80611148816102bc565b0390f35b610258565b9190611164905f602085019401906104df565b565b3461119657611176366004610604565b611192611181613192565b611189610252565b91829182611151565b0390f35b610258565b91906040838203126111c357806111b76111c0925f860161028f565b9360200161030b565b90565b61025c565b6111dc6111d636600461119b565b906136f4565b6111e4610252565b806111ee816102bc565b0390f35b346112205761120a61120536600461031a565b613a12565b611212610252565b8061121c816102bc565b0390f35b610258565b61122e9061026f565b90565b61123a81611225565b0361124157565b5f80fd5b9050359061125282611231565b565b9060208282031261126d5761126a915f01611245565b90565b61025c565b346112a05761128a611285366004611254565b613a1d565b611292610252565b8061129c816102bc565b0390f35b610258565b6112ae90610264565b90565b6112ba816112a5565b036112c157565b5f80fd5b905035906112d2826112b1565b565b9091606082840312611309576113066112ef845f850161030b565b936112fd81602086016112c5565b9360400161030b565b90565b61025c565b3461133d576113276113213660046112d4565b91613c3f565b61132f610252565b80611339816102bc565b0390f35b610258565b346113765761137261135d61135836600461031a565b613cd7565b90611369949294610252565b94859485610e82565b0390f35b610258565b346113ab576113a761139661139136600461029e565b613d8c565b61139e610252565b91829182610f30565b0390f35b610258565b60018060a01b031690565b6113cb9060086113d09302610613565b6113b0565b90565b906113de91546113bb565b90565b6113ed60075f906113d3565b90565b6113f990610673565b90565b611405906113f0565b9052565b919061141c905f602085019401906113fc565b565b3461144e5761142e366004610604565b61144a6114396113e1565b611441610252565b91829182611409565b0390f35b610258565b346114935761148f61146e61146936600461031a565b613f7f565b986114869c9a9c989198979297969396959495610252565b9c8d9c8d61050b565b0390f35b610258565b346114c6576114b06114ab36600461029e565b614110565b6114b8610252565b806114c2816102bc565b0390f35b610258565b6114d4816104f9565b036114db57565b5f80fd5b905035906114ec826114cb565b565b60808183031261152f57611504825f830161030b565b9261152c61151584602085016114df565b9361152381604086016114df565b936060016114df565b90565b61025c565b34611566576115506115473660046114ee565b92919091614337565b611558610252565b80611562816102bc565b0390f35b610258565b346115995761158361157e36600461029e565b6143d9565b61158b610252565b80611595816102bc565b0390f35b610258565b5f80fd5b6115b3906115ae6143e4565b61165e565b565b60a01c90565b6115c76115cc916115b5565b6103c2565b90565b6115d990546115bb565b90565b5f7f5061757361626c653a2070617573656400000000000000000000000000000000910152565b6116106010602092610df5565b611619816115dc565b0190565b6116329060208101905f818303910152611603565b90565b1561163c57565b611644610252565b62461bcd60e51b81528061165a6004820161161d565b0390fd5b6116819061167c6116776116715f6115cf565b156104f9565b611635565b6116ea565b565b61168c90610657565b90565b61169890611683565b90565b5f1b90565b906116b160018060a01b039161169b565b9181191691161790565b6116c490611683565b90565b90565b906116df6116da6116e6926116bb565b6116c7565b82546116a0565b9055565b6116f66116fd9161168f565b60066116ca565b565b611708906115a2565b565b61172d9061172861172361171d5f6115cf565b156104f9565b611635565b61172f565b565b8061175761175161174c5f61174633956001610357565b01610391565b61026f565b9161026f565b036117675761176590611c2c565b565b5f63d6d90f8960e01b81528061177f600482016102bc565b0390fd5b9061178d906104f9565b9052565b61179b6060610a23565b90565b906117eb6117e25f6117ae611791565b946117c56117bd8383016103dc565b838801611783565b6117dc6117d3838301610906565b60208801611783565b0161092d565b60408401611783565b565b6117f69061179e565b90565b61180390516104f9565b90565b6118126118179161036d565b6106e2565b90565b6118249054611806565b90565b90565b61183e61183961184392611827565b610338565b610264565b90565b61184f9061182a565b90565b5f7f466f72746552756c6573206d6f64756c65206e6f742073657400000000000000910152565b6118866019602092610df5565b61188f81611852565b0190565b6118a89060208101905f818303910152611879565b90565b156118b257565b6118ba610252565b62461bcd60e51b8152806118d060048201611893565b0390fd5b60e01b90565b905051906118e7826114cb565b565b90602082820312611902576118ff915f016118da565b90565b61025c565b91602061192892949361192160408201965f8301906104ec565b01906104ec565b565b611932610252565b3d5f823e3d90fd5b5f7f52656c6561736520626c6f636b656420627920466f7274652072756c65730000910152565b61196e601e602092610df5565b6119778161193a565b0190565b6119909060208101905f818303910152611961565b90565b1561199a57565b6119a2610252565b62461bcd60e51b8152806119b86004820161197b565b0390fd5b6119c86119cd9161036d565b6113b0565b90565b6119da90546119bc565b90565b5f7f46616c6c6261636b206d6f64756c65206e6f7420736574000000000000000000910152565b611a116017602092610df5565b611a1a816119dd565b0190565b611a339060208101905f818303910152611a04565b90565b15611a3d57565b611a45610252565b62461bcd60e51b815280611a5b60048201611a1e565b0390fd5b5f7f46616c6c6261636b20636f6e646974696f6e206e6f74206d6574000000000000910152565b611a93601a602092610df5565b611a9c81611a5f565b0190565b611ab59060208101905f818303910152611a86565b90565b15611abf57565b611ac7610252565b62461bcd60e51b815280611add60048201611aa0565b0390fd5b611aed611af29161036d565b610617565b90565b611aff9054611ae1565b90565b5f7f5369676e6174757265206d6f64756c65206e6f74207365740000000000000000910152565b611b366018602092610df5565b611b3f81611b02565b0190565b611b589060208101905f818303910152611b29565b90565b15611b6257565b611b6a610252565b62461bcd60e51b815280611b8060048201611b43565b0390fd5b60207f69726d0000000000000000000000000000000000000000000000000000000000917f426f746820636c69656e7420616e6420617274697374206d75737420636f6e665f8201520152565b611bde6023604092610df5565b611be781611b84565b0190565b611c009060208101905f818303910152611bd1565b90565b15611c0a57565b611c12610252565b62461bcd60e51b815280611c2860048201611beb565b0390fd5b611c40611c3b600b83906108dc565b6117ed565b611c576005611c5160018590610357565b016103b5565b611c625f83016117f9565b611e3d575b611c73602083016117f9565b611d67575b506040611c8591016117f9565b611c95575b611c9390614451565b565b611d0d90611ccf611cae611ca96008611af5565b61067f565b611cc8611cc2611cbd5f611846565b61026f565b9161026f565b1415611b5b565b6020611ce3611cde6008611af5565b61067f565b632430454390611d028492611cf6610252565b968794859384936118d4565b8352600483016107bc565b03915afa918215611d6257611c9392611d2d915f91611d34575b50611c03565b9050611c8a565b611d55915060203d8111611d5b575b611d4d81836109fa565b8101906118e9565b5f611d27565b503d611d43565b61192a565b90611d9e611d7d611d7860076119d0565b6113f0565b611d97611d91611d8c5f611846565b61026f565b9161026f565b1415611a36565b6020611db2611dad60076119d0565b6113f0565b9263f36f43e593611dd6869295611de1611dca610252565b978895869485946118d4565b845260048401611907565b03915afa908115611e3857611e03604092611c85945f91611e0a575b50611ab8565b9150611c78565b611e2b915060203d8111611e31575b611e2381836109fa565b8101906118e9565b5f611dfd565b503d611e19565b61192a565b611e73611e52611e4d600661181a565b610722565b611e6c611e66611e615f611846565b61026f565b9161026f565b14156118ab565b611e85611e80600661181a565b610722565b602063e5dc0b32918590611eab8594611eb6611e9f610252565b968795869485946118d4565b845260048401611907565b03915afa8015611f0457611ed1915f91611ed6575b50611993565b611c67565b611ef7915060203d8111611efd575b611eef81836109fa565b8101906118e9565b5f611ecb565b503d611ee5565b61192a565b611f129061170a565b565b90611f2a5f611f24846001610357565b01610391565b611f44611f3e611f395f611846565b61026f565b9161026f565b14611f5457611f5291611f70565b565b5f6338fde52b60e01b815280611f6c600482016102bc565b0390fd5b9081611f99611f93611f8e5f611f8833956001610357565b01610391565b61026f565b9161026f565b03611fa957611fa791612472565b565b5f63d6d90f8960e01b815280611fc1600482016102bc565b0390fd5b90565b60207f2066756c6c2072656c6561736500000000000000000000000000000000000000917f4572726f723a2043616e6e6f74206f70656e20646973707574652061667465725f8201520152565b612022602d604092610df5565b61202b81611fc8565b0190565b6120449060208101905f818303910152612015565b90565b1561204e57565b612056610252565b62461bcd60e51b81528061206c6004820161202f565b0390fd5b5f7f4572726f723a204469737075746520616c726561647920657869737473000000910152565b6120a4601d602092610df5565b6120ad81612070565b0190565b6120c69060208101905f818303910152612097565b90565b156120d057565b6120d8610252565b62461bcd60e51b8152806120ee600482016120b1565b0390fd5b6120fc6080610a23565b90565b906121099061026f565b9052565b52565b9061211a906102f4565b9052565b9061212890610e5d565b9052565b612136905161026f565b90565b61214290610673565b90565b90565b9061215d61215861216492612139565b612145565b82546116a0565b9055565b5190565b601f602091010490565b1b90565b9190600861219591029161218f5f1984612176565b92612176565b9181191691161790565b90565b91906121b86121b36121c09361033b565b61219f565b90835461217a565b9055565b5f90565b6121da916121d46121c4565b916121a2565b565b5b8181106121e8575050565b806121f55f6001936121c8565b016121dd565b9190601f811161220b575b505050565b61221761223c93610cc6565b9060206122238461216c565b83019310612244575b6122359061216c565b01906121dc565b5f8080612206565b91506122358192905061222c565b90612262905f1990600802610613565b191690565b8161227191612252565b906002021790565b9061228381610df1565b9067ffffffffffffffff8211612343576122a7826122a18554610c93565b856121fb565b602090601f83116001146122db579180916122ca935f926122cf575b5050612267565b90555b565b90915001515f806122c3565b601f198316916122ea85610cc6565b925f5b81811061232b57509160029391856001969410612311575b505050020190556122cd565b612321910151601f841690612252565b90555f8080612305565b919360206001819287870151815501950192016122ed565b6109e6565b9061235291612279565b565b61235e90516102f4565b90565b9061236d5f199161169b565b9181191691161790565b9061238c6123876123939261033b565b61219f565b8254612361565b9055565b6123a19051610e5d565b90565b906123b060ff9161169b565b9181191691161790565b6123c390610e5d565b90565b90565b906123de6123d96123e5926123ba565b6123c6565b82546123a4565b9055565b906124466060600361244c9461240c5f82016124065f880161212c565b90612148565b6124256001820161241f60208801612168565b90612348565b61243e6002820161243860408801612354565b90612377565b019201612397565b906123c9565b565b90612458916123e9565b565b61246f9160208201915f818403910152610e09565b90565b6124a261249d612497600361249161248c60018790610357565b611fc5565b016103dc565b156104f9565b612047565b6124d46124bc60036124b660058590610c69565b01610da4565b6124ce6124c85f610e5d565b91610e5d565b146120c9565b612526336125158461250c426125036001936124fa6124f16120f2565b975f89016120ff565b6020870161210d565b60408501612110565b6060830161211e565b61252160058490610c69565b61244e565b9033909161257261256061255a7f9b58afa035c5fa58f85c5a54b65bd3562d5aa7679e973bc1404fe25e8babab219361033b565b93612139565b93612569610252565b9182918261245a565b0390a3565b9061258191611f14565b565b61258b6143e4565b612593612665565b565b5f7f5061757361626c653a20616c726561647920756e706175736564000000000000910152565b6125c9601a602092610df5565b6125d281612595565b0190565b6125eb9060208101905f8183039101526125bc565b90565b156125f557565b6125fd610252565b62461bcd60e51b815280612613600482016125d6565b0390fd5b60a01b90565b9061262c60ff60a01b91612617565b9181191691161790565b61263f906104f9565b90565b90565b9061265a61265561266192612636565b612642565b825461261d565b9055565b6126766126715f6115cf565b6125ee565b6126805f5f612645565b336126b77f5db9ee0a495bf2e6ff9c91a7834c1ba4fdd244a5e8aa4e537bd38aeae4b073aa916126ae610252565b91829182611151565b0390a1565b6126c4612583565b565b6126d7906126d2614771565b6126e1565b6126df6147f5565b565b6126f65f6126f0836001610357565b01610391565b61271061270a6127055f611846565b61026f565b9161026f565b146127205761271e9061273c565b565b5f6338fde52b60e01b815280612738600482016102bc565b0390fd5b8061276461275e6127595f61275333956001610357565b01610391565b61026f565b9161026f565b036127745761277290612858565b565b5f63d6d90f8960e01b81528061278c600482016102bc565b0390fd5b6127a461279f6127a992611827565b610338565b6102f4565b90565b6127b590610657565b90565b6127c1906127ac565b90565b6127cd90610673565b90565b905090565b6127e05f80926127d0565b0190565b6127ed906127d5565b90565b67ffffffffffffffff811161280e5761280a6020916109dc565b0190565b6109e6565b90612825612820836127f0565b610a23565b918252565b606090565b3d5f1461284a5761283f3d612813565b903d5f602084013e5b565b61285261282a565b90612848565b61286c61286760018390610357565b611fc5565b90612879600383016103dc565b612a1157612889600583016103b5565b61289b6128955f612790565b916102f4565b036129f5576128ac600283016103b5565b6128be6128b85f612790565b916102f4565b146129d9575f809161299061298b856128dc60026129b798016103b5565b936128fe6128eb878401610391565b9260026128f789612790565b9101612377565b808261293f61292d7fd1c90c5ed8b35db630851dbe3ec20c8798b71354223bfe5a5527e84103e89d5b92612139565b92612936610252565b918291826107bc565b0390a2818561296e7f710864ae79ae7195dbcaa0f79eef4a8f5b490696c2d588a27f4d69ce60ac01fc92612139565b9261298361297a610252565b92839283611907565b0390a26127b8565b6127c4565b90612999610252565b90816129a4816127e4565b03925af16129b061282f565b50156104f9565b6129bd57565b5f63e55c80d160e01b8152806129d5600482016102bc565b0390fd5b5f634625bdf760e01b8152806129f1600482016102bc565b0390fd5b5f6372748c6b60e11b815280612a0d600482016102bc565b0390fd5b5f636d31177b60e11b815280612a29600482016102bc565b0390fd5b612a36906126c6565b565b90612a4e5f612a48846001610357565b01610391565b612a68612a62612a5d5f611846565b61026f565b9161026f565b14612a7857612a7691612a94565b565b5f6338fde52b60e01b815280612a90600482016102bc565b0390fd5b9081612abd612ab7612ab25f612aac33956001610357565b01610391565b61026f565b9161026f565b03612acd57612acb91612b2c565b565b5f63d6d90f8960e01b815280612ae5600482016102bc565b0390fd5b60081b90565b90612b02610100600160a81b0391612ae9565b9181191691161790565b90612b21612b1c612b2892612139565b612145565b8254612aef565b9055565b612b40612b3b60018390610357565b611fc5565b612b4c600382016103dc565b612c0b57612b5c6003820161042a565b612bef5782612b7b612b75612b705f611846565b61026f565b9161026f565b14612bd357612b8e906003849101612b0c565b90612bce612bbc7f74c722a7077ba48f1c4a1df3ad9df69eda5ffb9518fedba9bad9596305b8b95e92612139565b92612bc5610252565b918291826107bc565b0390a2565b5f63713ce51160e01b815280612beb600482016102bc565b0390fd5b5f63b5f9044160e01b815280612c07600482016102bc565b0390fd5b5f635c1508a760e01b815280612c23600482016102bc565b0390fd5b90612c3191612a38565b565b612c485f612c42836001610357565b01610391565b612c62612c5c612c575f611846565b61026f565b9161026f565b14612c7257612c7090612c8e565b565b5f6338fde52b60e01b815280612c8a600482016102bc565b0390fd5b80612cb7612cb1612cac6003612ca633956001610357565b01610403565b61026f565b9161026f565b03612cc757612cc590612d22565b565b5f6381d009a360e01b815280612cdf600482016102bc565b0390fd5b60a81b90565b90612cf860ff60a81b91612ce3565b9181191691161790565b90612d17612d12612d1e92612636565b612642565b8254612ce9565b9055565b612d36612d3160018390610357565b611fc5565b612d426003820161042a565b612e0d57612d52600382016103dc565b612df157612d6260038201610403565b612d7c612d76612d715f611846565b61026f565b9161026f565b14612dd557612d9090600360019101612d02565b33612dd0612dbe7f84ffc84db0a14dc30a09c96c2dc65081ab5a1f28b1ec2543ec701b04ad161a9d92612139565b92612dc7610252565b918291826107bc565b0390a2565b5f6342b985dd60e01b815280612ded600482016102bc565b0390fd5b5f635c1508a760e01b815280612e09600482016102bc565b0390fd5b5f63166de09760e01b815280612e25600482016102bc565b0390fd5b612e3290612c33565b565b5f90565b612e40612e34565b50612e4a5f6115cf565b90565b612e5e90612e596143e4565b612e60565b565b612e8390612e7e612e79612e735f6115cf565b156104f9565b611635565b612ecc565b565b612e8e90610657565b90565b612e9a90612e85565b90565b612ea690612e85565b90565b90565b90612ec1612ebc612ec892612e9d565b612ea9565b82546116a0565b9055565b612ed8612edf91612e91565b6008612eac565b565b612eea90612e4d565b565b612ef590610657565b90565b612f0190612eec565b90565b612f0d90612eec565b90565b90565b90612f28612f23612f2f92612f04565b612f10565b82546116a0565b9055565b612f3f612f4691612ef8565b6003612f13565b565b612f506143e4565b612f58612f5a565b565b612f6b612f665f611846565b614809565b565b612f75612f48565b565b612f8890612f836143e4565b612f8a565b565b612fad90612fa8612fa3612f9d5f6115cf565b156104f9565b611635565b612ff6565b565b612fb890610657565b90565b612fc490612faf565b90565b612fd090612faf565b90565b90565b90612feb612fe6612ff292612fc7565b612fd3565b82546116a0565b9055565b61300261300991612fbb565b600a612fd6565b565b61301490612f77565b565b5f90565b61302661302b9161036d565b611046565b90565b613038905461301a565b90565b613043613016565b50613056613051600961302e565b611086565b61307061306a6130655f611846565b61026f565b9161026f565b036130825761307f600a61302e565b90565b61308c600961302e565b90565b6130976143e4565b61309f613123565b565b5f7f5061757361626c653a20616c7265616479207061757365640000000000000000910152565b6130d56018602092610df5565b6130de816130a1565b0190565b6130f79060208101905f8183039101526130c8565b90565b1561310157565b613109610252565b62461bcd60e51b81528061311f600482016130e2565b0390fd5b61313d6131386131325f6115cf565b156104f9565b6130fa565b61314860015f612645565b3361317f7f62e78cea01bee320cd4e420270b5ea74000d11b0c9f74754ebdbfc544b05a25891613176610252565b91829182611151565b0390a1565b61318c61308f565b565b5f90565b61319a61318e565b506131a45f610391565b90565b906131cb916131c66131c16131bb5f6115cf565b156104f9565b611635565b613514565b565b5f7f496e76616c696420617274697374206164647265737300000000000000000000910152565b6132016016602092610df5565b61320a816131cd565b0190565b6132239060208101905f8183039101526131f4565b90565b1561322d57565b613235610252565b62461bcd60e51b81528061324b6004820161320e565b0390fd5b5f7f416d6f756e74206d757374206265203e20300000000000000000000000000000910152565b6132836012602092610df5565b61328c8161324f565b0190565b6132a59060208101905f818303910152613276565b90565b156132af57565b6132b7610252565b62461bcd60e51b8152806132cd60048201613290565b0390fd5b60207f7468616e207a65726f0000000000000000000000000000000000000000000000917f4d696c6573746f6e6520636f756e74206d7573742062652067726561746572205f8201520152565b61332b6029604092610df5565b613334816132d1565b0190565b61334d9060208101905f81830391015261331e565b90565b1561335757565b61335f610252565b62461bcd60e51b81528061337560048201613338565b0390fd5b613384610180610a23565b90565b9061339c6133976133a392612636565b612642565b82546123a4565b9055565b906134d061016060096134d6946133cb5f82016133c55f880161212c565b90612148565b6133e4600182016133de6020880161212c565b90612148565b6133fd600282016133f760408801612354565b90612377565b61341660038201613410606088016117f9565b90613387565b61342f600382016134296080880161212c565b90612b0c565b6134486003820161344260a088016117f9565b90612d02565b6134616004820161345b60c08801612354565b90612377565b61347a6005820161347460e08801612354565b90612377565b6134946006820161348e61010088016117f9565b90613387565b6134ae600782016134a86101208801612354565b90612377565b6134c8600882016134c261014088016117f9565b90613387565b019201612354565b90612377565b565b906134e2916133a7565b565b634e487b7160e01b5f52601160045260245ffd5b613501906102f4565b5f19811461350f5760010190565b6134e4565b90815f61352090611846565b6135299061026f565b906135339061026f565b141561353e90613226565b345f61354990612790565b90613553906102f4565b1161355d906132a8565b805f61356890612790565b90613572906102f4565b1161357c90613350565b61358660026103b5565b903390839034905f905f61359990611846565b905f905f915f935f955f9742996135ae613379565b9b5f8d01906135bc916120ff565b60208c01906135ca916120ff565b60408b01906135d891612110565b60608a01906135e691611783565b60808901906135f4916120ff565b60a088019061360291611783565b60c087019061361091612110565b61361990612790565b60e086019061362791612110565b61010085019061363691611783565b61363f90612790565b61012084019061364e91612110565b61014083019061365d91611783565b61016082019061366c91612110565b60018261367891610357565b90613682916134d8565b61368c60026103b5565b613695906134f8565b6136a0906002612377565b903334927f862dfcd9710943e66ad8f1f01a99cc98ab5612a09e62ecc68f63fe2e0f86cb0e916136cf90612139565b926136d990612139565b936136e2610252565b9182916136ef9183611907565b0390a3565b906136fe916131a7565b565b6137119061370c614771565b61371b565b6137196147f5565b565b6137305f61372a836001610357565b01610391565b61374a61374461373f5f611846565b61026f565b9161026f565b1461375a57613758906137de565b565b5f6338fde52b60e01b815280613772600482016102bc565b0390fd5b634e487b7160e01b5f52601260045260245ffd5b61379661379c916102f4565b916102f4565b9081156137a7570490565b613776565b6040906137d56137dc94969593966137cb60608401985f8501906104ec565b60208301906104ec565b01906104ec565b565b6137f26137ed60018390610357565b611fc5565b906138086138026003840161042a565b156104f9565b6139f657613818600583016103b5565b61383561382f61382a600486016103b5565b6102f4565b916102f4565b10156139da5761385c61384a600284016103b5565b613856600485016103b5565b9061378a565b61387a6005840161387461386f826103b5565b6134f8565b90612377565b613886600584016103b5565b6138a361389d613898600487016103b5565b6102f4565b916102f4565b1490816139c7575b6138f35f806138cc6138c76138c260018a01610391565b6127b8565b6127c4565b846138d5610252565b90816138e0816127e4565b03925af16138ec61282f565b50156104f9565b6139ab578290613905600586016103b5565b909161393d7fd33fcd27cbfb73a2d9058c968b560ccb306500bf536133802048489ecc7355e993613934610252565b938493846137ac565b0390a1613949575b5050565b90613962600261395b60018401610391565b92016103b5565b61398c7f6e3c6096795c8298a218b2cfb8bde42726ff7c9a3d27b4d3ba41ab7f74feb5fb92612139565b926139a1613998610252565b92839283611907565b0390a25f80613945565b5f63e55c80d160e01b8152806139c3600482016102bc565b0390fd5b6139d5600160038601613387565b6138ab565b5f630174d97b60e71b8152806139f2600482016102bc565b0390fd5b5f63167f21b560e21b815280613a0e600482016102bc565b0390fd5b613a1b90613700565b565b613a28906009612fd6565b565b90613a4f9291613a4a613a45613a3f5f6115cf565b156104f9565b611635565b613ad3565b565b5f7f50726f6a65637420616c72656164792065786973747300000000000000000000910152565b613a856016602092610df5565b613a8e81613a51565b0190565b613aa79060208101905f818303910152613a78565b90565b15613ab157565b613ab9610252565b62461bcd60e51b815280613acf60048201613a92565b0390fd5b9091600182613ae191610357565b5f01613aec90610391565b5f613af690611846565b613aff9061026f565b90613b099061026f565b14613b1390613aaa565b3392905f905f905f613b2490611846565b905f905f915f935f955f974299613b39613379565b9c5f8e0190613b47916120ff565b613b50906127c4565b60208d0190613b5e916120ff565b613b6790612790565b60408c0190613b7591612110565b60608b0190613b8391611783565b60808a0190613b91916120ff565b60a0890190613b9f91611783565b60c0880190613bad91612110565b613bb690612790565b60e0870190613bc491612110565b610100860190613bd391611783565b613bdc90612790565b610120850190613beb91612110565b610140840190613bfa91611783565b610160830190613c0991612110565b600190613c1591610357565b90613c1f916134d8565b613c2960026103b5565b613c32906134f8565b613c3d906002612377565b565b90613c4a9291613a2a565b565b606090565b5f90565b613c5f6080610a23565b90565b90613cc9613cc06003613c73613c55565b94613c8a613c825f8301610391565b5f88016120ff565b613ca2613c9960018301610d68565b6020880161210d565b613cba613cb1600283016103b5565b60408801612110565b01610da4565b6060840161211e565b565b613cd490613c62565b90565b613d09613d0e91613ce661318e565b50613cef613c4c565b50613cf86121c4565b50613d01613c51565b506005610c69565b613ccb565b613d195f820161212c565b602082015192613d376060613d3060408601612354565b9401612397565b9193929190565b613d4a613d4f9161036d565b610806565b90565b613d5c9054613d3e565b90565b90505190613d6c826102f7565b565b90602082820312613d8757613d84915f01613d5f565b90565b61025c565b6020613dd491613d9a612e34565b50613dad613da86003613d52565b610846565b613dc9635bc008a0613dbd610252565b958694859384936118d4565b835260048301611151565b03915afa908115613e33575f91613e05575b50613e00613dfa613df56107a4565b6102f4565b916102f4565b101590565b613e26915060203d8111613e2c575b613e1e81836109fa565b810190613d6e565b5f613de6565b503d613e14565b61192a565b613e43610180610a23565b90565b90613f71613f676009613e57613e38565b94613e6e613e665f8301610391565b5f88016120ff565b613e86613e7d60018301610391565b602088016120ff565b613e9e613e95600283016103b5565b60408801612110565b613eb6613ead600383016103dc565b60608801611783565b613ece613ec560038301610403565b608088016120ff565b613ee6613edd6003830161042a565b60a08801611783565b613efe613ef5600483016103b5565b60c08801612110565b613f16613f0d600583016103b5565b60e08801612110565b613f2f613f25600683016103dc565b6101008801611783565b613f48613f3e600783016103b5565b6101208801612110565b613f61613f57600883016103dc565b6101408801611783565b016103b5565b6101608401612110565b565b613f7c90613e46565b90565b613ff9613ffe91613f8e61318e565b50613f9761318e565b50613fa06121c4565b50613fa9612e34565b50613fb261318e565b50613fbb612e34565b50613fc46121c4565b50613fcd6121c4565b50613fd6612e34565b50613fdf6121c4565b50613fe8612e34565b50613ff16121c4565b506001610357565b613f73565b9061400a5f830161212c565b906140176020840161212c565b9261402460408201612354565b92614031606083016117f9565b9261403e6080840161212c565b9261404b60a082016117f9565b9261405860c08301612354565b9261406560e08401612354565b9261407361010082016117f9565b926140816101208301612354565b9261409c61016061409561014086016117f9565b9401612354565b919b9a99989796959493929190565b6140bc906140b76143e4565b6140be565b565b806140d96140d36140ce5f611846565b61026f565b9161026f565b146140e9576140e790614809565b565b61410c6140f55f611846565b5f918291631e4fbdf760e01b835260048301611151565b0390fd5b614119906140ab565b565b9061414193929161413c6141376141315f6115cf565b156104f9565b611635565b6142c3565b565b60207f7400000000000000000000000000000000000000000000000000000000000000917f4f6e6c7920636c69656e742063616e20636f6e6669677572652070726f6a65635f8201520152565b61419d6021604092610df5565b6141a681614143565b0190565b6141bf9060208101905f818303910152614190565b90565b156141c957565b6141d1610252565b62461bcd60e51b8152806141e7600482016141aa565b0390fd5b6141f56060610a23565b90565b9061420561ff0091612ae9565b9181191691161790565b9061422461421f61422b92612636565b612642565b82546141f8565b9055565b60101b90565b9061424362ff00009161422f565b9181191691161790565b9061426261425d61426992612636565b612642565b8254614235565b9055565b906142af60405f6142b59461428f8282016142898488016117f9565b90613387565b6142a78282016142a1602088016117f9565b9061420f565b0192016117f9565b9061424d565b565b906142c19161426d565b565b6143296143359461432061433094614302336142fc6142f66142f15f6142eb60018c90610357565b01610391565b61026f565b9161026f565b146141c2565b9561431761430e6141eb565b975f8901611783565b60208701611783565b60408501611783565b600b6108dc565b6142b7565b565b9061434393929161411b565b565b614356906143516143e4565b614358565b565b61437b9061437661437161436b5f6115cf565b156104f9565b611635565b6143c4565b565b61438690610657565b90565b6143929061437d565b90565b61439e9061437d565b90565b90565b906143b96143b46143c092614395565b6143a1565b82546116a0565b9055565b6143d06143d791614389565b60076143a4565b565b6143e290614345565b565b6143ec613192565b6144056143ff6143fa614868565b61026f565b9161026f565b0361440c57565b61442e614417614868565b5f91829163118cdaa760e01b835260048301611151565b0390fd5b90565b61444961444461444e92614432565b610338565b6102f4565b90565b61446561446060018390610357565b611fc5565b9061447b6144756003840161042a565b156104f9565b6147295761448b600583016103b5565b6144a86144a261449d600486016103b5565b6102f4565b916102f4565b101561470d576144d960206144c36144be61303b565b611086565b638e15f473906144d1610252565b9384926118d4565b825281806144e9600482016102bc565b03915afa908115614708575f916146da575b5061451061450a6103e8614435565b916102f4565b106146be57614536614524600284016103b5565b614530600485016103b5565b9061378a565b6145546005840161454e614549826103b5565b6134f8565b90612377565b614560600584016103b5565b61457d614577614572600487016103b5565b6102f4565b916102f4565b146146ab575b6145cb5f806145a461459f61459a60018901610391565b6127b8565b6127c4565b846145ad610252565b90816145b8816127e4565b03925af16145c461282f565b50156104f9565b61468f5781906145dd600585016103b5565b90916146157fd33fcd27cbfb73a2d9058c968b560ccb306500bf536133802048489ecc7355e99361460c610252565b938493846137ac565b0390a1614624600383016103dc565b61462d575b5050565b90614646600261463f60018401610391565b92016103b5565b6146707f6e3c6096795c8298a218b2cfb8bde42726ff7c9a3d27b4d3ba41ab7f74feb5fb92612139565b9261468561467c610252565b92839283611907565b0390a25f80614629565b5f63e55c80d160e01b8152806146a7600482016102bc565b0390fd5b6146b9600160038501613387565b614583565b5f63499372d360e11b8152806146d6600482016102bc565b0390fd5b6146fb915060203d8111614701575b6146f381836109fa565b810190613d6e565b5f6144fb565b503d6146e9565b61192a565b5f630174d97b60e71b815280614725600482016102bc565b0390fd5b5f63167f21b560e21b815280614741600482016102bc565b0390fd5b90565b61475c61475761476192614745565b610338565b6102f4565b90565b61476e6002614748565b90565b61477b60046103b5565b61479461478e614789614764565b6102f4565b916102f4565b146147ad576147ab6147a4614764565b6004612377565b565b5f633ee5aeb560e01b8152806147c5600482016102bc565b0390fd5b90565b6147e06147db6147e5926147c9565b610338565b6102f4565b90565b6147f260016147cc565b90565b6148076148006147e8565b6004612377565b565b6148125f610391565b61481c825f612148565b9061485061484a7f8be0079c531659141344cd1fd0a4f28419497f9722a3daafe3b4186f6b6457e093612139565b91612139565b91614859610252565b80614863816102bc565b0390a3565b61487061318e565b50339056fea26469706673582212202f6d9bcdaef59d725b709baf0c71c01afd97157de875e9f9322953dff133cc9d64736f6c634300081c0033","linkReferences":{}},"methodIdentifiers":{"REQUIRED_KYC_LEVEL()":"235b97c9","addValidator(uint256,address)":"4b561753","createProject(uint256,address,uint256)":"e1e7cf84","depositFunds(address,uint256)":"921b004b","disputes(uint256)":"564a565d","fallbackModule()":"efa04726","forteCompliance()":"2be550ce","forteRules()":"216a6313","getDispute(uint256)":"e3a96cbd","getOracle()":"833b1fce","getProject(uint256)":"f0f3f2c8","isKYCApproved(address)":"e77db232","openDispute(uint256,string)":"36f691c4","oracle()":"7dc0d1d0","owner()":"8da5cb5b","pause()":"8456cb59","paused()":"5c975abb","projectConfigs(uint256)":"31e709dc","projectCount()":"36fbad26","projects(uint256)":"107046bd","refundClient(uint256)":"43eed51c","releaseAfterEvent(uint256)":"cbcbc305","releaseMilestone(uint256)":"317debf5","renounceOwnership()":"715018a6","setFallbackModule(address)":"f8ec8b30","setForteCompliance(address)":"6c56db5e","setForteRulesModule(address)":"0d01e5ef","setOracle(address)":"7adbf973","setOracleOverride(address)":"d23d4222","setProjectConfig(uint256,bool,bool,bool)":"f6ce28bd","setSignatureModule(address)":"68f98317","signatureModule()":"117159ca","transferOwnership(address)":"f2fde38b","unpause()":"3f4ba83a","validateProject(uint256)":"57021469"},"id":0}