{"abi":[{"type":"constructor","inputs":[],"stateMutability":"nonpayable"},{"type":"function","name":"addValidator","inputs":[{"name":"_projectId","type":"uint256","internalType":"uint256"},{"name":"_validator","type":"address","internalType":"address"}],"outputs":[],"stateMutability":"nonpayable"},{"type":"function","name":"createProject","inputs":[{"name":"_projectId","type":"uint256","internalType":"uint256"},{"name":"_artist","type":"address","internalType":"address payable"},{"name":"_milestoneCount","type":"uint256","internalType":"uint256"}],"outputs":[],"stateMutability":"nonpayable"},{"type":"function","name":"depositFunds","inputs":[{"name":"_artist","type":"address","internalType":"address"},{"name":"_milestoneCount","type":"uint256","internalType":"uint256"}],"outputs":[],"stateMutability":"payable"},{"type":"function","name":"disputes","inputs":[{"name":"","type":"uint256","internalType":"uint256"}],"outputs":[{"name":"initiator","type":"address","internalType":"address"},{"name":"reason","type":"string","internalType":"string"},{"name":"openedAt","type":"uint256","internalType":"uint256"},{"name":"status","type":"uint8","internalType":"enum DisputeModule.DisputeStatus"}],"stateMutability":"view"},{"type":"function","name":"fallbackModule","inputs":[],"outputs":[{"name":"","type":"address","internalType":"contract IFallbackModule"}],"stateMutability":"view"},{"type":"function","name":"forteRules","inputs":[],"outputs":[{"name":"","type":"address","internalType":"contract IForteRules"}],"stateMutability":"view"},{"type":"function","name":"getDispute","inputs":[{"name":"_projectId","type":"uint256","internalType":"uint256"}],"outputs":[{"name":"","type":"address","internalType":"address"},{"name":"","type":"string","internalType":"string"},{"name":"","type":"uint256","internalType":"uint256"},{"name":"","type":"uint8","internalType":"enum DisputeModule.DisputeStatus"}],"stateMutability":"view"},{"type":"function","name":"getOracle","inputs":[],"outputs":[{"name":"","type":"address","internalType":"contract IOracle"}],"stateMutability":"view"},{"type":"function","name":"getProject","inputs":[{"name":"_projectId","type":"uint256","internalType":"uint256"}],"outputs":[{"name":"client","type":"address","internalType":"address"},{"name":"artist","type":"address","internalType":"address"},{"name":"amount","type":"uint256","internalType":"uint256"},{"name":"released","type":"bool","internalType":"bool"},{"name":"validator","type":"address","internalType":"address"},{"name":"validated","type":"bool","internalType":"bool"},{"name":"milestoneCount","type":"uint256","internalType":"uint256"},{"name":"milestonesPaid","type":"uint256","internalType":"uint256"}],"stateMutability":"view"},{"type":"function","name":"openDispute","inputs":[{"name":"_projectId","type":"uint256","internalType":"uint256"},{"name":"_reason","type":"string","internalType":"string"}],"outputs":[],"stateMutability":"nonpayable"},{"type":"function","name":"oracle","inputs":[],"outputs":[{"name":"","type":"address","internalType":"contract IOracle"}],"stateMutability":"view"},{"type":"function","name":"owner","inputs":[],"outputs":[{"name":"","type":"address","internalType":"address"}],"stateMutability":"view"},{"type":"function","name":"projectConfigs","inputs":[{"name":"","type":"uint256","internalType":"uint256"}],"outputs":[{"name":"useForteRules","type":"bool","internalType":"bool"},{"name":"useFallback","type":"bool","internalType":"bool"},{"name":"useSignature","type":"bool","internalType":"bool"}],"stateMutability":"view"},{"type":"function","name":"projectCount","inputs":[],"outputs":[{"name":"","type":"uint256","internalType":"uint256"}],"stateMutability":"view"},{"type":"function","name":"projects","inputs":[{"name":"","type":"uint256","internalType":"uint256"}],"outputs":[{"name":"client","type":"address","internalType":"address"},{"name":"artist","type":"address","internalType":"address"},{"name":"amount","type":"uint256","internalType":"uint256"},{"name":"released","type":"bool","internalType":"bool"},{"name":"validator","type":"address","internalType":"address"},{"name":"validated","type":"bool","internalType":"bool"},{"name":"milestoneCount","type":"uint256","internalType":"uint256"},{"name":"milestonesPaid","type":"uint256","internalType":"uint256"},{"name":"useFallback","type":"bool","internalType":"bool"},{"name":"fallbackDelay","type":"uint256","internalType":"uint256"}],"stateMutability":"view"},{"type":"function","name":"refundClient","inputs":[{"name":"_projectId","type":"uint256","internalType":"uint256"}],"outputs":[],"stateMutability":"nonpayable"},{"type":"function","name":"releaseAfterEvent","inputs":[{"name":"_projectId","type":"uint256","internalType":"uint256"}],"outputs":[],"stateMutability":"nonpayable"},{"type":"function","name":"releaseMilestone","inputs":[{"name":"projectId","type":"uint256","internalType":"uint256"}],"outputs":[],"stateMutability":"nonpayable"},{"type":"function","name":"renounceOwnership","inputs":[],"outputs":[],"stateMutability":"nonpayable"},{"type":"function","name":"setFallbackModule","inputs":[{"name":"_addr","type":"address","internalType":"address"}],"outputs":[],"stateMutability":"nonpayable"},{"type":"function","name":"setForteRulesModule","inputs":[{"name":"_addr","type":"address","internalType":"address"}],"outputs":[],"stateMutability":"nonpayable"},{"type":"function","name":"setOracle","inputs":[{"name":"_oracle","type":"address","internalType":"address"}],"outputs":[],"stateMutability":"nonpayable"},{"type":"function","name":"setOracleOverride","inputs":[{"name":"o","type":"address","internalType":"contract IOracle"}],"outputs":[],"stateMutability":"nonpayable"},{"type":"function","name":"setProjectConfig","inputs":[{"name":"_projectId","type":"uint256","internalType":"uint256"},{"name":"_useForte","type":"bool","internalType":"bool"},{"name":"_useFallback","type":"bool","internalType":"bool"},{"name":"_useSig","type":"bool","internalType":"bool"}],"outputs":[],"stateMutability":"nonpayable"},{"type":"function","name":"setSignatureModule","inputs":[{"name":"_addr","type":"address","internalType":"address"}],"outputs":[],"stateMutability":"nonpayable"},{"type":"function","name":"signatureModule","inputs":[],"outputs":[{"name":"","type":"address","internalType":"contract ISignatureModule"}],"stateMutability":"view"},{"type":"function","name":"transferOwnership","inputs":[{"name":"newOwner","type":"address","internalType":"address"}],"outputs":[],"stateMutability":"nonpayable"},{"type":"function","name":"validateProject","inputs":[{"name":"_projectId","type":"uint256","internalType":"uint256"}],"outputs":[],"stateMutability":"nonpayable"},{"type":"event","name":"ClientRefunded","inputs":[{"name":"projectId","type":"uint256","indexed":false,"internalType":"uint256"},{"name":"client","type":"address","indexed":true,"internalType":"address"},{"name":"amount","type":"uint256","indexed":false,"internalType":"uint256"}],"anonymous":false},{"type":"event","name":"DisputeOpened","inputs":[{"name":"projectId","type":"uint256","indexed":true,"internalType":"uint256"},{"name":"initiator","type":"address","indexed":true,"internalType":"address"},{"name":"reason","type":"string","indexed":false,"internalType":"string"}],"anonymous":false},{"type":"event","name":"FundsDeposited","inputs":[{"name":"projectId","type":"uint256","indexed":false,"internalType":"uint256"},{"name":"client","type":"address","indexed":true,"internalType":"address"},{"name":"artist","type":"address","indexed":true,"internalType":"address"},{"name":"amount","type":"uint256","indexed":false,"internalType":"uint256"}],"anonymous":false},{"type":"event","name":"FundsRefunded","inputs":[{"name":"projectId","type":"uint256","indexed":false,"internalType":"uint256"},{"name":"client","type":"address","indexed":true,"internalType":"address"}],"anonymous":false},{"type":"event","name":"FundsReleased","inputs":[{"name":"projectId","type":"uint256","indexed":false,"internalType":"uint256"},{"name":"artist","type":"address","indexed":true,"internalType":"address"},{"name":"amount","type":"uint256","indexed":false,"internalType":"uint256"}],"anonymous":false},{"type":"event","name":"MilestoneReleased","inputs":[{"name":"projectId","type":"uint256","indexed":false,"internalType":"uint256"},{"name":"milestoneIndex","type":"uint256","indexed":false,"internalType":"uint256"},{"name":"amount","type":"uint256","indexed":false,"internalType":"uint256"}],"anonymous":false},{"type":"event","name":"OwnershipTransferred","inputs":[{"name":"previousOwner","type":"address","indexed":true,"internalType":"address"},{"name":"newOwner","type":"address","indexed":true,"internalType":"address"}],"anonymous":false},{"type":"event","name":"ProjectValidated","inputs":[{"name":"projectId","type":"uint256","indexed":false,"internalType":"uint256"},{"name":"validator","type":"address","indexed":true,"internalType":"address"}],"anonymous":false},{"type":"event","name":"ValidatorAssigned","inputs":[{"name":"projectId","type":"uint256","indexed":false,"internalType":"uint256"},{"name":"validator","type":"address","indexed":true,"internalType":"address"}],"anonymous":false},{"type":"error","name":"OwnableInvalidOwner","inputs":[{"name":"owner","type":"address","internalType":"address"}]},{"type":"error","name":"OwnableUnauthorizedAccount","inputs":[{"name":"account","type":"address","internalType":"address"}]},{"type":"error","name":"ReentrancyGuardReentrantCall","inputs":[]}],"bytecode":{"object":"0x608060405234801561000f575f5ffd5b50335f73ffffffffffffffffffffffffffffffffffffffff168173ffffffffffffffffffffffffffffffffffffffff1603610081575f6040517f1e4fbdf7000000000000000000000000000000000000000000000000000000008152600401610078919061019e565b60405180910390fd5b6100908161009e60201b60201c565b5060016003819055506101b7565b5f5f5f9054906101000a900473ffffffffffffffffffffffffffffffffffffffff169050815f5f6101000a81548173ffffffffffffffffffffffffffffffffffffffff021916908373ffffffffffffffffffffffffffffffffffffffff1602179055508173ffffffffffffffffffffffffffffffffffffffff168173ffffffffffffffffffffffffffffffffffffffff167f8be0079c531659141344cd1fd0a4f28419497f9722a3daafe3b4186f6b6457e060405160405180910390a35050565b5f73ffffffffffffffffffffffffffffffffffffffff82169050919050565b5f6101888261015f565b9050919050565b6101988161017e565b82525050565b5f6020820190506101b15f83018461018f565b92915050565b614d56806101c45f395ff3fe6080604052600436106101b6575f3560e01c80637adbf973116100eb578063e1e7cf8411610089578063f0f3f2c811610063578063f0f3f2c8146105cb578063f2fde38b1461060e578063f6ce28bd14610636578063f8ec8b301461065e576101b6565b8063e1e7cf841461053a578063e3a96cbd14610562578063efa04726146105a1576101b6565b80638da5cb5b116100c55780638da5cb5b146104a4578063921b004b146104ce578063cbcbc305146104ea578063d23d422214610512576101b6565b80637adbf973146104285780637dc0d1d014610450578063833b1fce1461047a576101b6565b806336fbad2611610158578063564a565d11610132578063564a565d1461038357806357021469146103c257806368f98317146103ea578063715018a614610412576101b6565b806336fbad261461030957806343eed51c146103335780634b5617531461035b576101b6565b8063216a631311610194578063216a631314610251578063317debf51461027b57806331e709dc146102a357806336f691c4146102e1576101b6565b80630d01e5ef146101ba578063107046bd146101e2578063117159ca14610227575b5f5ffd5b3480156101c5575f5ffd5b506101e060048036038101906101db9190613274565b610686565b005b3480156101ed575f5ffd5b50610208600480360381019061020391906132d2565b6106c9565b60405161021e9a99989796959493929190613335565b60405180910390f35b348015610232575f5ffd5b5061023b61079c565b604051610248919061342a565b60405180910390f35b34801561025c575f5ffd5b506102656107c1565b6040516102729190613463565b60405180910390f35b348015610286575f5ffd5b506102a1600480360381019061029c91906132d2565b6107e6565b005b3480156102ae575f5ffd5b506102c960048036038101906102c491906132d2565b610d75565b6040516102d89392919061347c565b60405180910390f35b3480156102ec575f5ffd5b50610307600480360381019061030291906135ed565b610dbf565b005b348015610314575f5ffd5b5061031d611185565b60405161032a9190613647565b60405180910390f35b34801561033e575f5ffd5b50610359600480360381019061035491906132d2565b61118b565b005b348015610366575f5ffd5b50610381600480360381019061037c9190613660565b611554565b005b34801561038e575f5ffd5b506103a960048036038101906103a491906132d2565b611853565b6040516103b99493929190613771565b60405180910390f35b3480156103cd575f5ffd5b506103e860048036038101906103e391906132d2565b611930565b005b3480156103f5575f5ffd5b50610410600480360381019061040b9190613274565b611c3e565b005b34801561041d575f5ffd5b50610426611c81565b005b348015610433575f5ffd5b5061044e60048036038101906104499190613274565b611c94565b005b34801561045b575f5ffd5b50610464611cdf565b60405161047191906137db565b60405180910390f35b348015610485575f5ffd5b5061048e611d04565b60405161049b91906137db565b60405180910390f35b3480156104af575f5ffd5b506104b8611daa565b6040516104c591906137f4565b60405180910390f35b6104e860048036038101906104e3919061380d565b611dd1565b005b3480156104f5575f5ffd5b50610510600480360381019061050b91906132d2565b612147565b005b34801561051d575f5ffd5b5061053860048036038101906105339190613886565b612498565b005b348015610545575f5ffd5b50610560600480360381019061055b91906138ec565b6124db565b005b34801561056d575f5ffd5b50610588600480360381019061058391906132d2565b612792565b6040516105989493929190613771565b60405180910390f35b3480156105ac575f5ffd5b506105b5612901565b6040516105c2919061395c565b60405180910390f35b3480156105d6575f5ffd5b506105f160048036038101906105ec91906132d2565b612926565b604051610605989796959493929190613975565b60405180910390f35b348015610619575f5ffd5b50610634600480360381019061062f9190613274565b612b07565b005b348015610641575f5ffd5b5061065c60048036038101906106579190613a1b565b612b8b565b005b348015610669575f5ffd5b50610684600480360381019061067f9190613274565b612cc1565b005b8060055f6101000a81548173ffffffffffffffffffffffffffffffffffffffff021916908373ffffffffffffffffffffffffffffffffffffffff16021790555050565b6001602052805f5260405f205f91509050805f015f9054906101000a900473ffffffffffffffffffffffffffffffffffffffff1690806001015f9054906101000a900473ffffffffffffffffffffffffffffffffffffffff1690806002015490806003015f9054906101000a900460ff16908060030160019054906101000a900473ffffffffffffffffffffffffffffffffffffffff16908060030160159054906101000a900460ff1690806004015490806005015490806006015f9054906101000a900460ff1690806007015490508a565b60075f9054906101000a900473ffffffffffffffffffffffffffffffffffffffff1681565b60055f9054906101000a900473ffffffffffffffffffffffffffffffffffffffff1681565b8060015f8281526020019081526020015f205f015f9054906101000a900473ffffffffffffffffffffffffffffffffffffffff1673ffffffffffffffffffffffffffffffffffffffff163373ffffffffffffffffffffffffffffffffffffffff1614610887576040517f08c379a000000000000000000000000000000000000000000000000000000000815260040161087e90613aef565b60405180910390fd5b5f600a5f8481526020019081526020015f206040518060600160405290815f82015f9054906101000a900460ff161515151581526020015f820160019054906101000a900460ff161515151581526020015f820160029054906101000a900460ff16151515158152505090505f60015f8581526020019081526020015f20600501549050815f015115610a7e575f73ffffffffffffffffffffffffffffffffffffffff1660055f9054906101000a900473ffffffffffffffffffffffffffffffffffffffff1673ffffffffffffffffffffffffffffffffffffffff16036109a3576040517f08c379a000000000000000000000000000000000000000000000000000000000815260040161099a90613b57565b60405180910390fd5b60055f9054906101000a900473ffffffffffffffffffffffffffffffffffffffff1673ffffffffffffffffffffffffffffffffffffffff1663e5dc0b3285836040518363ffffffff1660e01b81526004016109ff929190613b75565b602060405180830381865afa158015610a1a573d5f5f3e3d5ffd5b505050506040513d601f19601f82011682018060405250810190610a3e9190613bb0565b610a7d576040517f08c379a0000000000000000000000000000000000000000000000000000000008152600401610a7490613c25565b60405180910390fd5b5b816020015115610bf2575f73ffffffffffffffffffffffffffffffffffffffff1660065f9054906101000a900473ffffffffffffffffffffffffffffffffffffffff1673ffffffffffffffffffffffffffffffffffffffff1603610b17576040517f08c379a0000000000000000000000000000000000000000000000000000000008152600401610b0e90613c8d565b60405180910390fd5b60065f9054906101000a900473ffffffffffffffffffffffffffffffffffffffff1673ffffffffffffffffffffffffffffffffffffffff1663f36f43e585836040518363ffffffff1660e01b8152600401610b73929190613b75565b602060405180830381865afa158015610b8e573d5f5f3e3d5ffd5b505050506040513d601f19601f82011682018060405250810190610bb29190613bb0565b610bf1576040517f08c379a0000000000000000000000000000000000000000000000000000000008152600401610be890613cf5565b60405180910390fd5b5b816040015115610d66575f73ffffffffffffffffffffffffffffffffffffffff1660075f9054906101000a900473ffffffffffffffffffffffffffffffffffffffff1673ffffffffffffffffffffffffffffffffffffffff1603610c8b576040517f08c379a0000000000000000000000000000000000000000000000000000000008152600401610c8290613d5d565b60405180910390fd5b60075f9054906101000a900473ffffffffffffffffffffffffffffffffffffffff1673ffffffffffffffffffffffffffffffffffffffff1663e8f394b485836040518363ffffffff1660e01b8152600401610ce7929190613b75565b602060405180830381865afa158015610d02573d5f5f3e3d5ffd5b505050506040513d601f19601f82011682018060405250810190610d269190613bb0565b610d65576040517f08c379a0000000000000000000000000000000000000000000000000000000008152600401610d5c90613deb565b60405180910390fd5b5b610d6f84612d04565b50505050565b600a602052805f5260405f205f91509050805f015f9054906101000a900460ff1690805f0160019054906101000a900460ff1690805f0160029054906101000a900460ff16905083565b815f73ffffffffffffffffffffffffffffffffffffffff1660015f8381526020019081526020015f205f015f9054906101000a900473ffffffffffffffffffffffffffffffffffffffff1673ffffffffffffffffffffffffffffffffffffffff1603610e60576040517f08c379a0000000000000000000000000000000000000000000000000000000008152600401610e5790613e53565b60405180910390fd5b8260015f8281526020019081526020015f205f015f9054906101000a900473ffffffffffffffffffffffffffffffffffffffff1673ffffffffffffffffffffffffffffffffffffffff163373ffffffffffffffffffffffffffffffffffffffff1614610f01576040517f08c379a0000000000000000000000000000000000000000000000000000000008152600401610ef890613aef565b60405180910390fd5b60015f8581526020019081526020015f206003015f9054906101000a900460ff1615610f62576040517f08c379a0000000000000000000000000000000000000000000000000000000008152600401610f5990613ee1565b60405180910390fd5b5f60015f8681526020019081526020015f20600501541115610fb9576040517f08c379a0000000000000000000000000000000000000000000000000000000008152600401610fb090613f6f565b60405180910390fd5b5f6002811115610fcc57610fcb6136fe565b5b60045f8681526020019081526020015f206003015f9054906101000a900460ff166002811115610fff57610ffe6136fe565b5b1461103f576040517f08c379a000000000000000000000000000000000000000000000000000000000815260040161103690613fd7565b60405180910390fd5b60405180608001604052803373ffffffffffffffffffffffffffffffffffffffff16815260200184815260200142815260200160016002811115611086576110856136fe565b5b81525060045f8681526020019081526020015f205f820151815f015f6101000a81548173ffffffffffffffffffffffffffffffffffffffff021916908373ffffffffffffffffffffffffffffffffffffffff16021790555060208201518160010190816110f391906141e9565b50604082015181600201556060820151816003015f6101000a81548160ff02191690836002811115611128576111276136fe565b5b02179055509050503373ffffffffffffffffffffffffffffffffffffffff16847f9b58afa035c5fa58f85c5a54b65bd3562d5aa7679e973bc1404fe25e8babab218560405161117791906142b8565b60405180910390a350505050565b60025481565b61119361306a565b805f73ffffffffffffffffffffffffffffffffffffffff1660015f8381526020019081526020015f205f015f9054906101000a900473ffffffffffffffffffffffffffffffffffffffff1673ffffffffffffffffffffffffffffffffffffffff1603611234576040517f08c379a000000000000000000000000000000000000000000000000000000000815260040161122b90613e53565b60405180910390fd5b8160015f8281526020019081526020015f205f015f9054906101000a900473ffffffffffffffffffffffffffffffffffffffff1673ffffffffffffffffffffffffffffffffffffffff163373ffffffffffffffffffffffffffffffffffffffff16146112d5576040517f08c379a00000000000000000000000000000000000000000000000000000000081526004016112cc90613aef565b60405180910390fd5b5f60015f8581526020019081526020015f209050806003015f9054906101000a900460ff161561133a576040517f08c379a000000000000000000000000000000000000000000000000000000000815260040161133190614348565b60405180910390fd5b5f816005015414611380576040517f08c379a0000000000000000000000000000000000000000000000000000000008152600401611377906143d6565b60405180910390fd5b5f8160020154116113c6576040517f08c379a00000000000000000000000000000000000000000000000000000000081526004016113bd9061443e565b60405180910390fd5b5f816002015490505f825f015f9054906101000a900473ffffffffffffffffffffffffffffffffffffffff1690505f83600201819055508073ffffffffffffffffffffffffffffffffffffffff167fd1c90c5ed8b35db630851dbe3ec20c8798b71354223bfe5a5527e84103e89d5b876040516114439190613647565b60405180910390a28073ffffffffffffffffffffffffffffffffffffffff167f710864ae79ae7195dbcaa0f79eef4a8f5b490696c2d588a27f4d69ce60ac01fc8784604051611493929190613b75565b60405180910390a25f8173ffffffffffffffffffffffffffffffffffffffff16836040516114c090614489565b5f6040518083038185875af1925050503d805f81146114fa576040519150601f19603f3d011682016040523d82523d5f602084013e6114ff565b606091505b5050905080611543576040517f08c379a000000000000000000000000000000000000000000000000000000000815260040161153a906144e7565b60405180910390fd5b5050505050506115516130b0565b50565b815f73ffffffffffffffffffffffffffffffffffffffff1660015f8381526020019081526020015f205f015f9054906101000a900473ffffffffffffffffffffffffffffffffffffffff1673ffffffffffffffffffffffffffffffffffffffff16036115f5576040517f08c379a00000000000000000000000000000000000000000000000000000000081526004016115ec90613e53565b60405180910390fd5b8260015f8281526020019081526020015f205f015f9054906101000a900473ffffffffffffffffffffffffffffffffffffffff1673ffffffffffffffffffffffffffffffffffffffff163373ffffffffffffffffffffffffffffffffffffffff1614611696576040517f08c379a000000000000000000000000000000000000000000000000000000000815260040161168d90613aef565b60405180910390fd5b5f60015f8681526020019081526020015f2090505f73ffffffffffffffffffffffffffffffffffffffff168473ffffffffffffffffffffffffffffffffffffffff1603611718576040517f08c379a000000000000000000000000000000000000000000000000000000000815260040161170f9061454f565b60405180910390fd5b806003015f9054906101000a900460ff1615611769576040517f08c379a0000000000000000000000000000000000000000000000000000000008152600401611760906145b7565b60405180910390fd5b8060030160159054906101000a900460ff16156117bb576040517f08c379a00000000000000000000000000000000000000000000000000000000081526004016117b290614645565b60405180910390fd5b838160030160016101000a81548173ffffffffffffffffffffffffffffffffffffffff021916908373ffffffffffffffffffffffffffffffffffffffff1602179055508373ffffffffffffffffffffffffffffffffffffffff167f74c722a7077ba48f1c4a1df3ad9df69eda5ffb9518fedba9bad9596305b8b95e866040516118449190613647565b60405180910390a25050505050565b6004602052805f5260405f205f91509050805f015f9054906101000a900473ffffffffffffffffffffffffffffffffffffffff169080600101805461189790614022565b80601f01602080910402602001604051908101604052809291908181526020018280546118c390614022565b801561190e5780601f106118e55761010080835404028352916020019161190e565b820191905f5260205f20905b8154815290600101906020018083116118f157829003601f168201915b505050505090806002015490806003015f9054906101000a900460ff16905084565b805f73ffffffffffffffffffffffffffffffffffffffff1660015f8381526020019081526020015f205f015f9054906101000a900473ffffffffffffffffffffffffffffffffffffffff1673ffffffffffffffffffffffffffffffffffffffff16036119d1576040517f08c379a00000000000000000000000000000000000000000000000000000000081526004016119c890613e53565b60405180910390fd5b8160015f8281526020019081526020015f2060030160019054906101000a900473ffffffffffffffffffffffffffffffffffffffff1673ffffffffffffffffffffffffffffffffffffffff163373ffffffffffffffffffffffffffffffffffffffff1614611a74576040517f08c379a0000000000000000000000000000000000000000000000000000000008152600401611a6b906146d3565b60405180910390fd5b60015f8481526020019081526020015f2060030160159054906101000a900460ff1615611ad6576040517f08c379a0000000000000000000000000000000000000000000000000000000008152600401611acd9061473b565b60405180910390fd5b5f60015f8581526020019081526020015f209050806003015f9054906101000a900460ff1615611b3b576040517f08c379a0000000000000000000000000000000000000000000000000000000008152600401611b32906145b7565b60405180910390fd5b5f73ffffffffffffffffffffffffffffffffffffffff168160030160019054906101000a900473ffffffffffffffffffffffffffffffffffffffff1673ffffffffffffffffffffffffffffffffffffffff1603611bcd576040517f08c379a0000000000000000000000000000000000000000000000000000000008152600401611bc4906147a3565b60405180910390fd5b60018160030160156101000a81548160ff0219169083151502179055503373ffffffffffffffffffffffffffffffffffffffff167f84ffc84db0a14dc30a09c96c2dc65081ab5a1f28b1ec2543ec701b04ad161a9d85604051611c309190613647565b60405180910390a250505050565b8060075f6101000a81548173ffffffffffffffffffffffffffffffffffffffff021916908373ffffffffffffffffffffffffffffffffffffffff16021790555050565b611c896130ba565b611c925f613141565b565b611c9c6130ba565b8060095f6101000a81548173ffffffffffffffffffffffffffffffffffffffff021916908373ffffffffffffffffffffffffffffffffffffffff16021790555050565b60095f9054906101000a900473ffffffffffffffffffffffffffffffffffffffff1681565b5f5f73ffffffffffffffffffffffffffffffffffffffff1660085f9054906101000a900473ffffffffffffffffffffffffffffffffffffffff1673ffffffffffffffffffffffffffffffffffffffff1614611d825760085f9054906101000a900473ffffffffffffffffffffffffffffffffffffffff169050611da7565b60095f9054906101000a900473ffffffffffffffffffffffffffffffffffffffff1690505b90565b5f5f5f9054906101000a900473ffffffffffffffffffffffffffffffffffffffff16905090565b5f73ffffffffffffffffffffffffffffffffffffffff168273ffffffffffffffffffffffffffffffffffffffff1603611e3f576040517f08c379a0000000000000000000000000000000000000000000000000000000008152600401611e369061480b565b60405180910390fd5b5f3411611e81576040517f08c379a0000000000000000000000000000000000000000000000000000000008152600401611e7890614873565b60405180910390fd5b5f8111611ec3576040517f08c379a0000000000000000000000000000000000000000000000000000000008152600401611eba90614901565b60405180910390fd5b5f60025490506040518061014001604052803373ffffffffffffffffffffffffffffffffffffffff1681526020018473ffffffffffffffffffffffffffffffffffffffff1681526020013481526020015f151581526020015f73ffffffffffffffffffffffffffffffffffffffff1681526020015f151581526020018381526020015f81526020015f151581526020015f81525060015f8381526020019081526020015f205f820151815f015f6101000a81548173ffffffffffffffffffffffffffffffffffffffff021916908373ffffffffffffffffffffffffffffffffffffffff1602179055506020820151816001015f6101000a81548173ffffffffffffffffffffffffffffffffffffffff021916908373ffffffffffffffffffffffffffffffffffffffff160217905550604082015181600201556060820151816003015f6101000a81548160ff02191690831515021790555060808201518160030160016101000a81548173ffffffffffffffffffffffffffffffffffffffff021916908373ffffffffffffffffffffffffffffffffffffffff16021790555060a08201518160030160156101000a81548160ff02191690831515021790555060c0820151816004015560e08201518160050155610100820151816006015f6101000a81548160ff021916908315150217905550610120820151816007015590505060025f8154809291906120d69061494c565b91905055508273ffffffffffffffffffffffffffffffffffffffff163373ffffffffffffffffffffffffffffffffffffffff167f862dfcd9710943e66ad8f1f01a99cc98ab5612a09e62ecc68f63fe2e0f86cb0e833460405161213a929190613b75565b60405180910390a3505050565b61214f61306a565b805f73ffffffffffffffffffffffffffffffffffffffff1660015f8381526020019081526020015f205f015f9054906101000a900473ffffffffffffffffffffffffffffffffffffffff1673ffffffffffffffffffffffffffffffffffffffff16036121f0576040517f08c379a00000000000000000000000000000000000000000000000000000000081526004016121e790613e53565b60405180910390fd5b5f60015f8481526020019081526020015f2090508060030160159054906101000a900460ff16612255576040517f08c379a000000000000000000000000000000000000000000000000000000000815260040161224c90614a03565b60405180910390fd5b806004015481600501541061229f576040517f08c379a000000000000000000000000000000000000000000000000000000000815260040161229690614a6b565b60405180910390fd5b5f816004015482600201546122b49190614ab6565b9050816005015f8154809291906122ca9061494c565b91905055505f826004015483600501541490508015612300576001836003015f6101000a81548160ff0219169083151502179055505b5f836001015f9054906101000a900473ffffffffffffffffffffffffffffffffffffffff1673ffffffffffffffffffffffffffffffffffffffff168360405161234890614489565b5f6040518083038185875af1925050503d805f8114612382576040519150601f19603f3d011682016040523d82523d5f602084013e612387565b606091505b50509050806123cb576040517f08c379a00000000000000000000000000000000000000000000000000000000081526004016123c2906144e7565b60405180910390fd5b7fd33fcd27cbfb73a2d9058c968b560ccb306500bf536133802048489ecc7355e98685600501548560405161240293929190614ae6565b60405180910390a1811561248857836001015f9054906101000a900473ffffffffffffffffffffffffffffffffffffffff1673ffffffffffffffffffffffffffffffffffffffff167f6e3c6096795c8298a218b2cfb8bde42726ff7c9a3d27b4d3ba41ab7f74feb5fb87866002015460405161247f929190613b75565b60405180910390a25b50505050506124956130b0565b50565b8060085f6101000a81548173ffffffffffffffffffffffffffffffffffffffff021916908373ffffffffffffffffffffffffffffffffffffffff16021790555050565b5f73ffffffffffffffffffffffffffffffffffffffff1660015f8581526020019081526020015f205f015f9054906101000a900473ffffffffffffffffffffffffffffffffffffffff1673ffffffffffffffffffffffffffffffffffffffff161461257b576040517f08c379a000000000000000000000000000000000000000000000000000000000815260040161257290614b65565b60405180910390fd5b6040518061014001604052803373ffffffffffffffffffffffffffffffffffffffff1681526020018373ffffffffffffffffffffffffffffffffffffffff1681526020015f81526020015f151581526020015f73ffffffffffffffffffffffffffffffffffffffff1681526020015f151581526020018281526020015f81526020015f151581526020015f81525060015f8581526020019081526020015f205f820151815f015f6101000a81548173ffffffffffffffffffffffffffffffffffffffff021916908373ffffffffffffffffffffffffffffffffffffffff1602179055506020820151816001015f6101000a81548173ffffffffffffffffffffffffffffffffffffffff021916908373ffffffffffffffffffffffffffffffffffffffff160217905550604082015181600201556060820151816003015f6101000a81548160ff02191690831515021790555060808201518160030160016101000a81548173ffffffffffffffffffffffffffffffffffffffff021916908373ffffffffffffffffffffffffffffffffffffffff16021790555060a08201518160030160156101000a81548160ff02191690831515021790555060c0820151816004015560e08201518160050155610100820151816006015f6101000a81548160ff021916908315150217905550610120820151816007015590505060025f8154809291906127889061494c565b9190505550505050565b5f60605f5f5f60045f8781526020019081526020015f206040518060800160405290815f82015f9054906101000a900473ffffffffffffffffffffffffffffffffffffffff1673ffffffffffffffffffffffffffffffffffffffff1673ffffffffffffffffffffffffffffffffffffffff16815260200160018201805461281890614022565b80601f016020809104026020016040519081016040528092919081815260200182805461284490614022565b801561288f5780601f106128665761010080835404028352916020019161288f565b820191905f5260205f20905b81548152906001019060200180831161287257829003601f168201915b5050505050815260200160028201548152602001600382015f9054906101000a900460ff1660028111156128c6576128c56136fe565b5b60028111156128d8576128d76136fe565b5b815250509050805f01518160200151826040015183606001519450945094509450509193509193565b60065f9054906101000a900473ffffffffffffffffffffffffffffffffffffffff1681565b5f5f5f5f5f5f5f5f5f60015f8b81526020019081526020015f20604051806101400160405290815f82015f9054906101000a900473ffffffffffffffffffffffffffffffffffffffff1673ffffffffffffffffffffffffffffffffffffffff1673ffffffffffffffffffffffffffffffffffffffff168152602001600182015f9054906101000a900473ffffffffffffffffffffffffffffffffffffffff1673ffffffffffffffffffffffffffffffffffffffff1673ffffffffffffffffffffffffffffffffffffffff16815260200160028201548152602001600382015f9054906101000a900460ff161515151581526020016003820160019054906101000a900473ffffffffffffffffffffffffffffffffffffffff1673ffffffffffffffffffffffffffffffffffffffff1673ffffffffffffffffffffffffffffffffffffffff1681526020016003820160159054906101000a900460ff161515151581526020016004820154815260200160058201548152602001600682015f9054906101000a900460ff161515151581526020016007820154815250509050805f015181602001518260400151836060015184608001518560a001518660c001518760e001519850985098509850985098509850985050919395975091939597565b612b0f6130ba565b5f73ffffffffffffffffffffffffffffffffffffffff168173ffffffffffffffffffffffffffffffffffffffff1603612b7f575f6040517f1e4fbdf7000000000000000000000000000000000000000000000000000000008152600401612b7691906137f4565b60405180910390fd5b612b8881613141565b50565b60015f8581526020019081526020015f205f015f9054906101000a900473ffffffffffffffffffffffffffffffffffffffff1673ffffffffffffffffffffffffffffffffffffffff163373ffffffffffffffffffffffffffffffffffffffff1614612c2b576040517f08c379a0000000000000000000000000000000000000000000000000000000008152600401612c2290614bf3565b60405180910390fd5b604051806060016040528084151581526020018315158152602001821515815250600a5f8681526020019081526020015f205f820151815f015f6101000a81548160ff0219169083151502179055506020820151815f0160016101000a81548160ff0219169083151502179055506040820151815f0160026101000a81548160ff02191690831515021790555090505050505050565b8060065f6101000a81548173ffffffffffffffffffffffffffffffffffffffff021916908373ffffffffffffffffffffffffffffffffffffffff16021790555050565b5f60015f8381526020019081526020015f2090508060030160159054906101000a900460ff16612d69576040517f08c379a0000000000000000000000000000000000000000000000000000000008152600401612d6090614a03565b60405180910390fd5b8060040154816005015410612db3576040517f08c379a0000000000000000000000000000000000000000000000000000000008152600401612daa90614a6b565b60405180910390fd5b5f612dbc611d04565b73ffffffffffffffffffffffffffffffffffffffff16638e15f4736040518163ffffffff1660e01b8152600401602060405180830381865afa158015612e04573d5f5f3e3d5ffd5b505050506040513d601f19601f82011682018060405250810190612e289190614c25565b90506103e8811015612e6f576040517f08c379a0000000000000000000000000000000000000000000000000000000008152600401612e6690614c9a565b60405180910390fd5b5f82600401548360020154612e849190614ab6565b9050826005015f815480929190612e9a9061494c565b91905055508260040154836005015403612ecb576001836003015f6101000a81548160ff0219169083151502179055505b5f836001015f9054906101000a900473ffffffffffffffffffffffffffffffffffffffff1673ffffffffffffffffffffffffffffffffffffffff1682604051612f1390614489565b5f6040518083038185875af1925050503d805f8114612f4d576040519150601f19603f3d011682016040523d82523d5f602084013e612f52565b606091505b5050905080612f96576040517f08c379a0000000000000000000000000000000000000000000000000000000008152600401612f8d90614d02565b60405180910390fd5b7fd33fcd27cbfb73a2d9058c968b560ccb306500bf536133802048489ecc7355e985856005015484604051612fcd93929190614ae6565b60405180910390a1836003015f9054906101000a900460ff161561306357836001015f9054906101000a900473ffffffffffffffffffffffffffffffffffffffff1673ffffffffffffffffffffffffffffffffffffffff167f6e3c6096795c8298a218b2cfb8bde42726ff7c9a3d27b4d3ba41ab7f74feb5fb86866002015460405161305a929190613b75565b60405180910390a25b5050505050565b6002600354036130a6576040517f3ee5aeb500000000000000000000000000000000000000000000000000000000815260040160405180910390fd5b6002600381905550565b6001600381905550565b6130c2613202565b73ffffffffffffffffffffffffffffffffffffffff166130e0611daa565b73ffffffffffffffffffffffffffffffffffffffff161461313f57613103613202565b6040517f118cdaa700000000000000000000000000000000000000000000000000000000815260040161313691906137f4565b60405180910390fd5b565b5f5f5f9054906101000a900473ffffffffffffffffffffffffffffffffffffffff169050815f5f6101000a81548173ffffffffffffffffffffffffffffffffffffffff021916908373ffffffffffffffffffffffffffffffffffffffff1602179055508173ffffffffffffffffffffffffffffffffffffffff168173ffffffffffffffffffffffffffffffffffffffff167f8be0079c531659141344cd1fd0a4f28419497f9722a3daafe3b4186f6b6457e060405160405180910390a35050565b5f33905090565b5f604051905090565b5f5ffd5b5f5ffd5b5f73ffffffffffffffffffffffffffffffffffffffff82169050919050565b5f6132438261321a565b9050919050565b61325381613239565b811461325d575f5ffd5b50565b5f8135905061326e8161324a565b92915050565b5f6020828403121561328957613288613212565b5b5f61329684828501613260565b91505092915050565b5f819050919050565b6132b18161329f565b81146132bb575f5ffd5b50565b5f813590506132cc816132a8565b92915050565b5f602082840312156132e7576132e6613212565b5b5f6132f4848285016132be565b91505092915050565b61330681613239565b82525050565b6133158161329f565b82525050565b5f8115159050919050565b61332f8161331b565b82525050565b5f610140820190506133495f83018d6132fd565b613356602083018c6132fd565b613363604083018b61330c565b613370606083018a613326565b61337d60808301896132fd565b61338a60a0830188613326565b61339760c083018761330c565b6133a460e083018661330c565b6133b2610100830185613326565b6133c061012083018461330c565b9b9a5050505050505050505050565b5f819050919050565b5f6133f26133ed6133e88461321a565b6133cf565b61321a565b9050919050565b5f613403826133d8565b9050919050565b5f613414826133f9565b9050919050565b6134248161340a565b82525050565b5f60208201905061343d5f83018461341b565b92915050565b5f61344d826133f9565b9050919050565b61345d81613443565b82525050565b5f6020820190506134765f830184613454565b92915050565b5f60608201905061348f5f830186613326565b61349c6020830185613326565b6134a96040830184613326565b949350505050565b5f5ffd5b5f5ffd5b5f601f19601f8301169050919050565b7f4e487b71000000000000000000000000000000000000000000000000000000005f52604160045260245ffd5b6134ff826134b9565b810181811067ffffffffffffffff8211171561351e5761351d6134c9565b5b80604052505050565b5f613530613209565b905061353c82826134f6565b919050565b5f67ffffffffffffffff82111561355b5761355a6134c9565b5b613564826134b9565b9050602081019050919050565b828183375f83830152505050565b5f61359161358c84613541565b613527565b9050828152602081018484840111156135ad576135ac6134b5565b5b6135b8848285613571565b509392505050565b5f82601f8301126135d4576135d36134b1565b5b81356135e484826020860161357f565b91505092915050565b5f5f6040838503121561360357613602613212565b5b5f613610858286016132be565b925050602083013567ffffffffffffffff81111561363157613630613216565b5b61363d858286016135c0565b9150509250929050565b5f60208201905061365a5f83018461330c565b92915050565b5f5f6040838503121561367657613675613212565b5b5f613683858286016132be565b925050602061369485828601613260565b9150509250929050565b5f81519050919050565b5f82825260208201905092915050565b8281835e5f83830152505050565b5f6136d08261369e565b6136da81856136a8565b93506136ea8185602086016136b8565b6136f3816134b9565b840191505092915050565b7f4e487b71000000000000000000000000000000000000000000000000000000005f52602160045260245ffd5b6003811061373c5761373b6136fe565b5b50565b5f81905061374c8261372b565b919050565b5f61375b8261373f565b9050919050565b61376b81613751565b82525050565b5f6080820190506137845f8301876132fd565b818103602083015261379681866136c6565b90506137a5604083018561330c565b6137b26060830184613762565b95945050505050565b5f6137c5826133f9565b9050919050565b6137d5816137bb565b82525050565b5f6020820190506137ee5f8301846137cc565b92915050565b5f6020820190506138075f8301846132fd565b92915050565b5f5f6040838503121561382357613822613212565b5b5f61383085828601613260565b9250506020613841858286016132be565b9150509250929050565b5f61385582613239565b9050919050565b6138658161384b565b811461386f575f5ffd5b50565b5f813590506138808161385c565b92915050565b5f6020828403121561389b5761389a613212565b5b5f6138a884828501613872565b91505092915050565b5f6138bb8261321a565b9050919050565b6138cb816138b1565b81146138d5575f5ffd5b50565b5f813590506138e6816138c2565b92915050565b5f5f5f6060848603121561390357613902613212565b5b5f613910868287016132be565b9350506020613921868287016138d8565b9250506040613932868287016132be565b9150509250925092565b5f613946826133f9565b9050919050565b6139568161393c565b82525050565b5f60208201905061396f5f83018461394d565b92915050565b5f610100820190506139895f83018b6132fd565b613996602083018a6132fd565b6139a3604083018961330c565b6139b06060830188613326565b6139bd60808301876132fd565b6139ca60a0830186613326565b6139d760c083018561330c565b6139e460e083018461330c565b9998505050505050505050565b6139fa8161331b565b8114613a04575f5ffd5b50565b5f81359050613a15816139f1565b92915050565b5f5f5f5f60808587031215613a3357613a32613212565b5b5f613a40878288016132be565b9450506020613a5187828801613a07565b9350506040613a6287828801613a07565b9250506060613a7387828801613a07565b91505092959194509250565b7f4572726f723a204f6e6c792074686520636c69656e742063616e20706572666f5f8201527f726d207468697320616374696f6e2e0000000000000000000000000000000000602082015250565b5f613ad9602f836136a8565b9150613ae482613a7f565b604082019050919050565b5f6020820190508181035f830152613b0681613acd565b9050919050565b7f466f72746552756c6573206d6f64756c65206e6f7420736574000000000000005f82015250565b5f613b416019836136a8565b9150613b4c82613b0d565b602082019050919050565b5f6020820190508181035f830152613b6e81613b35565b9050919050565b5f604082019050613b885f83018561330c565b613b95602083018461330c565b9392505050565b5f81519050613baa816139f1565b92915050565b5f60208284031215613bc557613bc4613212565b5b5f613bd284828501613b9c565b91505092915050565b7f52656c6561736520626c6f636b656420627920466f7274652072756c657300005f82015250565b5f613c0f601e836136a8565b9150613c1a82613bdb565b602082019050919050565b5f6020820190508181035f830152613c3c81613c03565b9050919050565b7f46616c6c6261636b206d6f64756c65206e6f74207365740000000000000000005f82015250565b5f613c776017836136a8565b9150613c8282613c43565b602082019050919050565b5f6020820190508181035f830152613ca481613c6b565b9050919050565b7f46616c6c6261636b20636f6e646974696f6e206e6f74206d65740000000000005f82015250565b5f613cdf601a836136a8565b9150613cea82613cab565b602082019050919050565b5f6020820190508181035f830152613d0c81613cd3565b9050919050565b7f5369676e6174757265206d6f64756c65206e6f742073657400000000000000005f82015250565b5f613d476018836136a8565b9150613d5282613d13565b602082019050919050565b5f6020820190508181035f830152613d7481613d3b565b9050919050565b7f426f746820636c69656e7420616e6420617274697374206d75737420636f6e665f8201527f69726d0000000000000000000000000000000000000000000000000000000000602082015250565b5f613dd56023836136a8565b9150613de082613d7b565b604082019050919050565b5f6020820190508181035f830152613e0281613dc9565b9050919050565b7f4572726f723a2050726f6a65637420646f6573206e6f742065786973742e00005f82015250565b5f613e3d601e836136a8565b9150613e4882613e09565b602082019050919050565b5f6020820190508181035f830152613e6a81613e31565b9050919050565b7f4572726f723a2043616e6e6f74206f70656e20646973707574652061667465725f8201527f2066756c6c2072656c6561736500000000000000000000000000000000000000602082015250565b5f613ecb602d836136a8565b9150613ed682613e71565b604082019050919050565b5f6020820190508181035f830152613ef881613ebf565b9050919050565b7f4572726f723a2043616e6e6f74206f70656e20646973707574652061667465725f8201527f207061727469616c2072656c6561736500000000000000000000000000000000602082015250565b5f613f596030836136a8565b9150613f6482613eff565b604082019050919050565b5f6020820190508181035f830152613f8681613f4d565b9050919050565b7f4572726f723a204469737075746520616c7265616479206578697374730000005f82015250565b5f613fc1601d836136a8565b9150613fcc82613f8d565b602082019050919050565b5f6020820190508181035f830152613fee81613fb5565b9050919050565b7f4e487b71000000000000000000000000000000000000000000000000000000005f52602260045260245ffd5b5f600282049050600182168061403957607f821691505b60208210810361404c5761404b613ff5565b5b50919050565b5f819050815f5260205f209050919050565b5f6020601f8301049050919050565b5f82821b905092915050565b5f600883026140ae7fffffffffffffffffffffffffffffffffffffffffffffffffffffffffffffffff82614073565b6140b88683614073565b95508019841693508086168417925050509392505050565b5f6140ea6140e56140e08461329f565b6133cf565b61329f565b9050919050565b5f819050919050565b614103836140d0565b61411761410f826140f1565b84845461407f565b825550505050565b5f5f905090565b61412e61411f565b6141398184846140fa565b505050565b5b8181101561415c576141515f82614126565b60018101905061413f565b5050565b601f8211156141a15761417281614052565b61417b84614064565b8101602085101561418a578190505b61419e61419685614064565b83018261413e565b50505b505050565b5f82821c905092915050565b5f6141c15f19846008026141a6565b1980831691505092915050565b5f6141d983836141b2565b9150826002028217905092915050565b6141f28261369e565b67ffffffffffffffff81111561420b5761420a6134c9565b5b6142158254614022565b614220828285614160565b5f60209050601f831160018114614251575f841561423f578287015190505b61424985826141ce565b8655506142b0565b601f19841661425f86614052565b5f5b8281101561428657848901518255600182019150602085019450602081019050614261565b868310156142a3578489015161429f601f8916826141b2565b8355505b6001600288020188555050505b505050505050565b5f6020820190508181035f8301526142d081846136c6565b905092915050565b7f4572726f723a2043616e6e6f7420726566756e642061667465722066756c6c205f8201527f72656c6561736500000000000000000000000000000000000000000000000000602082015250565b5f6143326027836136a8565b915061433d826142d8565b604082019050919050565b5f6020820190508181035f83015261435f81614326565b9050919050565b7f4572726f723a2043616e6e6f7420726566756e642061667465722070617274695f8201527f616c2072656c6561736500000000000000000000000000000000000000000000602082015250565b5f6143c0602a836136a8565b91506143cb82614366565b604082019050919050565b5f6020820190508181035f8301526143ed816143b4565b9050919050565b7f4572726f723a204e6f2066756e647320746f20726566756e64000000000000005f82015250565b5f6144286019836136a8565b9150614433826143f4565b602082019050919050565b5f6020820190508181035f8301526144558161441c565b9050919050565b5f81905092915050565b50565b5f6144745f8361445c565b915061447f82614466565b5f82019050919050565b5f61449382614469565b9150819050919050565b7f5472616e73666572206661696c656400000000000000000000000000000000005f82015250565b5f6144d1600f836136a8565b91506144dc8261449d565b602082019050919050565b5f6020820190508181035f8301526144fe816144c5565b9050919050565b7f496e76616c69642076616c696461746f7220616464726573732e0000000000005f82015250565b5f614539601a836136a8565b915061454482614505565b602082019050919050565b5f6020820190508181035f8301526145668161452d565b9050919050565b7f46756e647320616c72656164792072656c65617365642e0000000000000000005f82015250565b5f6145a16017836136a8565b91506145ac8261456d565b602082019050919050565b5f6020820190508181035f8301526145ce81614595565b9050919050565b7f43616e6e6f74206368616e67652076616c696461746f722061667465722076615f8201527f6c69646174696f6e2e0000000000000000000000000000000000000000000000602082015250565b5f61462f6029836136a8565b915061463a826145d5565b604082019050919050565b5f6020820190508181035f83015261465c81614623565b9050919050565b7f4572726f723a204f6e6c79207468652061737369676e65642076616c696461745f8201527f6f722063616e20706572666f726d207468697320616374696f6e2e0000000000602082015250565b5f6146bd603b836136a8565b91506146c882614663565b604082019050919050565b5f6020820190508181035f8301526146ea816146b1565b9050919050565b7f50726f6a65637420616c72656164792076616c6964617465642e0000000000005f82015250565b5f614725601a836136a8565b9150614730826146f1565b602082019050919050565b5f6020820190508181035f83015261475281614719565b9050919050565b7f4e6f2076616c696461746f722061737369676e65642e000000000000000000005f82015250565b5f61478d6016836136a8565b915061479882614759565b602082019050919050565b5f6020820190508181035f8301526147ba81614781565b9050919050565b7f496e76616c6964206172746973742061646472657373000000000000000000005f82015250565b5f6147f56016836136a8565b9150614800826147c1565b602082019050919050565b5f6020820190508181035f830152614822816147e9565b9050919050565b7f416d6f756e74206d757374206265203e203000000000000000000000000000005f82015250565b5f61485d6012836136a8565b915061486882614829565b602082019050919050565b5f6020820190508181035f83015261488a81614851565b9050919050565b7f4d696c6573746f6e6520636f756e74206d7573742062652067726561746572205f8201527f7468616e207a65726f0000000000000000000000000000000000000000000000602082015250565b5f6148eb6029836136a8565b91506148f682614891565b604082019050919050565b5f6020820190508181035f830152614918816148df565b9050919050565b7f4e487b71000000000000000000000000000000000000000000000000000000005f52601160045260245ffd5b5f6149568261329f565b91507fffffffffffffffffffffffffffffffffffffffffffffffffffffffffffffffff82036149885761498761491f565b5b600182019050919050565b7f4572726f723a2050726f6a656374206d7573742062652076616c6964617465645f8201527f206265666f72652072656c656173696e672066756e6473000000000000000000602082015250565b5f6149ed6037836136a8565b91506149f882614993565b604082019050919050565b5f6020820190508181035f830152614a1a816149e1565b9050919050565b7f4572726f723a20416c6c206d696c6573746f6e657320706169642e00000000005f82015250565b5f614a55601b836136a8565b9150614a6082614a21565b602082019050919050565b5f6020820190508181035f830152614a8281614a49565b9050919050565b7f4e487b71000000000000000000000000000000000000000000000000000000005f52601260045260245ffd5b5f614ac08261329f565b9150614acb8361329f565b925082614adb57614ada614a89565b5b828204905092915050565b5f606082019050614af95f83018661330c565b614b06602083018561330c565b614b13604083018461330c565b949350505050565b7f50726f6a65637420616c726561647920657869737473000000000000000000005f82015250565b5f614b4f6016836136a8565b9150614b5a82614b1b565b602082019050919050565b5f6020820190508181035f830152614b7c81614b43565b9050919050565b7f4f6e6c7920636c69656e742063616e20636f6e6669677572652070726f6a65635f8201527f7400000000000000000000000000000000000000000000000000000000000000602082015250565b5f614bdd6021836136a8565b9150614be882614b83565b604082019050919050565b5f6020820190508181035f830152614c0a81614bd1565b9050919050565b5f81519050614c1f816132a8565b92915050565b5f60208284031215614c3a57614c39613212565b5b5f614c4784828501614c11565b91505092915050565b7f507269636520746f6f206c6f77000000000000000000000000000000000000005f82015250565b5f614c84600d836136a8565b9150614c8f82614c50565b602082019050919050565b5f6020820190508181035f830152614cb181614c78565b9050919050565b7f5472616e73666572206661696c65642e000000000000000000000000000000005f82015250565b5f614cec6010836136a8565b9150614cf782614cb8565b602082019050919050565b5f6020820190508181035f830152614d1981614ce0565b905091905056fea2646970667358221220f643a807fde75179ef5e1683f69b6a46e362b0397618de49433abaa2ce842ab564736f6c634300081c0033","linkReferences":{}},"methodIdentifiers":{"addValidator(uint256,address)":"4b561753","createProject(uint256,address,uint256)":"e1e7cf84","depositFunds(address,uint256)":"921b004b","disputes(uint256)":"564a565d","fallbackModule()":"efa04726","forteRules()":"216a6313","getDispute(uint256)":"e3a96cbd","getOracle()":"833b1fce","getProject(uint256)":"f0f3f2c8","openDispute(uint256,string)":"36f691c4","oracle()":"7dc0d1d0","owner()":"8da5cb5b","projectConfigs(uint256)":"31e709dc","projectCount()":"36fbad26","projects(uint256)":"107046bd","refundClient(uint256)":"43eed51c","releaseAfterEvent(uint256)":"cbcbc305","releaseMilestone(uint256)":"317debf5","renounceOwnership()":"715018a6","setFallbackModule(address)":"f8ec8b30","setForteRulesModule(address)":"0d01e5ef","setOracle(address)":"7adbf973","setOracleOverride(address)":"d23d4222","setProjectConfig(uint256,bool,bool,bool)":"f6ce28bd","setSignatureModule(address)":"68f98317","signatureModule()":"117159ca","transferOwnership(address)":"f2fde38b","validateProject(uint256)":"57021469"},"id":0}