{"abi":[{"type":"constructor","inputs":[],"stateMutability":"nonpayable"},{"type":"function","name":"addValidator","inputs":[{"name":"_projectId","type":"uint256","internalType":"uint256"},{"name":"_validator","type":"address","internalType":"address"}],"outputs":[],"stateMutability":"nonpayable"},{"type":"function","name":"createProject","inputs":[{"name":"_projectId","type":"uint256","internalType":"uint256"},{"name":"_artist","type":"address","internalType":"address payable"},{"name":"_milestoneCount","type":"uint256","internalType":"uint256"}],"outputs":[],"stateMutability":"nonpayable"},{"type":"function","name":"depositFunds","inputs":[{"name":"_artist","type":"address","internalType":"address"},{"name":"_milestoneCount","type":"uint256","internalType":"uint256"}],"outputs":[],"stateMutability":"payable"},{"type":"function","name":"disputes","inputs":[{"name":"","type":"uint256","internalType":"uint256"}],"outputs":[{"name":"initiator","type":"address","internalType":"address"},{"name":"reason","type":"string","internalType":"string"},{"name":"openedAt","type":"uint256","internalType":"uint256"},{"name":"status","type":"uint8","internalType":"enum DisputeModule.DisputeStatus"}],"stateMutability":"view"},{"type":"function","name":"fallbackModule","inputs":[],"outputs":[{"name":"","type":"address","internalType":"contract IFallbackModule"}],"stateMutability":"view"},{"type":"function","name":"forteRules","inputs":[],"outputs":[{"name":"","type":"address","internalType":"contract IForteRules"}],"stateMutability":"view"},{"type":"function","name":"getDispute","inputs":[{"name":"_projectId","type":"uint256","internalType":"uint256"}],"outputs":[{"name":"","type":"address","internalType":"address"},{"name":"","type":"string","internalType":"string"},{"name":"","type":"uint256","internalType":"uint256"},{"name":"","type":"uint8","internalType":"enum DisputeModule.DisputeStatus"}],"stateMutability":"view"},{"type":"function","name":"getOracle","inputs":[],"outputs":[{"name":"","type":"address","internalType":"contract IOracle"}],"stateMutability":"view"},{"type":"function","name":"getProject","inputs":[{"name":"_projectId","type":"uint256","internalType":"uint256"}],"outputs":[{"name":"client","type":"address","internalType":"address"},{"name":"artist","type":"address","internalType":"address"},{"name":"amount","type":"uint256","internalType":"uint256"},{"name":"released","type":"bool","internalType":"bool"},{"name":"validator","type":"address","internalType":"address"},{"name":"validated","type":"bool","internalType":"bool"},{"name":"milestoneCount","type":"uint256","internalType":"uint256"},{"name":"milestonesPaid","type":"uint256","internalType":"uint256"},{"name":"useFallback","type":"bool","internalType":"bool"},{"name":"fallbackDelay","type":"uint256","internalType":"uint256"},{"name":"useSignature","type":"bool","internalType":"bool"},{"name":"createdAt","type":"uint256","internalType":"uint256"}],"stateMutability":"view"},{"type":"function","name":"openDispute","inputs":[{"name":"_projectId","type":"uint256","internalType":"uint256"},{"name":"_reason","type":"string","internalType":"string"}],"outputs":[],"stateMutability":"nonpayable"},{"type":"function","name":"oracle","inputs":[],"outputs":[{"name":"","type":"address","internalType":"contract IOracle"}],"stateMutability":"view"},{"type":"function","name":"owner","inputs":[],"outputs":[{"name":"","type":"address","internalType":"address"}],"stateMutability":"view"},{"type":"function","name":"pause","inputs":[],"outputs":[],"stateMutability":"nonpayable"},{"type":"function","name":"paused","inputs":[],"outputs":[{"name":"","type":"bool","internalType":"bool"}],"stateMutability":"view"},{"type":"function","name":"projectConfigs","inputs":[{"name":"","type":"uint256","internalType":"uint256"}],"outputs":[{"name":"useForteRules","type":"bool","internalType":"bool"},{"name":"useFallback","type":"bool","internalType":"bool"},{"name":"useSignature","type":"bool","internalType":"bool"}],"stateMutability":"view"},{"type":"function","name":"projectCount","inputs":[],"outputs":[{"name":"","type":"uint256","internalType":"uint256"}],"stateMutability":"view"},{"type":"function","name":"projects","inputs":[{"name":"","type":"uint256","internalType":"uint256"}],"outputs":[{"name":"client","type":"address","internalType":"address"},{"name":"artist","type":"address","internalType":"address"},{"name":"amount","type":"uint256","internalType":"uint256"},{"name":"released","type":"bool","internalType":"bool"},{"name":"validator","type":"address","internalType":"address"},{"name":"validated","type":"bool","internalType":"bool"},{"name":"milestoneCount","type":"uint256","internalType":"uint256"},{"name":"milestonesPaid","type":"uint256","internalType":"uint256"},{"name":"useFallback","type":"bool","internalType":"bool"},{"name":"fallbackDelay","type":"uint256","internalType":"uint256"},{"name":"useSignature","type":"bool","internalType":"bool"},{"name":"createdAt","type":"uint256","internalType":"uint256"}],"stateMutability":"view"},{"type":"function","name":"refundClient","inputs":[{"name":"_projectId","type":"uint256","internalType":"uint256"}],"outputs":[],"stateMutability":"nonpayable"},{"type":"function","name":"releaseAfterEvent","inputs":[{"name":"_projectId","type":"uint256","internalType":"uint256"}],"outputs":[],"stateMutability":"nonpayable"},{"type":"function","name":"releaseMilestone","inputs":[{"name":"projectId","type":"uint256","internalType":"uint256"}],"outputs":[],"stateMutability":"nonpayable"},{"type":"function","name":"renounceOwnership","inputs":[],"outputs":[],"stateMutability":"nonpayable"},{"type":"function","name":"setFallbackModule","inputs":[{"name":"_addr","type":"address","internalType":"address"}],"outputs":[],"stateMutability":"nonpayable"},{"type":"function","name":"setForteRulesModule","inputs":[{"name":"_addr","type":"address","internalType":"address"}],"outputs":[],"stateMutability":"nonpayable"},{"type":"function","name":"setOracle","inputs":[{"name":"_oracle","type":"address","internalType":"address"}],"outputs":[],"stateMutability":"nonpayable"},{"type":"function","name":"setOracleOverride","inputs":[{"name":"o","type":"address","internalType":"contract IOracle"}],"outputs":[],"stateMutability":"nonpayable"},{"type":"function","name":"setProjectConfig","inputs":[{"name":"_projectId","type":"uint256","internalType":"uint256"},{"name":"_useForte","type":"bool","internalType":"bool"},{"name":"_useFallback","type":"bool","internalType":"bool"},{"name":"_useSig","type":"bool","internalType":"bool"}],"outputs":[],"stateMutability":"nonpayable"},{"type":"function","name":"setSignatureModule","inputs":[{"name":"_addr","type":"address","internalType":"address"}],"outputs":[],"stateMutability":"nonpayable"},{"type":"function","name":"signatureModule","inputs":[],"outputs":[{"name":"","type":"address","internalType":"contract ISignatureModule"}],"stateMutability":"view"},{"type":"function","name":"transferOwnership","inputs":[{"name":"newOwner","type":"address","internalType":"address"}],"outputs":[],"stateMutability":"nonpayable"},{"type":"function","name":"unpause","inputs":[],"outputs":[],"stateMutability":"nonpayable"},{"type":"function","name":"validateProject","inputs":[{"name":"_projectId","type":"uint256","internalType":"uint256"}],"outputs":[],"stateMutability":"nonpayable"},{"type":"event","name":"ClientRefunded","inputs":[{"name":"projectId","type":"uint256","indexed":false,"internalType":"uint256"},{"name":"client","type":"address","indexed":true,"internalType":"address"},{"name":"amount","type":"uint256","indexed":false,"internalType":"uint256"}],"anonymous":false},{"type":"event","name":"DisputeOpened","inputs":[{"name":"projectId","type":"uint256","indexed":true,"internalType":"uint256"},{"name":"initiator","type":"address","indexed":true,"internalType":"address"},{"name":"reason","type":"string","indexed":false,"internalType":"string"}],"anonymous":false},{"type":"event","name":"FundsDeposited","inputs":[{"name":"projectId","type":"uint256","indexed":false,"internalType":"uint256"},{"name":"client","type":"address","indexed":true,"internalType":"address"},{"name":"artist","type":"address","indexed":true,"internalType":"address"},{"name":"amount","type":"uint256","indexed":false,"internalType":"uint256"}],"anonymous":false},{"type":"event","name":"FundsRefunded","inputs":[{"name":"projectId","type":"uint256","indexed":false,"internalType":"uint256"},{"name":"client","type":"address","indexed":true,"internalType":"address"}],"anonymous":false},{"type":"event","name":"FundsReleased","inputs":[{"name":"projectId","type":"uint256","indexed":false,"internalType":"uint256"},{"name":"artist","type":"address","indexed":true,"internalType":"address"},{"name":"amount","type":"uint256","indexed":false,"internalType":"uint256"}],"anonymous":false},{"type":"event","name":"MilestoneReleased","inputs":[{"name":"projectId","type":"uint256","indexed":false,"internalType":"uint256"},{"name":"milestoneIndex","type":"uint256","indexed":false,"internalType":"uint256"},{"name":"amount","type":"uint256","indexed":false,"internalType":"uint256"}],"anonymous":false},{"type":"event","name":"OwnershipTransferred","inputs":[{"name":"previousOwner","type":"address","indexed":true,"internalType":"address"},{"name":"newOwner","type":"address","indexed":true,"internalType":"address"}],"anonymous":false},{"type":"event","name":"Paused","inputs":[{"name":"account","type":"address","indexed":false,"internalType":"address"}],"anonymous":false},{"type":"event","name":"ProjectValidated","inputs":[{"name":"projectId","type":"uint256","indexed":false,"internalType":"uint256"},{"name":"validator","type":"address","indexed":true,"internalType":"address"}],"anonymous":false},{"type":"event","name":"Unpaused","inputs":[{"name":"account","type":"address","indexed":false,"internalType":"address"}],"anonymous":false},{"type":"event","name":"ValidatorAssigned","inputs":[{"name":"projectId","type":"uint256","indexed":false,"internalType":"uint256"},{"name":"validator","type":"address","indexed":true,"internalType":"address"}],"anonymous":false},{"type":"error","name":"OwnableInvalidOwner","inputs":[{"name":"owner","type":"address","internalType":"address"}]},{"type":"error","name":"OwnableUnauthorizedAccount","inputs":[{"name":"account","type":"address","internalType":"address"}]},{"type":"error","name":"ReentrancyGuardReentrantCall","inputs":[]}],"bytecode":{"object":"0x60806040523461002757610011610036565b61001961002c565b614d4d61033c8239614d4d90f35b610032565b60405190565b5f80fd5b61003f33610041565b565b61004a9061004c565b565b61005590610057565b565b610060906100ee565b565b90565b90565b90565b61007f61007a61008492610062565b610068565b610065565b90565b610091600161006b565b90565b5f1b90565b906100a55f1991610094565b9181191691161790565b6100c36100be6100c892610065565b610068565b610065565b90565b90565b906100e36100de6100ea926100af565b6100cb565b8254610099565b9055565b6100f79061010b565b610109610102610087565b60036100ce565b565b61011490610169565b565b60a01b90565b9061012b60ff60a01b91610116565b9181191691161790565b151590565b61014390610135565b90565b90565b9061015e6101596101659261013a565b610146565b825461011c565b9055565b610172906101e2565b61017c5f5f610149565b565b90565b60018060a01b031690565b6101a061019b6101a59261017e565b610068565b610181565b90565b6101b19061018c565b90565b6101bd90610181565b90565b6101c9906101b4565b9052565b91906101e0905f602085019401906101c0565b565b806101fd6101f76101f25f6101a8565b6101b4565b916101b4565b1461020d5761020b906102dc565b565b6102306102195f6101a8565b5f918291631e4fbdf760e01b8352600483016101cd565b0390fd5b5f1c90565b60018060a01b031690565b61025061025591610234565b610239565b90565b6102629054610244565b90565b9061027660018060a01b0391610094565b9181191691161790565b61029461028f61029992610181565b610068565b610181565b90565b6102a590610280565b90565b6102b19061029c565b90565b90565b906102cc6102c76102d3926102a8565b6102b4565b8254610265565b9055565b5f0190565b6102e55f610258565b6102ef825f6102b7565b9061032361031d7f8be0079c531659141344cd1fd0a4f28419497f9722a3daafe3b4186f6b6457e0936102a8565b916102a8565b9161032c61002c565b80610336816102d7565b0390a356fe60806040526004361015610013575b6113e7565b61001d5f3561020c565b80630d01e5ef14610207578063107046bd14610202578063117159ca146101fd578063216a6313146101f8578063317debf5146101f357806331e709dc146101ee57806336f691c4146101e957806336fbad26146101e45780633f4ba83a146101df57806343eed51c146101da5780634b561753146101d5578063564a565d146101d057806357021469146101cb5780635c975abb146101c657806368f98317146101c1578063715018a6146101bc5780637adbf973146101b75780637dc0d1d0146101b2578063833b1fce146101ad5780638456cb59146101a85780638da5cb5b146101a3578063921b004b1461019e578063cbcbc30514610199578063d23d422214610194578063e1e7cf841461018f578063e3a96cbd1461018a578063efa0472614610185578063f0f3f2c814610180578063f2fde38b1461017b578063f6ce28bd146101765763f8ec8b300361000e576113b4565b61137d565b6112e1565b61129c565b611267565b6111c0565b61118c565b6110f0565b611070565b611046565b610fe4565b610f9c565b610f67565b610f32565b610e91565b610e5e565b610e2b565b610df6565b610dae565b610d75565b610ae6565b610a86565b610a53565b610a1e565b6109a0565b610838565b610745565b610710565b61066d565b61057f565b610281565b60e01c90565b60405190565b5f80fd5b5f80fd5b5f80fd5b60018060a01b031690565b61023890610224565b90565b6102448161022f565b0361024b57565b5f80fd5b9050359061025c8261023b565b565b9060208282031261027757610274915f0161024f565b90565b61021c565b5f0190565b346102af5761029961029436600461025e565b611548565b6102a1610212565b806102ab8161027c565b0390f35b610218565b90565b6102c0816102b4565b036102c757565b5f80fd5b905035906102d8826102b7565b565b906020828203126102f3576102f0915f016102cb565b90565b61021c565b90565b61030f61030a610314926102b4565b6102f8565b6102b4565b90565b90610321906102fb565b5f5260205260405f2090565b5f1c90565b60018060a01b031690565b61034961034e9161032d565b610332565b90565b61035b905461033d565b90565b90565b61036d6103729161032d565b61035e565b90565b61037f9054610361565b90565b60ff1690565b6103946103999161032d565b610382565b90565b6103a69054610388565b90565b60081c90565b6103bb6103c0916103a9565b610332565b90565b6103cd90546103af565b90565b60a81c90565b6103e26103e7916103d0565b610382565b90565b6103f490546103d6565b90565b610402906001610317565b9061040e5f8301610351565b9161041b60018201610351565b9161042860028301610375565b916104356003820161039c565b91610442600383016103c3565b9161044f600382016103ea565b9161045c60048301610375565b9161046960058201610375565b916104766006830161039c565b9161048360078201610375565b9161049c60096104956008850161039c565b9301610375565b90565b6104a89061022f565b9052565b6104b5906102b4565b9052565b151590565b6104c7906104b9565b9052565b99979593919c9b9a98969492909c6101808b019d5f8c016104eb9161049f565b60208b016104f89161049f565b60408a01610505916104ac565b60608901610512916104be565b6080880161051f9161049f565b60a0870161052c916104be565b60c08601610539916104ac565b60e08501610546916104ac565b6101008401610554916104be565b6101208301610562916104ac565b6101408201610570916104be565b6101600161057d916104ac565b565b346105bf576105bb61059a6105953660046102da565b6103f7565b986105b29c9a9c989198979297969396959495610212565b9c8d9c8d6104cb565b0390f35b610218565b5f9103126105ce57565b61021c565b1c90565b60018060a01b031690565b6105f29060086105f793026105d3565b6105d7565b90565b9061060591546105e2565b90565b61061460075f906105fa565b90565b61062b61062661063092610224565b6102f8565b610224565b90565b61063c90610617565b90565b61064890610633565b90565b6106549061063f565b9052565b919061066b905f6020850194019061064b565b565b3461069d5761067d3660046105c4565b610699610688610608565b610690610212565b91829182610658565b0390f35b610218565b60018060a01b031690565b6106bd9060086106c293026105d3565b6106a2565b90565b906106d091546106ad565b90565b6106df60055f906106c5565b90565b6106eb90610633565b90565b6106f7906106e2565b9052565b919061070e905f602085019401906106ee565b565b34610740576107203660046105c4565b61073c61072b6106d3565b610733610212565b918291826106fb565b0390f35b610218565b346107735761075d6107583660046102da565b611de2565b610765610212565b8061076f8161027c565b0390f35b610218565b90610782906102fb565b5f5260205260405f2090565b61079a61079f916103a9565b610382565b90565b6107ac905461078e565b90565b60101c90565b6107c16107c6916107af565b610382565b90565b6107d390546107b5565b90565b6107e190600a610778565b6107ec5f820161039c565b916108035f6107fc8185016107a2565b93016107c9565b90565b60409061082f610836949695939661082560608401985f8501906104be565b60208301906104be565b01906104be565b565b3461086b5761086761085361084e3660046102da565b6107d6565b61085e939193610212565b93849384610806565b0390f35b610218565b5f80fd5b5f80fd5b601f801991011690565b634e487b7160e01b5f52604160045260245ffd5b906108a090610878565b810190811067ffffffffffffffff8211176108ba57604052565b610882565b906108d26108cb610212565b9283610896565b565b67ffffffffffffffff81116108f2576108ee602091610878565b0190565b610882565b90825f939282370152565b90929192610917610912826108d4565b6108bf565b9381855260208501908284011161093357610931926108f7565b565b610874565b9080601f830112156109565781602061095393359101610902565b90565b610870565b91909160408184031261099b57610974835f83016102cb565b92602082013567ffffffffffffffff8111610996576109939201610938565b90565b610220565b61021c565b346109cf576109b96109b336600461095b565b9061256f565b6109c1610212565b806109cb8161027c565b0390f35b610218565b6109e49060086109e993026105d3565b61035e565b90565b906109f791546109d4565b90565b610a0660025f906109ec565b90565b9190610a1c905f602085019401906104ac565b565b34610a4e57610a2e3660046105c4565b610a4a610a396109fa565b610a41610212565b91829182610a09565b0390f35b610218565b34610a8157610a633660046105c4565b610a6b6126b4565b610a73610212565b80610a7d8161027c565b0390f35b610218565b34610ab457610a9e610a993660046102da565b612bcf565b610aa6610212565b80610ab08161027c565b0390f35b610218565b9190604083820312610ae15780610ad5610ade925f86016102cb565b9360200161024f565b90565b61021c565b34610b1557610aff610af9366004610ab9565b90612f10565b610b07610212565b80610b118161027c565b0390f35b610218565b90610b24906102fb565b5f5260205260405f2090565b634e487b7160e01b5f52602260045260245ffd5b9060016002830492168015610b64575b6020831014610b5f57565b610b30565b91607f1691610b54565b60209181520190565b5f5260205f2090565b905f9291805490610b9a610b9383610b44565b8094610b6e565b916001811690815f14610bf15750600114610bb5575b505050565b610bc29192939450610b77565b915f925b818410610bd957505001905f8080610bb0565b60018160209295939554848601520191019290610bc6565b92949550505060ff19168252151560200201905f8080610bb0565b90610c1691610b80565b90565b90610c39610c3292610c29610212565b93848092610c0c565b0383610896565b565b60ff1690565b610c4d610c529161032d565b610c3b565b90565b610c5f9054610c41565b90565b610c6d906004610b1a565b90610c795f8301610351565b91610c8660018201610c19565b91610c9f6003610c9860028501610375565b9301610c55565b90565b5190565b60209181520190565b90825f9392825e0152565b610cd9610ce2602093610ce793610cd081610ca2565b93848093610ca6565b95869101610caf565b610878565b0190565b634e487b7160e01b5f52602160045260245ffd5b60031115610d0957565b610ceb565b90610d1882610cff565b565b610d2390610d0e565b90565b610d2f90610d1a565b9052565b610d6c610d61606093610d7396989795610d5460808601925f87019061049f565b8482036020860152610cba565b9660408301906104ac565b0190610d26565b565b34610da957610da5610d90610d8b3660046102da565b610c62565b90610d9c949294610212565b94859485610d33565b0390f35b610218565b34610ddc57610dc6610dc13660046102da565b613264565b610dce610212565b80610dd88161027c565b0390f35b610218565b9190610df4905f602085019401906104be565b565b34610e2657610e063660046105c4565b610e22610e11613273565b610e19610212565b91829182610de1565b0390f35b610218565b34610e5957610e43610e3e36600461025e565b61331c565b610e4b610212565b80610e558161027c565b0390f35b610218565b34610e8c57610e6e3660046105c4565b610e7661334c565b610e7e610212565b80610e888161027c565b0390f35b610218565b34610ebf57610ea9610ea436600461025e565b6133ea565b610eb1610212565b80610ebb8161027c565b0390f35b610218565b60018060a01b031690565b610edf906008610ee493026105d3565b610ec4565b90565b90610ef29154610ecf565b90565b610f0160095f90610ee7565b90565b610f0d90610633565b90565b610f1990610f04565b9052565b9190610f30905f60208501940190610f10565b565b34610f6257610f423660046105c4565b610f5e610f4d610ef5565b610f55610212565b91829182610f1d565b0390f35b610218565b34610f9757610f773660046105c4565b610f93610f8261341a565b610f8a610212565b91829182610f1d565b0390f35b610218565b34610fca57610fac3660046105c4565b610fb4613563565b610fbc610212565b80610fc68161027c565b0390f35b610218565b9190610fe2905f6020850194019061049f565b565b3461101457610ff43660046105c4565b611010610fff613571565b611007610212565b91829182610fcf565b0390f35b610218565b9190604083820312611041578061103561103e925f860161024f565b936020016102cb565b90565b61021c565b61105a611054366004611019565b90613ad3565b611062610212565b8061106c8161027c565b0390f35b3461109e576110886110833660046102da565b613ea9565b611090610212565b8061109a8161027c565b0390f35b610218565b6110ac9061022f565b90565b6110b8816110a3565b036110bf57565b5f80fd5b905035906110d0826110af565b565b906020828203126110eb576110e8915f016110c3565b90565b61021c565b3461111e576111086111033660046110d2565b613eb4565b611110610212565b8061111a8161027c565b0390f35b610218565b61112c90610224565b90565b61113881611123565b0361113f57565b5f80fd5b905035906111508261112f565b565b90916060828403126111875761118461116d845f85016102cb565b9361117b8160208601611143565b936040016102cb565b90565b61021c565b346111bb576111a561119f366004611152565b916140d6565b6111ad610212565b806111b78161027c565b0390f35b610218565b346111f4576111f06111db6111d63660046102da565b61416e565b906111e7949294610212565b94859485610d33565b0390f35b610218565b60018060a01b031690565b61121490600861121993026105d3565b6111f9565b90565b906112279154611204565b90565b61123660065f9061121c565b90565b61124290610633565b90565b61124e90611239565b9052565b9190611265905f60208501940190611245565b565b34611297576112773660046105c4565b61129361128261122a565b61128a610212565b91829182611252565b0390f35b610218565b346112dc576112d86112b76112b23660046102da565b61431c565b986112cf9c9a9c989198979297969396959495610212565b9c8d9c8d6104cb565b0390f35b610218565b3461130f576112f96112f436600461025e565b6144ad565b611301610212565b8061130b8161027c565b0390f35b610218565b61131d816104b9565b0361132457565b5f80fd5b9050359061133582611314565b565b6080818303126113785761134d825f83016102cb565b9261137561135e8460208501611328565b9361136c8160408601611328565b93606001611328565b90565b61021c565b346113af57611399611390366004611337565b929190916146d4565b6113a1610212565b806113ab8161027c565b0390f35b610218565b346113e2576113cc6113c736600461025e565b614776565b6113d4610212565b806113de8161027c565b0390f35b610218565b5f80fd5b6113fc906113f7614781565b6114a7565b565b60a01c90565b611410611415916113fe565b610382565b90565b6114229054611404565b90565b5f7f5061757361626c653a2070617573656400000000000000000000000000000000910152565b6114596010602092610ca6565b61146281611425565b0190565b61147b9060208101905f81830391015261144c565b90565b1561148557565b61148d610212565b62461bcd60e51b8152806114a360048201611466565b0390fd5b6114ca906114c56114c06114ba5f611418565b156104b9565b61147e565b611533565b565b6114d590610617565b90565b6114e1906114cc565b90565b5f1b90565b906114fa60018060a01b03916114e4565b9181191691161790565b61150d906114cc565b90565b90565b9061152861152361152f92611504565b611510565b82546114e9565b9055565b61153f611546916114d8565b6005611513565b565b611551906113eb565b565b6115769061157161156c6115665f611418565b156104b9565b61147e565b611620565b565b60207f726d207468697320616374696f6e2e0000000000000000000000000000000000917f4572726f723a204f6e6c792074686520636c69656e742063616e20706572666f5f8201520152565b6115d2602f604092610ca6565b6115db81611578565b0190565b6115f49060208101905f8183039101526115c5565b90565b156115fe57565b611606610212565b62461bcd60e51b81528061161c600482016115df565b0390fd5b61165a906116558161164f6116496116445f61163e33956001610317565b01610351565b61022f565b9161022f565b146115f7565b611b05565b565b90611666906104b9565b9052565b61167460606108bf565b90565b906116c46116bb5f61168761166a565b9461169e61169683830161039c565b83880161165c565b6116b56116ac8383016107a2565b6020880161165c565b016107c9565b6040840161165c565b565b6116cf90611677565b90565b6116dc90516104b9565b90565b6116eb6116f09161032d565b6106a2565b90565b6116fd90546116df565b90565b90565b61171761171261171c92611700565b6102f8565b610224565b90565b61172890611703565b90565b5f7f466f72746552756c6573206d6f64756c65206e6f742073657400000000000000910152565b61175f6019602092610ca6565b6117688161172b565b0190565b6117819060208101905f818303910152611752565b90565b1561178b57565b611793610212565b62461bcd60e51b8152806117a96004820161176c565b0390fd5b60e01b90565b905051906117c082611314565b565b906020828203126117db576117d8915f016117b3565b90565b61021c565b9160206118019294936117fa60408201965f8301906104ac565b01906104ac565b565b61180b610212565b3d5f823e3d90fd5b5f7f52656c6561736520626c6f636b656420627920466f7274652072756c65730000910152565b611847601e602092610ca6565b61185081611813565b0190565b6118699060208101905f81830391015261183a565b90565b1561187357565b61187b610212565b62461bcd60e51b81528061189160048201611854565b0390fd5b6118a16118a69161032d565b6111f9565b90565b6118b39054611895565b90565b5f7f46616c6c6261636b206d6f64756c65206e6f7420736574000000000000000000910152565b6118ea6017602092610ca6565b6118f3816118b6565b0190565b61190c9060208101905f8183039101526118dd565b90565b1561191657565b61191e610212565b62461bcd60e51b815280611934600482016118f7565b0390fd5b5f7f46616c6c6261636b20636f6e646974696f6e206e6f74206d6574000000000000910152565b61196c601a602092610ca6565b61197581611938565b0190565b61198e9060208101905f81830391015261195f565b90565b1561199857565b6119a0610212565b62461bcd60e51b8152806119b660048201611979565b0390fd5b6119c66119cb9161032d565b6105d7565b90565b6119d890546119ba565b90565b5f7f5369676e6174757265206d6f64756c65206e6f74207365740000000000000000910152565b611a0f6018602092610ca6565b611a18816119db565b0190565b611a319060208101905f818303910152611a02565b90565b15611a3b57565b611a43610212565b62461bcd60e51b815280611a5960048201611a1c565b0390fd5b60207f69726d0000000000000000000000000000000000000000000000000000000000917f426f746820636c69656e7420616e6420617274697374206d75737420636f6e665f8201520152565b611ab76023604092610ca6565b611ac081611a5d565b0190565b611ad99060208101905f818303910152611aaa565b90565b15611ae357565b611aeb610212565b62461bcd60e51b815280611b0160048201611ac4565b0390fd5b611b19611b14600a8390610778565b6116c6565b611b306005611b2a60018590610317565b01610375565b611b3b5f83016116d2565b611d16575b611b4c602083016116d2565b611c40575b506040611b5e91016116d2565b611b6e575b611b6c9061491f565b565b611be690611ba8611b87611b8260076119ce565b61063f565b611ba1611b9b611b965f61171f565b61022f565b9161022f565b1415611a34565b6020611bbc611bb760076119ce565b61063f565b632430454390611bdb8492611bcf610212565b968794859384936117ad565b835260048301610a09565b03915afa918215611c3b57611b6c92611c06915f91611c0d575b50611adc565b9050611b63565b611c2e915060203d8111611c34575b611c268183610896565b8101906117c2565b5f611c00565b503d611c1c565b611803565b90611c77611c56611c5160066118a9565b611239565b611c70611c6a611c655f61171f565b61022f565b9161022f565b141561190f565b6020611c8b611c8660066118a9565b611239565b9263f36f43e593611caf869295611cba611ca3610212565b978895869485946117ad565b8452600484016117e0565b03915afa908115611d1157611cdc604092611b5e945f91611ce3575b50611991565b9150611b51565b611d04915060203d8111611d0a575b611cfc8183610896565b8101906117c2565b5f611cd6565b503d611cf2565b611803565b611d4c611d2b611d2660056116f3565b6106e2565b611d45611d3f611d3a5f61171f565b61022f565b9161022f565b1415611784565b611d5e611d5960056116f3565b6106e2565b602063e5dc0b32918590611d848594611d8f611d78610212565b968795869485946117ad565b8452600484016117e0565b03915afa8015611ddd57611daa915f91611daf575b5061186c565b611b40565b611dd0915060203d8111611dd6575b611dc88183610896565b8101906117c2565b5f611da4565b503d611dbe565b611803565b611deb90611553565b565b5f7f4572726f723a2050726f6a65637420646f6573206e6f742065786973742e0000910152565b611e21601e602092610ca6565b611e2a81611ded565b0190565b611e439060208101905f818303910152611e14565b90565b15611e4d57565b611e55610212565b62461bcd60e51b815280611e6b60048201611e2e565b0390fd5b90611eb291611ead611e8c5f611e86846001610317565b01610351565b611ea6611ea0611e9b5f61171f565b61022f565b9161022f565b1415611e46565b611eb4565b565b90611eef91611eea81611ee4611ede611ed95f611ed333956001610317565b01610351565b61022f565b9161022f565b146115f7565b61240d565b565b60207f2066756c6c2072656c6561736500000000000000000000000000000000000000917f4572726f723a2043616e6e6f74206f70656e20646973707574652061667465725f8201520152565b611f4b602d604092610ca6565b611f5481611ef1565b0190565b611f6d9060208101905f818303910152611f3e565b90565b611f84611f7f611f8992611700565b6102f8565b6102b4565b90565b60207f207061727469616c2072656c6561736500000000000000000000000000000000917f4572726f723a2043616e6e6f74206f70656e20646973707574652061667465725f8201520152565b611fe66030604092610ca6565b611fef81611f8c565b0190565b6120089060208101905f818303910152611fd9565b90565b5f7f4572726f723a204469737075746520616c726561647920657869737473000000910152565b61203f601d602092610ca6565b6120488161200b565b0190565b6120619060208101905f818303910152612032565b90565b1561206b57565b612073610212565b62461bcd60e51b8152806120896004820161204c565b0390fd5b61209760806108bf565b90565b906120a49061022f565b9052565b52565b906120b5906102b4565b9052565b906120c390610d0e565b9052565b6120d1905161022f565b90565b6120dd90610633565b90565b90565b906120f86120f36120ff926120d4565b6120e0565b82546114e9565b9055565b5190565b601f602091010490565b1b90565b9190600861213091029161212a5f1984612111565b92612111565b9181191691161790565b90565b919061215361214e61215b936102fb565b61213a565b908354612115565b9055565b5f90565b6121759161216f61215f565b9161213d565b565b5b818110612183575050565b806121905f600193612163565b01612178565b9190601f81116121a6575b505050565b6121b26121d793610b77565b9060206121be84612107565b830193106121df575b6121d090612107565b0190612177565b5f80806121a1565b91506121d0819290506121c7565b906121fd905f19906008026105d3565b191690565b8161220c916121ed565b906002021790565b9061221e81610ca2565b9067ffffffffffffffff82116122de576122428261223c8554610b44565b85612196565b602090601f831160011461227657918091612265935f9261226a575b5050612202565b90555b565b90915001515f8061225e565b601f1983169161228585610b77565b925f5b8181106122c6575091600293918560019694106122ac575b50505002019055612268565b6122bc910151601f8416906121ed565b90555f80806122a0565b91936020600181928787015181550195019201612288565b610882565b906122ed91612214565b565b6122f990516102b4565b90565b906123085f19916114e4565b9181191691161790565b9061232761232261232e926102fb565b61213a565b82546122fc565b9055565b61233c9051610d0e565b90565b9061234b60ff916114e4565b9181191691161790565b61235e90610d0e565b90565b90565b9061237961237461238092612355565b612361565b825461233f565b9055565b906123e1606060036123e7946123a75f82016123a15f88016120c7565b906120e3565b6123c0600182016123ba60208801612103565b906122e3565b6123d9600282016123d3604088016122ef565b90612312565b019201612332565b90612364565b565b906123f391612384565b565b61240a9160208201915f818403910152610cba565b90565b612424600361241e60018490610317565b0161039c565b61254d5761243f600561243960018490610317565b01610375565b61245161244b5f611f70565b916102b4565b1161252b57612488612470600361246a60048590610b1a565b01610c55565b61248261247c5f610d0e565b91610d0e565b14612064565b6124da336124c9846124c0426124b76001936124ae6124a561208d565b975f890161209a565b602087016120a8565b604085016120ab565b606083016120b9565b6124d560048490610b1a565b6123e9565b9033909161252661251461250e7f9b58afa035c5fa58f85c5a54b65bd3562d5aa7679e973bc1404fe25e8babab21936102fb565b936120d4565b9361251d610212565b918291826123f5565b0390a3565b612533610212565b62461bcd60e51b81528061254960048201611ff3565b0390fd5b612555610212565b62461bcd60e51b81528061256b60048201611f58565b0390fd5b9061257991611e6f565b565b612583614781565b61258b61265d565b565b5f7f5061757361626c653a20616c726561647920756e706175736564000000000000910152565b6125c1601a602092610ca6565b6125ca8161258d565b0190565b6125e39060208101905f8183039101526125b4565b90565b156125ed57565b6125f5610212565b62461bcd60e51b81528061260b600482016125ce565b0390fd5b60a01b90565b9061262460ff60a01b9161260f565b9181191691161790565b612637906104b9565b90565b90565b9061265261264d6126599261262e565b61263a565b8254612615565b9055565b61266e6126695f611418565b6125e6565b6126785f5f61263d565b336126af7f5db9ee0a495bf2e6ff9c91a7834c1ba4fdd244a5e8aa4e537bd38aeae4b073aa916126a6610212565b91829182610fcf565b0390a1565b6126bc61257b565b565b6126cf906126ca614c13565b6126d9565b6126d7614c97565b565b61271b906127166126f55f6126ef846001610317565b01610351565b61270f6127096127045f61171f565b61022f565b9161022f565b1415611e46565b61271d565b565b612757906127528161274c6127466127415f61273b33956001610317565b01610351565b61022f565b9161022f565b146115f7565b612a5c565b565b90565b60207f72656c6561736500000000000000000000000000000000000000000000000000917f4572726f723a2043616e6e6f7420726566756e642061667465722066756c6c205f8201520152565b6127b66027604092610ca6565b6127bf8161275c565b0190565b6127d89060208101905f8183039101526127a9565b90565b156127e257565b6127ea610212565b62461bcd60e51b815280612800600482016127c3565b0390fd5b60207f616c2072656c6561736500000000000000000000000000000000000000000000917f4572726f723a2043616e6e6f7420726566756e642061667465722070617274695f8201520152565b61285e602a604092610ca6565b61286781612804565b0190565b6128809060208101905f818303910152612851565b90565b1561288a57565b612892610212565b62461bcd60e51b8152806128a86004820161286b565b0390fd5b5f7f4572726f723a204e6f2066756e647320746f20726566756e6400000000000000910152565b6128e06019602092610ca6565b6128e9816128ac565b0190565b6129029060208101905f8183039101526128d3565b90565b1561290c57565b612914610212565b62461bcd60e51b81528061292a600482016128ed565b0390fd5b61293790610617565b90565b6129439061292e565b90565b61294f90610633565b90565b905090565b6129625f8092612952565b0190565b61296f90612957565b90565b67ffffffffffffffff81116129905761298c602091610878565b0190565b610882565b906129a76129a283612972565b6108bf565b918252565b606090565b3d5f146129cc576129c13d612995565b903d5f602084013e5b565b6129d46129ac565b906129ca565b5f7f5472616e73666572206661696c65640000000000000000000000000000000000910152565b612a0e600f602092610ca6565b612a17816129da565b0190565b612a309060208101905f818303910152612a01565b90565b15612a3a57565b612a42610212565b62461bcd60e51b815280612a5860048201612a1b565b0390fd5b5f80612bcd92612ba7612ba2612a7c612a7760018590610317565b612759565b612a99612a94612a8e6003840161039c565b156104b9565b6127db565b612ac0612aa860058301610375565b612aba612ab488611f70565b916102b4565b14612883565b612ae7612acf60028301610375565b612ae1612adb88611f70565b916102b4565b11612905565b612af360028201610375565b93612b15612b02878401610351565b926002612b0e89611f70565b9101612312565b8082612b56612b447fd1c90c5ed8b35db630851dbe3ec20c8798b71354223bfe5a5527e84103e89d5b926120d4565b92612b4d610212565b91829182610a09565b0390a28185612b857f710864ae79ae7195dbcaa0f79eef4a8f5b490696c2d588a27f4d69ce60ac01fc926120d4565b92612b9a612b91610212565b928392836117e0565b0390a261293a565b612946565b90612bb0610212565b9081612bbb81612966565b03925af1612bc76129b1565b50612a33565b565b612bd8906126be565b565b90612c1d91612c18612bf75f612bf1846001610317565b01610351565b612c11612c0b612c065f61171f565b61022f565b9161022f565b1415611e46565b612c1f565b565b90612c5a91612c5581612c4f612c49612c445f612c3e33956001610317565b01610351565b61022f565b9161022f565b146115f7565b612e4b565b565b5f7f496e76616c69642076616c696461746f7220616464726573732e000000000000910152565b612c90601a602092610ca6565b612c9981612c5c565b0190565b612cb29060208101905f818303910152612c83565b90565b15612cbc57565b612cc4610212565b62461bcd60e51b815280612cda60048201612c9d565b0390fd5b5f7f46756e647320616c72656164792072656c65617365642e000000000000000000910152565b612d126017602092610ca6565b612d1b81612cde565b0190565b612d349060208101905f818303910152612d05565b90565b15612d3e57565b612d46610212565b62461bcd60e51b815280612d5c60048201612d1f565b0390fd5b60207f6c69646174696f6e2e0000000000000000000000000000000000000000000000917f43616e6e6f74206368616e67652076616c696461746f722061667465722076615f8201520152565b612dba6029604092610ca6565b612dc381612d60565b0190565b612ddc9060208101905f818303910152612dad565b90565b15612de657565b612dee610212565b62461bcd60e51b815280612e0460048201612dc7565b0390fd5b60081b90565b90612e21610100600160a81b0391612e08565b9181191691161790565b90612e40612e3b612e47926120d4565b6120e0565b8254612e0e565b9055565b612ecb612e62612e5d60018490610317565b612759565b612e8784612e80612e7a612e755f61171f565b61022f565b9161022f565b1415612cb5565b612ea4612e9f612e996003840161039c565b156104b9565b612d37565b612ec1612ebc612eb6600384016103ea565b156104b9565b612ddf565b6003849101612e2b565b90612f0b612ef97f74c722a7077ba48f1c4a1df3ad9df69eda5ffb9518fedba9bad9596305b8b95e926120d4565b92612f02610212565b91829182610a09565b0390a2565b90612f1a91612bda565b565b612f5e90612f59612f385f612f32846001610317565b01610351565b612f52612f4c612f475f61171f565b61022f565b9161022f565b1415611e46565b613008565b565b60207f6f722063616e20706572666f726d207468697320616374696f6e2e0000000000917f4572726f723a204f6e6c79207468652061737369676e65642076616c696461745f8201520152565b612fba603b604092610ca6565b612fc381612f60565b0190565b612fdc9060208101905f818303910152612fad565b90565b15612fe657565b612fee610212565b62461bcd60e51b81528061300460048201612fc7565b0390fd5b6130439061303e8161303861303261302d600361302733956001610317565b016103c3565b61022f565b9161022f565b14612fdf565b613188565b565b5f7f50726f6a65637420616c72656164792076616c6964617465642e000000000000910152565b613079601a602092610ca6565b61308281613045565b0190565b61309b9060208101905f81830391015261306c565b90565b156130a557565b6130ad610212565b62461bcd60e51b8152806130c360048201613086565b0390fd5b5f7f4e6f2076616c696461746f722061737369676e65642e00000000000000000000910152565b6130fb6016602092610ca6565b613104816130c7565b0190565b61311d9060208101905f8183039101526130ee565b90565b1561312757565b61312f610212565b62461bcd60e51b81528061314560048201613108565b0390fd5b60a81b90565b9061315e60ff60a81b91613149565b9181191691161790565b9061317d6131786131849261262e565b61263a565b825461314f565b9055565b6131b06131ab6131a5600361319f60018690610317565b016103ea565b156104b9565b61309e565b61321f6131c76131c260018490610317565b612759565b6131e46131df6131d96003840161039c565b156104b9565b612d37565b6132146131f3600383016103c3565b61320d6132076132025f61171f565b61022f565b9161022f565b1415613120565b600360019101613168565b3361325f61324d7f84ffc84db0a14dc30a09c96c2dc65081ab5a1f28b1ec2543ec701b04ad161a9d926120d4565b92613256610212565b91829182610a09565b0390a2565b61326d90612f1c565b565b5f90565b61327b61326f565b506132855f611418565b90565b61329990613294614781565b61329b565b565b6132be906132b96132b46132ae5f611418565b156104b9565b61147e565b613307565b565b6132c990610617565b90565b6132d5906132c0565b90565b6132e1906132c0565b90565b90565b906132fc6132f7613303926132d8565b6132e4565b82546114e9565b9055565b61331361331a916132cc565b60076132e7565b565b61332590613288565b565b61332f614781565b613337613339565b565b61334a6133455f61171f565b614cab565b565b613354613327565b565b61336790613362614781565b613369565b565b61338c9061338761338261337c5f611418565b156104b9565b61147e565b6133d5565b565b61339790610617565b90565b6133a39061338e565b90565b6133af9061338e565b90565b90565b906133ca6133c56133d1926133a6565b6133b2565b82546114e9565b9055565b6133e16133e89161339a565b60096133b5565b565b6133f390613356565b565b5f90565b61340561340a9161032d565b610ec4565b90565b61341790546133f9565b90565b6134226133f5565b50613435613430600861340d565b610f04565b61344f6134496134445f61171f565b61022f565b9161022f565b036134615761345e600961340d565b90565b61346b600861340d565b90565b613476614781565b61347e613502565b565b5f7f5061757361626c653a20616c7265616479207061757365640000000000000000910152565b6134b46018602092610ca6565b6134bd81613480565b0190565b6134d69060208101905f8183039101526134a7565b90565b156134e057565b6134e8610212565b62461bcd60e51b8152806134fe600482016134c1565b0390fd5b61351c6135176135115f611418565b156104b9565b6134d9565b61352760015f61263d565b3361355e7f62e78cea01bee320cd4e420270b5ea74000d11b0c9f74754ebdbfc544b05a25891613555610212565b91829182610fcf565b0390a1565b61356b61346e565b565b5f90565b61357961356d565b506135835f610351565b90565b906135aa916135a56135a061359a5f611418565b156104b9565b61147e565b6138f3565b565b5f7f496e76616c696420617274697374206164647265737300000000000000000000910152565b6135e06016602092610ca6565b6135e9816135ac565b0190565b6136029060208101905f8183039101526135d3565b90565b1561360c57565b613614610212565b62461bcd60e51b81528061362a600482016135ed565b0390fd5b5f7f416d6f756e74206d757374206265203e20300000000000000000000000000000910152565b6136626012602092610ca6565b61366b8161362e565b0190565b6136849060208101905f818303910152613655565b90565b1561368e57565b613696610212565b62461bcd60e51b8152806136ac6004820161366f565b0390fd5b60207f7468616e207a65726f0000000000000000000000000000000000000000000000917f4d696c6573746f6e6520636f756e74206d7573742062652067726561746572205f8201520152565b61370a6029604092610ca6565b613713816136b0565b0190565b61372c9060208101905f8183039101526136fd565b90565b1561373657565b61373e610212565b62461bcd60e51b81528061375460048201613717565b0390fd5b6137636101806108bf565b90565b9061377b6137766137829261262e565b61263a565b825461233f565b9055565b906138af61016060096138b5946137aa5f82016137a45f88016120c7565b906120e3565b6137c3600182016137bd602088016120c7565b906120e3565b6137dc600282016137d6604088016122ef565b90612312565b6137f5600382016137ef606088016116d2565b90613766565b61380e60038201613808608088016120c7565b90612e2b565b6138276003820161382160a088016116d2565b90613168565b6138406004820161383a60c088016122ef565b90612312565b6138596005820161385360e088016122ef565b90612312565b6138736006820161386d61010088016116d2565b90613766565b61388d6007820161388761012088016122ef565b90612312565b6138a7600882016138a161014088016116d2565b90613766565b0192016122ef565b90612312565b565b906138c191613786565b565b634e487b7160e01b5f52601160045260245ffd5b6138e0906102b4565b5f1981146138ee5760010190565b6138c3565b90815f6138ff9061171f565b6139089061022f565b906139129061022f565b141561391d90613605565b345f61392890611f70565b90613932906102b4565b1161393c90613687565b805f61394790611f70565b90613951906102b4565b1161395b9061372f565b6139656002610375565b903390839034905f905f6139789061171f565b905f905f915f935f955f97429961398d613758565b9b5f8d019061399b9161209a565b60208c01906139a99161209a565b60408b01906139b7916120ab565b60608a01906139c59161165c565b60808901906139d39161209a565b60a08801906139e19161165c565b60c08701906139ef916120ab565b6139f890611f70565b60e0860190613a06916120ab565b610100850190613a159161165c565b613a1e90611f70565b610120840190613a2d916120ab565b610140830190613a3c9161165c565b610160820190613a4b916120ab565b600182613a5791610317565b90613a61916138b7565b613a6b6002610375565b613a74906138d7565b613a7f906002612312565b903334927f862dfcd9710943e66ad8f1f01a99cc98ab5612a09e62ecc68f63fe2e0f86cb0e91613aae906120d4565b92613ab8906120d4565b93613ac1610212565b918291613ace91836117e0565b0390a3565b90613add91613586565b565b613af090613aeb614c13565b613afa565b613af8614c97565b565b613b3c90613b37613b165f613b10846001610317565b01610351565b613b30613b2a613b255f61171f565b61022f565b9161022f565b1415611e46565b613cd0565b565b60207f206265666f72652072656c656173696e672066756e6473000000000000000000917f4572726f723a2050726f6a656374206d7573742062652076616c6964617465645f8201520152565b613b986037604092610ca6565b613ba181613b3e565b0190565b613bba9060208101905f818303910152613b8b565b90565b15613bc457565b613bcc610212565b62461bcd60e51b815280613be260048201613ba5565b0390fd5b5f7f4572726f723a20416c6c206d696c6573746f6e657320706169642e0000000000910152565b613c1a601b602092610ca6565b613c2381613be6565b0190565b613c3c9060208101905f818303910152613c0d565b90565b15613c4657565b613c4e610212565b62461bcd60e51b815280613c6460048201613c27565b0390fd5b634e487b7160e01b5f52601260045260245ffd5b613c88613c8e916102b4565b916102b4565b908115613c99570490565b613c68565b604090613cc7613cce9496959396613cbd60608401985f8501906104ac565b60208301906104ac565b01906104ac565b565b613ce4613cdf60018390610317565b612759565b90613cf9613cf4600384016103ea565b613bbd565b613d2b613d0860058401610375565b613d25613d1f613d1a60048701610375565b6102b4565b916102b4565b10613c3f565b613d4c613d3a60028401610375565b613d4660048501610375565b90613c7c565b613d6a60058401613d64613d5f82610375565b6138d7565b90612312565b613d7660058401610375565b613d93613d8d613d8860048701610375565b6102b4565b916102b4565b149081613e96575b613de25f80613dbc613db7613db260018a01610351565b61293a565b612946565b84613dc5610212565b9081613dd081612966565b03925af1613ddc6129b1565b50612a33565b8290613df060058601610375565b9091613e287fd33fcd27cbfb73a2d9058c968b560ccb306500bf536133802048489ecc7355e993613e1f610212565b93849384613c9e565b0390a1613e34575b5050565b90613e4d6002613e4660018401610351565b9201610375565b613e777f6e3c6096795c8298a218b2cfb8bde42726ff7c9a3d27b4d3ba41ab7f74feb5fb926120d4565b92613e8c613e83610212565b928392836117e0565b0390a25f80613e30565b613ea4600160038601613766565b613d9b565b613eb290613adf565b565b613ebf9060086133b5565b565b90613ee69291613ee1613edc613ed65f611418565b156104b9565b61147e565b613f6a565b565b5f7f50726f6a65637420616c72656164792065786973747300000000000000000000910152565b613f1c6016602092610ca6565b613f2581613ee8565b0190565b613f3e9060208101905f818303910152613f0f565b90565b15613f4857565b613f50610212565b62461bcd60e51b815280613f6660048201613f29565b0390fd5b9091600182613f7891610317565b5f01613f8390610351565b5f613f8d9061171f565b613f969061022f565b90613fa09061022f565b14613faa90613f41565b3392905f905f905f613fbb9061171f565b905f905f915f935f955f974299613fd0613758565b9c5f8e0190613fde9161209a565b613fe790612946565b60208d0190613ff59161209a565b613ffe90611f70565b60408c019061400c916120ab565b60608b019061401a9161165c565b60808a01906140289161209a565b60a08901906140369161165c565b60c0880190614044916120ab565b61404d90611f70565b60e087019061405b916120ab565b61010086019061406a9161165c565b61407390611f70565b610120850190614082916120ab565b6101408401906140919161165c565b6101608301906140a0916120ab565b6001906140ac91610317565b906140b6916138b7565b6140c06002610375565b6140c9906138d7565b6140d4906002612312565b565b906140e19291613ec1565b565b606090565b5f90565b6140f660806108bf565b90565b90614160614157600361410a6140ec565b946141216141195f8301610351565b5f880161209a565b61413961413060018301610c19565b602088016120a8565b61415161414860028301610375565b604088016120ab565b01610c55565b606084016120b9565b565b61416b906140f9565b90565b6141a06141a59161417d61356d565b506141866140e3565b5061418f61215f565b506141986140e8565b506004610b1a565b614162565b6141b05f82016120c7565b6020820151926141ce60606141c7604086016122ef565b9401612332565b9193929190565b6141e06101806108bf565b90565b9061430e61430460096141f46141d5565b9461420b6142035f8301610351565b5f880161209a565b61422361421a60018301610351565b6020880161209a565b61423b61423260028301610375565b604088016120ab565b61425361424a6003830161039c565b6060880161165c565b61426b614262600383016103c3565b6080880161209a565b61428361427a600383016103ea565b60a0880161165c565b61429b61429260048301610375565b60c088016120ab565b6142b36142aa60058301610375565b60e088016120ab565b6142cc6142c26006830161039c565b610100880161165c565b6142e56142db60078301610375565b61012088016120ab565b6142fe6142f46008830161039c565b610140880161165c565b01610375565b61016084016120ab565b565b614319906141e3565b90565b61439661439b9161432b61356d565b5061433461356d565b5061433d61215f565b5061434661326f565b5061434f61356d565b5061435861326f565b5061436161215f565b5061436a61215f565b5061437361326f565b5061437c61215f565b5061438561326f565b5061438e61215f565b506001610317565b614310565b906143a75f83016120c7565b906143b4602084016120c7565b926143c1604082016122ef565b926143ce606083016116d2565b926143db608084016120c7565b926143e860a082016116d2565b926143f560c083016122ef565b9261440260e084016122ef565b9261441061010082016116d2565b9261441e61012083016122ef565b9261443961016061443261014086016116d2565b94016122ef565b919b9a99989796959493929190565b61445990614454614781565b61445b565b565b8061447661447061446b5f61171f565b61022f565b9161022f565b146144865761448490614cab565b565b6144a96144925f61171f565b5f918291631e4fbdf760e01b835260048301610fcf565b0390fd5b6144b690614448565b565b906144de9392916144d96144d46144ce5f611418565b156104b9565b61147e565b614660565b565b60207f7400000000000000000000000000000000000000000000000000000000000000917f4f6e6c7920636c69656e742063616e20636f6e6669677572652070726f6a65635f8201520152565b61453a6021604092610ca6565b614543816144e0565b0190565b61455c9060208101905f81830391015261452d565b90565b1561456657565b61456e610212565b62461bcd60e51b81528061458460048201614547565b0390fd5b61459260606108bf565b90565b906145a261ff0091612e08565b9181191691161790565b906145c16145bc6145c89261262e565b61263a565b8254614595565b9055565b60101b90565b906145e062ff0000916145cc565b9181191691161790565b906145ff6145fa6146069261262e565b61263a565b82546145d2565b9055565b9061464c60405f6146529461462c8282016146268488016116d2565b90613766565b61464482820161463e602088016116d2565b906145ac565b0192016116d2565b906145ea565b565b9061465e9161460a565b565b6146c66146d2946146bd6146cd9461469f3361469961469361468e5f61468860018c90610317565b01610351565b61022f565b9161022f565b1461455f565b956146b46146ab614588565b975f890161165c565b6020870161165c565b6040850161165c565b600a610778565b614654565b565b906146e09392916144b8565b565b6146f3906146ee614781565b6146f5565b565b6147189061471361470e6147085f611418565b156104b9565b61147e565b614761565b565b61472390610617565b90565b61472f9061471a565b90565b61473b9061471a565b90565b90565b9061475661475161475d92614732565b61473e565b82546114e9565b9055565b61476d61477491614726565b6006614741565b565b61477f906146e2565b565b614789613571565b6147a261479c614797614d0a565b61022f565b9161022f565b036147a957565b6147cb6147b4614d0a565b5f91829163118cdaa760e01b835260048301610fcf565b0390fd5b905051906147dc826102b7565b565b906020828203126147f7576147f4915f016147cf565b90565b61021c565b90565b61481361480e614818926147fc565b6102f8565b6102b4565b90565b5f7f507269636520746f6f206c6f7700000000000000000000000000000000000000910152565b61484f600d602092610ca6565b6148588161481b565b0190565b6148719060208101905f818303910152614842565b90565b1561487b57565b614883610212565b62461bcd60e51b8152806148996004820161485c565b0390fd5b5f7f5472616e73666572206661696c65642e00000000000000000000000000000000910152565b6148d16010602092610ca6565b6148da8161489d565b0190565b6148f39060208101905f8183039101526148c4565b90565b156148fd57565b614905610212565b62461bcd60e51b81528061491b600482016148de565b0390fd5b61493361492e60018390610317565b612759565b90614949614943600384016103ea565b156104b9565b614bc55761495960058301610375565b61497661497061496b60048601610375565b6102b4565b916102b4565b1015614ba3576149a7602061499161498c61341a565b610f04565b638e15f4739061499f610212565b9384926117ad565b825281806149b76004820161027c565b03915afa8015614b9e576149e8915f91614b70575b506149e16149db6103e86147ff565b916102b4565b1015614874565b614a096149f760028401610375565b614a0360048501610375565b90613c7c565b614a2760058401614a21614a1c82610375565b6138d7565b90612312565b614a3360058401610375565b614a50614a4a614a4560048701610375565b6102b4565b916102b4565b14614b5d575b614a9d5f80614a77614a72614a6d60018901610351565b61293a565b612946565b84614a80610212565b9081614a8b81612966565b03925af1614a976129b1565b506148f6565b8190614aab60058501610375565b9091614ae37fd33fcd27cbfb73a2d9058c968b560ccb306500bf536133802048489ecc7355e993614ada610212565b93849384613c9e565b0390a1614af26003830161039c565b614afb575b5050565b90614b146002614b0d60018401610351565b9201610375565b614b3e7f6e3c6096795c8298a218b2cfb8bde42726ff7c9a3d27b4d3ba41ab7f74feb5fb926120d4565b92614b53614b4a610212565b928392836117e0565b0390a25f80614af7565b614b6b600160038501613766565b614a56565b614b91915060203d8111614b97575b614b898183610896565b8101906147de565b5f6149cc565b503d614b7f565b611803565b614bab610212565b62461bcd60e51b815280614bc160048201613c27565b0390fd5b614bcd610212565b62461bcd60e51b815280614be360048201613ba5565b0390fd5b90565b614bfe614bf9614c0392614be7565b6102f8565b6102b4565b90565b614c106002614bea565b90565b614c1d6003610375565b614c36614c30614c2b614c06565b6102b4565b916102b4565b14614c4f57614c4d614c46614c06565b6003612312565b565b5f633ee5aeb560e01b815280614c676004820161027c565b0390fd5b90565b614c82614c7d614c8792614c6b565b6102f8565b6102b4565b90565b614c946001614c6e565b90565b614ca9614ca2614c8a565b6003612312565b565b614cb45f610351565b614cbe825f6120e3565b90614cf2614cec7f8be0079c531659141344cd1fd0a4f28419497f9722a3daafe3b4186f6b6457e0936120d4565b916120d4565b91614cfb610212565b80614d058161027c565b0390a3565b614d1261356d565b50339056fea2646970667358221220b75d52875a1e2a4699fbb7857bc2183491d15e088851ade6d0b75956ad9ad13964736f6c634300081c0033","linkReferences":{}},"methodIdentifiers":{"addValidator(uint256,address)":"4b561753","createProject(uint256,address,uint256)":"e1e7cf84","depositFunds(address,uint256)":"921b004b","disputes(uint256)":"564a565d","fallbackModule()":"efa04726","forteRules()":"216a6313","getDispute(uint256)":"e3a96cbd","getOracle()":"833b1fce","getProject(uint256)":"f0f3f2c8","openDispute(uint256,string)":"36f691c4","oracle()":"7dc0d1d0","owner()":"8da5cb5b","pause()":"8456cb59","paused()":"5c975abb","projectConfigs(uint256)":"31e709dc","projectCount()":"36fbad26","projects(uint256)":"107046bd","refundClient(uint256)":"43eed51c","releaseAfterEvent(uint256)":"cbcbc305","releaseMilestone(uint256)":"317debf5","renounceOwnership()":"715018a6","setFallbackModule(address)":"f8ec8b30","setForteRulesModule(address)":"0d01e5ef","setOracle(address)":"7adbf973","setOracleOverride(address)":"d23d4222","setProjectConfig(uint256,bool,bool,bool)":"f6ce28bd","setSignatureModule(address)":"68f98317","signatureModule()":"117159ca","transferOwnership(address)":"f2fde38b","unpause()":"3f4ba83a","validateProject(uint256)":"57021469"},"id":0}